S02B000052413854325F4D43494C56315F3253504D5F4C4553535F464F435F4532535F563130312E73726563DF
S31502000000A0040022F56C0002CD6B0002F16C000226
S31502000010F16C0002F16C0002F16C0002F16C00025C
S31502000020000000000000000000000000F16C000269
S31502000030F16C000200000000F16C0002F16C00029B
S31502000040494B0002D55C0002816600022D67000260
S31502000050DD6700021D680002494B0002D55C000202
S3150200006001010000040000006666A63FC364AA3AC6
S31502000070C364AA3A4356373C670576360000964370
S315020000800000803F040000006666A63FC364AA3AE9
S31502000090C364AA3A4356373C670576360000964350
S315020000A00000803F4800002200000000F4170022F2
S315020000B05C180022C41800220000000000000000A4
S315020000C00000000000000000000000000000000028
S315020000D00000000000000000000000000000000018
S315020000E00000000000000000000000000000000008
S309020000F00000000004
S315020000F80348044B834202D0034B03B118477047A7
S31502000108940000229400002200000000064B0749D2
S31502000118C91A891048BF0131491003D0044B0BB1E3
S3150200012801481847704700BF940000229400002235
S315020001380000000010B5064C237843B9FFF7D8FF34
S31502000148044B13B10448AFF300800123237010BD9A
S31502000158D0040022000000006000000208B5054B2A
S315020001681BB105490548AFF30080BDE80840FFF713
S31502000178CDBF00BF00000000D404002260000002C8
S315020001882DE9F04F054BDFF818A01A789AF80030D7
S315020001989DB09A4206D01DB0BDE8F08F090500222F
S315020001A808050022C04AC14B1288D3ED007A00EE38
S315020001B8102AB8EE400AB4EEE70AF1EE10FABC4A83
S315020001C812681268009240F1EB8283ED000AB94B7D
S315020001D8DFF888831B689A6818689369984798F8BD
S315020001E80030012B40F2F68200230122B24DB34EB3
S315020001F888F8003032702B70B14BB24C1B88B24F64
S3150200020800EE103ADFEDB15AB8EE400A94ED005A04
S31502000218D7ED007A20EE050A67EEA57A9FEDAC6A5D
S3150200022820EE270ADFEDAB6A20EE060AAA4B20EE7D
S31502000238260A93ED007AB4EEC70AF1EE407AF1EE99
S3150200024810FAA649A64A81ED000AC2ED007A00F123
S31502000258A482F4EEC77AF1EE10FAC6BFC3ED007AAD
S31502000268B0EE670AB0EE470ADFF8F492D9F8003022
S315020002789A6818685369984798F8001099480129A6
S3150200028814BF4FF0000C4FF0010C80F800C014BFE9
S3150200029801200020D9F80030934A10709A6818682D
S315020002A893699847914B1B8800EE103A904BB8EE2B
S315020002B8400AD3ED007AB4EEE70AF1EE10FA00F13D
S315020002C87A82B1EE400AF4EEC07AF1EE10FA00F143
S315020002D87282B0EE670A874BDFF888821B689A68D3
S315020002E818689369984798F80030012B05D90023B6
S315020002F8012288F8003032702B707F4BDFF868B223
S315020003081B88DFED725A00EE103A7C4BB8EE400AB3
S31502000318D3ED007A9BED005A67EEA57A20EE050A20
S315020003289FED6B6A20EE270ADFED6A6A20EE060A5F
S31502000338734B20EE260A93ED007AB4EEC70AF1EE65
S31502000348407AF1EE10FA6F496F4A81ED000AC2ED62
S31502000358007A40F1338283ED000ADFF81092D9F869
S3150200036800309A6818685369984798F80010D9F8BF
S315020003780030012914BF00220122327014BF012263
S3150200038800222A709A681868936998475F4BDFEDCE
S31502000398602AD3ED007A5F4BB7EE083AD3ED003AFE
S315020003A85D4B67EEA27A93ED004A5C4B67EE837A61
S315020003B8D3ED004A424B64EE844A1A88584B07EE3C
S315020003C8102A93ED005A574BB8EEC77AD3ED005A66
S315020003D8554B63EE873A93ED006A544B65EE875A9E
S315020003E8D3ED006A26EE076A25EE045A26EE877AC8
S315020003F84F4BDFF87CC119684E4BD7F800E01D68F1
S315020004084D4B4E4F1868DCF800304D4E18933B683A
S31502000418DFF86081199333681A934A4B98674A48FA
S31502000428C3ED023A83ED0F4AC3ED0C4A83ED0D5A2A
S31502000438C3ED125A83ED136A83ED047AC0ED007A8E
S31502000448C3F81CE05D67A3F89420816021683F48E1
S315020004581B919DED187F016883ED267FC3F8A810CE
S315020004683B493C48CB6BDFF810E11A80D6ED007A9F
S31502000478CB6BDCF80020D0F800905A60009B3A68F3
S3150200048803F12405CB6B02959A60CD6B2F48C5ED17
S31502000498037AD4ED007ACD6B2F4BC5ED047AD0EDF5
S315020004A8007ACD6B6AE000BFDE0B0022EC05002263
S315020004B8F4040022700B002200000022D605002256
S315020004C8D4050022C40500227C050022D7B3DD3FED
S315020004D8CDCC8C3F00007A44E8050022F4050022C0
S315020004E8F0050022D705002201000022DC0B0022BB
S315020004F870050022380900226C0500221405002224
S31502000508E4050022DC050022D80500228005002227
S31502000518F304B53F780500229C05002298050022BF
S3150200052894050022900500228C05002288050022E7
S3150200053884050022B4050022B0050022CC0500225B
S31502000548C8050022800A0022480B0022C0050022A4
S31502000558280A0022BC05002248080022E1050022DA
S3150200056804050022E00500225C050022000500229F
S31502000578D0050022AC050022B8050022974AC5ED2F
S31502000588057A0D6CC5F80090954DDEF80090D8F8FE
S315020005980080D5F800E0096C924DC1F80490CDF8B8
S315020005A85080CDF854E094ED007A8DED017A95ED00
S315020005B8007A8DED037A9DED017A8B498B4CD1ED4C
S315020005C8007A8B492488D1F800808A49D6F80090A7
S315020005D8D1F800E0DCF800C001683F688648874D1C
S315020005E8874E04832D6836688DED137ACDF85CE064
S315020005F8CDF840C01197CDF85880CDF848909DEDBA
S31502000608105F9DED141F80ED075F80ED011FC1622B
S31502000618009867EEA27A0484029C67EE837A84EDD8
S31502000628005F9DED037A80ED0E7A4163754C76493B
S31502000638764F08883168C4ED007A07EE100AA5607D
S31502000648734CB8EEC77AD4ED004A724C64EE874A08
S3150200065894ED004A704C714D94ED005A704C25EE9B
S31502000668045AD4ED005A6F4C65EE845A94ED006A2A
S315020006786D4C26EE076AD4ED006A6C4C66EE876A04
S31502000688D4ED007A67EE877A2D68694C694E24683C
S315020006985D67694D3668DC612C689E67674E83ED37
S315020006A80F4AA3F894000C943468C3ED024A83ED0A
S315020006B80C5AC3ED0D5A83ED126AC3ED136AC3EDE4
S315020006C8047A0D943C6801F1240E0E94DBF800407E
S315020006D80F949DED0C7F5A4C83ED267F2468C3F850
S315020006E8A840D36B1880574B2C681868D36B3568AB
S315020006F85C60D36B3E689D60D36BDBF80070DE608E
S31502000708D36B4F4C1F61D4F800C0D36B4E4CC3F861
S3150200071814C0136C4FF0010C18604C48126C036835
S315020007284B48536003684B48444E02684A4825685A
S315020007380068089309920A900B959DED087F474831
S315020007483D4D80ED007F314F4548464C2E4A80F894
S3150200075800C01288D4F800C02868434C3568384B64
S315020007683E68DBF800701B6822830490059506969E
S3150200077807979DED047FE3624B639AF8003084ED98
S31502000788077F83F0010381ED097F0A84C1F838C027
S315020007988AF800301DB0BDE8F08F83ED000A63E5E4
S315020007A8B1EE400AF4EEC07AF1EE10FA3FF50DAD5D
S315020007B8B0EE670A0BE583ED000A8CE5F4EEC77A1C
S315020007C8F1EE10FAC6BFC3ED007AB0EE670AB0EED4
S315020007D8470AC2E5254D264E0EE500BFF007002260
S315020007E8A80500227405002218050022D405002255
S315020007F8A4050022A0050022EC0900221C050022FD
S31502000808F0040022100900226C050022600500226D
S315020008181005002234050022300500224C0500226C
S315020008282C05002228050022240500222005002284
S3150200083814050022480500226805002264050022E4
S3150200084858050022540500223805002250050022C8
S3150200085844050022400500223C050022B807002272
S31502000868EC0400220C050022B40700220000002234
S31502000878D605002200232DE9F04F9749974E0F68B7
S31502000888974C37604E689749974A0E60656897494C
S3150200089816680D60964952680E609649964C0A602B
S315020008A8964A646813709649964A0C601370002833
S315020008B800F09180012840F08C80934B9349B3F85D
S315020008C89420D1ED005A07EE902A9FED917AF8EE20
S315020008D8E77A93ED026AC5EE876A86EE277A8D4D28
S315020008E8D3F89C602A808C4A2068D3F8A0C0166088
S315020008F88A4AD3F8A460C2F800C0894AD3F8A85035
S315020009081660884A806B1560874AD3F89870C2EDDC
S31502000918006A864A864C10608648874A80ED007AC5
S3150200092893ED1D7A2760DD69844C106CDFF89C9282
S315020009382560D0F804B0006889ED007A93ED1E7A36
S315020009487F4ADFF88C82DFF88CC288ED007A92ED56
S31502000958017ADFF884A2DFF884E2CCF800008EED93
S31502000968007ACAF800B0906893ED0F7AD3ED125A5E
S3150200097893ED136AD3ED046A93ED0C4AD3ED0D4A4F
S3150200098885EEA75AC6EE275A86EEA76AC4EE076A06
S31502000998C4EE877A6B4F13696B4ED1F808C038607C
S315020009A86A4DD7686A4A3760C2F800C02B60694C3C
S315020009B869486A496A4E6B4A6B4B86ED007A84ED42
S315020009C8005AC0ED005A81ED006AC2ED006AC3ED15
S315020009D8007ABDE8F08F654B6549B3F89420D1EDEE
S315020009E8005A07EE902A9FED4A7AF8EEE77A93EDD7
S315020009F8026AC5EE876A86EE277A28685D4DD3F8BD
S31502000A089C602A805C4AD3F8A0C016605B4AD3F879
S31502000A18A460C2F800C05A4AD3F8A8501660594AC8
S31502000A28806B1560584AD3F89870C2ED006A574A27
S31502000A38574C10605748584A80ED007A93ED1D7A54
S31502000A482760DD69554C106CDFF894912560D0F863
S31502000A5804B0006889ED007A93ED1E7A504ADFF8F1
S31502000A688481DFF884C188ED007A92ED017ADFF895
S31502000A787CA1DFF87CE1CCF800008EED007ACAF89A
S31502000A8800B0906893ED0F7AD3ED125A93ED136A7C
S31502000A98D3ED046A93ED0C4AD3ED0D4A414F13691F
S31502000AA8414ED1F808C03860404DD768404A85EEB5
S31502000AB8A75AC2F800C0C6EE275A376086EEA76A5A
S31502000AC82B60C4EE076AC4EE877A3A4C3A483B4929
S31502000AD83B4E3C4A3C4B70E75C0B00220405002265
S31502000AE86C0A0022FC04002224090022F4040022D3
S31502000AF800050022F8040022340800220805002214
S31502000B08F0040022090500224808002210090022E2
S31502000B18B6C307406C050022640500226005002260
S31502000B285C05002258050022180500220C05002241
S31502000B386805002210050022F0070022140500228B
S31502000B48B4070022400500223C050022380500228F
S31502000B581C05002228050022240500222005002261
S31502000B6834050022300500222C050022800A0022C4
S31502000B78480B0022D4050022CC050022C805002213
S31502000B88C4050022C0050022800500227405002241
S31502000B98D005002278050022280A00227C050022B8
S31502000BA8EC090022A8050022A4050022A0050022BD
S31502000BB884050022900500228C0500228805002261
S31502000BC89C05002298050022940500224C05002265
S31502000BD84805002254050022500500224405002239
S31502000BE8B4050022B0050022BC050022B805002281
S31502000BF8AC0500222DE9F84FDFF8ACB0FFF7C0FAD2
S31502000C089BF800300133DBB2042B8BF800304DD849
S31502000C18184C2378012B2BD1174B18491B689A6855
S31502000C281868D36A9847164B16491B689A68186853
S31502000C38D36A9847144B15491B689A681868936BC8
S31502000C489847134B13491B689A681868D36A9847DA
S31502000C58114B12491B689A681868D36A9847104B51
S31502000C6810491B689A681868936B98470023237083
S31502000C78BDE8F88FEC040022040500222C0B0022A2
S31502000C88FC0400226C0A0022F4040022200A002234
S31502000C9800050022F4080022F80400223408002283
S31502000CA8F0040022E8070022000700229B4B9C4A18
S31502000CB81B689C491B681268D3ED117A1D6909687D
S31502000CC89948126809685C6A056098485D69046013
S31502000CD897489C6A056097489D6904609648DC694E
S31502000CE8056096481D6A04609548D3F8F440056085
S31502000CF894489D6804609448DC6805609348DD6BF7
S31502000D08046093481C6C05609248DFF820A30460CF
S31502000D189148DFF81C93C0ED007AD3ED0C7ACAED40
S31502000D28007AD3F86CA0DFF80C83C9F800A0D3F8D0
S31502000D387090DFF804C3C8F80090D3F88080D3F81F
S31502000D488430864FCCF800308B69854E3B600B6F3A
S31502000D58844D33604B6F844C2B60CB798348237068
S31502000D680B7ADFF8D8E203704B798149CEF8008016
S31502000D780B70D2F804E07F4BD2F808C0C3F800E043
S31502000D887D4B1769C3F800C07C4B56691F60D56B4B
S31502000D987B497C4B0E601D60156C7B4B916D1D600B
S31502000DA87A4BD46D19607A4B506F1C60926F794BEF
S31502000DB879491A60794B0860DC6BDFED796A248819
S31502000DC867EEA67A07EE104AB8EE477A87EE876A82
S31502000DD87448754B80ED006A1B68744A1B68116873
S31502000DE8D3ED047A724ADFF858A2126809681268C3
S31502000DF8DFF85092CAED007AD3F824A0DFF84882C9
S31502000E08C9F800A0D3F81490DFF840E2C8F80090B9
S31502000E18D3F82880DFF838C2CEF80080D3F818E075
S31502000E28644FCCF800E0D3F81CC0634EC7F800C084
S31502000E381F6A624D3760D3ED0C7A614EC5ED007AB2
S31502000E48D3F8F4505F4835609D685F4E5F4C356055
S31502000E58DD685F4EDFF8FCA13560DD6B5D4E67EE3F
S31502000E68A67A35601D6C5C4E35605D6C5B4E3560EE
S31502000E78DD6E5B4E35601D6F5A4E3560D3F8805075
S31502000E88594ED3F884303560584D2B608B69584DCE
S31502000E982B600B6F574D2B60CB79574D2B700B7A06
S31502000EA8564D2B704B79564D2B704B6F5549D2F8D0
S31502000EB814E00B609368D2F83CC00360524B176C7F
S31502000EC8C3F800E0514B916DC3F800C0504BD66D84
S31502000ED81F60504BD2F8048019604F4BD2F810901D
S31502000EE81E60556F4D4B926F4D491A604D4B0D6002
S31502000EF8D96BCAF80090C4F800800988002207EE68
S31502000F08101AB8EE477AC7EE876A474B8BF8002065
S31502000F18C3ED006A06F04AFA7AE600BFFC0400222C
S31502000F28F404002204050022FC060022F806002228
S31502000F38F4060022F0060022EC060022E806002249
S31502000F48E4060022E0060022DC060022D806002279
S31502000F58D4060022D0060022CC060022B4060022BD
S31502000F68AC060022A8060022B2060022B10600221A
S31502000F78B0060022C8060022C4060022C0060022C5
S31502000F88BC06002294060022900600228C06002245
S31502000F98880600228006002284060022280A0022E9
S31502000FA8EBC918417C060022F8040022000500223B
S31502000FB8F00400226406002260060022340600229B
S31502000FC85C06002240060022580600224406002239
S31502000FD854060022500600224C0600224806002229
S31502000FE8200600221C0600221806002214060022E9
S31502000FF830060022280600222E0600222D0600228E
S315020010082C06002224060022380600221006002298
S315020010180C0600220806002204060022FC0500220D
S3150200102800060022F0070022F8050022B806002270
S31502001038A4060022A0060022980600229C06002288
S315020010487806002274060022700600226C06002228
S31502001058680600223C060022012A06D081420BD0ED
S3150200106800220E4B1A700020704781420CD00022D3
S315020010780B4B00201A707047084A13780133DBB20B
S315020010880A2B07D81370EEE7054A13780133DBB249
S315020010980A2BF7D90023012013707047750B00221B
S315020010A8740B00222DE9F041044608B32F4BDFF8F2
S315020010B8E4801D682E4E2F4F32783B789A420BD029
S315020010C8032B13D8012B33703CD0032B1FD01BB92B
S315020010D8AB682868DB689847AB6841461B6A28688C
S315020010E898473378032B09D0BDE8F0813A70F3E7C5
S315020010F8214BDFF88C801D68204EDCE798F800301B
S3150200110853B1022B04BF33703B70BDE8F081AB6864
S3150200111828681B699847DFE7012C18D001224FF48B
S3150200112816651749174E0B70144917480B7017495D
S3150200113832700A70164A058013702046BDE8F041DF
S31502001148FFF798BBAB6828689B689847C4E74FF4D3
S31502001158166107480F4D03700F482B7004700F4A2B
S315020011680F4D10482C7003701180E6E738090022EB
S31502001178E00B0022E40B0022700B0022E10B002296
S31502001188E80B0022770B0022DE0B0022DB0B002283
S31502001198E30B0022E70B0022760B0022DC0B00226F
S315020011A8DA0B0022E20B002210B52DED028B38BBBA
S315020011B8234A244B12881B6808EE102A224CB8EEE2
S315020011C8488A9FED227ADFED227A38EE478A9FED2A
S315020011D8210A28EE278AB4EEC08AF1EE10FA9A6836
S315020011E81868936928D9DFED1C7AB4EEE78AF1EE1E
S315020011F810FA0DDB984700232370BDEC028B10BD55
S31502001208164A174B12881B6808EE102A154CD6E7A1
S31502001218B1EE480A9847DFED147AB4EEE78AF1EEA2
S3150200122810FAE8D5DFED117AB4EEE78AF1EE10FA94
S31502001238CCBF01230023DFE79FED070ADAE700BFE9
S31502001248D40B0022700B0022DB0B002200E0FF44C5
S31502001258C5499C3F000016C500001645D20B002260
S3150200126838090022DA0B00220000C8430000C8C36E
S31502001278012838B504460D4622D002280AD080BB7A
S31502001288012979D10A4640484FF4106103F0B2FCAD
S315020012982A4608E001295BD10A463B484FF4106109
S315020012A803F0A8FC002240F20951374803F0A2FCD9
S315020012B82A46BDE8384040F20A51334803F09ABC40
S315020012C801294FF0000236D14FF410612E4803F07F
S315020012D891FC2A46BDE8384040F209512A4803F0F3
S315020012E889BC01294FF0000212D14FF41061264839
S315020012F803F080FC002240F20951234803F07AFCED
S31502001308BDE83840002240F20A511F4803F072BC79
S3150200131840F20E611C4803F06DFC002240F60F21D4
S31502001328194803F067FCBDE83840002240F604215C
S31502001338154803F05FBC40F20E61134803F05AFCED
S315020013482246BDE8384040F60F210F4803F052BC4A
S31502001358012240F20E610C4803F04CFC002240F6D2
S315020013680F21094803F046FCBDE83840012240F641
S315020013780421054803F03EBC012240F20E610248F0
S3150200138803F038FC0122EAE7EC0B0022F0B504462A
S3150200139883B0002834D0574B574E1D683146AB6888
S315020013A828681B6A98473378002B5ED0012B67D0D2
S315020013B8022B58D140F6011150480DF1070203F0ED
S315020013C8EFFB9DF80730002B4DD140F20D314B480B
S315020013D80DF1070203F0E4FB494E33789DF80770D6
S315020013E8012B7BD0002B3ED1012122463846FFF73E
S315020013F833FE884237D13070AB6828681B6923E010
S31502001408404B414E1D683146AB6828681B6A9847AF
S315020014183378012B4ED0022B1AD023BB4FF420610E
S3150200142836480DF1070203F0BBFB384E9DF807005C
S3150200143801212246FFF710FE884214D133788B42E7
S3150200144811D0AB6828689B6803B0BDE8F04018471E
S315020014584FF4206129480DF1070203F0A1FB9DF81C
S315020014680730002B31D003B0F0BD40F601112348F6
S315020014780DF1070203F094FB254E9DF80700D7E706
S3150200148840F601111D480DF1070203F089FB204EB3
S315020014989DF8070022460021FFF7DEFD012802D04B
S315020014A83378002BDFD0AB682868DB6803B0BDE869
S315020014B8F04018474FF4206110480DF1070203F077
S315020014C86FFB124E9DF80700E4E740F607210B482A
S315020014D80DF1070203F064FB0E4E7EE72246002159
S315020014E83846FFF7B9FD012801D033787AE731701B
S315020014F8B9E700BF38090022E70B0022EC0B0022ED
S31502001508760B0022700B0022E80B0022DB0B00226E
S31502001518DA0B0022770B00222DE9F04F4FF0290C47
S315020015284FF0190E082797B0BC4C04AE0FCC0FC665
S3150200153894E8070003C6BA4D0BAC32800FCD0FC430
S315020015480FCD0FC495E8070003C4B64901AB228044
S3150200155807C903C3B44E1A70B449B54AB54B04ACAD
S3150200156881F800E082F800C01F700FCC0FC694E81D
S31502001578070003C6B04D0BAC32700FCC0FC50FCCAB
S315020015880FC5AE4B94E8070003C501AE96E8030003
S3150200159883E80300012100242A704FF44072A84B05
S315020015A8A84D1F80A84B08462C801A8006F0ACF876
S315020015B8A64BA74DA749A8489A68036029601268EE
S315020015C8D3E9000190472B68DFF8BCA2D3E90112E0
S315020015D8186812689047A14BD3E9000103F04AFA4A
S315020015E89F4BD3E9000103F045FA9E4B1E682B6810
S315020015F830465B685B685B681B685B685B695B684F
S31502001608D3E90198DF6803F09DFC974B1D682846CD
S3150200161803F098FC304603F0A1FC284603F09EFC32
S31502001628D9F80430B7EE087A5968D9F8002007EED7
S31502001638901AF8EE677A67EE877AFCEEE77A93688D
S31502001648304699669368DFF84492C3ED197AD8F85A
S3150200165804305968D8F8003007EE901AF8EE677A1F
S3150200166867EE877AFCEEE77A9A68DFF82482916653
S315020016789B68C3ED197A7B685A683B6807EE902A1D
S31502001688F8EE677A67EE877AFCEEE77A774F99681B
S315020016983E468A669B68C3ED197A03F059FC2846CA
S315020016A803F056FC6C484546D0F800E0DFF8E4C182
S315020016B8DEF804B0BBE80F000FC6DBF80030DFF82F
S315020016C8D8B1336006460FCB8CE80F00C7F810C0B6
S315020016D8DEF80030C3F89C707668CAF800300FCE80
S315020016E80FC596E8070085E80700AC22D8F8181057
S315020016F8484606F075FFC8F81890D7F804905C4D6E
S31502001708D9F80460DFF894810FCE0FC531684422F8
S315020017184046296006F064FFD8F83CE0DFF880C14D
S31502001728BEE80F00ACE80F009EE803008CE8030051
S31502001738D8F840204F4E92E80300ACF11002C8E9EF
S315020017480F2686E803004A4ADFF858A1C2F8108035
S31502001758D9F8043057465B68474D5B68DFF848811D
S3150200176893E803000E468BE803000FCE0FC5A5F1DA
S315020017781002CBF804200FCE0FC50FCE0FC5336863
S315020017882B60D9F80430DFF824911B685D680FCD09
S315020017980FC70FCD0FC729686C223960374F3848F3
S315020017A83E4606F01DFF2A4B354AD3F800E0CAF832
S315020017B82020DEF804B04546BBE80F000FC6DBF86A
S315020017C80030DFF8ECC0336006460FCB8CE80F001A
S315020017D8C7F810C0DEF80030DFF8D8A0C3F89C704E
S315020017E87668CAF800300FCE0FC5DFF8CCB096E897
S315020017F8070085E807005D46D8F81810AC22484667
S3150200180806F0EEFEC8F81890D7F804801D4FD8F8EF
S315020018180460DFF8A8900FCE0FC551E0788F00025A
S31502001828948F0002C08F0002B00B0022CB0B00225D
S31502001838CA0B0022C90B0022800B0022780B002259
S31502001848D00B0022CE0B0022CC0B0022F49200020F
S315020018583809002274970002700B0022C89200020F
S315020018684897000230950002B09900025C0B0022EC
S315020018786C0A00223C090022EC09002224090022F3
S315020018885C090022F0070022580B0022800A002277
S315020018982C0B0022480B0022200A0022280A0022CA
S315020018A844090022C8090022F40800224808002236
S315020018B8100900222009002234080022900700227B
S315020018C8316844223846296006F08AFE3D4DFE6B91
S315020018D8CE460FCE0FC596E8030085E803003A6C9C
S315020018E8DFF830A192E80300374ACBF8107082E895
S315020018F80300A5F11001C7E90F12D8F80430DFF882
S3150200190818C15B684FF416665B6893E803000D46D8
S315020019188AE803000FCDACE80F00ACF11002CAF852
S3150200192804200FCDACE80F000FCDACE80F002B68F2
S31502001938CCF80030D8F804301B685D680FCDAEE8E5
S315020019480F000FCDAEE80F00296801256C221F484B
S31502001958CEF8001006F044FE1D4B1C4A1C701D4BA7
S3150200196820461E801C4BC9F820201C701B4B1D707C
S315020019781B4B1D701B4B1C70FEF77CFF1A4B1B4A38
S315020019881E801B4B14701C701A4B1B4A1D701B4B76
S31502001998284615701C70FEF76DFF194B19481D7005
S315020019A8194903680C709968184A18680B69147003
S315020019B89847174B1B689A681868136917B0BDE8E9
S315020019C8F04F18470C0700220407002224070022BA
S315020019D8E80B0022DE0B0022E10B0022DB0B0022C1
S315020019E8770B0022E30B0022DC0B0022E70B002216
S315020019F8E00B0022760B0022DA0B0022E20B002211
S31502001A0801070022700B0022E50B0022E60B0022DA
S31502001A1838090022E8070022B407002238B51E4911
S31502001A281E4B0A781B789A422ED00B70BBB91C4DF6
S31502001A381C4C1D4928781D4B227808701A70002004
S31502001A48FFF730FB0120FFF72DFB28780021FFF76F
S31502001A580FFC20780121BDE83840FFF709BC012BAD
S31502001A6800D038BD0020FFF791FC0120FFF78EFC5D
S31502001A780B4B00211878FFF7FBFB0A4B012118785C
S31502001A88BDE83840FFF7F4BB012AEBD0002AE8D1BB
S31502001A98034D044CD3E700BFE50B0022E60B0022F8
S31502001AA8E80B0022E70B0022E10B0022E00B0022E2
S31502001AB888B108B5084B186802F098FF074B012150
S31502001AC81B689A68186853699847054A138843F049
S31502001AD80103138008BD7047C8920002700B0022EA
S31502001AE8D80B002288B108B5084B186802F07EFFA9
S31502001AF8074B01211B689A68186853699847054A73
S31502001B08138843F00103138008BD70474897000203
S31502001B1838090022D60B0022184B1B78012B00D05D
S31502001B2870470379032B0CD0042B08D0022BF7D16C
S31502001B38134B1B78012BF3D10020FFF735BBFFF7B8
S31502001B4859B800B50F4B83B01B78022B06D00E4B43
S31502001B580E491B689A681868136B98470C4B0F2135
S31502001B68DA68186893690DF106029847094BBDF8B9
S31502001B7806201A8003B05DF804FB00BF01070022A5
S31502001B88E50B0022E80B0022700B0022D80B00227C
S31502001B98E48F0002D40B0022164B1B78012B00D0CF
S31502001BA870470379022B1ED0032B1BD100B5124BAB
S31502001BB883B01B78022B06D0104B11491B689A6812
S31502001BC81868136B98470F4B1121DA6818689369DE
S31502001BD80DF1060298470C4BBDF806201A8003B091
S31502001BE85DF804FB7047094B18780128D8D1FFF72E
S31502001BF8DBBA00BF01070022E70B002238090022E0
S31502001C08D60B0022E48F0002D20B0022E50B00223B
S31502001C184FF47A7141F2883008B504F08FFFFFF766
S31502001C287BFCFFF7FBFEFCE7022800D07047024B5D
S31502001C380248596803F022B9CC8F0002EC0B002245
S31502001C4808B5FFF7E5FF002008BD00BF03460122DD
S31502001C5800201A71704700BF0346D3ED057A67EE76
S31502001C68807A0020C3ED077A704700BFB5EEC00A36
S31502001C78F1EE10FA0ADDD0ED617AF5EEC07AF1EEF0
S31502001C8810FA0BD480ED610A00207047FAD5D0ED20
S31502001C98617AF5EEC07AF1EE10FAF3DD002380EDF3
S31502001CA8610A80F881310020704700BF0346086840
S31502001CB8C3F87C010020704700B58E4600F1800CFF
S31502001CC8BEE80F00ACE80F00BEE80F00ACE80F0054
S31502001CD89EE80F008CE80F0000205DF804FB00BFA9
S31502001CE803460022D3F80CC01046C1F800C0D3F848
S31502001CF810C0C1F804C0D3F818C0C1F808C0D3F898
S31502001D0838C00A74C1F80CC01B7AA3F10103B3FAEE
S31502001D1883F35B090B7470472DE9F0472DED028BAF
S31502001D284FF000084FF000038D698166838080F8C2
S31502001D38A08080F8078080F80880A0F88031B5F87E
S31502001D4894309FED658A07EE903AF8EE677A044674
S31502001D58002667EE887AC0F88461C6608661C0F894
S31502001D688C60066280F82580C4ED057ADFED5B8A11
S31502001D78D5ED077A67EEA87AC4ED1F7A05F19409BC
S31502001D8805F1740A04F16C02484695ED010A0F46FC
S31502001D98514606F0D1F9C4F8CC60C4F8D060C4F84C
S31502001DA8D460C4F8C460C4F8C860D5ED217ADFED02
S31502001DB84C6A95ED016A67EEA67AB0EE007A67EE8E
S31502001DC8867A37EE675A37EE876AC4ED337AC7EEF4
S31502001DD8865AC5EE067AC4ED355AC4ED347AC4F885
S31502001DE8B860C4F8BC60C4F8C060C4F8B060C4F88F
S31502001DF8B460D5ED057A95ED016A67EEA67A67EEC7
S31502001E08867A77EE876A37EE677A87EEA66AC4ED30
S31502001E182E7AC7EE267A84ED306AC4ED2F7A95EDCE
S31502001E28070AF7EE000A494620EE280A04F1480096
S31502001E3806F020F904F5B07684F8448095ED080A90
S31502001E48304606F033FBD5ED122A95ED013A95EDAB
S31502001E580F2AD5ED1F1A95ED201AD5ED2A0A95ED0A
S31502001E68290A304662EE882AB5F8941006F028FB4D
S31502001E7895F82B30012B14D0BB684BB1D3E901126C
S31502001E88186812689047BB689A6818685368984732
S31502001E980020144B84F824002360BDEC028BBDE8B5
S31502001EA8F08795F82C305BB904F1D806304606F06F
S31502001EB86FF995ED010A5146304606F091F9DBE7CE
S31502001EC895ED2A1AD5ED010A95ED090A04F59A70D7
S31502001ED805F062FFD0E700BF5077D63DD7B3DD3FA6
S31502001EE8DB0FC9405053544DF8B52DED028B8C6962
S31502001EF88166B4F894309FED4E8A07EE903AF8EE72
S31502001F08677A054667EE887AC5ED057ADFED498A6E
S31502001F18D4ED077A67EEA87AC5ED1F7A04F194061E
S31502001F2804F1740705F16C023046394694ED010A4C
S31502001F3806F002F9D4ED217ADFED3F6A94ED016AE3
S31502001F4867EEA67AB0EE007A67EE867A37EE675AB9
S31502001F5837EE876AC5ED337AC7EE865AC5EE067A34
S31502001F68C5ED355AC5ED347AD4ED057A94ED016A94
S31502001F7867EEA67A67EE867A77EE876A37EE677A2B
S31502001F8887EEA66AC5ED2E7AC7EE267A85ED306A01
S31502001F98C5ED2F7A94ED070A3146F7EE000A20EED0
S31502001FA8280A05F1480006F065F8002305F5B0761B
S31502001FB885F8443094ED080A304606F077FAD4EDEF
S31502001FC8122A94ED013A94ED0F2AD4ED1F1A94EDD4
S31502001FD8201AD4ED2A0A94ED290A304662EE882A96
S31502001FE8B4F8941006F06CFA94F82B30012B03D04F
S31502001FF8BDEC028B0020F8BD94F82C30D4ED010A12
S3150200200853B905F1D800B0EE600A394606F0E8F889
S31502002018BDEC028B0020F8BD05F59A7094ED2A1ADC
S3150200202894ED090A05F0B8FEBDEC028B0020F8BD56
S315020020385077D63DD7B3DD3FDB0FC94038B500230D
S31502002048856E0446AA69037180F8243092F82B300B
S31502002058012B08D0AB681BB19A681868136B9847AE
S315020020680020206038BD92F82C301BB9D83006F013
S31502002078ABF8EFE700F59A7005F0C4FEEAE700BF91
S3150200208838B50022044600234FF00001856E483019
S31502002098AD69C4F88431E360A361C4F88C30236265
S315020020A8C4F8C430C4F8C830C4F8B030C4F8B43080
S315020020B8E366A367A18084F8A020E2712272A4F8DD
S315020020C8801184F8442005F0E1FE04F5B07006F0AC
S315020020D8F3F995F82B30012B03D0002084F824005D
S315020020E838BD95F82C303BB904F1D80006F06CF8E7
S315020020F8002084F8240038BD04F59A7005F082FEA3
S31502002108002084F8240038BD90F88021836E012AC5
S3150200211890ED077A9B690AD1D0ED617AF5EEC07A1D
S31502002128B0EEC77AF1EE10FA48BFB1EE477A90EDF3
S31502002138060AD3ED027A37EE407ADFED0A6A67EECF
S31502002148A67AF0EEC76AC7FEE67AF0EEE77A17EEE7
S31502002158103AB1EE677A002B67FE877A30EE270AC5
S31502002168704700BF5077D63D90F880318B4205D034
S31502002178002380F8813119B180F880110020704758
S31502002188026A036982618367F6E700BF08B590F8B9
S315020021988021836E012A9B6902D093ED0F0A08BD3E
S315020021A8B3F8942093ED296A07EE902AF8EE677A37
S315020021B867EE867ADFED0F6AB0EEE76AB4EEE66A94
S315020021C8F1EE10FA90ED617AC4BFDFED0B6A27EEE5
S315020021D8267AD3ED070AC8BF87EE270ADFED077A04
S315020021E8D8BF9FED070A60EEA70A06F0C3F9B0EE5C
S315020021F8C00A08BDBD3786356F12833AD7B3DD3FAD
S315020022080000000070B52DED048B002382B0CDE9E5
S315020022180033836E04469D6995F89030DBB3022B32
S315020022280AD0002307EE903A0020C4ED037A236110
S3150200223802B0BDEC048B70BD90F8A020012AF0D143
S3150200224890F82420002A40F0488180F8243095F836
S315020022582930012B4DD194F84430012B49D104F190
S31502002268480594ED220A284605F04EFF94ED230A06
S31502002278B5EEC00AF1EE10FA00F3CB8200F1C9827C
S31502002288DDED007AF5EEC07AF1EE10FA019BCBDDB0
S31502002298DFEDD07AC8E790ED270AC43006F07CF95C
S315020022A804F1B00084ED0B0A94ED230A06F074F9E2
S315020022B8237A84ED080A012B10D195ED137ADFED06
S315020022C8C76AF0EEC07A27EE267AB4EEE77AF1EE1E
S315020022D810FAC4BF84ED060A84F8253094F8A030B3
S315020022E8012B21D0002384F8253095F82930012BBB
S315020022F803D0DDED007A019B96E794F84430012B72
S31502002308F7D104F1480594ED220A284605F0FCFEA9
S315020023186A4694ED080A284604F1800105F0C0FDD4
S31502002328DDED007A019B7FE7A26E63799169EBB1D5
S31502002338022B00F05F819FEDA70AD1ED040ADFEDBB
S31502002348A77A60EEA70A06F015F984ED060A94F84C
S315020023582520A36E012A9E6900F00C81217A0329A1
S3150200236800F24383DFE801F00A7847A6E37903F02F
S31502002378FD03012BDFD102236371DCE796F82830CF
S31502002388B0EEC08A012B00F04B82D6ED127A9FED91
S31502002398937A67EE877AB4EEE78AF1EE10FA0BDBE8
S315020023A896F82A30012B00F08B820123237296F8C5
S315020023B82830012B00F077829FED868AA36E94F867
S315020023C825209E69012A8DED018A00F0E28096F8A1
S315020023D82910E279012900F01181012A00F03381DE
S315020023E8022A00F04A81002A00F0DB809FED790A72
S315020023F88DED000A76E794ED272AD4ED0D1A94EDB1
S31502002408031AD4ED260A94ED250A05F0CDFFDFED71
S31502002418777AD6ED070A60EEA70A06F0ABF8D4ED8E
S31502002428087AF5EEC07AF1EE10FAB0EE408AC0F2FA
S31502002438688196ED157A9FED6A6AD4ED276A27EECA
S31502002448067AF4EEC76AF1EE10FA40F26A81A36ED2
S3150200245894F825209E69B5E794F88031012B00F09F
S315020024686D81D4ED237A94ED1D7A70EE677AD4EDF8
S315020024781E6A27EE877A94ED1C6AD4ED1F0AC4ED0C
S315020024881B7A37EE260A27EE868A06F073F884ED5B
S315020024981E0ADFED567AD6ED070A38EE000A60EE16
S315020024A8A70A06F067F8A36EB0EE408A9E6994F80A
S315020024B8252087E794ED048AD4ED0A7A38EE678AEE
S315020024C868EE277AF5EEC07AF1EE10FA9EBF002181
S315020024D821729FED408A9E6974E74279002A00F0CC
S315020024E80A81022A00F004819FED3A0ADFED3B7A5F
S315020024F8D5ED040A60EEA70A06F03CF884ED060A52
S31502002508A36EF0EE407A9E6996F82B30012B00F006
S31502002518DD8094ED230A77EEC07A94ED1D7A94ED68
S315020025281E0A27EE877AD4ED1C6AD4ED1F0AC4ED7B
S315020025381B7A37EE000A27EEA68A06F01BF884ED08
S315020025481E0A38EE000AD6ED070A06F013F8A36E3D
S315020025588DED010A9B6993F82920012A00F09A80D9
S31502002568E379002B00F0AF80012B00F0C680002330
S3150200257800936CE603212172D6ED0E7A9FED167A48
S3150200258894ED048A67EE877A67EE887AC4ED0A7A4A
S3150200259894E70022E27196F82910012901D184F8FC
S315020025A8442094F880219B69012A00F04881D3EDE2
S315020025B80F7A94ED030A96ED0C7A30EE070AB4EE1A
S315020025C8E70AF1EE10FAFFF613AF0123B0EE670A37
S315020025D8E3710DE7000000000000803B5077D63D0E
S315020025E835FA8E3CBD3786356F12833AD7B3DD3F4F
S315020025F8000000002046FFF787FD9EE6002184F8CA
S315020026084410042A3FF6F2AE01A151F822F000BFA7
S31502002618AB2500024F260002832600022D26000261
S315020026282D26000296F82930012B7FF4DFAE84F8B6
S31502002638443004F1480005F079FD012800F09D8137
S315020026480323E371D2E694F88031012B00F0F3807C
S3150200265894ED030A94ED067AD6ED127A5FED216AB5
S31502002668B0EEC77A67EEA67AB4EEE77AF1EE10FA1A
S31502002678FFF6BEAE0223E371BAE694ED030AD6ED7F
S315020026880D7A30EE670AB5EEC00AF1EE10FA3FF699
S31502002698AFAED5E70021E27984F84410012A2CD09E
S315020026A811D9033A012A3FF662AF93F82930012B72
S315020026B87FF45DAF84F8443004F1480005F036FD36
S315020026C8012800F05D810323E37150E796F82C3068
S315020026D894ED040AD4ED230A002B40F0838006F118
S315020026E8940104F1D80005F0E5FDD4ED067A12E767
S315020026F8FFF70AFDFAE64371F6E60322E368E2719A
S3150200270836E77FF5A4AE96ED157A1FED4B6AD4ED42
S31502002718276A27EE467AF4EEC76AF1EE10FAFFF652
S3150200272896AE00200121C4ED067A84ED1E8AA36EB8
S315020027382063217294F825209E6943E6B6F8943000
S3150200274896ED296A07EE903AF8EE677A67EE867A88
S315020027585FED5C6AB0EEE76AB4EEE66AF1EE10FA8D
S3150200276894ED617AC8BF5FED606AD6ED070AC8BF05
S3150200277827EE267A1FED639ACCBF87EE270A1FED4E
S31502002788640A60EE890A05F0F5FE5FED6A7AB0EE34
S31502002798C07AB4EEE77AF1EE10FAB0EE408A78D44F
S315020027A8B5EEC00A94ED077AFFEE007AF7EE008AD4
S315020027B8F1EE10FAB0EEC77A94F8813168FEA78A6C
S315020027C867EE287A002B00F08F80012B00F09C80A0
S315020027D8002184ED620AA36E84F8811194F82520FB
S315020027E89E69EFE5B6F89430D6ED297A08EE103AE6
S315020027F8B8EE488A68EE277AC0EE880A27EE800A7B
S3150200280804F59A7005F004FBD4ED067A28EE000A60
S3150200281881E66A46284604F1800105F041FB2FE568
S31502002828F0EE400A04F5B07094ED250A05F0FCFDB9
S3150200283884ED0E0AA9E52046FFF7A8FC0AE7B3F8D5
S31502002848942093ED296A07EE902AF8EE677A67EEE6
S31502002858867A5FED9C6AB0EEE76AB4EEE66AF1EE56
S3150200286810FA94ED617AC4BF5FEDA16A27EE267A63
S31502002878D3ED070AC8BF87EE270A5FEDA47AD8BF49
S315020028881FEDA50A60EEA70A05F074FEF0EEC07AFF
S315020028988FE60021A36E84F881111FEDAB8A94F8A6
S315020028A825209E698EE504F5B07005F005FE002226
S315020028B8A36EA26308EE102A9E6994F8252081E584
S315020028C802232046237296ED148AFFF75FFC94EDE5
S315020028D80B1AF0EE400A06F19400B0EE480A05F02B
S315020028E87BFD84ED0D0A62E5D4ED086A68EEA68AD8
S315020028F8B4EEE87AF1EE10FA45D984ED628AA36E4F
S3150200290894F825209E695DE594ED236AD4ED1D6A47
S3150200291894ED1E0AC4ED067A77EEC67A94ED1C7A11
S31502002928C4ED1B7A07EEA60AD4ED1F0A67EE879A4C
S3150200293805F020FE84ED1E0AD6ED070A39EE800A56
S3150200294860EE890A05F016FE28EE887A68EE808A15
S31502002958F4EEC78AF1EE10FAF0EE407A04DB0023B1
S31502002968F0EE487A84F88131C4ED627AA36EB0EE4D
S31502002978678A94F825209E6924E50423E37135E5E0
S315020029880423E371F3E594ED1D6AD4ED236A94ED0D
S315020029981C7AC4ED067A37EE067A77EEE67A07EE01
S315020029A8670AD4ED1F0A84ED1E0A05F0E3FDD4ED8D
S315020029B8067A94ED236A012377EEC67AD4ED1D6A68
S315020029C894ED1C7A84ED1E0AD4ED1F0AC4ED1B7A17
S315020029D807EEA60A84F8813127EE878A05F0CAFD32
S315020029E884ED1E0A38EE008A87E700220192EEE499
S315020029F830B5046883B0D4E900531A694AB1012391
S31502002A088DF8043063686846D3E904320092984721
S31502002A186368196819B1A36820681B6A98472B79F5
S31502002A28012B03D1A36820685B6A984763685968D3
S31502002A3821B1A36820689B6A984763681B6943B1FA
S31502002A4802238DF8043063686846D3E9043200929B
S31502002A58984703B030BD00BF38B5C0F89C104B6824
S31502002A6804460D4623B1D3E9011218681268904745
S31502002A782B6823B1D3E9011218681268904780EFD0
S31502002A8850600020002384ED037F84ED0F7F064A01
S31502002A986081C4E9002023626362A36284F82C0081
S31502002AA884F84C0038BD00BF4C53544D10B5D0F8CD
S31502002AB89C3004461A682AB1936810685B6898477E
S31502002AC8D4F89C305B681BB19A68186853689847B3
S31502002AD880EF50600020002384ED037F84ED0F7F92
S31502002AE823626362A36284F82C0084F84C00206097
S31502002AF810BD00BFD0F89C30186818B1836800680A
S31502002B081B691847704700BF03469B7900200B7064
S31502002B18704700BF002310B5D0F89C208EB00593ED
S31502002B2850680C4628B1836869461B6A006898474C
S31502002B38059B23600EB010BD002310B5D0F89C206B
S31502002B488EB0049350680C4628B1836869461B6A9E
S31502002B5800689847049B23600EB010BD0620704794
S31502002B680620704710B5D0F89C200446106828B194
S31502002B7882680068D3689847D4F89C2053681BB1CA
S31502002B889A681868D3689847C0B210BD10B5D0F8CD
S31502002B989C200446106828B18268006893689847A2
S31502002BA8D4F89C2053681BB19A68186893689847AA
S31502002BB8C0B210BD0020704710B5D0F89C301A6814
S31502002BC832B10446936810689B689847D4F89C30DB
S31502002BD85B681BB19A68186893689847002010BD0D
S31502002BE8FFF7EABF002238B583790446022B4281F1
S31502002BF814D80D4801EB41020C4D10441A4455F8FD
S31502002C082250C35C20462172E371A84718B1638932
S31502002C1843F004036381E379A37138BD0221044DAD
S31502002C280B4682714181EDE7F0A10002C0A10002C4
S31502002C38E92B000283880BB90020704710B50321DF
S31502002C480446FFF7CFFF80EF50600022002384ED91
S31502002C58037F84ED0F7F22626262A26284F82C30BF
S31502002C6884F84C30A380002010BD00BF00232DE954
S31502002C78F04196B00493D0F89C3005465B680C4642
S31502002C88D3E90120D3F800801768036A08A94046E9
S31502002C989847002F71D0BB6838681B6901A9984705
S31502002CA898F858300646012B39D0D5F89C309DED58
S31502002CB8047A1A69DDED0C7AD2ED006AF5EEC06A7D
S31502002CC8F1EE10FA5BD54FF48073D2ED015A92ED0C
S31502002CD8036AF4EEC75AF1EE10FAB4EEC76AD2EDF9
S31502002CE8026AF0EEE77AAA8843EA02034CBF012297
S31502002CF80022F1EE10FAF4EEE76A43EA4203CCBF89
S31502002D0801220022F1EE10FA43EAC2139BB228D43A
S31502002D18AB8023804BBB304616B0BDE8F081DDEDB3
S31502002D28017AD5F89C30B0EEE75A1A69DDED035AF6
S31502002D38D2ED006AF4EEC56AF1EE10FA37EEA56A2C
S31502002D489DED047ADDED0C7ABDD4B0EEC66AB4EE1A
S31502002D58E66AF1EE10FA4FF48073B6DCB0EEE56A75
S31502002D680FE043F00403AB80238028460221FFF7D5
S31502002D7839FF304616B0BDE8F081064695E79FED65
S31502002D88056AF4EEC66AF1EE10FA4CBF0123002377
S31502002D981B029AE70000000006207047002210B5C1
S31502002DA883790446022B428114D801210C4A0D4824
S31502002DB81A440333D27850F8233020462172E2713E
S31502002DC8984718B1638943F004036381E3790020C5
S31502002DD8A37110BD02218271034B0A464181ECE7B9
S31502002DE8F0A10002C0A10002E92B0002002310B5DF
S31502002DF882790446022A438111D80C490C48895C17
S31502002E0850F8222020462372E171904718B163894F
S31502002E1843F004036381E3790020A37110BD022005
S31502002E28A37101460346034A6081EBE7F0A100025B
S31502002E38C0A10002E92B000210B5044600228088D0
S31502002E48A3790143022BA180628114D80D4A0E4848
S31502002E581A440633917950F8233002222046E1714A
S31502002E682272984718B1638943F004036381E379B0
S31502002E780020A37110BD0220044B0146A271608195
S31502002E88EBE700BFF0A10002C0A10002E92B000295
S31502002E9803790268022B126819D000B5032B83B096
S31502002EA807D0012B10D1D2F89C20936863B1032175
S31502002EB804E0D2F89C20936833B10421D2686846AC
S31502002EC800928DF80410984703B05DF804FB92ED62
S31502002ED80F7F1146A1ED147F92F84C00D2F89C3070
S31502002EE882F860005B681BB19A6818681269104715
S31502002EF8704700BF30B503790268012B146883B0A6
S31502002F080DD0022B09D1D4F89C108A682AB1C96857
S31502002F1868468DF804300091904703B030BDD4F866
S31502002F289C305A682AB3936804F164051B6A2946D9
S31502002F3810689847D4F89C3095ED007F84ED037F9E
S31502002F48D4F88820D4F88000D4F8841094F88C50E9
S31502002F58206284F82C506162A2629A68002ADCD048
S31502002F680121DB68684600938DF80410904703B088
S31502002F7830BD04F16405DFE70346D1F800C000203E
S31502002F88C3F888C04968C3F88C101168C3F8801062
S31502002F985268C3F8842070470346002083ED240A4A
S31502002FA8C3ED250A704700BF03460020197670470D
S31502002FB80346D3F804C00020C1F800C09B6813601A
S31502002FC8704700BF062070470620704738B504468A
S31502002FD84D68C0F8981000F11C0295ED050A2946BD
S31502002FE805F1180004F06AFE284695ED050A04F173
S31502002FF8740104F0B5FE002038BD00BF2DE9F0418A
S31502003008164E0368B34226D004464D6800F11C08E2
S3150200301805F11807C0F898103946404604F03AFEFA
S31502003028424695ED050A2946384604F1740704F026
S3150200303845FE95ED050A3946284604F091FE3846BE
S3150200304804F0A6FE00224FF4807326606261238391
S315020030580020BDE8F0810E20BDE8F0815345544DAD
S3150200306810B504461C3004F00DFE04F1740004F099
S315020030788FFE00202076206010BD00BF10B50446E2
S315020030881C3004F0FFFD04F1740004F081FE4FF4D5
S315020030988072002322836361002010BD2DE9F84364
S315020030A8044600F11C081F46D0F89830D0ED231AC2
S315020030B890ED221AD0ED210A90ED200A4046D3F867
S315020030C804900D46164604F031FDD4ED230A404617
S315020030D894ED030A04F0BEFDD4ED220A84ED010A3A
S315020030E8404694ED030A04F0C1FDD4ED017A84ED5D
S315020030F8020A87EE800A05F0A3FAB4EE400AF1EE58
S3150200310810FA87ED000A68BF9FED260A237E84ED32
S31502003118040A012B35D00123637699F80030D4EDE1
S31502003128247A012B04BF94ED257A77EEC77AC4ED8B
S31502003138037AC6ED007A99ED056AD4ED056A67EE5B
S31502003148867A9FED197A77EEA67AF4EEC77AF1EEC9
S3150200315810FA08DB77EEC77AC4ED057AC5ED007A70
S315020031680020BDE8F883F5EEC07AF1EE10FA48BF02
S3150200317877EE877AC4ED057AC5ED007A0020BDE8B8
S31502003188F883637E012B04D10023D4F8902063765A
S31502003198E26704F10C0104F1740004F0CDFDD4EDEC
S315020031A8037AC6E700000000DB0FC9400620704715
S315020031B806207047062070470620704703460020FF
S315020031C883ED080AC3ED090A83ED0A1A704700BFA0
S315020031D8426F0346D0ED027A107C126A01283CD06F
S315020031E893ED0C7A77EEC77AC1ED007A93ED0D7AF4
S315020031F8D3ED037A77EEC77AC1ED017AD3ED047A75
S3150200320893ED0E7A77EEC77AC1ED027A58699FED89
S31502003218166AC860D3ED197AD3ED1A5AD3ED186A2D
S3150200322877EEE57A76EEA66A92F8222093ED167A7A
S31502003238012A77EEE67A08BFDFED0C6A27EE067AF0
S3150200324808BF67EEA67A67EE277AC1ED047A9A690D
S3150200325800204A61DB698B617047C1ED007AD86844
S315020032684860D3ED047ACFE73FC61C3F0AD7933F9F
S31502003278034600210022084683F82C10D985DA6312
S315020032881A645A64704700BF30B4EFF310840123FE
S3150200329883F31088134B1A681AB9134D2A754022FC
S315020032A82A751A6801321A6084F31088020A0F4CCA
S315020032B8120152FA80F044F82010EFF3108201212D
S315020032C881F31088196811B11968013919601B68E8
S315020032D81BB9802004490B75087582F3108830BC27
S315020032E8704700BF2C170022000D404000084040DE
S315020032F8F8B50446436F02215A691D6A5368D3E931
S3150200330802765B68186802F085FA0221386802F0CC
S3150200331881FA0221306802F07DFAD4E91313104AC1
S3150200332811401340C4E91313A88CFFF7ADFF216DB2
S31502003338E88CFFF7A9FFE16C288DFFF7A5FF216D41
S31502003348688DFFF7A1FFE16CA88DFFF79DFF216D40
S31502003358E88DFFF799FF012384F85430F8BD00BFC2
S31502003368FFFFFE0F436FD1ED006A1B6A91ED017AEA
S3150200337893F82230D1ED027A012B57D0D0ED175AA5
S3150200338890ED1B6A66EEA56A76EE866AC2ED006A5B
S31502003398D0ED175A90ED1B6A27EE257A37EE067A94
S315020033A882ED017AD0ED175A90ED1B6A67EEA57A7F
S315020033B877EE867AC2ED027A90ED196AF4EEC66A5B
S315020033C8F1EE10FAD0ED1A5A10DDB4EEC67AF1EE25
S315020033D810FA82ED006A15DDF4EEC67AF1EE10FAFD
S315020033E882ED016A1ADD82ED026A7047F4EEE56A39
S315020033F8F1EE10FAB4EEC67A48BFC2ED005AF1EE03
S3150200340810FAE9DCB4EEE57AF1EE10FAF4EEC67AD1
S3150200341848BFC2ED015AF1EE10FAE4DCF4EEE57AA1
S31502003428F1EE10FA48BFC2ED025A7047F4EEC76AC7
S31502003438F1EE10FACCBFF0EE665AF0EE475AF4EE09
S31502003448E57ACCBFB0EE476AB0EE666AF1EE10FADC
S3150200345813DCF4EEC67AF1EE10FA54BF75EE865A0C
S3150200346877EEA55AB6EE006A25EE866A76EEC66A43
S3150200347837EE467A77EEC67A80E737EE866AF6EE52
S31502003488005A26EE256AF1E72DE9F04F0446436F06
S3150200349895B01E6A5F6996F83C207B68B0F804A06E
S315020034A803EB82035D68B0F80690AB680BA95B6A0A
S315020034B828689847B7EE005AD4ED057A85EE277A3A
S315020034C8636A226A0693A36AC4ED167A84ED177AAA
S315020034D8059205A9204608AA0793DDF83480FFF766
S315020034E841FFDDED0A6ADDED087A9DED097A06EE01
S315020034F810AA75EE677AB8EEC66A35EE477A35EEE1
S31502003508665A06EE909A27EE067AFAEEEF6A67EEA2
S31502003518867A37EE267A4FF4817325EE065A77EEC7
S31502003528A67ABCEEC77A35EE265AFCEEE77AA4F8F6
S31502003538483017EE103ABCEEC55A99B217EE903AD1
S315020035481FFA83FC15EE103A8C459BB20CDB9C45A0
S3150200355880F2908062464FF001099C464FF0000EB9
S315020035684FF0020A13460CE04FF0000999426246F0
S3150200357884F849906FDB8C464FF0010A11464FF0EA
S31502003588020E8B4284F848E06CDCF14694F849E076
S31502003598746BCA1AA242084607DAE018804508F18F
S315020035A8FF32D8BF1046C0EB4101ACEB000B5C45BD
S315020035B8624607DD2218904508F1FF38D8BF424611
S315020035C8C2EB4C0CB66B0129B8BF0121BCF1010F45
S315020035D8A4EB0604B8BF4FF0010CB9F1010FA0EB3A
S315020035E80406A2EB04045ED0B9F1020F57D04FF0DD
S315020035F80008C146BEF1010F4CD0BEF1020F44D0FD
S31502003608BEF1000F14BF19460346C646CB46BAF1A9
S31502003618010F37D0BAF1020F31D061461346CDE910
S315020036280281CDE900399DED007FCDE912BE8DED0F
S315020036380E7FBB680EA91B69386898473246002177
S31502003648286802F0F3F822460321286802F0EEF809
S3150200365815B0BDE8F08F9C464FF0010E0B464FF0B1
S31502003668020A11460A4684F849E0194684F848903F
S3150200367813468DE74FF001094FF0000A7FE7E64649
S315020036889046CCE7E3469146C9E78E468046CB4646
S315020036981946BCE78B468146C6461946B7E7984699
S315020036A800239946A6E7994600239846A2E700BF53
S315020036B8F0B50468894B22688DB09A4201D00DB0E4
S315020036C8F0BD0379002BFAD1676F01933E6AADF814
S315020036D80830B36E1D68002D00F0D580EB68F979C5
S315020036E89B69286801AA9847EB68397A9B69286812
S315020036F80DF106029847EB68797A9B69286802AA4F
S3150200370898470121286803AA02F072FFBDF804301F
S31502003718BDF8101006EE103ABDF80630BDF81400D2
S3150200372805EE903ABDF80830C1F30B0106EE903A61
S31502003738C0F30B00B8EE466AF8EE655AF8EE666A0A
S315020037480B460546676F96ED044AD6ED054AD4ED53
S315020037580E7A96ED075AC4ED076AC4EE246AFCEEA1
S31502003768E77A94ED0C7A66EE866A17EE902ABCEE34
S31502003778C77A66EE856A92B2AA1A07EE902A17EEF9
S31502003788102AC4ED056AC4ED065A92B29B1AF8EEDF
S31502003798E77A07EE103A96ED035AD6ED055A96EDF4
S315020037A80C6AC5EE256AB8EEC77A77EEC67A27EEB0
S315020037B8267A67EEE67A77EE276A94F848C0F1EE3B
S315020037C8666ABCF1010F68D0BCF1020F6ED0BCF17B
S315020037D8000F44D194F84930012B16EE903AF0EED8
S315020037E8476A6DD007EE103A94F82C30012B3DD07B
S315020037F807EE900AB8EE677A07EE901AF8EE677A3D
S3150200380884ED047AC4ED027ABB69A3B101228DF86C
S315020038180C20FA6903A804929847626F936933B138
S3150200382802218DF80C10D26903A80492984794F8DD
S315020038382C30012B23D00023204623626362A36225
S31502003848FFF722FE626F9369002B3FF438AF03211C
S315020038588DF80C10D26903A8049298472FE79FEDBA
S31502003868207AF0EE477AF0EE476ABDE7C4ED037AAE
S3150200387884ED047AC4ED026ABB69002BC6D12046E0
S31502003888FFF702FEDEE7DFED166A2B46F0EE665A12
S31502003898B0EE666A2846294655E794F84930022B5F
S315020038A813D017EE903AF0EE477A9BE7B0EE666AC7
S315020038B894F84930002B46FEA76A47FE867A93E7B4
S315020038C8B0EE677A07EE903A8EE716EE903AF0EE89
S315020038D8676AF0EE477A07EE103A85E75244544D86
S315020038E800000000F7EE007A06EE900A07EE101ABC
S315020038F8F8EEE66A37EEC00ABAEEEF7A77EEE00A33
S3150200390820EE260A77EEC17A60EEA60A30EE070A9C
S3150200391867EEA67A70EE870ABCEEC00A77EE877A59
S3150200392810EE103AFCEEE00A99B2FCEEE77A10EED7
S31502003938903A00B592F810C050699AB217EE903ACA
S3150200394887B09BB2BCF1010FCDE9001208BFCDE9E1
S315020039580312029308BF059320B18368694600687B
S315020039681B69984707B05DF804FB00BF2DE9F843C9
S31502003978436F04461E6A0D46B28C002A4FD194F84C
S315020039882C30D3B9626F117C01291AD1328CE08DA1
S31502003998D4ED0F6A904294ED117A7BD307EE902A02
S315020039A8F8EEE77A86EEA76AC7EE276A84ED0C6A0E
S315020039B8C4ED0E6A84F82C1001232B700020BDE892
S315020039C8F88394ED1B1AE188F0EE410AB0EE410A3B
S315020039D8A088FFF787FF338CE28D9A426CD2D4ED2A
S315020039E80F6A94ED107AD4ED117A94ED025AD4ED59
S315020039F8035A94ED046A76EE856A37EE257A77EEEF
S31502003A08867AC4ED0F6A84ED107AC4ED117A94F8B9
S31502003A182C300132E2852B700020BDE8F88390F83D
S31502003A285420012AABD15B69C16C5B6841F48031D1
S31502003A38D3E90187D3F80C90036DC16443F480334C
S31502003A480365B08CFFF720FC216DF08CFFF71CFC98
S31502003A58E16C308DFFF718FC216D708DFFF714FCB1
S31502003A68E16CB08DFFF710FC216DF08DFFF70CFCB1
S31502003A780221D8F8000001F0C1FE0221386801F0DF
S31502003A88BDFE0221D9F8000001F0B8FE002384F831
S31502003A98543074E794ED026AD4ED047A76EE266A17
S31502003AA877EE877AC4ED0F6AC4ED117A0130E085A4
S31502003AB82B700020BDE8F88307EE903AD4ED0F6A22
S31502003AC8F8EEE77A94ED107AD4ED115A86EEA76AE3
S31502003AD80123C7EE276A85EEA77A84ED0C6AC4ED40
S31502003AE80D6A84ED0E7A84F82C3065E7894B0268F4
S31502003AF89A4200F0FF804FF47A7C2DE9F0410F6A72
S31502003B0841673A8897ED016A0CFB02F207EE902AA2
S31502003B18B8EEE77AF6EE006AC7EE067A67EEA67A96
S31502003B28FCEEE77A044617EE902A002380EF50400F
S31502003B380E460021A2803A8900F108084FF0010ECC
S31502003B483030E28088ED005F23626362A36284F804
S31502003B582C10E18580ED005F04F1580584F8701099
S31502003B6884F854E02364636407F1480CBCE80F0048
S31502003B780FC59CE8070085E80700D7ED157AF5EE2C
S31502003B88C07AF1EE10FA82B007DDB7EE007AF4EEEB
S31502003B98C77AF1EE10FA40F2AF80D7ED167AF5EE53
S31502003BA8C07AF1EE10FA0BDDD4ED196AB6EE007A98
S31502003BB8C4ED1A7A77EEA67A67EE877AC4ED1B7A8F
S31502003BC87369002B2DD097F83C205B6803EB8203C0
S31502003BD85D68514A6B68D9694B78002B4F4B0CBF0D
S31502003BE810461846E064C978012908BF13462365BA
S31502003BF873699A68D3E9000112689047337C012BEE
S31502003C0866D1AB6828682246DD6A454904F19803FD
S31502003C18A847BB8C002B69D173699A6818685368E0
S31502003C289847326A936E9F68C4F8A4703B7953B179
S31502003C389A1C013347F822403B710020354B23601A
S31502003C4802B0BDE8F081936E1D68002DF5D0EFF342
S31502003C581088012383F31088D5E90001EB681B68F5
S31502003C68984788F31088D5E9021328685B6898474D
S31502003C78337C012B08D0EB68D4F8A4209E6A294924
S31502003C88286804F17803B0476A68EB6851691B6AC9
S31502003C982868984701238DF80430EB6828685B6921
S31502003CA801A998479DF80430002BF6D1EB682868DD
S31502003CB89B689847D4F8A4301B4A1A603B79D4F813
S31502003CC8A420023342F823403B7901333B71B4E71F
S31502003CD894ED1B1A626FF0EE410AB0EE410AE188D2
S31502003CE8A088FFF7FFFDBB8C002B95D02046FFF777
S31502003CF8FFFA91E70E20704794ED1A7AC4ED197A05
S31502003D0877EE877A67EEA67AC4ED1B7AD7ED167A2E
S31502003D1845E700BF5244544D040000030500000362
S31502003D28B9360002CD4000024153544D4FF47A721F
S31502003D3830B50D6A41672B8895ED016A02FB03F3DC
S31502003D4807EE903AB8EEE77AF6EE006AC7EE067A1A
S31502003D5867EEA67AFCEEE77A17EE903A83802B890D
S31502003D6800F1580CC38005F1480E0446BEE80F0060
S31502003D78ACE80F009EE807008CE80700D5ED157A37
S31502003D88F5EEC07AF1EE10FA06DDB7EE007AF4EE39
S31502003D98C77AF1EE10FA14D9D5ED167AF5EEC07A8D
S31502003DA8F1EE10FA0BDDD4ED196AB6EE007AC4ED1F
S31502003DB81A7A77EEA67A67EE877AC4ED1B7A00201E
S31502003DC830BD94ED1A7AC4ED197A77EE877A67EEE2
S31502003DD8A67AC4ED1B7AD5ED167ADFE738B504461E
S31502003DE890ED1B1A426FC188156A8088F0EE410A67
S31502003DF884ED081A84ED091A84ED0A1AB0EE410A0E
S31502003E08FFF770FDAB8CABB980EF50600023002042
S31502003E18012284ED027F84ED0C7F23626362A36232
S31502003E2884F82C00E0852364636484F8700084F8BF
S31502003E38542038BD2046FFF75BFAE5E72DE9F04145
S31502003E48466F0446336A9B8C002B3FD1B44680EFFB
S31502003E58506000230025012084ED027F84ED0C7F4B
S31502003E6823626362A36284F82C50E5852364636443
S31502003E7884F8705084F85400D4F8A470DCF8202032
S31502003E88EFF3108880F310883B7983420ED0013B0A
S31502003E98DDB23D7188F3108873691BB19A68186898
S31502003EA89369984700202060BDE8F081936E1B68ED
S31502003EB8DA681868D36A9847D4F8A4309D60D4F8AB
S31502003EC8A430DD60D4F8A4301D60E2E7FFF710FAEB
S31502003ED8D4F874C0BBE700BF2DE9F0414FF00008E3
S31502003EE888B0CDE905884568CDF81C806F6F3C6AB5
S31502003EF8A36E1E68002E00F0B680F36839799B69B6
S31502003F08306805AA98473B7C032B7ED0ADF816800D
S31502003F18F368B9799B6906AA30689847F368F9790C
S31502003F289B690DF11A0230689847F368397A9B69DA
S31502003F3807AA30689847F368797A9B6930680DF161
S31502003F481E029847BDF8143006EE903ABDF81630B0
S31502003F58F8EE666A07EE103ABDF81830B8EE477AF8
S31502003F6807EE903ABDF81A30F8EE677A06EE103A7E
S31502003F78B8EE466AD4ED065A94ED034AD4ED054ADC
S31502003F8876EEE56A84EE245A66EEC56AC5ED026ADD
S31502003F9837EE657A94ED035A77EEE57AD4ED055A4B
S31502003FA8C5EE256A27EE667A85ED037AD4ED035ABD
S31502003FB8D4ED056A85EEA67A67EEC77AC5ED047A68
S31502003FC8D4ED045AD4ED056AC5EEA67A94ED077ABD
S31502003FD867EE867A67EE877AC5ED057ABDF81C1014
S31502003FE8364B07EE901AF8EE677AC5ED067ABDF8F3
S31502003FF81E102A6807EE901AF8EE677A9A42C5EDFD
S31502004008077A0AD008B0BDE8F081F36879799B6926
S3150200401830680DF1160298477AE76A6F936983B199
S315020040280121D269684601928DF8001098476A6F95
S31502004038936933B10221D269684601928DF800105C
S31502004048984795F82C30012B16D06A6F9369002B86
S31502004058D8D00321D269684601928DF80010984794
S3150200406808B0BDE8F0819FED166AF0EE467AB0EE2A
S31502004078467AF0EE466A7DE7D5ED057AF7EE006AEE
S3150200408886EEA77A2E6A6C6AAB6A284605AA02A940
S31502004098C5ED167A85ED177A029603940493FFF70F
S315020040A861F99DED071ADDED060A9DED050A6A6FAF
S315020040B8E988A888FFF716FCC7E700BF5244544DA3
S315020040C800000000F0B54568144A296889B0914293
S315020040D801D009B0F0BD82780446012AF9D82E1D0E
S315020040E80C3556F8047F37B17A6F238B126AD28F52
S315020040F81341DB0702D4AE42F3D1EAE7A646EC4601
S31502004108BEE80F00ACE80F009EE80F008CE80F002F
S3150200411868460197FFF7E0FEEDE700BF4153544DAD
S315020041280346012200201A71704700BF00B58E4669
S3150200413800F5807CBEE80F00ACE80F00DEF8003020
S315020041480020CCF800305DF804FB00BF03460020CF
S3150200415883ED040AC3ED050A704700BF0346002033
S3150200416883ED0C0AC3ED0D0A704700BF0346D1F86A
S3150200417800C00020C3F818C0D1F804C0C3F81CC098
S31502004188896819621168D96252689A64704700BFD1
S3150200419810B50C46426E416A1269D0F81431216094
S315020041A8816A9FED2C6A6160816C84B0A160D0ED52
S315020041B80C6AC4ED036AD16B098807EE101AB8EEC9
S315020041C8C77AC6EE877A67EE867AC4ED047A416BB9
S315020041D86161816BA161C16CE161016D2162416D11
S315020041E8616290F8581084F8281023B11278012ACF
S315020041F804D0032A16D0002004B010BD9A6801A97B
S315020042081868536B984700209DF804109DF80520FE
S315020042189DF8063084F8291084F82A2084F82B3071
S3150200422804B010BD9A6801A91868536B9847002014
S31502004238029A039B9DF80410226363639DF8052086
S315020042489DF8073084F8291084F82A2084F82C303F
S3150200425804B010BDEBC9184138B504460A680D69A1
S31502004268C0F81821354B226848689A42C4F81401E6
S3150200427862D080EF506000204FF0000E84ED027F7E
S3150200428884ED097F84F804E084F858E06166606387
S31502004298E06320646064A066E0676067C4F888002B
S315020042A8A96BDFED275AA167C4F88C1095ED0D0AA4
S315020042B8D5E90F0120EE250A04F17C0304F1680210
S315020042C803F0A6FA6B6804F19000C4F89030AB6864
S315020042D8C4F89430EB68C4F898302B69C4F89C305B
S315020042E86B69C4F8A030AB69C4F8A430EB69C4F8AA
S315020042F8A8302B6AC4F8AC306B6AC4F8B030AB6A23
S31502004308C4F8B43095F82C3084F8FC3003F0AEFAD1
S31502004318D4F8183123B1D3E9011218681268904704
S31502004328D4F8143123B1D3E90112186812689047F8
S31502004338024B0020236038BD0E2038BD5443544D2D
S315020043486F12833A10B5044608696166816BDFED20
S315020043580B7AA167C4F88C1090ED0D0AD0E90F010B
S3150200436820EE270A04F17C0304F1680203F050FAEE
S3150200437804F1900003F07AFA002010BD6F12833A16
S3150200438870B52DED048BD0ED0D8AD0ED087A90ED3F
S31502004398078AB0EE680A90ED069A044638EE678AEE
S315020043A80E46154604F01CFBB0EE406AB0EE680AEB
S315020043B8F0EE468A04F020FA9FED117ADFED117AC3
S315020043C828EE876A60EE076A26EE277A67EEE67AAD
S315020043D827EE097A68EE266A67EE897A28EE068A51
S315020043E837EE267A77EE887A84ED097AC4ED0A7A68
S315020043F886ED007AA36A00202B60BDEC048B70BDA3
S31502004408F304353FD7B3DD3F10B52DED048B0C46CB
S3150200441890ED009AD0ED018AF0EE409A04F0E0FAA7
S31502004428B0EE408AB0EE690A04F0E6F9DFED1A6AE0
S3150200443828EE267A60EE266AF1EE477A30EE476A69
S3150200444878EE265A37EEC00A36EEC88A66EE097A3A
S3150200445829EE077A68EEA66A25EEA86A20EE090A08
S3150200446828EE288A9FED0D5A30EE080ADFED0C4A2F
S3150200447837EE667A77EE867A27EE247A67EE857ABB
S3150200448820EE050A84ED007AC4ED017A84ED020A6B
S31502004498BDEC048B10BD00BF3ACD133FF304353F84
S315020044A8F304B53F002210B5D0F81831044602715C
S315020044B81BB19A681868936898470023002280EF10
S315020044C850606363E36323646364A366E3676367B5
S315020044D8C4F8883084ED027F84ED097F04F19000E8
S315020044E8227184F8582003F0F3F9D4F814311BB179
S315020044F89A68186893689847002010BD10B500237B
S315020045080446002280EF506002716363E36323640A
S315020045186364A366E3676367C4F8883084ED027F41
S3150200452884ED097F903084F8582003F09FF9D4F877
S3150200453818311BB19A68186853689847D4F8143129
S315020045481BB19A681868536898470020206010BD06
S3150200455870B52DED028BD0ED095AD0ED047A90EDA7
S315020045681C6A77EEE57AD0ED1D6A27EE866A36EE84
S31502004578266A90ED1E7AF0EEC66AB4EEE67A002353
S3150200458890ED1B5AF1EE10FA86B00593CDE9033386
S31502004598436E04461E690D46C0ED1A7A67EE857AA1
S315020045A808D5B0EEC77A16EE103AB1EE476A002B76
S315020045B827FE066A94ED0A5A94ED057AD4ED216A25
S315020045C837EE457A94ED224A67EE266A76EE846AD3
S315020045D877EE867AD4ED234A84ED1D6AB0EEE66A52
S315020045E8F4EEC64AD4ED203AF1EE10FA84ED1F7ABB
S315020045F8C4ED027A27EE237A08D5F0EEE44A16EEDF
S31502004608903AF1EE646A002B64FEA66A37EE267AC1
S31502004618C4ED226A84ED037AF36B94ED0C8AD3ED2A
S31502004628036A25EE265A28EE055A77EEC57AC4EDB0
S31502004638027A93ED026AD3ED046A65EE865A94ED20
S31502004648120A75EEA65AB4EEE70A28EE258AF1EEA4
S3150200465810FA38EE078A84ED038A32D584ED020A07
S315020046689FED468A84ED038A85ED030AE3682B618A
S3150200467896F82D30012B32D094ED0D8A04F13C06C2
S315020046883146B0EE480A04F10800FFF7BDFEB0EE67
S31502004698480A03A904F11000FFF7B6FE04F19000D8
S315020046A894ED0B0A314603AA03F018F90020E36BCE
S315020046B82B60236C6B60636CAB6006B0BDEC028B3F
S315020046C870BDB1EE407AB4EEE77AF1EE10FA2CDD5F
S315020046D884ED027AB0EE470A9FED288AC2E796ED84
S315020046E80D8ADFED275A94ED0C6A28EE258AD6ED57
S315020046F80C6A28EE068A94ED0D7A28EE268ADFEDF4
S31502004708217A38EE078AB4EEE78AF1EE10FA09DA68
S31502004718B5EEC08AF1EE10FA48BF38EE278A84ED64
S315020047280D8AABE738EE678AF9E720EE000A27EE2C
S31502004738A77A30EE470AB5EE400AF1EE10FA14D41B
S31502004748B1EEC07AF0EEC86AF4EEC76AF1EE10FA74
S3150200475808DDB0EEC77A18EE103AB1EE478A002B9A
S3150200476827FE088AB0EE670A7CE7CDED017A03F0E8
S3150200477845FFDDED017AB0EE407AE3E7000000007E
S315020047886F12833ADB0FC9402DE9F0472DED048BF2
S31502004798456803782C68022B626ED4F8186117698B
S315020047A896B019D0032B06D0012B04D016B0BDEC57
S315020047B8048BBDE8F0876A689268002AF6D08DF8FD
S315020047C808306B6801A8D3E902320192984716B0FD
S315020047D8BDEC048BBDE8F087002EE7D0B3683068DD
S315020047E81B690FA99847DDED0F8A9DED119A149B57
S315020047F8139AE365159BA26423667B78DDF84880E5
S31502004808022B08BF38EE898A23790CBFB1EE488A93
S315020048189DED108A012BC9D1B36830685B6904F132
S315020048285801984794F85830012BBFD16B689B689A
S3150200483843B102238DF808306B6801A8DA689B68D1
S31502004848019298478DED099AA76CAB68CDF80C8052
S31502004858DB6903AA07A90497CDED078A8DED088AB5
S3150200486820469847AB6820465B6A04F1280204F1A1
S31502004878240198472F68D7F81481B8F1000F57D04A
S315020048887B6E1B691B78032B52D8DFE803F0549022
S315020048983A02FB6D0DF128090A933B6E49460B93C2
S315020048A8D8F80830D8F80000DB6A9847D8F80830F4
S315020048B8D8F800009B699847D8F80830D8F800005D
S315020048C807F13002D3F81C8007F1340107F13803E7
S315020048D8C047AB68D4ED410A94ED400A20465B69AD
S315020048E89847AB68494620469B6A9847B3689DED48
S315020048F80C1ADDED0B0A9DED0A0ADB68306898474B
S3150200490854E7D8F80830D8F800001B69D7ED430AEF
S3150200491897ED420A9847D8F80830D8F8000007F108
S315020049283002D3F81C8007F1340107F15403C0475B
S315020049380DF12809CDE7B9687B6ABA6A0A91059327
S31502004948FB6806920B93D8F8083097F810115B6942
S31502004958D8F800009847D8F80830D7ED430A97EDFB
S31502004968420A1B69D8F800009847D8F808300DF1B2
S3150200497828094A4605A9DB68D8F800009847D8F8F6
S31502004988083007F13002D3F81CA007F1340107F109
S315020049985403D8F80000D047D8F80830D8F80000F1
S315020049A81B6B07F1500207F14C01984791E7D8F8BB
S315020049B80830D8F800009B699847D8F80830D8F824
S315020049C8000007F13002D3F81C8007F1340107F121
S315020049D83803C0470DF128097BE700BF03469A68EA
S315020049E80020136843F00803136070470246926872
S315020049F8024B116800200B4013607047F0FFFEFC63
S31502004A0802469268024B1268002013400B607047F8
S31502004A180F00010384460020CCE90432CCF80C10BE
S31502004A28704700BF4268034692F91820002A1ADB2B
S31502004A38012010B451090D4C02F01F02203100FA70
S31502004A4802F244F82120BFF34F8FBFF36F8F002085
S31502004A585968074A91F9181042F82100002018608F
S31502004A685DF8044B704700201860704700E100E0CB
S31502004A7830170022F8B52D4B4A690C4613441B021F
S31502004A88054641608360EFF31087012686F3108896
S31502004A98274A6369D168C3F10E0306FA03F321EACA
S31502004AA80303D360D3689620314602F047F887F3AA
S31502004AB810880021637920795B0743EA007320682E
S31502004AC8AA6843EA00131360A3681A4AEB60E3680C
S31502004AD82A60C5E9041394F918308B4224DB627EF6
S31502004AE803F160401201D2B200F5614080F800235A
S31502004AF81148124A40F8235003F5C65052F820408E
S31502004B0861F3104442F8204052F82020BFF35F8F29
S31502004B185A09920003F01F0302F160429E4002F511
S31502004B286142C2F8806116600020F8BD202140006B
S31502004B3800302040545047003017002200600040E1
S31502004B4830B583B0EFF30383104A103B5CB252F8D8
S31502004B5824502869B8B1036801936B690360EB684E
S31502004B6898472B6913B12B69019A1A60084A04F50A
S31502004B78C65352F8231021F4803142F8231052F812
S31502004B88233003B030BD01A8E7E700BF3017002283
S31502004B98006000400022034610461A60704700BFB4
S31502004BA810B40B0A064C1B0153FA81F154F8213052
S31502004BB80020C3F340035DF8044B1370704700BF2F
S31502004BC800084040090A490101F1804101F58001C6
S31502004BD84B68002013807047090A490123EA020C30
S31502004BE801F180411A4001F5800142EA0C42002097
S31502004BF88A607047002001238242CAB203FA02F38E
S31502004C089AB24FEA034308BF1A460B0A5B0103F13D
S31502004C18804303F580039A60704700BF10B4090AFF
S31502004C28490101F1804101F580010C6802EA030C91
S31502004C384CEA040C62EA030202EA0C020A60002049
S31502004C485DF8044B704700BF090A490101F180412A
S31502004C5801F580014B680020C3F30F4313807047A8
S31502004C68012310B44FEA112C4FEA4C1C0CF1804C6C
S31502004C780CF5800CDCF80440C9B28B4099B203EA01
S31502004C8814435B1AB3FA83F35B0900205DF8044BFD
S31502004C9813707047090A490123EA020C01F180419F
S31502004CA81A4001F5800142EA0C420020CA607047A8
S31502004CB8012010B40B0A5B0103F1804303F580035C
S31502004CC8C9B2DC6800FA01F1012A4FEA01400DBFB8
S31502004CD884438C4304430C43DC6000205DF8044B98
S31502004CE8704700BF2DE9F84F0388DBB14FF0000A81
S31502004CF880464FF00109DFF8D4B00024314D4FEA5F
S31502004D08CA07D8F8043035F8022BD919898891428E
S31502004D180AD00134032CF4D1B8F800300AF1010A9A
S31502004D285345EAD8BDE8F88FDB5909FA04F603F0C9
S31502004D38B853B3F1807F244BF6B293F84C2C12D0B9
S31502004D48324230D104F120021BF81230DB09E0D0DE
S31502004D581BF81230012123F08003C8200BF8123009
S31502004D6801F0ECFED5E7324210D004F120021BF81E
S31502004D781230DB09CDD11BF81230012143F0800332
S31502004D88C8200BF8123001F0D9FEC2E7012001F063
S31502004D9881FF0D4B012093F84C2C324383F84C2C9F
S31502004DA801F048FFE1E7012001F074FF064B0120FC
S31502004DB893F84C2C22EA060283F84C2C01F03AFFAF
S31502004DC8C0E700BFA0A2000200E001400020204088
S31502004DD8F8B50646FFF786FFEFF31082012383F341
S31502004DE81088234F3B681BB9402022490B7508756A
S31502004DF83B6801333B6082F31088338800211BB37A
S31502004E081D4D08E01B01134445F823403288013141
S31502004E188BB29A4218D9736853F8314003EBC10230
S31502004E289288E0034FEA1223D2B2EBD502EB0310C3
S31502004E3855F820E024F4803C2EF4803E45F820E024
S31502004E481B0145F820C0DEE7EFF31082012383F346
S31502004E5810883B6813B13B68013B3B603B681BB952
S31502004E68802004490B75087582F31088F8BD00BFC7
S31502004E782C170022000D40400008404008B5034B9D
S31502004E8803600846FFF7A4FF002008BD54524F509E
S31502004E9808B50846FFF79CFF002008BD70B5012635
S31502004EA886B001AB03A80C4615460493ADF80C6010
S31502004EB8ADF808100192FFF715FFEFF3108186F39C
S31502004EC810881D4B1A681AB91C48027540220275C9
S31502004ED81A6801321A6081F31088E9034FEA14222C
S31502004EE8E4B219D4110116480A1940F82250EFF310
S31502004EF81082012181F31088196811B119680139E4
S31502004F0819601B681BB980200C490B75087582F35A
S31502004F181088002006B070BD0948110104EB021280
S31502004F2850F8226026F4803640F8226025F480364E
S31502004F3840F82260D7E700BF2C170022000D404038
S31502004F480008404003465A681B6900209360704770
S31502004F5803465A681B6900205360704703465A681D
S31502004F681B690020D3607047034610B4043900F168
S31502004F780C0C53F8044F51F8042F62651C68A2659D
S31502004F88027D022A0BD08269526852681278062A72
S31502004F9805D06345EDD100205DF8044B70471C68C7
S31502004FA8CA68E2651C682266F3E700BF2DE9F0418C
S31502004FB806460D4607460C4601F10C0854F8043F0E
S31502004FC8D3E9000100F0E4F923681B689B6847F8F7
S31502004FD8043F2A78022A03D11A6C42F420221A6460
S31502004FE84445EBD16A69044B32612A78B561327558
S31502004FF833600020BDE8F08133545047806990F849
S3150200500810C000EB8C004068006800F08BB800BF47
S3150200501838B5002305461C4642680169036091605B
S31502005028AB6903EB84035B680134186800F07CFB08
S31502005038032CF5D1002038BD03460020D3E902230C
S315020050489360704703460020D3E9022353607047F2
S3150200505803460020D3E90223D3607047034670B49F
S315020050685A689E68D26900209168D46841F0004562
S31502005078516875619D6844F00044AC619C6841F0D2
S3150200508800412161146999684C629B6852699A6267
S3150200509870BC704703464FF00041002210B49C686A
S315020050A8104621619C6861619C68A16199684A629F
S315020050B89B689A625DF8044B704700BFD0E90123EA
S315020050C81278042A61F100029A6643681B782BB9A2
S315020050D88368490801395965836899658368D96A75
S315020050E8C90707D44FF4AA015A6683681964D0E936
S315020050F80232DA600020704703469B681232013991
S3150200510803EB820300205960704700BF03469A6882
S315020051180020D26AC2F300020A719B689B6C0B607C
S31502005128704700BF84460020CCE90632CCF814103A
S31502005138704700BF10B490F800C0886EBCF1030F28
S315020051481ED80130AAB9019C496BE40754BF01F085
S315020051581F01C1F3044101F00C01A1F10401B1FAE6
S3150200516881F14909E2B921BB02225DF8044B5A6072
S3150200517870479042E7D9013A5DF8044B1A607047C6
S315020051880AB19042F8D8019C496BE40754BF01F072
S315020051981F01C1F30441090981F00101002AE2D085
S315020051A8824201D30029DFD103225DF8044B5A60FB
S315020051B870470028D8D0F7E72DE9F04F4FF0FF3AAD
S315020051C84FF0000B866885B0009202AB0746884608
S315020051D81446406802F003090A463146CDE902AB95
S315020051E8FFF7A8FF039B356B93B914F0080F14BF9A
S315020051F804220222A107029820D502F1120106EB27
S3150200520881014860B968133201EB82014860BE68C1
S3150200521862061BD5326CB9F1010F42F48002326480
S3150200522827D025F44035BE6845EA0345B9F1000F93
S3150200523816D10020356305B0BDE8F08F4A44123214
S3150200524806EB820250606206BE68E3D4B9F1010F2A
S3150200525823D025F44035022C45EA0345E6D173B935
S3150200526825F0407545EA03650020356305B0BDE8BB
S31502005278F08F25F04075BE6845EA0365F4E7012418
S31502005288786802AB424631460094FFF753FF039B08
S3150200529825F0407545EA0365E6E7022CE0D1DEE72C
S315020052A8002800DA704710B400F1604C124C09016C
S315020052B8124BC9B20CF5614C8CF8001300F5C651B5
S315020052C844F8202053F8212022F4803243F8212082
S315020052D853F82130BFF35F8F012243099B0000F088
S315020052E81F0003F1604303F561438240C3F880213E
S315020052F81A605DF8044B70473017002200600040C0
S3150200530830B5D0E90142526E24781F4D032C52EA79
S3150200531882928A6082681D4BD06A2C6AAA8C04F033
S315020053280F0502F00F0C45EA0C0E1EF0080F1B685B
S31502005338C0F3C35013D092B212F0080F18D101224B
S3150200534814F0080F02FA0CF21BD0032504F0070426
S3150200535805FA04F402FB03F3B3FBF4F302E003FADF
S315020053680CF3EB400122C3404B6000200A7030BDAB
S315020053784FF0030C02F0070214F0080F0CFA02F2BF
S31502005388E3D10124AC40E5E700E001405C170022C6
S315020053984FF0010C2DE9F0430B7C00260CFA03F3BF
S315020053A8C360C3F30D03B3FA83F35B094160037465
S315020053B80B7C804A804F1A44120282604B690D4662
S315020053C843618B690446C0E9066385B0CE69C7F8AE
S315020053D810CFEFF310878CF31088097C774B0A1FDE
S315020053E8052A83BF4FF00042CA40D2436FF00062DB
S315020053F81B691340714A136113690121962001F052
S315020054089DFB87F31088E3681F070DD0EFF3108121
S31502005418012383F310886A4AE06853889BB223EA19
S315020054280003538081F310884FF425410023A268B4
S315020054381160A268D362A268D363A26893642A78C9
S315020054482B7A6968032A4FEAC35301F1FF3000F049
S315020054584E8184BF084643EA0243A268D3624FF0EC
S3150200546800430022A1680B61A1684B61A1688B61A8
S31502005478A3685A62A3689A62A368B169D961A368E4
S31502005488F1691962A36800219866A36858664FF005
S31502005498FF302B78CDE90201D6F83880002B40F090
S315020054A8128101234FF0030C6A68A7685208013A71
S315020054B802927A65A1688A652978032903D9A168BF
S315020054C8CA65A1680A66B26BBAB932788AB12F7808
S315020054D87278022F4FEA82104FEA021100F00F810A
S315020054E840F21681032248EA020202430A4342F4C0
