S02A000052413654335F4D43494C56315F53504D5F4C4553535F464F435F4532535F563130312E7372656313
S315000000001810002041550000A95300003D5500007E
S315000000103D5500003D5500003D5500003D55000092
S315000000200000000000000000000000003D55000038
S315000000303D550000000000003D5500003D55000004
S31500000040594B0000FD510000413A0000000000003D
S31500000050000000000000000000000000000000009A
S31500000060000000000000000000000000000000008A
S31500000070000000000000000000000000000000007A
S31500000080000000000000000000000000000000006A
S31500000090000000000000000000000000000000005A
S315000000A0000000000000000000000000000000004A
S315000000B0000000000000000000000000000000003A
S315000000C0000000000000000000000000000000002A
S315000000D0000000000000000000000000000000001A
S315000000E0000000000000000000000000000000000A
S315000000F000000000000000000000000000000000FA
S3150000010000000000000000000000000000000000E9
S3150000011000000000000000000000000000000000D9
S3150000012000000000000000000000000000000000C9
S3150000013000000000000000000000000000000000B9
S3150000014000000000000000000000000000000000A9
S315000001500000000000000000000000000000000099
S315000001600000000000000000000000000000000089
S315000001700000000000000000000000000000000079
S315000001800000000000000000000000000000000069
S315000001900000000000000000000000000000000059
S315000001A00000000000000000000000000000000049
S315000001B00000000000000000000000000000000039
S315000001C010B5054C237833B9044B13B1044800E04D
S315000001D000BF0123237010BDA8000020000000000E
S315000001E03089000008B5034B1BB10349034800E002
S315000001F000BF08BD00000000AC00002030890000F0
S315000002002DE9F84F714B724C1A7823789A4201D037
S31500000210BDE8F88F6F4A704B1288D3ED007A00EE76
S31500000220102AB8EE400AB4EEE70AF1EE10FA40F1F1
S31500000230C18083ED000A694BDFF804B29A6818683A
S3150000024093699847664B9FED676AD3ED007AF7EEA0
S31500000250082A67EE867A644A67EEA27A1088634AAD
S3150000026007EE100AD2ED003A614B624A93ED003A6E
S3150000027092ED005A6049614B614AD1ED006A1568FA
S3150000028093ED004A5F4A6049604BB8EEC77AD1EDFC
S31500000290004AD3ED005AC2ED007A5D495D4B0E6807
S315000002A019685D4B9660D9665C49C3ED0E6A91ED9F
S315000002B0006A5B4963EEA63A24EE264A594AD1ED16
S315000002C0006A5949D2ED007A23EE073A64EE874A6E
S315000002D025EE075A65EE875A91ED007ADFF864A19C
S315000002E0DFF86491DFF86481DFF864E1DFF864C168
S315000002F04E4F4F4A9D6683ED023A83ED236AC3ED66
S315000003000B3A83ED0C4AC3ED0F4A83ED105AC3ED49
S31500000310035AC3ED246A83ED257AC3ED267AA3F842
S315000003208800444DDBF800B0D9F80090D8F800807A
S31500000330DEF800E0DCF800C03F68DAF800A0C3F899
S315000003409CB0D5E90F3583ED016A1880C3ED026ACA
S3150000035083ED037AC3ED047AC3F814B0C5F800A0A0
S31500000360C5F8049082ED076AC2ED086A82ED097A43
S31500000370C2ED0A7AC2F80480C2F808E0C2F80CC0DE
S315000003801761C2F82CB010834FF001022A492B4E98
S3150000039081ED096AC1ED0A6A81ED0B7A0884C1ED27
S315000003A00C7A2378327083F00103C1F834B02370DD
S315000003B0BDE8F88FB1EE400AF4EEC07AF1EE10FA1D
S315000003C03FF537AFB0EE670A35E700BF24010020DE
S315000003D0A80100200E02002018010020607D000008
S315000003E004010020F304B53F26010020000100208F
S315000003F0E0000020D800002014010020FC000020AE
S315000004001C01002070030020D4000020E40000201E
S3150000041008010020200100209C030020F800002095
S31500000420EC000020F4000020F00000201001002065
S315000004303C0300204C02002070040020AC01002088
S31500000440E8000020C4000020C8000020CC000020E6
S31500000450D00000200C010020474B4849B3F8880023
S31500000460D1ED006A07EE900AD3ED025AF8EEE77A6C
S315000004709FED437A002293ED233AD3ED243A93ED90
S31500000480254AD3ED264A93ED275A70B585EEA76A1D
S315000004903C4CC6EE875A3C4D3C4E246C32702A705A
S315000004A0D4ED006A94ED017A394ED3F868E03080D5
S315000004B03848394A80ED003A38489C69C0ED003A20
S315000004C03748D3F86CC080ED004A3648364DC0ED4B
S315000004D0004A36482C6080ED005A35485568C0ED14
S315000004E0005A3448946880ED006A3348C0ED006ACB
S315000004F0324880ED007A3248C0F800E03148C0F852
S3150000050000C03148056093ED0E7AD3ED0F5A93ED96
S31500000510106AD3ED036A93ED0B4AD3ED0C4A85EED0
S31500000520A75AC6EE275A86EEA76AC4EE076AC4EE35
S31500000530877AD2F810C0254BD2F80CE0C3F800C079
S315000005408A68234B23481A60234B046083ED007AA4
S31500000550224D234C23482449244A254B84ED005A36
S31500000560C0ED005A81ED006AC2ED006AC3ED007A63
S31500000570C5F800E070BD00BF9C030020700300209A
S31500000580B6C307404C020020A80100202401002029
S3150000059026010020F80000203C030020EC0000208B
S315000005A0F0000020F4000020DC000020E80000201D
S315000005B004010020E0000020C4000020C800002044
S315000005C01C01002020010020CC000020100100208A
S315000005D008010020D0000020140100200C0100209A
S315000005E0D4000020D8000020E400002000010020F4
S315000005F0FC00002038B55B490B780133DBB2042BD5
S315000006000B7019D8584C2378012B00D038BD574BA6
S3150000061057499A681868536A9847564B56499A68D4
S315000006201868D36A9847554B55499A681868936B6A
S3150000063098470023237038BD524B53481D695C6AA6
S31500000640056052485D69046051489C6A05605148DE
S315000006509D6904605048DC69056050481D6A046065
S315000006604F48D3F8F44005604E489D6804604E48F4
S31500000670DC6805604D48DD6B04604D481C6C056008
S315000006804C484D4A04605D6C4C48546805604C48C3
S31500000690956804604B48146905604B489FED4B7A9A
S315000006A004605569D3ED0C7A494893ED1B5A90EDD9
S315000006B01C4AD0ED1D4AD3ED1C5A93ED206A454CD9
S315000006C0D3ED216A2560444C27EE877AC4ED007A83
S315000006D0D2ED0F7A8569414CC3792560404DD2F839
S315000006E040E02B70057A43793E48D2F858C0057031
S315000006F03D48D46D03703D4B3D4883ED004A3D4B6C
S315000007000460C3ED004A3C4B3C4C83ED005A3C4B25
S31500000710C3ED005A3B4B83ED006A3B4BC3ED006AC9
S315000007203A4BC3ED007A3A4BC3F800E0394BC3F8B5
S3150000073000C0394B506FDB6BD2F878C01B88374A44
S3150000074007EE903AF8EE677A0023C7EE276A0B7039
S31500000750334BC4F800C0C3ED006A106004F076FFA6
S3150000076050E700BFAD010020AC010020907D0000E5
S31500000770800300205C7C000030020020147C000016
S31500000780140200200C05002048010020440100202E
S31500000790500100204C010020540100205801002087
S315000007A05C010020A00100209C010020A401002083
S315000007B07C010020800100207004002084010020BC
S315000007C03C0100204001002078010020EBC91841BF
S315000007D06C070020280100208801002094010020D9
S315000007E0A9010020AA010020AB01002090010020F1
S315000007F06C0100208C0100203401002070010020D3
S315000008002C0100203801002030010020600100206A
S3150000081068010020640100204C02002074010020C1
S315000008209801002010B590B101281ED002280CBFF7
S315000008300122002240F20D110E4803F05BF9BDE8DB
S31500000840104000224FF483710A4803F053B9012285
S3150000085040F20D11074803F04DF9BDE810400122A2
S315000008604FF48371034803F045B940F20D1100229D
S31500000870F0E700BF440400202DE9F04F4FF0120AC4
S315000008804FF029094FF0080897B0834D06AC0FCDFD
S315000008900FC42B68DFF874B224F8023B0BAE1B0CB6
S315000008A02370BBE80F000FC6BBE80F000FC69BE81E
S315000008B007007A4B03C683F800A0794B03AF83F891
S315000008C00090784B328083F80080774B774C93E822
S315000008D0070003C74FF0420C0DF1180E04EB0A0592
S315000008E03A7001E01EF801CF04F801CFAC42F9D10D
S315000008F06F4B53210BAA03F1290001E012F8011FE7
S3150000090003F8011F8342F9D16A4B4D220DF10D0107
S3150000091003F1080001E011F8012B03F8012F8342CF
S31500000920F9D14FF000074FF440720824624B634838
S31500000930D3E900619D68624B04801F80614B30469D
S315000009401A802B680196009598475F4BDFF8C09197
S31500000950D3E9000102F0C2FF5C4BDFF8B8B19C6836
S31500000960D3E9005123682846984763692846984783
S31500000970DFF8A4E14C467746DBF89860544BDFF885
S315000009809CC19D6E0FCE0FC73368DFF894A10FCBC5
S31500000990CBF898E0DFF88CB18CE80F000FCD5E46FF
S315000009A00FC4CEF810C095E8070084E80700D9F810
S315000009B01810A022504606F031F9464B464C5D6EA3
S315000009C0DFF864810FCD0FC4296844224046C9F878
S315000009D018A0216006F022F9D8F83CC03F4BDFF89A
S315000009E04C91D3F898A0BCE80F000FC63C4FD8F83E
S315000009F040309CE803003C4686E8030093E8030089
S31500000A0089E803009AE803000E46DFF824E1324B3A
S31500000A108EE80300C3F81080C8E90FB90FCE0FC4E3
S31500000A20304BCEF804705F6F0FCE0FC40FCE0FC4DD
S31500000A302D4D336823600FCF0FC50FCF0FC54FF075
S31500000A400004396870222948296006F0E7F84FF457
S31500000A501661264AA5F120031A620123244A14705E
S31500000A60244A1180244A1370244A1470244A1370AD
S31500000A70244A1370244B1C70FFF7EEFCFFF7C0FBF3
S31500000A8002200322FA2105F0CDF8DDE900502B699A
S31500000A9017B0BDE8F04F1847347B0000FE01002078
S31500000AA0DD010020E8010020487B0000EB0100206A
S31500000AB0B3010020DF010020607D00000802002055
S31500000AC00A0200200C020020587E0000807B0000F5
S31500000AD06C0700200C050020300200207004002066
S31500000AE03C03002028060020A8020020CC0200209B
S31500000AF0000200200E02002004020020FF01002058
S31500000B0001020020AF010020AE010020547B00004E
S31500000B1080030020D00600201C0200207003002065
S31500000B209C030020900200204C020020440200207A
S31500000B30140200202DE9F0479A4C9B4D22782B7821
S31500000B4082B09A422CD023702BBB984E984F3378A4
S31500000B503B70DFF88C82FFF753FB98F800303A7849
S31500000B60934204D0032B40F2AF8088F80020914BCB
S31500000B70D3F80890D3F800A0D9F8203050468B4916
S31500000B8098473B783078032B00F0968002B0BDE89A
S31500000B90F047FFF747BE012B09D002B0BDE8F0874A
S31500000BA0012A04D0002AF8D1814F804ED1E7814B2B
S31500000BB07E4E1F689D68314638462B6A98473478C2
S31500000BC0012C5FD0022C41D07CB3DFF818827A4B1F
S31500000BD09FED7A7A1B88DFED7A7A00EE103AB8EE4E
S31500000BE0400A30EE470A20EE270A764C384684ED56
S31500000BF0000AAB699847D4ED007A9FED737AF4EE5C
S31500000C00C77AF1EE10FA55DD9FED707AF4EEC77AE9
S31500000C10F1EE10FA4CBF01230023307888F800303B
S31500000C2002B0BDE8F047FFF7FDBD4FF441716848DB
S31500000C300DF1070202F034FF9DF80730012B63D057
S31500000C400022644BDFF89C811A70C0E74FF40071F4
S31500000C500DF107025E4802F023FF5F4A9DF8071078
S31500000C601378012B42D0002BAFD10129E8D1594C82
S31500000C7020780130C0B20A2800F28E80DFF8648145
S31500000C802070A4E70DF107024FF44171504802F0BD
S31500000C9007FF9DF80720002A40D000224D4B1A700E
S31500000CA0DFF8408198F80030002B90D03846EB688A
S31500000CB098478CE70023B0E7002837D0022804BF06
S31500000CC0387088F8000061E7012B3B704AD0032B8F
S31500000CD03ED0002B7FF44BAF364BD3F800A0D3F8B1
S31500000CE008905046D9F80C30984745E70029A7D117
S31500000CF03848DFF8F08003780133DBB20A2B92BF65
S31500000D0003700170117062E7324A13780133DBB267
S31500000D100A2B35D8DFF8CC80137058E72D490B78AD
S31500000D200133DBB20A2B27D80B70B9E701234FF446
S31500000D301662294923700B702B70284B387088F87F
S31500000D4000001A80FFF788FBFFF75AFA30781DE794
S31500000D50184BD3F800A0D3F808905046D9F81030B5
S31500000D60984709E7134BD3F800A0D3F808905046EC
S31500000D70D9F808309847FFE6DFF868800A7095E7EB
S31500000D80DFF86080147098F80030012B3FF41FAF35
S31500000D903846AB6898471AE7237038462B691170B6
S31500000DA0984712E704020020AF010020000200204D
S31500000DB0FF010020607D00001002002000E0FF44DB
S31500000DC0C5499CBFB00100200000C8C30000C8434D
S31500000DD04404002003020020010200200E0200202D
S31500000DE0AE0100200202002080B108B5084B186849
S31500000DF002F0E0FD074B01219A681868536998478D
S31500000E00054A138843F00103138008BD704700BFED
S31500000E10587E0000607D0000060200200379032B47
S31500000E2004D0042B1DD0022B0AD070470E4B1B7822
S31500000E30022BFAD00D4B0E499A681868136B1847A7
S31500000E4000B50C4B83B0DA680521186893690DF17B
S31500000E5006029847BDF80620074B1A8003B05DF8D6
S31500000E6004FBFFF7C7BB00BF00020020607D000047
S31500000E7006020020CC7B000010020020012208B5EB
S31500000E80034B1A601A64FFF7F7FCFFF753FEFCE703
S31500000E9000700040022800D07047024B0248596893
S31500000EA002F04CBF8C7B00004404002008B5FFF71D
S31500000EB0E5FF002008BD00BF0346012200201A718D
S31500000EC0704700BF0346D3ED057A27EE800A00205F
S31500000ED083ED070A704700BF03460868C3F87C0124
S31500000EE00020704700B58E4600F1800CBEE80F006A
S31500000EF0ACE80F00BEE80F00ACE80F009EE80F005C
S31500000F008CE80F0000205DF804FB00BF03460022BA
S31500000F10D3F80CC000B5D3F810E0C1F800C0C1F892
S31500000F2004E0D3F818C0D3F838E00A74C1F80CE02E
S31500000F30C1F808C01B7A1046012B08BF1A460A746E
S31500000F405DF804FB2DE9F04F00278D692DED028B2E
S31500000F50878080F8A070C7710772B5F8883080F86E
S31500000F60257007EE903A95ED067A9FED5C8ADFEDE7
S31500000F705C8AF8EE677A0446002667EE887A27EEE2
S31500000F80287A05F1880A05F1680B95ED010A816654
S31500000F9000F16C0283B0C6608661C0F88C600662A0
S31500000FA0884650465946C4ED057A84ED1F7A05F009
S31500000FB005FC95ED1E7AD5ED047ADFED4A5A95EDDE
S31500000FC0016A27EE257A67EEA57A27EE067A67EE9E
S31500000FD0867AF0EE006A77EE265A37EEA66A36EE85
S31500000FE0C74A76EEE76A95ED060AC7EE254A87EE0A
S31500000FF0865A84ED337AC4ED2E7A84EE257AC6EECF
S31500001000867A5146F7EE000AC4ED354A84ED305A29
S3150000101084ED347AC4ED2F7A20EE280A04F14800D4
S31500001020C4F8C460C4F8C860C4F8B060C4F8B4605A
S3150000103005F062FB04F5B07984F8447095ED070A73
S31500001040484605F05DFDD5ED0F2A95ED013A95ED83
S315000010500E2AD5ED1C1A95ED1D1AD5ED270A95ED2C
S31500001060260A484662EE882AB5F8881005F052FD31
S3150000107095F82730012B17D0D8F8083053B1D3E9AB
S315000010800112186812689047D8F808309A681868EC
S31500001090536898470020144B84F82400236003B05B
S315000010A0BDEC028BBDE8F08F95F828305BB904F1F2
S315000010B0D800019005F0AEFB95ED010A594601985E
S315000010C005F0CCFBD8E795ED271AD5ED010A95ED8D
S315000010D0080A04F59A7005F0A1F9CDE75077D63DD8
S315000010E0D7B3DD3FDB0FC9404350534D2DE9F041E7
S315000010F08C692DED028BB4F8883094ED067A07EEF4
S31500001100903A9FED4D8ADFED4D8AF8EE677A0546F7
S3150000111027EE287A67EE887A04F1880704F16808D2
S31500001120816600F16C0294ED010A4146384685ED70
S315000011301F7AC5ED057A05F041FB94ED1E7AD4EDD4
S31500001140047ADFED3F5A94ED016A27EE257A67EEC1
S31500001150A57A27EE067A67EE867AF0EE006A77EED3
S31500001160265A37EEA66A36EEC74A76EEE76A94ED59
S31500001170060AC7EE254A87EE865A85ED337AC5ED0F
S315000011802E7A84EE257AC6EE867A3946F7EE000A7E
S31500001190C5ED354A85ED305A85ED347AC5ED2F7AA1
S315000011A020EE280A05F1480005F0A6FA002305F509
S315000011B0B07685F84430304694ED070A05F0A0FC79
S315000011C0D4ED0F2A94ED013A94ED0E2AD4ED1C1AB3
S315000011D094ED1D1AD4ED270A94ED260A304662EEE8
S315000011E0882AB4F8881005F095FC94F82730012B6E
S315000011F004D0BDEC028B0020BDE8F08194F82830C5
S315000012005BB905F1D80094ED010A414605F026FBCD
S31500001210BDEC028B0020BDE8F08105F59A7094EDD7
S31500001220271AD4ED010A94ED080A05F0F7F8BDEC8B
S31500001230028B0020BDE8F0815077D63DD7B3DD3F65
S31500001240DB0FC94038B50023856E0446AA690371D1
S3150000125080F8243092F82730012B08D0AB681BB1F8
S315000012609A681868136B98470020206038BD92F87A
S3150000127028301BB9D83005F0E3FAEFE700F59A708D
S3150000128005F002F9EAE700BF38B50022044600235C
S31500001290816E48308D69E360A361C4F88C302362A7
S315000012A0C4F8C430C4F8C830C4F8B030C4F8B43098
S315000012B0E366A367A28084F8A020E271227284F814
S315000012C0442005F025F904F5B07005F01FFC95F8EB
S315000012D02730012B03D0002084F8240038BD95F870
S315000012E028303BB904F1D80005F0AAFA002084F8AA
S315000012F0240038BD04F59A7005F0C6F8002084F87D
S31500001300240038BD70B52DED028B002384B0CDE9E5
S315000013100233836E04469D6995F88430002B3FD0D6
S31500001320022B0CD0DFEDCE7AB0EE677A002084ED8A
S31500001330037AC4ED047A04B0BDEC028B70BD90F85C
S31500001340A020012AEED190F82420002A40F0C9817D
S3150000135080F8243095F82530012B51D194F844308B
S31500001360012B4DD104F1480094ED220A019005F0BD
S315000013700DFA94ED230AB5EEC00AF1EE10FA0198C3
S3150000138000F37C8200F17A829DED027AB5EEC07A96
S31500001390F1EE10FADDED037AC8BF9FEDB17AC5E72D
S315000013A0C43094ED270A05F01DFCF0EE407A04F1F6
S315000013B0B00094ED230AC4ED0B7A05F013FC237AF2
S315000013C084ED080A012B10D195ED107ADFEDA76A9E
S315000013D0F0EEC07A27EE267AB4EEE77AF1EE10FA4E
S315000013E0C4BF84ED060A84F8253094F8A030012B9A
S315000013F023D0002384F8253095F82530012B04D01E
S315000014009DED027ADDED037A90E794F84430012BE6
S31500001410F6D104F1480094ED220A019005F0B6F9E0
S3150000142094ED080A019802AA04F1800105F07AF801
S315000014309DED027ADDED037A78E7A26E6379926913
S31500001440BBB3022B1AD09FED860AD2ED030ADFED5D
S31500001450877A60EEA70A05F0B3FBA36E9E6994F83F
S31500001460253084ED060A012B00F00681227A032A34
S3150000147000F23F82DFE802F0987127BD94ED060A7C
S3150000148094ED077ADFED796A37EE407AD2ED027A8B
S3150000149067EEA67AF0EEC76AC7FEE67A17EE103A4E
S315000014A0F0EEE77A002BB8BFF1EE677A30EE270A46
S315000014B0CBE7E37903F0FD03012BC4D102239FEDB3
S315000014C0680A6371C1E794ED272AD4ED0D1A94EDED
S315000014D0031AD4ED260A94ED250A05F08FFADFEDFE
S315000014E0617AD6ED060A60EEA70A05F069FBD4ED2F
S315000014F0087AF5EEC07AF1EE10FAC0F2868196ED22
S31500001500127A9FED5B6AD4ED276A27EE067AF4EE2F
S31500001510C76AF1EE10FA40F28881A26E94F825307F
S315000015209669012B8DED030A00F0C08096F8252000
S31500001530012A04BF002384F84430E379042B07D83A
S31500001540DFE803F0BC7868030300012A00F0A781F6
S31500001550DFED437ACDED027A4BE7D4ED237A94EDB5
S315000015601D7A70EE677AD4ED1E6A27EE877A94EDBF
S315000015701C8AD4ED1F0AC4ED1B7A37EE260A27EE25
S31500001580888A05F01DFBD6ED060ADFED367A84ED76
S315000015901E0A60EEA70A38EE000A05F011FBA36EDC
S315000015A09E6994F82530BCE796F82430B0EEC08AE0
S315000015B0012B00F06981D6ED0F7A9FED2C7A67EE4C
S315000015C0877AB4EEE78AF1EE10FA0BDB96F826304E
S315000015D0012B00F07F810123237296F82430012B22
S315000015E000F06B81A36E9FED1E0A9E6994F825306C
S315000015F097E794ED0A7AD4ED047A77EEC77A27EE68
S31500001600277AB5EEC07AF1EE10FA40F21B81CDEDE5
S31500001610037A8BE7D4ED037A96ED0C7A77EEC77AE8
S31500001620F5EEC07AF1EE10FA94D80323DFED0C7ACA
S31500001630E3718FE7D4ED066A96ED0F7A9FED0B6A9C
S31500001640F0EEE66A27EE067AF4EEC76AF1EE10FAD5
S31500001650D4ED037AFFF67EAF0223E3717AE700BF8B
S3150000166000000000D7B3DD3F0000803B5077D63D39
S3150000167035FA8E3C0000000003222272D6ED0D7A68
S315000016805FED076A94ED047A67EEA67A67EE877ACD
S3150000169037EE677AC4ED0A7A67EE877AF5EEC07A96
S315000016A0F1EE10FA40F2CE808DED037A0023E3715D
S315000016B096F82520012A01D184F84430D4ED037A26
S315000016C0D6ED0B6A96ED0E7A77EEA67AF4EEC77A29
S315000016D0F1EE10FAFFF63EAF0123F0EE477AE37122
S315000016E038E74279002A00F08880022A58D190ED26
S315000016F0060A90ED077A5FED236A37EE407AD5ED5C
S31500001700027A67EEA67AF0EEC76AC7FEE67A17EEA9
S31500001710103AF0EEE77A002BB8BFF1EE677A30EEBA
S31500001720270AD5ED030A5FED2F7A60EEA70A05F0CA
S3150000173047FAA36EB0EE407A9E6984ED060A96F8E3
S315000017402730012B49D094ED230A77EE407A94EDA9
S315000017501D7A94ED1E0A27EE877A94ED1C8AD4ED45
S315000017601F0AC4ED1B7A37EE000A27EE888A05F0B9
S3150000177027FAD6ED060A84ED1E0A38EE000A05F0B1
S315000017801FFAA36E8DED030A9B6993F82530012B92
S3150000179009D0E37973B1012B33D000230293D9E545
S315000017A01FED4C0ABDE70021E27984F84410012AB6
S315000017B027D003D803220023E271EFE7033A012A78
S315000017C0EBD884F8443004F1480004F0F1FF012816
S315000017D0F0D104220023E271E0E796F82830B3BB8B
S315000017E0D4ED230A94ED040A06F1880104F1D80029
S315000017F005F094F894ED067AA7E71FED620A4371A7
S315000018008FE70322E368E271C8E77FF586AE96EDBF
S31500001810127A1FED696AD4ED276A27EE467AF4EE4E
S31500001820C76AF1EE10FAFFF678AE01200021A26E2B
S315000018302072C4ED067A84ED1E0A94F82530966966
S3150000184021636EE600221FED750A227269E6B6F87C
S31500001850883096ED267A07EE903AF8EE677A94EDA0
S31500001860040A67EE877AD4ED230A27EE800A04F588
S315000018709A7004F00FFE94ED067A66E702AA04F168
S31500001880800104F04FFE7FE5F0EE400A04F5B070EB
S3150000189094ED250A05F0F2F884ED0E0A8BE684F83D
S315000018A0442004F1480004F083FF01287FF4BDAE14
S315000018B004235FED907AE3714CE604F5B07005F011
S315000018C025F91FED940AA36E9E6984ED0E0A94F81D
S315000018D0253026E60223237294ED0B1AD6ED0E0A66
S315000018E096ED110A06F1880005F0A0F884ED0D0AC0
S315000018F073E61FEDA00A14E630B5046883B0D4E998
S3150000190000531A693AB101215B69684600938DF864
S31500001910041090476368196819B1A36820689B6929
S3150000192098472B79012B03D1A3682068DB69984778
S315000019306368596821B1A36820681B6A9847636881
S315000019401A6932B102215B69684600938DF804106A
S31500001950904703B030BD00BF38B50D464B6804460E
S31500001960C0F89810D3E901121868126890472B68DE
S31500001970D3E90112186812689047002000230A4A2A
S3150000198084F82C0084F84C0060602260E36060817B
S3150000199023616361A36123626362A362E3632364D9
S315000019A06364A36438BD00BF44F5D40410B504468F
S315000019B0D0F898301B689A68186853689847D4F826
S315000019C098305B689A681868536898470020002327
S315000019D084F82C0084F84C00E36023616361A36102
S315000019E023626362A362E36323646364A364206087
S315000019F010BD00BFD0F89830186818B18368006829
S31500001A001B691847704700BF03469B7900200B707F
S31500001A10704700BF002310B5D0F898208EB05068EC
S31500001A200C46069328B1836801A91B6A006898478B
S31500001A30069B23600EB010BD002310B5D0F8982089
S31500001A408EB050680C46059328B1836801A91B6ABD
S31500001A5000689847059B23600EB010BD06207047AE
S31500001A6006207047D0F8982010B50446106828B1B3
S31500001A7082680068D3689847D4F8982053681BB1E9
S31500001A809A681868D3689847C0B210BDD0F89820F5
S31500001A9010B50446106828B18268006893689847B4
S31500001AA0D4F8982053681BB19A68186893689847C9
S31500001AB0C0B210BD00207047D0F8983010B51A6833
S31500001AC032B10446936810689B689847D4F89830FA
S31500001AD05B681BB19A68186893689847002010BD28
S31500001AE0FFF7EABF002238B583790446022B42810C
S31500001AF014D80D4801EB410210441A44C35C0B484C
S31500001B0050F8225020462172E371A84718B1638924
S31500001B1043F004036381E379A37138BD0221044DC8
S31500001B200B4682714181EDE718830000E8820000D0
S31500001B30E11A000083880BB90020704710B5032115
S31500001B400446FFF7CFFF0022002384F82C2084F8F8
S31500001B504C200020E36023616361A361236263621A
S31500001B60A362E36323646364A364A28010BD00BF21
S31500001B702DE9F0412DED028B9FED4C8AD0F898307F
S31500001B8094B05B680D465A68D3F800809B68176866
S31500001B9004468DED038A40461B6A07A99847002F25
S31500001BA076D0BB6869461B693868984798F85830FC
S31500001BB00646012B48D0F0EE487AB0EE485AF0EED1
S31500001BC0486AD4F898309DED036A1A699DED0B7A40
S31500001BD0D2ED005AF4EEE75AF1EE10FA3DD4F0EEEB
S31500001BE0E66AF4EEE56AF1EE10FA36DCB0EEC55AB6
S31500001BF0B4EEE55AF1EE10FACCBF4FF48073002331
S31500001C00D2ED017AB4EEE76AD2ED037AF1EE10FA7C
S31500001C10B4EEE76AC8BF43F00203F1EE10FAB0EE85
S31500001C20C77AD2ED027A1BD4F4EEC77AF1EE10FA37
S31500001C301DD4A2881343A3802B80FBB9304614B071
S31500001C40BDEC028BBDE8F081DDED006A9DED025A28
S31500001C50F0EEE67A76EE856AB3E74FF48073CFE767
S31500001C60B4EEE77AF1EE10FA43F0800318DDA288AD
S31500001C70134343F004039BB2A3802B80204602212A
S31500001C80FFF730FF304614B0BDEC028BBDE8F081A3
S31500001C900646F0EE487AB0EE485AF0EE486A90E70B
S31500001CA0A2881343A3802B80E8E700BF0000000052
S31500001CB006207047002210B583790446022B428124
S31500001CC014D80D4A0D491A44033351F82330012123
S31500001CD0D27820462172E271984718B1638943F0A1
S31500001CE004036381E3790020A37110BD0221827190
S31500001CF0034B0A464181ECE718830000E8820000A6
S31500001D00E11A0000002310B582790446022A4381B5
S31500001D1011D80C490C48895C50F8222020462372C1
S31500001D20E171904718B1638943F004036381E37955
S31500001D300020A37110BD0220A37101460346034A89
S31500001D406081EBE718830000E8820000E11A0000DA
S31500001D5010B5044600228088A3790143022BA18096
S31500001D60628114D80D4A0E481A440633917950F808
S31500001D70233002222046E1712272984718B1638906
S31500001D8043F004036381E3790020A37110BD0220B0
S31500001D90044B0146A2716081EBE700BF1883000087
S31500001DA0E8820000E11A000010B502790368022AF1
S31500001DB01B6882B005D0032A2AD0012A21D002B09E
S31500001DC010BD93ED0F7AD3ED107A93F84C20D3F82B
S31500001DD044E083F86020D3F89820D3F848C05268CE
S31500001DE003F1500194681068226983ED147AC3EDFB
S31500001DF0157AC3F858E0C3F85CC002B0BDE81040DD
S31500001E001047D3F898209368002BD8D0032105E01B
S31500001E10D3F898209368002BD1D00421D268684665
S31500001E2000928DF80410984702B010BD30B50579C0
S31500001E300368012D1C6883B00DD0022D09D1D4F89A
S31500001E40982093682BB1D26868468DF804500092AA
S31500001E50984703B030BDD4F8983004F164015B684C
S31500001E609A681868136A9847E36EA26E636194F8DD
S31500001E708C30616E206F2261D4F8982084F82C3063
S31500001E809368D4F880C0A061E160D4F88400D4F8E7
S31500001E908810C4F820C06062A162002BD3D1D8E7B5
S31500001EA0034600B5D1F800C0D2F800E04968526890
S31500001EB00020C3F880E0C3F888C0C3F88C10C3F8CC
S31500001EC084205DF804FB00BF0346002083ED240A4E
S31500001ED0C3ED250A704700BF0346002019767047F8
S31500001EE00346D3F804C00020C1F800C09B68136005
S31500001EF0704700BF062070470620704738B50B466E
S31500001F0004464D6800F11C0295ED050A2946C0F805
S31500001F10983005F1180004F013FA284695ED050AE5
S31500001F2004F1740104F05EFA002038BDF0B50368D0
S31500001F30174E83B0B34227D004464D6800F11C0209
S31500001F4005F11807C0F8981039461046019204F0BA
S31500001F50D7F9019A95ED050A3846294604F1740722
S31500001F6004F0EEF995ED050A3946284604F03AFAEA
S31500001F70384604F04FFA00224FF4807300202660A2
S31500001F806261238303B0F0BD0E2003B0F0BD00BF35
S31500001F905345414D10B504461C3004F0A7F904F131
S31500001FA0740004F037FA00202076206010BD00BFD0
S31500001FB010B504461C3004F099F904F1740004F0DD
S31500001FC029FA4FF48073002223830020626110BD3A
S31500001FD02DE9F04104461F46D0F89830D0ED231A7B
S31500001FE090ED221A82B0D0ED210A90ED200A1C3025
S31500001FF0D3F804800D461646019004F0D3F8D4EDCC
S31500002000230A019894ED030A04F058F9F0EE407A99
S31500002010D4ED220AC4ED017A019894ED030A04F086
S3150000202059F9D4ED017A84ED020A87EE800A04F0AC
S315000020300BFEB4EE400AF1EE10FA84ED040A68BF16
S31500002040002387ED000A68BF2361237E012B30D071
S315000020500123637698F8003094ED247A012B04BFAF
S31500002060D4ED257A37EE677A84ED037A86ED007A29
S31500002070D8ED057A94ED056A67EE277ADFED166AE4
S3150000208077EE867AF4EEE67AF1EE10FA09DB77EE71
S31500002090E67A0020C4ED057AC5ED007A02B0BDE807
S315000020A0F081F5EEC07AF1EE10FA48BF77EEA67A27
S315000020B0EFE7637E012B04D10022D4F890306276DC
S315000020C0E36794ED040A04F10C0104F1740004F0D2
S315000020D075F994ED037AC9E7DB0FC940062070470E
S315000020E006207047062070470620704703460020EA
S315000020F083ED080AC3ED090A83ED0A1A704700BF8B
S3150000210000B5436F1A7C1B6A012A3FD0D0ED026AE4
S3150000211090ED0C5A90ED037AD0ED0D5AD0ED047A7D
S3150000212090ED0E6A76EEC56A37EE657A77EEC67A78
S31500002130C1ED006A81ED017AC1ED027AD0ED197A1E
S31500002140D0ED1A5AD0ED186A77EEE57A76EEA66AE1
S31500002150426990ED167ACA6093F8263077EEE67AF1
S31500002160012B9FED106A08BFDFED0F6A27EE067A96
S3150000217008BF67EEA67A67EE277A8269C3690020F0
S31500002180C1ED047A4A618B615DF804FBD0F808C0A2
S31500002190C268D0F810E0C1F800C0C1F808E04A6093
S315000021A0CCE700BF3FC61C3F0AD7933F034600213A
S315000021B00022084683F82C10D985DA631A645A641B
S315000021C0704700BF30B4EFF31084012383F3108807
S315000021D0144B1A682AB94FF0400C134DEA7085F873
S315000021E003C01A6801321A6084F31088020A0F4C81
S315000021F0120152FA80F044F82010EFF31082012108
S3150000220081F31088196811B11968013919601B68C2
S315000022101BB980200449CB70C87082F3108830BC8B
S31500002220704700BFF4090020000D08400008084070
S31500002230F8B50446436F02215A691D6A5368D3E90B
S315000022400127DE68106802F0A3F90221386802F05F
S315000022509FF90221306802F09BF9D4E91313104A62
S31500002260288D11401340C4E91313FFF7ABFF216D0E
S31500002270688DFFF7A7FFE16CA88DFFF7A3FF216D1F
S31500002280E88DFFF79FFFE16C288EFFF79BFF216D1E
S31500002290688EFFF797FF012384F85430F8BD00BF1E
S315000022A0FFFFFE0F436FD1ED006A1B6A91ED017AC5
S315000022B093F82630012B59D0D1ED027AD0ED175A7A
S315000022C090ED1B6A66EEA56A76EE866AC2ED006A36
S315000022D0D0ED175A90ED1B6A27EE257A37EE067A6F
S315000022E082ED017AD0ED175A90ED1B6A67EEA57A5A
S315000022F077EE867AC2ED027A90ED196AF4EEC66A36
S31500002300F1EE10FAD0ED1A5A10DDB4EEC67AF1EEFF
S3150000231010FA82ED006A15DDF4EEC67AF1EE10FAD7
S3150000232082ED016A1ADD82ED026A7047F4EEE56A13
S31500002330F1EE10FAB4EEC67A48BFC2ED005AF1EEDD
S3150000234010FAE9DCB4EEE57AF1EE10FAF4EEC67AAC
S3150000235048BFC2ED015AF1EE10FAE4DCF4EEE57A7C
S31500002360F1EE10FA48BFC2ED025A7047F4EEC76AA2
S31500002370F1EE10FAD1ED027AD4BFF0EE475AF0EE44
S31500002380665AF4EEE57AD4BFB0EE666AB0EE476AF6
S31500002390F1EE10FA13DCF4EEC67AF1EE10FA54BF41
S315000023A075EE865A77EEA55AB6EE006A25EE866A6F
S315000023B076EEC66A37EE467A77EEC67A7EE737EE6F
S315000023C0866AF6EE005A26EE256AF1E72DE9F04F09
S315000023D02DED028B00250446436F93B0D3F8208081
S315000023E05F6998F840207B68B0F804B003EB82037D
S315000023F05E68B0F806A0B36809A95B6ACDE9045522
S31500002400CDE907553068039506959847B7EE008ADB
S31500002410D4ED057A88EE277A236AC4ED167A0393FB
S31500002420636A84ED177A0493A36A03A9204606AA71
S315000024300593DDF82C90FFF735FF07EE90BADDED3A
S31500002440066AF8EEE75A78EE666A06EE10AA9DED81
S31500002450077ABAEEEF6A38EE477ADDED087A66EE6D
S31500002460A56A78EE677A27EE257A76EE866A4FF4C5
S31500002470817367EEA57A37EE067AFCEEE66A37EEEA
S31500002480868AA4F84830FCEEC77A16EE903ABCEE7F
S31500002490C88A1FFA83FC17EE903A99B218EE103AE2
S315000024A08C459BB27EDA6246AA468C4684F8495031
S315000024B0114601259C4573DA624628469C4684F8F7
S315000024C0485013460225994209DA8E4602461946B5
S315000024D084F8490084F848A0504673469246D8F8D6
S315000024E03820CC1A944260DA02EB030EF145D8BFCD
S315000024F009F1FF3ECEEB4101ACEB0E04A2424DDDED
S3150000250002EB0E0BD945D8BF09F1FF3BCBEB4C0CC8
S315000025100129D8F83C40B8BF0121BCF1010FA2EB5C
S315000025200404B8BF4FF0010C0128AEEB0402ABEB7C
S31500002530040459D002283DD0002852D00023184662
S315000025409846BAF1010F3AD0BAF1020F45D0BAF166
S31500002550000F3DD019468246C146012D35D0022DC9
S3150000256025D161465B46CDE90E39BB68CDE90C80C5
S315000025701B69CDE910A138680CA901929847019A08
S315000025800021306802F014F822460321306802F078
S315000025900FF813B0BDEC028BBDE8F08FE346B7E74A
S315000025A0022090E74FF0010A84E78E46A4E7E14651
S315000025B0D846D8E70020BAF1010F8046C4D1012DD4
S315000025C08A4670461946C146C9D1E2465846CAE708
S315000025D08946F04682461946BFE773468246C1469B
S315000025E0BBE798460346ACE7184600239846A8E79B
S315000025F02DE9F0410468A04B226884B09A4202D0CB
S3150000260004B0BDE8F0810379002BF9D1676F02931E
S315000026103E68ADF80430ADF80630ADF80C30F3681E
S3150000262032219B6901AA3068FD68D7F82080984757
S31500002630F36833219B6930680DF106029847002D37
S3150000264045D098F8442098F847309A420DD1F3685F
S315000026503068DB6A9847D5E90001EB681B68984744
S31500002660EB68A9685B6828689847EB6828689B68E8
S315000026709847EB6869465B69286898479DF800307B
S31500002680012BF6D0EB6802AA9B6997F90710286818
S31500002690984798F8442098F847309A4217D1EB6843
S315000026A02868DB6A9847D6E90001F3681B689847F3
S315000026B0F368B1685B683068984773683068596931
S315000026C0F3681B6A9847F36830689B689847D4EDAF
S315000026D00C6AFCEEE66A94ED0E7ABDF8083098EDC9
S315000026E0064A06EE103ABDF80A30D8ED054A05EE60
S315000026F0103ABDF80C30D8ED047A05EE903A16EE95
S31500002700903ABCEEC77ABDF804109BB2CB1AC4EE61
S31500002710842AC7EE844A07EE903A17EE103ABDF8BF
S3150000272006209BB2D31AF8EEE76A07EE903A98EDC8
S315000027300D3AB8EE466AF8EEE77AD8ED083A26EE94
S31500002740226A77EEC37A26EEA47A67EEE47A66EE1C
S31500002750236AB8EE455AF8EE655AC4ED056A77EE77
S31500002760276A94F8483084ED065A012BC4ED075ABF
S31500002770F1EE666A53D0022B67D0002B5AD09FED3C
S315000027803F7AF0EE477AF0EE476A94F82C30012B48
S3150000279037D007EE901AB8EE677A07EE902AF8EE71
S315000027A0677A626F936984ED027AC4ED047AA3B105
S315000027B001218DF80810D26902A803929847626F2A
S315000027C0936933B102218DF80810D26902A80392E9
S315000027D0984794F82C30012B1DD000232046236205
S315000027E06362A362FFF7F2FD626F9369002B3FF409
S315000027F007AF03218DF80810D26902A80392984703
S31500002800FEE6626FC4ED026A9369C4ED037A84ED55
S31500002810047A002BCCD12046FFF7D8FDE4E794F8E4
S315000028204930022B1CD0B0EE676AF0EE477AB0EE64
S31500002830467AAAE794F84930B0EE666A012BF0EEC4
S31500002840476A14D0B0EE467A9FE794F84930002BD9
S315000028509BD0B0EE666AF0EE676AF0EE467A94E7D1
S31500002860B0EE666AF0EE676AF0EE477AEAE7B0EE37
S31500002870677AF0EE467A88E74152444D0000000040
S31500002880F7EE007A07EE100A37EEC00AF8EEC76ACE
S3150000289007EE101A77EEE00ABAEEEF7A20EE260A75
S315000028A037EEC11A60EEA60A30EE070A70EE870A06
S315000028B021EE261ABCEEC00AFCEEE00A10EE103A33
S315000028C071EE077A99B2FCEEE77A10EE903A00B50F
S315000028D0506992F810C09AB217EE903A87B09BB240
S315000028E0BCF1010FCDE9001208BFCDE90312029336
S315000028F008BF059320B18368694600681B6998473D
S3150000290007B05DF804FB00BF2DE9F843436F0446AA
S315000029101E6A0D46308D00284ED194F82C30CBB966
S31500002920626F117C012919D1B28CE08D90427CD264
S3150000293094ED0F7AD4ED117A94ED026AD4ED046A1F
S3150000294037EE067A77EEA67A84ED0F7AC4ED117A21
S315000029500130E0852B700020BDE8F88394ED1B1A4A
S31500002960E188F0EE410AB0EE410AA088FFF788FF41
S31500002970B38CE28D9A426FD2D4ED0F6A94ED107A41
S31500002980D4ED117A94ED025AD4ED035A94ED046A0B
S3150000299076EE856A37EE257A77EE867A94F82C30CD
S315000029A00132C4ED0F6A84ED107AC4ED117AE28526
S315000029B02B700020BDE8F88394F85420012AACD18E
S315000029C05B69E16C5A68236D41F4803143F48033CE
S315000029D0D2E90198D768C4E91313FFF7F3FB216D19
S315000029E0708DFFF7EFFBE16CB08DFFF7EBFB216D10
S315000029F0F08DFFF7E7FBE16C308EFFF7E3FB216D0F
S31500002A00708EFFF7DFFB0221D9F8000001F0B0FD60
S31500002A100221D8F8000001F0ABFD0221386801F070
S31500002A20A7FD002384F8543077E707EE902A94ED4B
S31500002A300F7AF8EEE77A94ED116AC7EE276A0B462D
S31500002A4086EE277AC4ED0C6A84ED0E7A84F82C1093
S31500002A502B700020BDE8F88307EE903AD4ED0F6A9C
S31500002A60F8EEE77A94ED107AD4ED115A012286EE4B
S31500002A70A76A1346C7EE276A85EEA77A84ED0C6A25
S31500002A80C4ED0D6A84ED0E7A84F82C202B7000209C
S31500002A90BDE8F883834B02689A4200F0ED802DE989
S31500002AA0F04104464FF47A700E6AF6EE006A3288F8
S31500002AB096ED026A00FB02F207EE902AB8EEE77A7C
S31500002AC0C7EE067A67EEA67A0023FCEEE77A616720
S31500002AD00D4601270021B6F80CC0A360E360236110
S31500002AE0636123626362A36223636363A363E36335
S31500002AF02364636417EE903AA4F806C084F8547011
S31500002B0084F82C1004F1580C06F14C0EE185A380D4
S31500002B10BEE80F00ACE80F009EE80700D6ED167A77
S31500002B20F5EEC07AF1EE10FA8CE8070007DDB7EE95
S31500002B30007AF4EEC77AF1EE10FA40F29F80D6EDF5
S31500002B40177AF5EEC07AF1EE10FA0BDDD4ED196ABC
S31500002B50B6EE007AC4ED1A7A77EEA67A67EE877A31
S31500002B60C4ED1B7A6B69002B32D0596896F8402069
S31500002B704D4801EB820257687A68D2F81CC04B4A6E
S31500002B809CF80180B8F1000F0CBF96468646C4F843
S31500002B904CE09CF803C0BCF1010F18BF0246226549
S31500002BA09A681868136898472B7C012B3DD1BB683F
S31500002BB038682246DF6A3E4904F19803B847338DE8
S31500002BC0002B40D16B699A681868536898472E6A3B
S31500002BD02B7C012B3BD02B6813B3DA68596812683B
S31500002BE0186890472B68D3E9021218685268904714
S31500002BF02B685968DA6818684969126A90472B7C0D
S31500002C00012B08D02A6804F17803D16810688E6A0F
S31500002C1022462849B0472B68DA68186893689847AF
S31500002C20204B00202360BDE8F08194ED1B1A626FF3
S31500002C30F0EE410AB0EE410AE188A088FFF720FED7
S31500002C40338D002BBED02046FFF7F2FABAE796F88E
S31500002C50442096F847309A42BDD0EB68002BBAD094
S31500002C60DA685968126818689047EB68D3E9021267
S31500002C70186852689047AEE70E20704794ED1A7AAE
S31500002C80C4ED197A77EE877A67EEA67AC4ED1B7AD9
S31500002C90D6ED177AF5EEC07AF1EE10FA3FF756AF99
S31500002CA060E700BF4152444D0500000304000003E5
S31500002CB0F1250000B92C00002DE9F0414FF0000885
S31500002CC0456888B06E6FCDE906883468CDF8148003
S31500002CD0E36896F904109B69206805AA376A984745
S31500002CE0337C032B74D0ADF81680E36896F9061092
S31500002CF09B6906AA20689847E36896F907109B69BE
S31500002D000DF11A0220689847E36896F908109B6946
S31500002D1007AA20689847E3680DF11E029B6996F999
S31500002D20091020689847BDF81630D7ED063A06EE2A
S31500002D30103ABDF81830D7ED055A06EE903ABDF8B0
S31500002D40143097ED074A07EE103ABDF81A3097EDA2
S31500002D50042A07EE903AC5EEA32AB8EE466AF8EEC4
S31500002D60666AB8EE477AF8EE677ABDF81C3097EDDA
S31500002D70083A04EE903ABDF81E30C2EE235A05EE2C
S31500002D80103A36EE446A76EEC46A37EE447A67EE57
S31500002D90A27AF8EE644AB8EE455A26EE656A66EE01
S31500002DA0E56A27EE657A67EE837A334B2A68C5EDC6
S31500002DB0064A9A4285ED075A85ED036AC5ED046A0F
S31500002DC085ED027AC5ED057A0BD008B0BDE8F08135
S31500002DD0E36896F905109B6920680DF1160298477D
S31500002DE083E76A6F936983B10121D26968460192CC
S31500002DF08DF8001098476A6F936933B1D2696846B7
S31500002E00019202228DF80020984795F82C30012B6C
S31500002E100DD06A6F9369002BD7D00321D26968461B
S31500002E2001928DF80010984708B0BDE8F0810023A4
S31500002E30CDE905330793D5ED057AF7EE006A86EE00
S31500002E40A77A2B6A6C6A0293AB6A284605AA02A97E
S31500002E50C5ED167A85ED177A03940493FFF722FAE7
S31500002E609DED071ADDED060A9DED050A6A6FE988F4
S31500002E70A888FFF705FDCCE74152444D4FF47A721E
S31500002E8030B50D6AB6EE006A2B88D5ED025A02FB04
S31500002E9003F307EE903AB8EEE77AC7EE257A67EEC7
S31500002EA0867AD5ED166AFCEEE77AF5EEC06A17EE7D
S31500002EB0903AF1EE10FAAA8900F1580C05F14C0E81
S31500002EC04167C28083800446BEE80F00ACE80F006D
S31500002ED09EE807008CE8070006DDF7EE007AF4EEC0
S31500002EE0E76AF1EE10FA14D9D5ED177AF5EEC07A45
S31500002EF0F1EE10FA0BDDD4ED196AB6EE007AC4EDE8
S31500002F001A7A77EEA67A67EE877AC4ED1B7A0020E6
S31500002F1030BDD4ED1A7AC4ED196A76EEA76AD5EDFE
S31500002F20177AF5EEC07A66EE866AF1EE10FAC4ED0F
S31500002F301B6AE0DCEBE700BF90ED1B1A38B50446D0
S31500002F40426FC188156A8088F0EE410A84ED081A3E
S31500002F5084ED091A84ED0A1AB0EE410AFFF790FCD7
S31500002F602B8DBBB900200122002384F82C0084F8A5
S31500002F70700084F85420A360E360236163612362D8
S31500002F806362A362E08523636363A363E3632364ED
S31500002F90636438BD2046FFF74BF9E3E770B5456F2C
S31500002FA004462B6A1B8D002B31D12E4600220121AF
S31500002FB0002384F8541084F82C2084F87020A36031
S31500002FC0E3602361636123626362A36223636363D5
S31500002FD0A363E363236463643368E2851BB1DA6841
S31500002FE01868D36A9847337C012B08D06B691BB1EC
S31500002FF09A681868936998470020206070BDF36846
S31500003000002BF3D0DA681868D36A9847EEE7FFF723
S315000030100FF9666FCAE700BF0346012200201A7146
S31500003020704700BF00B58E4600F5807CBEE80F00F5
S31500003030ACE80F00DEF800300020CCF800305DF878
S3150000304004FB00BF0346002083ED040AC3ED050A16
S31500003050704700BF0346002083ED0C0AC3ED0D0A3E
S31500003060704700BF034600B5D1F800C0D1F804E0B0
S3150000307089680020196211685268C3F81CE0C3F819
S3150000308018C0D9629A645DF804FB00BF436ED0EDA8
S315000030900C6A1B699FED306ADA6B10B512880C4614
S315000030A007EE102AB8EEC77AC6EE877A67EE867AFA
S315000030B0D0F824C0816AD0F81421C4F800C0616039
S315000030C0D0F834C0816CC4F814C0A160D0F84CC0EC
S315000030D0816BC4ED036AC4ED047AC4F81CC0A16117
S315000030E0D0F854C0016DC4F824C0216290F858107D
S315000030F084B084F828101B78012B1CD0032B02D037
S31500003100002004B010BD936801A910685B6B984756
S315000031100020029A039B9DF80410E26223639DF847
S3150000312005209DF8063084F8291084F82A2084F8B2
S315000031302B3004B010BD936810685B6B01A99847EB
S3150000314000209DF804209DF8053084F8292084F895
S315000031502A3004B010BD00BFEBC91841034610B4B5
S31500003160D3F834C01A4C93ED065A93ED087A93EDD2
S31500003170076AC4F814C0D4ED046AC4F814C0D4EDC8
S31500003180055ADFED144ADFED147A66EEA46A65EEA1
S31500003190A45A36EE476A26EEA77A67EEE57A66EE19
S315000031A0266A27EE057A26EE256A67EE857A37EED9
S315000031B0067A77EEA67A83ED097AC3ED0A7A81ED6F
S315000031C0007A9B6A00205DF8044B1360704700BFCD
S315000031D000100240F304353FD7B3DD3F1F4B90ED9F
S315000031E0004AD0ED014A83ED050ADFED1D6AD3EDF5
S315000031F0045A83ED050A25EEA67A93ED055AF1EEFB
S31500003200477A65EE266A35EE476A77EEC57A36EE78
S31500003210A55A76EEE55A24EE077A64EEA66A26EEFD
S31500003220046A67EE847A25EE245A65EEA45ADFED29
S315000032300D3A37EE667A9FED0C3A76EE056A77EE32
S31500003240A57A27EE037A66EEA36A67EEA37A81ED86
S31500003250007AC1ED016AC1ED027A704700100240A2
S315000032603ACD133FF304353FF304B53F38B5044672
S3150000327002680868374B0D69C4F8180148689A4215
S31500003280C4F8140164D04FF0000C84F804C084F82C
S3150000329058C095ED0D0A0020DFED2F7A6166A96B07
S315000032A020EE270A04F17C0304F16802A060E060C6
S315000032B0206160616062A062E06220636063E06337
S315000032C020646064A066E0676067C4F88800A16750
S315000032D0C4F88C10D5E90F0102F0D6FD6968AA681A
S315000032E0EB682869C4F89010C4F89420A9696A6943
S315000032F0C4F89830EB69C4F89C00286AC4F8A0208A
S315000033006A6AC4F8A830AB6AC4F8AC00C4F8A41062
S31500003310C4F8B020C4F8B43095F82C3004F190000D
S3150000332084F8FC3002F0DEFDD4F8183123B1D3E97D
S315000033300112186812689047D4F8143123B1D3E902
S315000033400112186812689047024B0020236038BDAE
S315000033500E2038BD4350434D6F12833A10B50446D4
S315000033600869DFED0D7A90ED0D0AD0F838C020EE31
S31500003370270A04F17C03616604F16802D0E90F01B3
S31500003380C4F878C0C4F88CC002F07EFD04F1900049
S3150000339002F0A8FD002010BD6F12833A0022D0F87B
S315000033A0183110B5044602711BB19A681868936803
S315000033B0984700230022A360E36023616361636290
S315000033C0A362E36223636363E36323646364A366C4
S315000033D0E3676367C4F8883004F19000227184F8CB
S315000033E0582002F0B1FDD4F814311BB19A68186860
S315000033F093689847002010BD0023002210B50446AC
S315000034008360C3600361436143628362C362036393
S315000034104363C363036443648366C3674367C0F857
S315000034208830027180F85820903002F05BFDD4F8A5
S3150000343018311BB19A68186853689847D4F8143144
S315000034401BB19A681868536898470020206010BD21
S3150000345090ED047A90ED094A90ED1C5A77EE447A85
S3150000346090ED1D6A27EE855A35EE065AD0ED1E6A96
S31500003470B0EEC57AF4EEC76A0023D0ED1B5AF1EE22
S3150000348010FA70B584B0CDE901330393436E044658
S315000034901E690D46C0ED1A7A67EEA57A09D515EEB6
S315000034A0103AF0EEE66A002BB8BFF1EE666AB0EEAF
S315000034B0665AD4ED0A4A94ED056AD4ED215A36EEE1
S315000034C0646AD4ED223A66EE255A94ED207A75EEBA
S315000034D0A35AD4ED236A84ED1F6A26EE076AB0EE7E
S315000034E0E57AF4EEC76AF1EE10FA84ED1D5A77EE2E
S315000034F0857A09D515EE903AF0EEE66A002BB8BF4C
S31500003500F1EE666AF0EE665AF36BD4ED0C6A93ED53
S31500003510033A93ED027A64EE834AD3ED043A24EE3D
S31500003520077A66EEA44A94ED125A77EEE47A37EEFD
S31500003530237A36EE256A26EE877AB4EEE75A37EE18
S31500003540067AF1EE10FAC4ED225AC4ED027A84ED41
S31500003550037A2ED59FED4B7A84ED025A84ED037AD9
S3150000356085ED035A85ED047A96F82D30012B37D078
S3150000357094ED0D0A04F13C06314604F10800FFF70C
S315000035802DFE01A994ED0D0A04F11000FFF726FEA9
S315000035900A4604F19000314694ED0B0A02F0DAFC7B
S315000035A00020E16B226C636C29606A60AB6004B03A
S315000035B070BDF1EE456AF4EEE76AF1EE10FA35DD1C
S315000035C09FED307AB0EE665AC4ED026A84ED037A56
S315000035D085ED035A85ED047A96F82D30012BC7D177
S315000035E096ED0D0ADFED285A94ED0C6A20EE250AB9
S315000035F0D6ED0C6A20EE060A94ED0D7A20EE260A28
S31500003600DFED227A30EE070AB4EEE70AF1EE10FAA1
S3150000361009DAB5EEC00AF1EE10FA48BF30EE270A15
S3150000362084ED0D0AA6E730EE670AF9E725EE055A9E
S3150000363027EEA70A35EE405AB5EE405AF1EE10FADB
S3150000364017D4B1EEC50AB0EE675AF0EEC77AF4EEBB
S31500003650C07AF1EE10FA09DD17EE103AB0EEC00AA4
S31500003660002BB8BFB1EE400AB0EE407A84ED037A83
S3150000367076E7B0EE450A03F051FC94ED037A94ED3B
S31500003680025AE2E7000000006F12833ADB0FC940DE
S315000036902DE9F0472DED048B03784568022B96B093
S315000036A017D0032B06D0012B04D016B0BDEC048B2B
S315000036B0BDE8F08769688A68002AF6D0C96801A85B
S315000036C08DF808300191904716B0BDEC048BBDE82B
S315000036D0F0872C680FA9D4F81861626EB368306859
S315000036E01B69176998479DED0F9ADDED118A139BAB
S315000036F0DDF84880A364149BE365159B23667B78FD
S31500003700022B08BF39EE288A23790CBFB1EE488A0E
S315000037109DED108A012BC8D1B36830685B6904F14E
S315000037205801984794F85830012BBED16A689368BF
S3150000373033B1D26801A8019202228DF80820984779
S31500003740A76CAB68CDF80C80DB6903AA07A90497C0
S315000037508DED079A8DED088ACDED098A20469847AA
S31500003760AB6820465B6A04F1280204F124019847FD
S315000037702F687B6ED7F814811B691B78002B52D1FA
S315000037807B6AFA680593BB6AB9680693D8F808306D
S315000037900B920A9197F810115B69D8F800009847C8
S315000037A0D8F80830D7ED430A97ED420A1B69D8F8D6
S315000037B000009847D8F808300DF128094A46DB681A
S315000037C005A9D8F800009847D8F8083007F1300264
S315000037D0D3F81CA007F1340107F15403D8F8000010
S315000037E0D047D8F80830D8F800001B6B07F1500214
S315000037F007F14C019847AB68D4ED410A94ED400AB5
S3150000380020465B699847AB68494620469B6A9847BD
S31500003810B3689DED0C1ADDED0B0A9DED0A0ADB6817
S315000038203068984741E7012B06D0022B1AD0032BAC
S3150000383032D00DF12809DEE7D8F80830D8F80000B4
S315000038409B699847D8F80830D8F8000007F130028D
S31500003850D3F81C8007F1340107F13803C0470DF196
S315000038602809C8E7D8F80830D7ED430A97ED420A89
S315000038701B69D8F800009847D8F80830D8F8000037
S3150000388007F13002D3F81C8007F1340107F1540325
S31500003890C0470DF12809AEE7FB6D0DF128090A9323
S315000038A03B6E49460B93D8F80830D8F80000DB6A1F
S315000038B09847D8F80830D8F800009B699847D8F898
S315000038C00830D8F8000007F13002D3F81C8007F161
S315000038D0340107F13803C0478DE700BF0B6970B4A8
S315000038E003F5800303F50A631B0241608360EFF36F
S315000038F0108C012282F31088264C0B69E568C3F10F
S315000039000E0302FA03F325EA0303E360E3688CF38C
S3150000391010888B780D881B0743EA0513002591F85C
S3150000392003C0846843EA4C7323604B68C3608B68AA
S3150000393005614361184B036091F91430AB4225DBF6
S31500003940497D03F160440901144EC9B204F561448E
S3150000395084F80013124946F8230003F1C00051F819
S31500003960204065F3104441F8204051F82010BFF381
S315000039705F8F5909890003F01F0301F1604102FAC4
S3150000398003F301F56141C1F880310B60002070BC82
S31500003990704700BF0040084054504700F809002017
S315000039A00060004003469A680020136843F008034D
S315000039B01360704703469A680020136823F4803327
S315000039C023F00F031360704702469268024B126899
S315000039D0002013400B6070470F0001008446002052
S315000039E0CCE90432CCF80C10704700BF436893F959
S315000039F01430002B1BDB012110B45A090E4C03F0C6
S31500003A001F03203201FA03F344F82230BFF34F8F2D
S31500003A10BFF36F8F00214268084B92F914205DF8BE
S31500003A20044B43F822100023036018467047002316
S31500003A3003601846704700BF00E100E0F809002067
S31500003A4030B583B0EFF30383104A103B5CB252F8F3
S31500003A5024502869B8B1036801936A69EB6802606B
S31500003A6098472B6913B12B69019A1A60084A04F129
S31500003A70C00352F823106FF3104142F8231052F896
S31500003A80233003B030BD01A8E7E700BFF8090020E6
S31500003A90006000400022034610461A60704700BFCF
S31500003AA00B0A10B41B01064C53FA81F154F821306D
S31500003AB00020C3F340035DF8044B1370704700BF4A
S31500003AC000080840090A490101F1804101F5002179
S31500003AD04B68002013807047090A490123EA020C4B
S31500003AE001F180411A4001F5002142EA0C42002012
S31500003AF08A6070470123C8B283404AB91A040B0A88
S31500003B005B0103F1804303F5002300209A607047B0
S31500003B109AB2F4E7090A490101F1804101F5002151
S31500003B2010B40C6802EA030C4CEA040C62EA0302C5
S31500003B3002EA0C0200205DF8044B0A60704700BFE1
S31500003B40090A490101F1804101F500214B68002075
S31500003B50C3F30F4313807047012310B44FEA112CAF
S31500003B604FEA4C1C0CF1804C0CF5002CDCF80440A0
S31500003B70C9B203FA01F18BB201EA1441C91AB1FACA
S31500003B8081F1490900205DF8044B1170704700BFB0
S31500003B90090A490123EA020C01F180411A4001F5A4
S31500003BA0002142EA0C420020CA60704701200B0A3D
S31500003BB05B0103F1804303F50023C9B200FA01F16A
S31500003BC0D868012A0BBF20EA01408843014340EA36
S31500003BD00141D960002070472DE9F8430388BBB343
S31500003BE007464FF00008DFF8909040F202427B68EB
S31500003BF04FEAC80559198988002491421D4E09D0FB
S31500003C000134032C1FD07B6836F8022B591989889A
S31500003C109142F5D15B5904F1200203F0B853B3F198
S31500003C20807F17D019F81230DB09E9D019F8123065
S31500003C3001216FF3C713C82009F81230013401F0CF
S31500003C407FFB032CDFD13B8808F101084345CCD824
S31500003C50BDE8F883134619F81220D209D0D119F815
S31500003C601320012142F08002C82009F8132001F038
S31500003C7067FBC5E7FE83000000300840F8B5044640
S31500003C80FFF7AAFFEFF31082012383F31088284E73
S31500003C9033681BB92749CB704023CB703368013397
S31500003CA0336082F3108823887BB3626803F1FF3E9A
S31500003CB01FFA8EFE02F108011F4C01EBCE0E08E042
S31500003CC0D2B21B0113448E450A4644F823001CD089
S31500003CD008311068928810F4803F4FEA1223EFD023
S31500003CE0130AD2B202EB031C54F82C701B011344C6
S31500003CF020F480356FF310478E4544F82C700A4641
S31500003D0044F82C5044F82300E2D1EFF3108201234B
S31500003D1083F31088336813B13368013B336033682B
S31500003D201BB980200349CB70C87082F31088F8BD98
S31500003D30F4090020000D08400008084008B5034BB0
S31500003D4003600846FFF79AFF002008BD54524F5003
S31500003D5008B50846FFF792FF002008BD70B501269A
S31500003D6086B001AB03A80C4615460493ADF80C606B
S31500003D70ADF808100192FFF72FFFEFF3108286F3DC
S31500003D8010881D490B681BB940261C48C370C670B5
S31500003D900B6801330B6082F31088EA034FEA1423A1
S31500003DA0E4B219D41B01164A234442F82350EFF318
S31500003DB01082012383F310880B6813B10B68013B53
S31500003DC00B600B681BB980200C49CB70C87082F35E
S31500003DD01088002006B070BD094A04EB031052F8A3
S31500003DE020601B016FF3104642F8206025F48036F0
S31500003DF042F82060D7E700BFF4090020000D084014
S31500003E000008084003465A681B6900209360704703
S31500003E1003465A681B6900205360704703465A6878
S31500003E201B690020D360704710B590F814E0043980
S31500003E30021D00F1100C52F8043B51F8044FBEF17C
S31500003E40020F5C659C6509D084696468646824789F
S31500003E50062C03D06245EED1002010BDCC68DC658F
S31500003E601C66F7E72DE9F04106460D46071D0C1DB9
S31500003E7001F110082368D3E9000100F09BF954F81A
S31500003E80043B1B689B6847F8043B2A78022A03D147
S31500003E90196C41F4202119644445EBD16969044B3E
S31500003EA0327500203161B5613360BDE8F08100BF35
S31500003EB033545047806990F810C000EB8C0040687E
S31500003EC0006800F07DB800BF38B5002305461C46E3
S31500003ED04268016903609160AB6903EB84035B6828
S31500003EE00134186800F0DEFA032CF5D1002038BD45
S31500003EF003460020D3E9022393607047034600205F
S31500003F00D3E902235360704703460020D3E9022316
S31500003F10D3607047034630B4D3E90123D269002049
S31500003F20D2E9011444F00045D46841F0004144F060
S31500003F3000445D619C61D2E9044219615C629A6247
S31500003F4030BC70474FF0004100228368104619616B
S31500003F50596199615A629A62704700BF10B443680A
S31500003F601A788368032A13D84C1E9C661AB9490826
S31500003F70013959659965DA6AD20705D44FF4AA0161
S31500003F80C2685C661964DA6000205DF8044B70470D
S31500003F900C469966EFE700BF03469B68123201396B
S31500003FA003EB820300205960704700BF03469A68FE
S31500003FB00020D36AC3F300030B71936C0B60704748
S31500003FC084460020CCE90632CCF81410704700BFB6
S31500003FD030B4D0E9012310785A6E03280C4D98BFEF
S31500003FE001320C4C8A60D86A2A6A2368C2F3026CD2
S31500003FF003FA0CF34FF0010C30BC02F00702C0F3D9
S31500004000C350D340C3404B60002081F800C07047C6
S3150000401000E00140800B002090F800C0886EBCF1E3
S31500004020030F98BF01300AB1824227D310B4019C16
S31500004030496BE40754BF01F01F01C1F30441BCF111
S31500004040030F09D9090981F0010172B9E9B9022200
S315000040505DF8044B5A60704701F00C01A1F10401B0
S31500004060B1FA81F14909002AF0D0824201D3002930
S31500004070EDD103225DF8044B5A607047BCF1030F83
S3150000408098BF02F1FF321A6070470028DFD0F0E7D0
S315000040902DE9F0414FF0FF3C0025064684B0009222
S315000040A002AB0F46144602F003080A46D0E90101A6
S315000040B0CDE902C5FFF7B0FFB368039A1D6B5AB985
S315000040C014F0080F0CBF02210421A0071DD5029889
S315000040D003EB8101C864086561061ED5196CB8F149
S315000040E0010F41F48001196406D025F4403545EAF4
S315000040F00245B8F1000F03D025F0407545EA026588
S3150000410000201D6304B0BDE8F081414402981231DD
S3150000411003EB810148606106E0D4B8F1010F12D0CB
S3150000412025F44035022C45EA0245E2D1002AE3D0C7
S315000041300120009019463A4602AB7068FFF76CFF03
S31500004140039AB368D8E7022CD6D1002AD4D0EFE779
S31500004150002800DA704710B400F160430901134CDF
S31500004160C9B203F5614383F80013114B00F1C00196
S3150000417044F8202053F821206FF3104243F8212001
S3150000418053F82130BFF35F8F012243099B0000F0F3
S315000041901F0003F1604303F5614302FA00F0C3F820
S315000041A0800118605DF8044B704700BFF8090020D5
S315000041B0006000402DE9F04F01270D460022097CE2
S315000041C0B54B07740B441B02C0E901536B6907FA30
S315000041D001F14361AB690446C0E90623EE6985B087
S315000041E0C160EFF3108C87F310884FF00041AB4BA2
S315000041F0287C21FA00F0196921EA000119611B697E
S315000042008CF310884FF42541A3681960DA62DA63EB
S315000042109A642A78287A6968032A4FEAC05001F11D
S31500004220FF3C00F0198184BF8C4640EA0240D86208
S315000042304FF00047D6E906A900204FF0FF3ED6F81A
S31500004240388003901F61CDF808E05F619F61586276
S315000042509862C3F81CA0C3F82090C3F868C0C3F8DE
S3150000426064C0002A40F0DB8049087144C44601203E
S315000042704FF0030E596502919965BCF1000F1BD1F1
S315000042803178A9B195F800A07178BAF1020F4FEA1A
S3150000429081194FEA011700F0E78040F2E980032117
S315000042A048EA010848EA090848EA070848F4807815
S315000042B0B178002940F099806168CF6997F830900D
S315000042C019F0010F02D0B96A0139D96419F0020F49
S315000042D002D0F96A013919653F212F7CF94011F0A6
S315000042E001012CD000275F64776B002F00F08E80D1
S315000042F097F8029097F803A04FEA096949EA0A7904
S31500004300D7E902ABBAF1000F00F0A980C3F8881014
S31500004310C3F88CA0C3F890B0797E97F818A009026C
S3150000432041EA8A1197F81AA041EA0A3159643979A3
S3150000433049EA0149396919677969D96709E0776BEB
S31500004340002F63D097F80290F9784FEA096949EA95
S315000043500179C3F83890BCF1000F10D1397F97F876
S315000043601BC0490641EA4C2148EA010896F821108B
S3150000437096F820C0490741EA4C3148EA010896F808
S31500004380301000290CBF4FF4AA014FF4A001012AF6
S31500004390196402D10022DA641A65E268C3F834802F
S315000043A0C3F830E01863DA60697C224695F912009A
S315000043B0FFF7CEFE224696F8221096F92400FFF764
S315000043C0C7FE224696F8231096F92500FFF7C0FE91
S315000043D02FB12246397897F90100FFF7B9FE002080
S315000043E02F4B236005B0BDE8F08FF77895F8009065
S315000043F03901B9F1020F41EA871137D03DD90327B8
S31500004400394348EA014848F0807855E700279F631A
S31500004410C3F88870BCF1000FB1D16746A6E7012A40
S3150000442030D000901946EA68606802ABFFF7F4FDE9
S31500004430DDE902172A78A368380440EA0760032AF0
S31500004440D6F838C040F0030E596540F00100996572
S3150000445084BFD965196610E740F48030E7E6BBF102
S31500004460000118BF012151E7092119E70927C7E70C
S31500004470002914BF0921062112E7002F14BF0927BE
S315000044800627BDE7C3F854E0C446C3F858E0104613
S315000044904FF0030EF1E600BF9016400000400840C2
S315000044A05450470030B4436893F91220DB69002A60
S315000044B010DB012402F01F05AC4051092A4D2031C2
S315000044C045F82140BFF34F8FBFF36F8F0024274974
S315000044D041F8224093F92420002A10DB012402F03F
S315000044E01F05AC405109204D203145F82140BFF34E
S315000044F04F8FBFF36F8F00241C4941F8224093F978
S315000045002520002A10DB012402F01F05AC405109CA
S31500004510154D203145F82140BFF34F8FBFF36F8F04
S315000045200024124941F822405B6BA3B193F9013094
S31500004530002B10DB01210C4C5A0903F01F05203219
S31500004540A94044F82210BFF34F8FBFF36F8F0021AD
S31500004550064A42F823100023D0E9022130BC03604A
S31500004560184691605363704700E100E0F8090020A7
S3150000457082680129536B05D043F4807311B900207A
S315000045805363704743F0807300205363704700BF46
S3150000459082680129536B05D023F4807311B900207A
S315000045A05363704723F0807300205363704700BF46
S315000045B003469B680020703343F82120704700BFF4
S315000045C030B58646EFF31084012383F310880E4A34
S315000045D0906820F480409060926884F310880022EE
S315000045E00A4D0B4C02F1040C1C401CB131F8124070
S315000045F025F82C400132DB18182AF2D1054B002091
S31500004600CEF8003030BD00BF004008400020084012
S31500004610FFF38300434C4500002302460249136022
S3150000462018460B70704700BF0020084000204FF06E
S31500004630400C4122034B03F8110003F811C003F8A4
S315000046401120704702200840024B0431002023F855
S3150000465021207047002008400020024B043123F837
S3150000466021007047002008408022024B00201A706B
S31500004670704700BF002008400020014B18707047AB
S3150000468000200840037B826863B10C32117801F088
S3150000469001011378C3F340039942FAD1F0230020B5
S315000046A0137070470832F1E7037B02693BB18368F8
S315000046B0013A43F80C2BF12200201A7070478368E8
S315000046C0013A92B223F8082BF12200201A707047A3
S315000046D0037B2BB1F022836800200C331A707047DD
S315000046E0F0228368002008331A707047062070474E
S315000046F00620704730B4057B84689DB104F10C0236
S31500004700107800F001001378C3F340039842FAD101
S315000047101378C3F340030B713DB12368002030BC0E
S315000047200B60704704F10802EAE72388002030BCDA
S315000047309BB20B60704700BF84460020CCE906326E
S31500004740CCF81410704700BF037B8268C3B10C32EB
S31500004750117801F001011378C3F340039942FAD1AD
S315000047604FF0F40C0021436882F800C0117193F9F0
S31500004770123013F1210F05D100230360184670474C
S315000047800832E5E78B421ADB012110B45A090F4CB7
S3150000479003F01F03203201FA03F344F82230BFF37B
S315000047A04F8FBFF36F8F4368094A93F912305DF854
S315000047B0044B42F823000023036018467047044A5E
S315000047C042F82300002303601846704700E100E02A
S315000047D0F809002030B4057B846895B104F10C0219
S315000047E0117801F001011378C3F340039942FAD11D
S315000047F043681978012907D030BCF12300201370D3
S31500004800704704F10802EBE7016955B1187C0C4BBF
S3150000481043F82010F12301392160002030BC1370C9
S3150000482070471B7C06480233DBB240F823104B1E50
S315000048309BB22380F12330BC00201370704700BF69
S31500004840AC090020E1B100F10C035A78C2F3021161
S3150000485052060ED40C4B0D4A1B6A1068C3F3026253
S315000048609040C3F30223D84049B181F00201C84009
S3150000487070474FF400409B7803F00703D840704719
S3150000488000F10803E1E700BF00E00140800B0020D3
S3150000489070B50D46017B04468068F1B100F10C0C41
S315000048A09CF8002002F001029CF80030C3F340039C
S315000048B09A42F9D12369AB606368DA691278502AA3
S315000048C024D11B7C61B9174E0133DBB256F8233075
S315000048D06BB9002028706B6070BD00F1080CDFE733
S315000048E0104E013BDBB256F82330002BF1D0A0F579
S315000048F08070FFF7A7FF237B73B163681B7C013BC6
S31500004900DBB256F82330B0FBF3F3E2E7FFF79AFF8A
S3150000491068600020287070BD63681B7C0133DBB2C1
S31500004920EFE700BFAC09002030B4057B846885B191
S3150000493004F10C010A7802F001020B78C3F340037C
S315000049409A42FAD10369013B35B10020236030BC9D
S31500004950704704F10801EDE79BB20020238030BCCC
S31500004960704700BF30B4057B8468BDB104F10C0C00
S315000049709CF8002002F001029CF80030C3F34003CB
S315000049809A42F9D1436801615DB1187C0B4A4B1E0E
S3150000499042F820102360002030BC704704F1080C58
S315000049A0E6E71B7C05484A1E0233DBB292B240F8AA
S315000049B023102280002030BC704700BFAC090020C5
S315000049C00123F0B4037341600A7C120202F18042B3
S315000049D002F568228260EFF3108483F31088057B6A
S315000049E05DB10D7C032D00F28E80C5F10305AB4051
S315000049F0544DDB43EE680C3510E091F810C00CF115
S31500004A00020C5FFA8CFCBCF1030F73D9CCF1130CCA
S31500004A1003FA0CF3DB434B4D2E69103533402B6004
S31500004A202B6884F3108800231373137BC3F3400CA5
S31500004A309B07FAD4077B82F80EC086680D7ACC698C
S31500004A40002F68D006F10C02E37894F800C003F05A
S31500004A5007032479BCF1000F6BD12DB185F0020557
S31500004A6043EA05136546DBB2147100249471537052
S31500004A704B6895700361002F50D04468324A247CFD
S31500004A8042F82430013B336091F91230002B26DBCB
S31500004A904A7C03F160441201D2B204F5614484F801
S31500004AA000232A4C2A4A44F8230003F1C00452F892
S31500004AB024506FF3104542F8245052F82420BFF3D7
S31500004AC05F8F01245A09920003F01F0302F160422E
S31500004AD002F5614204FA03F3C2F880311360002341
S31500004AE0D1E905411B4A4461C16102608361F0BCA2
S31500004AF018467047134DCCF1030C03FA0CF3EE681D
S31500004B00DB430C358AE7C5F11305AB400D4DDB439E
S31500004B102E69103582E706F1080295E742680A4CCD
S31500004B20127C0232D2B244F82230013B9BB233806F
S31500004B30AAE7BCF1500F06BF002543F050034CEA2C
S31500004B40030391E700400840AC090020F809002063
S31500004B5000600040544741002DE9F04184B0EFF376
S31500004B600383103B214A5BB203F1C00152F82100D6
S31500004B706FF3104042F8210052F821201C4A52F8E7
S31500004B802340237BA5686BB30C3562682B781278BB
S31500004B90DBB2012A04D1F42203F0F0032A702B7051
S31500004BA0D4F81480B8F1000F15D0A66901AFDEB1B4
S31500004BB096E8070087E807009B0644BF0023337189
S31500004BC0E36930463360C047A3691BB197E8070025
S31500004BD083E807002B78DBB203F00F032B7004B0D9
S31500004BE0BDE8F0810835D0E73E46E5E700600040C5
S31500004BF0F809002084460020CCE90732CCF81810CA
S31500004C00704700BF03461A689B8A002013807047CE
S31500004C10062070470023026818461380704700BFBD
S31500004C2003461B6800201B88C3F3C0330B70704714
S31500004C3003461B68103133F811300020138070478B
S31500004C401031D0E9003033F8113001799BB20129D7
S31500004C5008BF1B0400201360704700BF0620704782
S31500004C6006207047002800DA704710B400F1604350
S31500004C700901134CC9B203F5614383F80013114BC4
S31500004C8000F1C00144F8202053F821206FF31042B0
S31500004C9043F8212053F82130BFF35F8F01224309E7
S31500004CA09B0000F01F0003F1604303F5614302FA25
S31500004CB000F0C3F8800118605DF8044B704700BF30
S31500004CC0F8090020006000402DE9F0410027CA687D
S31500004CD00B884E6982610A695B02C0E9077203F1BB
S31500004CE0804303F5B813416003600D46B2788978B6
S31500004CF004464903002A67D03F2A41F4107365D160
S31500004D003079002868D043F080039BB2A382F07804
S31500004D101202297900F03F0002F47C520243E8783F
S31500004D20C90341EA4001707896F800C041EA401193
S31500004D30EFF31088012080F31088B5F800E0294FC2
S31500004D40CEF1100E00FA0EF0D7F80CE02EEA0000B5
S31500004D50F860F86888F3108888B247F6FF5149F67C
S31500004D60991E00270B40216892B20B800A82C881E7
S31500004D7081F80CC0A1F8B071A1F8A0E1B379224680
S31500004D80A3F10103B3FA83F35B0981F8D030697AA2
S31500004D9095F90600FFF766FF2246A97A95F90700FE
S31500004DA0FFF760FF2246717A96F90700FFF75AFF70
S31500004DB096F908002246B17AFFF754FF0A4B3846A7
S31500004DC02761A360BDE8F08141F450733179002971
S31500004DD09BD043F0800398E741F4024343F040033D
S31500004DE093E700BF0040084043444152F0B5C7690D
S31500004DF0054689B017B3BE466C468C46BEE80F0022
S31500004E003E460FC49EE80F0084E80F00BCE80F0082
S31500004E100FC69CE80F008EE80F00AB69384698472E
S31500004E20EB694BB19C46EE46BEE80F00ACE80F00BE
S31500004E309EE80F008CE80F0009B0F0BD0F46ECE7C6
S31500004E4010B588B0EFF30383124A103B5BB252F8F9
S31500004E502320EFF30383103B0F495BB2C03351F8B5
S31500004E6023406FF3104441F8234051F823300021CA
S31500004E7053688DF802001C88106A9369ADF80040EB
S31500004E8001908DF808101BB110466946FFF7AEFF7A
S31500004E9008B010BDF809002000600040026910B596
S31500004EA0864682B34FF0FF3301244FEA72721846EA
S31500004EB0013304FA03FC1CEA020FF8D0B2FA82F2BC
S31500004EC0DEF8003000F10E04C2F11F0203EB4403CA
S31500004ED0121A0B604A604FF0010C4FF4B0734FF496
S31500004EE07A6281F808C04B81DEF80430074C1B88D3
S31500004EF00020043303FA0CF34B72D4F87C310A8297
S31500004F009BB2CB6010BD4A60E5E700BF00B07F40B2
S31500004F102DE9F04FD1E9005441F23608426883B0DA
S31500004F2052698E68019202681FFA85FCA2F804C0D5
S31500004F301FFA84FCA2F814C024F0C04745EA040C0A
S31500004F4025F0C04BB4B226F0C04E14813F0C4FEA98
S31500004F501B44DFF8A8A14FEA1E4ED480624BD782CD
S31500004F60A2F80AE0DAF820401B68C4F30267DFF80B
S31500004F709091BB40C4F30214E340A9FB03394FEA06
S31500004F80991908FB09F8594BA3FB08384FEA9848CA
S31500004F9008F10108B8F1070F38BF4FF007081CF0F9
S31500004FA0005321D0EFF31084012383F31088504B74
S31500004FB0DA6822F48002DA60DB6884F310889022D3
S31500004FC04C4B0D681A7002685FFA88F315F0005FA3
S31500004FD08E6882F8DE300CBF4FF480634FF4807326
S31500004FE0B40048BF43F001031CF0804F0ED06F00A1
S31500004FF048BF43F400735FFA88F858BF43F4006370
S31500005000740082F8DF8048BF43F002039BB25382EC
S315000050108B7CCC7C1B0203F4E0632343A2F866304E
S31500005020CB68002B5DD01C89270529D5D3E900C69E
S31500005030B3F80A80A2F890404FEA1C4EA2F89C8072
S31500005040B3F80C80370C2EF4C04EA2F89E801FFADF
S315000050508EFE1FFA8CF827F4C047CCF3417CA2F8E9
S315000050609480BFB2A2F896E082F892C01FFA86FC3E
S31500005070C6F34176A2F898C0A2F89A7082F89360B7
S31500005080A60522D40B8AA2F89040A2F88030019B94
S315000050901B799BB1BBFA8BF3B2F800B0818A1FFA79
S315000050A08BFB2BF01F0B0BF11F0BABEB030B1FFA4C
S315000050B08BFB4BEA0103A2F800B083820E4BC0E9DA
S315000050C00335002003B0BDE8F08F9E7CDF7C3E43B5
S315000050D082F8A660DE891B8AA2F8A860A2F8AA3028
S315000050E0D0E71C46CEE700BF800B002083DE1B43C3
S315000050F00040084000300F404344415200E0014068
S31500005100D34D6210002170B4C0E90211436893F9CF
S3150000511006205C698A4211DB0125354E530902F0EF
S315000051201F0C203305FA0CF546F82350BFF34F8FBA
S31500005130BFF36F8F2F4B43F82210436893F9073064
S31500005140002B10DB012103F01F05A9405A09284D49
S31500005150203245F82210BFF34F8FBFF36F8F002127
S31500005160244A42F8231094F90730002B10DB012162
S3150000517003F01F05A9405A091D4D203245F822109B
S31500005180BFF34F8FBFF36F8F00211A4A42F82310E7
S3150000519094F90830002B10DB0121154C5A0903F055
S315000051A01F052032A94044F82210BFF34F8FBFF3EA
S315000051B06F8F00210F4A42F82310002203681A82DB
S315000051C01A80A3F86620EFF31084012383F3108876
S315000051D0406809490088C0F110008340C86803434D
S315000051E0CB60CB6884F31088104670BC704700BF54
S315000051F000E100E0F8090020004008400020FFF729
S315000052001FBE00BF064B074993F826001A6A51F8DD
S315000052102030C2F302620449D3400B60704700BFDE
S3150000522000E001408C000020800B00204AF2035071
S3150000523001233149314A2DE9F043A1F8FE03A2F8D2
S315000052400431B2F804319BB2002BFAD101214FF49C
S3150000525000452B482B4C03618560A2F800112025E0
S31500005260A16021600924284A284E0260224A46602D
S3150000527092F82660166A82F8135482F8A24082F8E1
S31500005280801482F832302249224BC160436192F881
S315000052903C301907FBD54FF41C54002316491485DE
S315000052A082F82A3091F83C309B06FBD505224FF058
S315000052B00309F1254FF0010E4FF0F00C4FF4254491
S315000052C0DFF83880144F88F81C910F6281F8262089
S315000052D091F82620114B50F82220086A104EC0F390
S315000052E00260C24032601D7383F808E083F80CC088
S315000052F0A1F8FE43BDE8F08300E0014000C0014094
S315000053008C00002000700040002D310100127A0050
S315000053108096980000C2EB0B21120020002000406E
S31500005320800B00200022024B83F82820704700BF24
S3150000533000300840A0F101000028FBD1704700BFF3
S3150000534010B54FF47A72164C164B24684FF0000EC7
S31500005350B3FBF4FC4FF0FF3300FB01F1A1FB0204A9
S3150000536083427EEB040407D3B0FBFCF0800880B1D7
S31500005370BDE81040FFF7DEBF4FEA8C0CB1FBFCF135
S31500005380A1FB02128B427EEB020203D308460028E1
S31500005390EED110BD1846BDE81040FFF7CBBF00BFE9
S315000053A0800B002000CA9A3B70B500240B4B0C4EB4
S315000053B0B3F82021B3F84051ADB2154025FA04F3F5
S315000053C0DB07E0B203D556F8243003B19847013421
S315000053D0102CF3D1014BA3F8305170BD0060004092
S315000053E0B409002030B5032085B000F07DF86FF0D9
S315000053F0FF054FF0FF31204C002322464FF0010EEF
S315000054001E488564CDE90111039104F1C00532F807
S31500005410020F590960B104A800EB810151F80C0C88
S3150000542003F01F0C0EFA0CFC20EA0C0041F80C0CE1
S31500005430954203F10103EAD10199114B0F4A03206A
S315000054401167C3F8801202995167C3F88412039951
S315000054509167C3F8881200F017F80023094834F85A
S31500005460022F03F1C00101330AB140F82120A54201
S31500005470F5D105B030BD00BFC681000000800040F8
S3150000548000E100E000600040EFF31081012383F3A8
S315000054901088124B33F8102092B22AB133F810203C
S315000054A0013A92B223F8102033F810309BB293B928
S315000054B00B4A10B4B2F8FE330A4C9BB234F8100013
S315000054C043F4254323EA0003A2F8FE3381F3108850
S315000054D05DF8044B704781F310887047780B002005
S315000054E000E00140D884000030B4EFF310810123BE
