S020000052413654325F4F5645524D4F44554C4154494F4E5F54494D2E73726563D5
S315000000000004002025200000811D0000352000008E
S315000000103520000035200000352000003520000086
S315000000200000000000000000000000003520000075
S3150000003035200000000000003520000035200000BB
S30D000000409B1A0000911B000051
S315000000480348044B834202D0034B03B11847704759
S3150000005884A2000184A2000100000000064B0749A3
S31500000068C91A891048BF0131491003D0044B0BB196
S3150000007801481847704700BF84A2000184A2000106
S315000000880000000010B5064C237843B9FFF7D8FFE7
S31500000098044B13B10448AFF300800123237010BD4D
S315000000A81C0400200000000084A2000108B5054BCE
S315000000B81BB105490548AFF30080BDE80840FFF7C6
S315000000C8CDBF00BF000000002004002084A200016C
S315000000D880B500AF00F002F800BFFDE780B582B03A
S315000000E800AF00237B600549054800F0BDFC786039
S315000000F87B68002B06D07B6876E100BF9024000061
S31500000108A4040020AA4AD36A0E2161F31343D362DA
S31500000118A74A136C23F001031364A54A136C23F052
S3150000012802031364A24A136C43F004031364A04A3F
S31500000138136C23F0080313649D4A136C23F480732D
S3150000014813649B4A136C23F480631364984A136CF4
S31500000158012161F311431364954A136C012161F37C
S3150000016893431364924A136C012161F31553136484
S315000001788F4A136C23F4800313648D4A136C23F09F
S31500000188407313648A4A136C23F080631364884AA5
S31500000198136C23F040531364854A136C23F0804391
S315000001A81364844A136C23F001031364814A136CA5
S315000001B823F0020313647F4A136C43F004031364A9
S315000001C87C4A136C23F0080313647A4A136C23F4ED
S315000001D880731364774A136C23F480631364754A37
S315000001E8136C012161F311431364724A136C0121E4
S315000001F861F3934313646F4A136C012161F315533A
S3150000020813646C4A136C23F480031364694A136CF1
S3150000021823F040731364674A136C23F080631364F6
S31500000228644A136C23F040531364624A136C23F038
S3150000023880431364604A136C23F0010313645E4A17
S31500000248136C23F0020313645B4A136C43F0040334
S315000002581364594A136C23F008031364564A136C43
S3150000026823F480731364544A136C23F48063136471
S31500000278514A136C012161F3114313644E4A136CFE
S31500000288012161F3934313644B4A136C012161F313
S3150000029815531364484A136C23F480031364464ABF
S315000002A8136C23F040731364434A136C23F0806382
S315000002B81364414A136C23F0405313643E4A136C8B
S315000002C823F0804313643A4B40F6AC525A66384BD7
S315000002D840F6AC529A66364B40F6AC52DA66344A69
S315000002E8536B062161F304035363324A536B0621A9
S315000002F861F304035363304A536B062161F3040325
S3150000030853632B4A536B092161F314435363294AF8
S31500000318536B092161F314435363274A536B09212D
S3150000032861F314435363224A536B43F48053536374
S315000003381F4AD2F8E03023F08073C2F8E0301C4A36
S31500000348D2F8E03043F04063C2F8E030184AD2F8F9
S31500000358E03043F04053C2F8E030164AD2F8E030B5
S3150000036823F08073C2F8E030124AD2F8E03043F046
S315000003784063C2F8E0300F4AD2F8E03043F0405309
S31500000388C2F8E0300C4AD2F8E03023F08073C2F8A5
S31500000398E030094AD2F8E03043F04063C2F8E03072
S315000003A8054AD2F8E03043F04053C2F8E03005E0A1
S315000003B80094164000951640009616400C4B40F2E5
S315000003C8DC52DA650B4B40F2DC52DA650A4B40F236
S315000003D8DC52DA65094800F09BFB78607B68002BE5
S315000003E801D07B6800E0002318460837BD4680BD6B
S315000003F8009416400095164000961640A404002066
S3150000040880B483B000AF78607B681B79002B2CD151
S31500000418194B1B78DBB20133DAB2174B1A70164B3D
S315000004281B78DBB2032B0FD1144B5B6E134A9B0868
S31500000438D365124B5B6E124A9B08D3650F4B5B6EF6
S31500000448104A9B08D36510E00B4B1B78DBB2062BD2
S315000004580BD10A4B0022DA65094B0022DA65094BF3
S315000004680022DA65044B00221A7000BF0C37BD461D
S315000004785DF8047B704700BF3804002000941640DE
S31500000488009516400096164080B582B000AF034628
S31500000498FB71FB79022B05D1044B5B6819460448AE
S315000004A800F090F800BF0837BD4680BD98220000CE
S315000004B83C04002080B500AFFFF70AFE002318466B
S315000004C880BD000080B483B000AF0346FB800A49B4
S315000004D8FB881B0A9BB21A46FB88DBB2120113443F
S315000004E851F82330C3F34003DBB218460C37BD4638
S315000004F85DF8047B704700BF00F8014080B485B002
S3150000050800AF0023FB60EFF310837B607B68FB6022
S315000005180123BB60BB6883F3108800BF0D4B1B68C3
S31500000528002B05D10C4B00221A730B4B40221A7371
S31500000538084B1B680133074A1360FB683B603B683E
S3150000054883F3108800BF00BF1437BD465DF8047BEF
S31500000558704700BF0005002000FD014080B485B04B
S3150000056800AF0023FB60EFF310837B607B68FB60C2
S315000005780123BB60BB6883F3108800BF0F4B1B6861
S31500000588002B04D00D4B1B68013B0C4A13600B4B28
S315000005981B68002B05D10A4B00221A73084B8022D0
S315000005A81A73FB683B603B6883F3108800BF00BF83
S315000005B81437BD465DF8047B704700BF0005002070
S315000005C800FD014080B584B000AF786039607B6873
S315000005D8FB60FB68044A1A60386800F0A4F9002337
S315000005E818461037BD4680BD54524F5080B485B06A
S315000005F800AF78607B68FB60FB6800221A60002306
S3150000060818461437BD465DF8047B704780B582B03E
S3150000061800AF78603960386800F085F9002318461D
S315000006280837BD4680BD80B584B000AFF8600B467C
S315000006387A607B81FFF762FF7B897968184600F04C
S31500000648D7F9FFF78BFF002318461037BD4680BD44
S3150000065880B584B000AFF8600B467A607B817B89F1
S315000006681846FFF72FFF0346DAB27B681A70002395
S3150000067818461037BD4680BD80B487B000AFF86015
S315000006880B467A607B817B891B0A9BB2DBB25B01D6
S3150000069803F1804303F5F8337B617B695B689AB2A3
S315000006A87B681A80002318461C37BD465DF8047B14
S315000006B8704780B487B000AFF860084611461A46FE
S315000006C803467B810B463B811346FB803A89FB88B0
S315000006D81340FB82B7F90830DB431AB2B7F9063084
S315000006E813401BB2BB827B891B0A9BB2DBB25B0140
S315000006F803F1804303F5F8333B61BB8A1A04FB8A8E
S315000007081A433B699A60002318461C37BD465DF8B4
S31500000718047B704780B487B000AF78600B467B8057
S3150000072813467B700023FB820023BB827B8823F061
S31500000738FF037B827B88DBB23B823B8A012202FA7B
S3150000074803F3FB817B78002B02D1FB89BB8201E096
S31500000758FB89FB827B8A1B0A9BB2DBB25B0103F136
S31500000768804303F5F833BB60BB8A1A04FB8A1A4335
S31500000778BB689A60002318461C37BD465DF8047BA3
S31500000788704780B48BB000AFF860084611461A4629
S3150000079803467B810B463B811346FB807B891B0AFC
S315000007A89BB2DBB25B0103F1804303F5F8337B624E
S315000007B87B6A1B683B623A89FB8813409BB2FB61E4
S315000007C83B89DA43FB881340BB613B6A7B617A69E4
S315000007D8FB6913437B61BB69DB437A6913407B6121
S315000007E87B6A7A691A60002318462C37BD465DF87D
S315000007F8047B704780B487B000AFF8600B467A6018
S315000008087B817B891B0A9BB2DBB25B0103F18043C8
S3150000081803F5F8337B617B695B68C3F30F439AB2D0
S315000008287B681A80002318461C37BD465DF8047B92
S31500000838704780B487B000AFF8600B467A607B815A
S315000008487B891B0A9BB2DBB25B0103F1804303F58C
S31500000858F8337B617B695B68C3F30F437B827B89D3
S31500000868DBB2012202FA03F33B827A8A3B8A1340FF
S315000008789BB23A8A9A4203D17B6801221A7002E037
S315000008887B6800221A70002318461C37BD465DF89F
S31500000898047B704780B487B000AFF86008461146FD
S315000008A81A4603467B810B463B811346FB803A89F1
S315000008B8FB881340FB82B7F90830DB431AB2B7F955
S315000008C8063013401BB2BB827B891B0A9BB2DBB284
S315000008D85B0103F1804303F5F8333B61BB8A1A04D5
S315000008E8FB8A1A433B69DA60002318461C37BD4663
S315000008F85DF8047B704780B582B000AF78600B4620
S315000009087B8013467B707B8823F0FF039BB27A8833
S31500000918D2B291B27A78184600F02DF8002318461C
S315000009280837BD4680BD80B584B000AF78607B6867
S31500000938BB60FFF7E3FD0023FB8111E0BB685A6843
S31500000948FB89DB0013449888BB685A68FB89DB007F
S3150000095813441B68194600F04BF8FB890133FB81E9
S31500000968BB681B88FA899A42E8D3FFF7F7FD00BFF0
S315000009781037BD4680BD80B487B000AF0346FB8004
S315000009880B46BB801346FB70FB881B0A9BB2DBB287
S315000009985B0103F1804303F5F8333B61BB88012211
S315000009A802FA03F3FB603B69DB687B61FB78012B8A
S315000009B80AD1FB681B04DB437A6913407B617A69B9
S315000009C8FB6813437B6109E0FB68DB437A691340E4
S315000009D87B61FB681B047A6913437B613B697A690F
S315000009E8DA6000BF1C37BD465DF8047B704700001F
S315000009F880B483B000AF03463960FB803B6803F4DC
S31500000A088033002B1CD01749FB881B0A9BB21A4659
S31500000A18FB88DBB212011A4451F8223023F48033E2
S31500000A2841F822300F48FB881B0A9BB21946FB88FF
S31500000A38DBB23A6822F4803209010B4440F82320DD
S31500000A480849FB881B0A9BB21A46FB88DBB21201CF
S31500000A5813443A6841F8232000BF0C37BD465DF8B9
S31500000A68047B704700F8014080B586B000AF786017
S31500000A7839607B683B610023FB7530E0FB7D3A6893
S31500000A889B0013445B681868FB7D3A689B00134417
S31500000A985B685B68194600F07FF9F860FB7D3A6889
S31500000AA89B0013445B681A68FB7D926839699B0052
S31500000AB80B445A603B681B78022B0DD1FB7D3A69C3
S31500000AC89B0013445B681A6CFB7D39699B000B44D9
S31500000AD85B6842F420221A64FB7D0133FB75FB7DBB
S31500000AE8022BCBD93B685A693B691A613B681A786D
S31500000AF83B691A753B693A689A613B69034A1A6009
S31500000B08002318461837BD4680BD00BF33545047EA
S31500000B1880B485B000AF78607B68FB60FB685B6873
S31500000B28FA6812695A60002318461437BD465DF8FC
S31500000B38047B704780B483B000AFEFF303837B6018
S31500000B487B683B603B88C3F308039BB2DBB2103B70
S31500000B58DBB25BB218460C37BD465DF8047B7047BE
S31500000B6880B487B000AF0346FB71FB79FF2B01D138
S31500000B78002315E00D4B1B6A7B61FB797A6922FA23
S31500000B8803F303F007033B617B691B0E03F00703BE
S31500000B98FB60074B1A68FB689A403B6922FA03F325
S31500000BA818461C37BD465DF8047B704700E00140D7
S31500000BB81805002080B483B000AF03463960FB7186
S31500000BC897F9073004493A6841F8232000BF0C37E3
S31500000BD8BD465DF8047B70470405002080B483B0E9
S31500000BE800AF0346FB7197F90730044A52F82330E1
S31500000BF818460C37BD465DF8047B7047040500208F
S31500000C0880B483B000AF0346FB710B4997F90730F0
S31500000C1803F1C00251F8223023F4803341F8223020
S31500000C28054A97F90730C03352F8233000BF0C370E
S31500000C38BD465DF8047B70470060004080B584B00F
S31500000C4800AF0346FB7197F907301846FFF7D8FF40
S31500000C58BFF35F8F00BF97F90730FB60FB6803F0AF
S31500000C681F02074997F907305B09012000FA02F2CB
S31500000C78603341F8232000BF1037BD4680BD00BF52
S31500000C8800E100E080B584B000AF0346B9607A6041
S31500000C98FB73BB68DAB2094997F90F301201D2B271
S31500000CA80B4483F8002397F90F3079681846FFF745
S31500000CB881FF00BF1037BD4680BD00BF00E100E0E0
S31500000CC880B485B000AF0346FB7197F90730FB6027
S31500000CD8FB6803F01F020749FB685B09012000FA5D
S31500000CE802F241F8232000BF1437BD465DF8047BA5
S31500000CF8704700BF00E100E080B582B000AF034650
S31500000D08FB7197F907301846FFF798FF97F90730F0
S31500000D181846FFF7D5FF00BF0837BD4680BD00005F
S31500000D2880B485B000AF0346FB7197F90730FB60C6
S31500000D38FB6803F01F020B4997F907305B0901208E
S31500000D4800FA02F2203341F82320BFF34F8F00BF89
S31500000D58BFF36F8F00BF00BF1437BD465DF8047B35
S31500000D68704700BF00E100E080B584B000AF0346DD
S31500000D78B9607A60FB7397F90F307A68B9681846D4
S31500000D88FFF780FF97F90F301846FFF7B5FF00BF4A
S31500000D981037BD4680BD000080B584B000AF7860CE
S31500000DA839607B68FB603B681B7C1A46012303FAA3
S31500000DB802F2FB68DA603968F86800F07DFA39688B
S31500000DC8F86800F0ABFAFB68034A1A600023184675
S31500000DD81037BD4680BD00BF5450470080B485B06B
S31500000DE800AF78607B68FB60FB689B68FA68D2682E
S31500000DF89A60002318461437BD465DF8047B704791
S31500000E0880B485B000AF78607B68FB60FB689B6840
S31500000E18FA68D2685A60002318461437BD465DF84A
S31500000E28047B704780B485B000AF78607B68FB6050
S31500000E38FB689B68FA68D268DA600023184614379C
S31500000E48BD465DF8047B704780B588B000AF786012
S31500000E587B68FB61FB695B68DB69BB614FF000433C
S31500000E687B614FF000433B614FF00043FB60BB6979
S31500000E785B687A6913437B61BB699B683A6913436C
S31500000E883B61BB69DB68FA681343FB60F86900F0ED
S31500000E9808FAB860FB699B683A695A61FB699B68FE
S31500000EA8FA689A61FB699B687A691A61FB699B68AB
S31500000EB8BA6912695A62FB699B68BA6952699A6289
S31500000EC8BB6843F425431946F86900F0DFF90023A7
S31500000ED818462037BD4680BD80B584B000AF78601F
S31500000EE87B68FB60F86800F0DCF9B860F86800F029
S31500000EF837FCBB6843F425431946F86800F0C6F981
S31500000F08002318461037BD4680BD80B586B000AFB1
S31500000F18786039607B683B61386900F0C2F9F8602F
S31500000F283B68013B7B613B695B681B78032B01D9F6
S31500000F383B687B613B699B687A699A663B695B6833
S31500000F481B78002B0BD13B685B08013BBB603B69F8
S31500000F589B68BA685A653B699B68BA689A653B6933
S31500000F689B68DB6AC3F30003DBB2002B0DD13B6938
S31500000F789B687A695A663B699B684FF4AA021A64A9
S31500000F883B699B683A69D268DA60FB6843F4254393
S31500000F981946386900F07AF9002318461837BD460D
S31500000FA880BD80B58CB000AFF860B9607A607B68A8
S31500000FB803F003037B62FB683B624FF0FF337B6100
S31500000FC80023BB6107F114027B68B968386A00F030
S31500000FD828FC386A00F065F9F8613B6A9B681B6B68
S31500000FE8FB62BB69002B29D10223BB627B6803F035
S31500000FF80803002B01D00423BB627B6803F00203BD
S31500001008002B11D03B6A99687A69BB6A12339B0038
S315000010180B445A603B6A9968BB6A01337A69123392
S315000010289B000B445A6009E03B6A99687A6ABB6A76
S3150000103813447A6912339B000B445A607B6803F0A9
S315000010484003002B07D03B6A9B681A6C3B6A9B6877
S3150000105842F480021A647B6A012B08D0FB6A23F4E7
S315000010684033FB62BB691B04FA6A1343FB627B6865
S31500001078022B09D1BB69002B06D007F11402012304
S31500001088B968386A00F0CDFB7B6A002B08D0FB6A8A
S3150000109823F04073FB62BB691B06FA6A1343FB62C3
S315000010A83B6A9B68FA6A1A63FB6943F42543194647
S315000010B8386A00F0EBF8002318463037BD4680BD85
S315000010C880B586B000AFF860B9601346FB71FB685F
S315000010D87B61786900F0E5F838617B699968FB7986
S315000010E8032B06D0FB79042B01D0FB7902E00323FE
S315000010F800E00423BA68013A12339B000B445A6095
S315000011083B6943F425431946786900F0BFF8002384
S3150000111818461837BD4680BD80B586B000AF7860E2
S3150000112839607B683B613B699B685B6EFB60FB686B
S3150000113801337B613B695B681B78032B01D9FB682C
S315000011487B613B687A699A60386900F0E9FB024678
S315000011583B685A603B6801221A7000231846183704
S31500001168BD4680BD80B485B000AF786039607B68C5
S31500001178FB60FB689B68DB6AC3F30003DBB21A46B5
S315000011883B681A71FB689B689A6C3B681A60002377
S3150000119818461437BD465DF8047B704780B487B09F
S315000011A800AFF860B9607A603B60FB687B617B6979
S315000011B8BA685A617B697A68DA617B693A689A61C2
S315000011C8002318461C37BD465DF8047B704780B57A
S315000011D888B000AF78607B68FB610023BB61FB6960
S315000011E85B68DB697B61FB695B6893F912301846BB
S315000011F800F0D7FA7B6993F92830184600F0D1FA3F
S315000012087B6993F92930184600F0CBFA7B6993F984
S315000012182A30184600F0C5FA7B6993F92B30184630
S3150000122800F0BFFA7B6993F92C30184600F0B9FA3A
S315000012387B6993F92D30184600F0B3FA7B69DB6CAD
S315000012483B613B69002B05D03B6993F90130184691
S3150000125800F0A7FAFB6900221A60F86900F021F885
S31500001268F860FB699B68FA69D2689A60FB699B68B3
S3150000127800225A63FB6843F425431946F86900F0CF
S3150000128805F8BB6918462037BD4680BD80B483B0D3
S3150000129800AF7860396000BF0C37BD465DF8047B47
S315000012A8704780B483B000AF7860002318460C37C7
S315000012B8BD465DF8047B704780B485B000AF7860A2
S315000012C839607B683A685A607B6801221A747B68C1
S315000012D8DB68C3F30903002B02D07B6800221A746B
S315000012E83B681B7C1A460C4B13441B02FB60FA68CE
S315000012F87B689A603B685A697B685A613B689A6959
S315000013087B68DA617B6800229A6100BF1437BD46A4
S315000013185DF8047B704700BF9016400080B598B012
S3150000132800AF786039603B68DB69BB648F4B01228C
S315000013381A6000237B64EFF31083BB61BB697B648F
S3150000134801237B617B6983F3108800BF884B1B6987
S31500001358874A23F000431361854B1B697B6C3B610D
S315000013683B6983F3108800BF7B68DB6803F00F03D3
S31500001378002B1ED000233B64EFF310837B627B6A4D
S315000013883B6401233B623B6A83F3108800BF794BB9
S315000013985B889AB27B68DB689BB2DB439BB2754974
S315000013A813409BB24B803B6CFB61FB6983F310884F
S315000013B800BF7B689B684FF425421A607B689B6870
S315000013C80022DA627B689B680022DA637B689B6886
S315000013D800229A643B681B7AFB63FB6BDB05FB65A3
S315000013E83B685B68013BBB653B681B78032B03D1F5
S315000013F8FB6D43F48033FB653B681B78032B08D9E8
S315000014083B681B781B04FA6D1343FB653B685B68F6
S31500001418BB657B689B68FA6DDA62786800F0A0F9AC
S315000014287B689B68BA6C9269DA617B689B68BA6C60
S31500001438D2691A627B689B68BA6D9A667B689B68F4
S31500001448BA6D5A660023BB63BB6C1B6D7B654FF098
S31500001458FF33BB600023FB603B681B78002B06D17B
S315000014683B685B685B08013B7B637B6BBB603B68E7
S315000014781B78012B07D93B68D96807F108020023B6
S31500001488786800F0CEF97B689B68BA685A657B680D
S315000014989B68BA689A653B681B78032B07D97B68F3
S315000014A89B68BA68DA657B689B68BA681A66FB68DF
S315000014B81B04BA6B1343BB63FB681B06BA6B134367
S315000014C8BB63BB6C1B6D002B1ED1BB6C1B78002B42
S315000014D80AD0BB6C5B781946386800F038FA38636E
S315000014E87A6D3B6B13437B65BB6C9B78002B0BD0EB
S315000014F8BB6CDB781946386800F029FAF862FB6A93
S315000015081B047A6D13437B65786800F052FA3B68D2
S315000015181B7C1A4601239340C3F30903002B03D00F
S315000015287B689B6800225A64BB6CDB6CBB62BB6A37
S31500001538002B6FD0BB6ADB781A07BB6A9B781B0641
S3150000154813433B653B681B7C1A4601239340C3F350
S315000015580903002B1BD0BB6A9B68002B03D1BB6A0F
S31500001568DB68002B08D0012207E000BF009B16406D
S315000015780040084000A0164000227B689B68C3F81C
S3150000158888207B689B68BA6A9268C3F88C203B6897
S315000015981B7C1A4601239340C3F30903002B24D06E
S315000015A87B689B68BA6AD268C3F89020BB6A1B7EC0
S315000015B89A01BB6A5B7E1B0242EA0301BB6A9B7EF9
S315000015C81A037B689B680A435A64BB6A1B791B0427
S315000015D83A6D13433B657B689B68BA6A12691A675A
S315000015E87B689B68BA6A5269DA677B689B683A6D5A
S315000015F89A63BB6C1B6D002B15D1BB6ADB7E5B0245
S315000016087A6D13437B65BB6A1B7F5B067A6D134352
S315000016187B6508E07B689B6800229A637B689B6809
S315000016280022C3F88820BB6C1B6D002B0DD1BB6C48
S3150000163893F820305B037A6D13437B65BB6C93F894
S3150000164821305B077A6D13437B654FF4AA03FB646D
S31500001658BB6C93F84830002B02D04FF4A003FB6410
S315000016687B689B68FA6C1A643B681B78012B07D168
S315000016787B689B680022DA647B689B6800221A658F
S315000016887B689B687A6D5A637B689B68BA6B42F085
S3150000169803021A637B689B68BA6B42F001021A63FD
S315000016A87B689B687A68D268DA604AF20151786882
S315000016B8FFF7ECFD3B6893F912003B685B7C7A68A0
S315000016C8194600F086F8BB6C93F92800BB6C93F8B2
S315000016D822307A68194600F07CF8BB6C93F9290029
S315000016E8BB6C93F823307A68194600F072F8BB6C25
S315000016F893F92A00BB6C93F824307A68194600F0EF
S3150000170868F8BB6C93F92B00BB6C93F825307A68A4
S31500001718194600F05EF8BB6C93F92C00BB6C93F885
S3150000172826307A68194600F054F8BB6C93F92D00F8
S31500001738BB6C93F827307A68194600F04AF8BB6AFA
S31500001748002B08D0BB6A93F90100BB6A1B787A683C
S31500001758194600F03EF800BF6037BD4680BD00BFA1
S3150000176880B483B000AF78607B689B684FF0004216
S315000017781A617B689B684FF000425A617B689B68D8
S315000017884FF000429A617B689B6800225A627B6828
S315000017989B6800229A6200BF0C37BD465DF8047B41
S315000017A8704780B582B000AF0346FB7197F90730E2
S315000017B8002B0ADB97F907301846FFF7B1FA97F9B5
S315000017C8073000211846FFF7F5F900BF0837BD4670
S315000017D880BD80B584B000AF0346B9607A60FB73FC
S315000017E897F90F30002B06DB97F90F307A68B9683E
S315000017F81846FFF7B9FA00BF1037BD4680BD80B559
S3150000180882B000AF0346FB7197F90730002B04DB63
S3150000181897F907301846FFF711FA00BF0837BD4693
S3150000182880BD80B489B000AFF860B9607A603B606B
S31500001838FB689B689B6EFB61FB685B681B78032BE8
S3150000184802D8FB690133FB61BB68002B0CBF01237F
S315000018580023BB75BA68FB699A422CBF0123002393
S315000018687B75BB7D002B02D17B7D002B40D03B686E
S3150000187803F00103002B07D1FB689B685B6BC3F37E
S315000018880403DBB2BB6106E0FB689B685B6BC3F3D2
S315000018980443DBB2BB61FB685B681B78032B08D982
S315000018A8BB6903F01003002B0CBF01230023FB7553
S315000018B807E0BB6903F00C03042B0CBF01230023CC
S315000018C8FB75BB7D002B05D0FB7D83F00103DBB2E6
S315000018D8002B05D17B7D002B06D0FB7D002B03D08A
S315000018E87B6802225A6015E07B6803225A6011E081
S315000018F8BB683B61FB685B681B78032B03D97B6875
S315000019083A691A6006E03B69013B3B617B683A69C4
S315000019181A60FFE700BF2437BD465DF8047B7047B1
S3150000192880B584B000AF78607B689B68DB6AC3F3D8
S31500001938C353DBB2FB730020FFF712F9B860FB7BD9
S31500001948BA6822FA03F318461037BD4680BD80B43C
S3150000195885B000AF78600B46FB70FB789A01FB7880
S315000019681B01134343F48073BB600923FB607B6848
S315000019781B78022B12D07B681B78032B02D9032312
S31500001988FB600BE07B681B78032B02D10323FB600B
S3150000199804E0FB78002B01D10623FB60BA68FB68DC
S315000019A81343BB60BB6818461437BD465DF8047B15
S315000019B8704780B485B000AF78607B685B68DB6988
S315000019C8BB600023FB6024E0BB6893F848301A46E6
S315000019D8FB6822FA03F303F00103002B16D0BB6859
S315000019E8FA680C3253F822207B689968FB68032B47
S315000019F806D0FB68042B01D0FB6802E0032300E055
S31500001A080423013A12339B000B445A60FB680133E6
S31500001A18FB60FB68052BD7D900BF00BF1437BD464E
S31500001A285DF8047B704790B589B000AFF8600B4647
S31500001A387A60FB72FB689B69FB61FB69002B03D12B
S31500001A4807F11003FB6105E0FA6907F1100307CAFD
S31500001A5883E80700FB69FA7A1A71FB697A689A6063
S31500001A68FB68DA69FB691A60FB685B69F86998477D
S31500001A78FB689B69002B08D0FB689B691C4607F12D
S31500001A88100393E8070084E8070000BF2437BD4623
S31500001A9890BD80B584B000AFFFF74CF80346FB73E2
S31500001AA897F90F301846FFF7ABF897F90F30184635
S31500001AB8FFF794F8B860BB685B68DB697B60BB6856
S31500001AC85B681B78012B52D1B868FFF7EAFB3860D0
S31500001AD8BB689B68BA68D2689A60BB689B68002234
S31500001AE89A64BB689B680022DA64BB689B6800221C
S31500001AF81A653B6843F425431946B868FFF7C6FBE1
S31500001B0897F90F301846FFF799F87B6893F848302D
S31500001B1803F00103002B05D07B6893F9283018469B
S31500001B28FFF76DFE7B6893F8483003F00203002B3D
S31500001B3805D07B6893F929301846FFF760FE7B6865
S31500001B4893F92A301846FFF75AFE7B6893F92B302B
S31500001B581846FFF754FE7B6893F92C301846FFF7B2
S31500001B684EFE7B6893F92D301846FFF748FEBB6892
S31500001B785B69002B04D000220021B868FFF753FFE9
S31500001B8800BF1037BD4680BD80B582B000AFFEF7F6
S31500001B98D1FF0346FB7197F907301846FFF730F86F
S31500001BA897F907301846FFF719F83860002203211D
S31500001BB83868FFF738FF00BF0837BD4680BD00000C
S31500001BC880B400AF0C4B0122A3F804210A4BB3F8EA
S31500001BD804319BB2002BF9D1074B0122A3F800214F
S31500001BE8064B01229A60054B01221A6000BFBD46CA
S31500001BF85DF8047B704700BF00C0014000700040DC
S31500001C0880B483B000AF0D4B93F82630DBB27B600F
S31500001C180A4B1B6A1B0E03F007033B60084A7B68E6
S31500001C2852F823203B6822FA03F3064A136000BFE2
S31500001C380C37BD465DF8047B704700BF00E00140E5
S31500001C48000400201805002080B500AF074B0122CC
S31500001C5883F81C21064B074A1A62054B052283F8AE
S31500001C682620FFF7CDFF00BF80BD00BF00C00140A2
S31500001C7800E001402112022080B500AF0B4B0C4A50
S31500001C881A600A4B0B4A5A60084B4FF400429A6096
S31500001C98064B094ADA60054B00221A61034B074ACC
S31500001CA85A61FFF7ADFF00BF80BD00BF00040020EA
S31500001CB8002D310100127A0080969800001C4E0E05
S31500001CC880B500AF1B4B4AF20352A3F8FE23FFF779
S31500001CD877FFFFF7D1FF174B202283F81324154B04
S31500001CE8092283F8A22000F027F8124B002283F875
S31500001CF83220104B93F83C30C3F3C003DBB2012B00
S31500001D08F7D10C4B4FF43C521A850A4B002283F844
S31500001D182A20084B93F83C30C3F34013DBB2012B5F
S31500001D28F7D1FFF791FF034B4FF42542A3F8FE23A3
S31500001D3800BF80BD00E0014080B400AF00BFBD46D3
S31500001D485DF8047B7047000080B582B000AF03469B
S31500001D58FB71FB79074A52F82330002B06D0FB7932
S31500001D68044A52F82330FA791046984700BF0837D4
S31500001D78BD4680BDC004002080B582B000AF144BBC
S31500001D88B3F82031BB80124BB3F840319AB2BB8806
S31500001D9813407B800023FB710EE07A88FB7922FAD8
S31500001DA803F303F00103002B03D0FB791846FFF772
S31500001DB8CBFFFB790133FB71FB790F2BEDD9044A75
S31500001DC87B88A2F8303100BF0837BD4680BD00BF0A
S31500001DD80060004080B58AB000AF032000F0D6F856
S31500001DE83D4B6FF0FF029A643B460C22FF211846D2
S31500001DF800F038FA00237B6221E0384A7B6A32F821
S31500001E081330002B18D07B6A5B093B617B6A03F0B1
S31500001E181F03FB603B699B0028333B4453F8282C7F
S31500001E280121FB6801FA03F3DB431A403B699B0077
S31500001E3828333B4443F8282C7B6A01337B627B6A50
S31500001E48012BDAD9264B7B6100233B6218E03B6AFB
S31500001E589B007A691A443B6A9B0028333B4453F833
S31500001E68283C13601F493B6A9B0028333B4453F8C0
S31500001E78282C3B6AA03341F823203B6A01333B6296
S31500001E883B6A022BE3D9032000F030F86023FB619C
S31500001E98FB69022B01D90223FB610023BB6112E017
S31500001EA80E4ABB6932F81330002B09D00B4ABB69BE
S31500001EB832F813300C4A1946BB69C03342F823106E
S31500001EC8BB690133BB61BA69FB699A42E8D300BFB3
S31500001ED800BF2837BD4680BD0080004004260000AC
S31500001EE87080004000E100E00060004080B487B0E8
S31500001EF800AF0346FB7100237B61EFF31083FB60A1
S31500001F08FB687B6101233B613B6983F3108800BF53
S31500001F18FB791A4A32F813309BB2002B09D0FB79A9
S31500001F28164A32F8132092B2013A91B2134A22F8AD
S31500001F381310FB79114A32F813309BB2002B11D1DA
S31500001F480F4BB3F8FE339AB20E4B13439AB2FB7992
S31500001F580D4931F81330DB439BB2094913409BB254
S31500001F68A1F8FE337B69BB60BB6883F3108800BFAA
S31500001F7800BF1C37BD465DF8047B70470C05002082
S31500001F8800E0014000A5FFFFC826000080B487B026
S31500001F9800AF0346FB7100237B61EFF31083FB6000
S31500001FA8FB687B6101233B613B6983F3108800BFB3
S31500001FB8FB79164A32F813309BB2002B0FD1144B1B
S31500001FC8B3F8FE339AB2FB79124931F8133013434A
S31500001FD89AB20F49104B13439BB2A1F8FE33FB7913
S31500001FE80A4A32F8132092B2013291B2074A22F80D
S31500001FF813107B69BB60BB6883F3108800BF00BF02
S315000020081C37BD465DF8047B704700BF0C050020F1
S3150000201800E00140C826000000A5FFFF80B500AF1C
S3150000202800F082F8FEF746FA00BFFDE780B400AF7D
S3150000203800BE00BFBD465DF8047B704790B585B00D
S3150000204800AF78600023FB6030E0364B5968FA68C9
S3150000205813465B0013449B000B445B7A1A467B6865
S31500002068934220D12F4B5968FA6813465B001344F4
S315000020789B000B4418682B4B5968FA6813465B009B
S3150000208813449B000B445B681C46264B5968FA6848
S3150000209813465B0013449B000B441B68E31A1A465D
S315000020A8002100F0DFF8FB680133FB601D4B1B685D
S315000020B8FA689A42C9D30023BB6029E0194BDA684B
S315000020C8BB681B0113445B7B1A467B6893421CD191
S315000020D8144BDA68BB681B0113441868114BDA689D
S315000020E8BB681B01134499680E4BDA68BB681B0171
S315000020F813445B681C460B4BDA68BB681B01134428
S315000021081B68E31A1A4600F0B5F8BB680133BB60D2
S31500002118044B9B68BA689A42D0D300BF00BF1437F5
S31500002128BD4690BDB026000080B588B000AF404BD4
S315000021384FF47002C3F888203D4B3E4A9A6000234C
S315000021487B61EFF310833B603B687B6101237B6017
S315000021587B6883F3108800BF374B9B68364A23F4A5
S3150000216880139360344B9B687B69BB60BB6883F3C1
S31500002178108800BF0020FEF787F9FFF7A1FD0120B0
S31500002188FEF782F92D4BFB60FB6883F30A8800BFD4
S315000021980020FFF753FFFFF733FD0320FFF7F6FE96
S315000021A80023FB6109E0264AFB690C334FF6FF71F1
S315000021B822F82310FB690133FB61FB690E2BF2D968
S315000021C80320FFF793FE0320FFF7E0FE1D4B0022D6
S315000021D85A601C4B00229A601A4B0022DA60194B8F
S315000021E800221A610320FFF781FE0220FEF74CF950
S315000021F80120FFF723FF144A144BD31A9B103B61A7
S315000022080023BB6107E0114ABB6952F8233098479F
S31500002218BB690133BB61BA693B699A42F3DBFFF7D5
S31500002228D9FD002000F014F800BF2037BD4680BD58
S3150000223800ED00E00000000000400840000000201B
S3150000224800FD014000000E40302700002C2700004A
S3150000225880B483B000AF786000BF0C37BD465DF828
S31500002268047B704702440346934200D1704703F843
S31500002278011BF9E70A44431E914200D1704710B585
S3150000228811F8014B914203F8014FF9D110BD000036
S315000022983C040020F825000008260000FFDF0000A7
S315000022A800000000B4000000F0000000000000007C
S315000022B8000000000000000000000000010001010D
S315000022C80000000000000000000000000000000000
S315000022D80000000000000000000000000000FFFFF2
S315000022E8FFFFFFFFDFDFDFDFDFDF000000000000AA
S315000022F800000000000000000000000000000000D0
S315000023080000000000000000A422000003015301A1
S315000023180000000004000000701700000000000024
S31500002328B80B000006FFDF000000000000000000F8
S31500002338C4220000440400201C2300003C260000A0
S31500002348FFDF000000000000B4000000F0000000FD
S31500002358000000000000000000000000000000006F
S31500002368010001010000000000000000000000005C
S31500002378000000000000000000000000000000004F
S315000023880000FFFFFFFFFFFFDFDFDFDFDFDF00000B
S31500002398000000000000000000000000000000002F
S315000023A800000000000000000000000048230000B4
S315000023B8030153010000000004000000701700002C
S315000023C800000000B80B000005FFDF000000000059
S315000023D8000000006823000064040020C0230000F9
S315000023E83C2600000A01000000000000B4000000BE
S315000023F8F0000000000000000000000000000000DF
S3150000240800000000010001010000000000000000BB
S3150000241800000000000000000000000000000000AE
S31500002428000000000000FFFFFFFFFFFFDFDFDFDF28
S31500002438DFDF0000000000000000000000000000D0
S31500002448000000000000000000000000000000007E
S31500002458EC2300000000000000000000040000005B
S315000024687017000000000000B80B0000040A000006
S3150000247809040000000000000C2400008404002069
S31500002488642400003C2600000100000084240000AB
S31500002498E02300003C23000000000000700000005C
S315000024A8000000000000000000000103080A000008
S315000024B800000103090A0000000001030A0A0000DF
S315000024C8000001030B0A0000000001020C0A0000CC
S315000024D8000001000D0A0000000001000E0A0000BD
S315000024E8000001000F0A000000400000010B000078
S315000024F800000100030B000000000103040B0000AC
S3150000250800000103050B000000000103060B000094
S3150000251800000103070B000000000103080B000080
S3150000252800000103090B0000000001160A0B000059
S31500002538040000000E0B0000040000000F0B000052
S3150000254800000000010C000000400000040C000020
S3150000255800400000050C000005000000060C000005
S3150000256805000000070C000000000103080C00002D
S3150000257800000103090C0000040000000A0C00001A
S31500002588000001020D0C0000040000000E0C000003
S3150000259804000000000D000005000000010D000009
S315000025A805000000020D000005000000030D0000F4
S315000025B800000000040D000000000000070D0000E8
S315000025C800000103080D000000000103090D0000CA
S315000025D8004000000C0D0000004000000D0D00003A
S315000025E8004000000E0D0000050000000F0D000061
S315000025F829000000B024000000000000F600F700E3
S31500002608CD050000F5050000150600002F060000A0
S315000026183B080000FF080000590600001D070000DF
S315000026288B070000FD0700009D08000081060000DA
S31500002638BB060000A10D0000090E0000E50D000014
S315000026482D0E0000510E0000E10E0000130F0000D1
S31500002658AB0F0000C9100000211100006D11000029
S31500002668A5110000D711000000000020000000207E
S31500002678000000031C0400201C05002000000003C5
S3150000268800000020000000200000000800000203EF
S3150000269800000020000000204800000000000103A0
S315000026A80000002000000020020000007026000044
S315000026B8020000008826000001000000A82600008D
S315000026C801000200080010002000000000000406B7
S315000026D8362E342E300000004275696C74207769F6
S315000026E874682052656E6573617320416476616E05
S315000026F863656420466C657869626C6520536F660D
S315000027087477617265205061636B616765207665D1
S311000027187273696F6E20362E342E30006E
S30900002724F8B500BF3F
S30900002728F8B500BF3B
S3090000272CB5000000EE
S309000027308D00000012
S3090100A100FFFFFFFF58
S3090100A200FFFDF0FF68
S3090100A280F8F8F0FFF4
S70500002025B5
