S02B000052413654325F4D43494856315F49504D5F4C4553535F464F435F57484F4C455F5046435F4532535FCE
S31500000000A814002091500000F94E00008D50000009
S315000000108D5000008D5000008D5000008D50000066
S315000000200000000000000000000000008D500000ED
S315000000308D500000000000008D5000008D50000023
S315000000405D4B00001D4C0000E14C00001D4D000002
S3150000005069370000154500005142000015450000B3
S31500000060000000000000000000000000000000008A
S31500000070000000000000000000000000000000007A
S31500000080000000000000000000000000000000006A
S31500000090000000000000000000000000000000005A
S315000000A0000000000000000000000000000000004A
S315000000B0000000000000000000000000000000003A
S315000000C0000000000000000000000000000000002A
S315000000D0000000000000000000000000000000001A
S315000000E0000000000000000000000000000000000A
S315000000F000000000000000000000000000000000FA
S3150000010000000000000000000000000000000000E9
S3150000011000000000000000000000000000000000D9
S3150000012000000000000000000000000000000000C9
S3150000013000000000000000000000000000000000B9
S3150000014000000000000000000000000000000000A9
S315000001500000000000000000000000000000000099
S315000001600000000000000000000000000000000089
S315000001700000000000000000000000000000000079
S315000001800000000000000000000000000000000069
S315000001900000000000000000000000000000000059
S315000001A00000000000000000000000000000000049
S315000001B00000000000000000000000000000000039
S315000001C00348044B834202D0034B03B118477047E0
S315000001D0580000205800002000000000064B074988
S315000001E0C91A891048BF0131491003D0044B0BB11D
S315000001F001481847704700BF5800002058000020EB
S315000002000000000010B5064C237843B9FFF7D8FF6D
S31500000210044B13B10448AFF300800123237010BDD3
S315000002207800002000000000E898000008B5054BA3
S315000002301BB105490548AFF30080BDE80840FFF74C
S31500000240CDBF00BF000000007C000020E898000041
S315000002502DE9F04F2DED0A8B934F95B004AC0FCFDF
S31500000260A3460FC43B68914D24F8023B0DF1240CC4
S315000002701B0C2370E6460FCDACE80F000FCDACE8A3
S315000002800F0095E80700ACE80300ACF800204FF03B
S315000002901202874B4FF008091A704FF02902DFED62
S315000002A085CA854B9FED85CA1A70854BDFED85BAE9
S315000002B083F80090DFF844A3834B01AF93E807006F
S315000002C09FED82BA03C7BBE80F00AAE80F00DFED77
S315000002D080AA9FED80AADBF800307F4CDFED7F9A85
S315000002E0AAF80030BEE80F000FC4BEE80F00B2EE59
S315000002F00E9A0FC44FF44072794BF0EE006AC3EDCC
S3150000030000CA784BF7EE007A83ED00CA764B0026DA
S31500000310C3ED00BA754B4FF0010883ED00BA744B7C
S31500000320F3EE098AC3ED00AA724B9FED738A83ED43
S3150000033000AA724B9FED720AC3ED009A714BDFED76
S31500000340720A83ED009A714B9FED711AA3F8009023
S31500000350704BDFED711A1A804FF400726F4B9FEDF0
S31500000360702A1A804FF005026E4BF1EE042A1A80AD
S315000003706D4B9FED6E3AC3ED006A6D4BDFED6D3A46
S31500000380C3ED007A6C4B9FED6D4AC3ED007A6C4B62
S315000003909FED6C7A1E806C4BB3EE0E5A1E706B4B43
S315000003A0DFED6B5A1E706B4B9FED6B6A1E706B4BCD
S315000003B0DFED6B4A1E706B4B83F8008001AB9EE845
S315000003C0070003C493E80300674B227083E8030029
S315000003D0664BC3ED008A664B83ED008A654B83ED61
S315000003E0000A654BC3ED000A644B83ED001A644BAB
S315000003F0C3ED001A634B83ED002A634BC3ED002A5D
S31500000400624B83ED003A624BC3ED003A614B83EDDC
S31500000410004A614B83ED007A604BC3ED007A604B76
S3150000042083ED005A5F4B83ED005A5F4BC3ED007AB4
S315000004305E4BC3ED007A5E4BC3ED005A5D4BC3EDD8
S31500000440005A5D4B83ED007A5C4B83ED006A5C4B92
S3150000045083ED006A5B4BC3ED007A5B4B83ED007A5C
S315000004605A4B83ED007A5A4B1E705A4B83F8008024
S31500000470594B83F80080594B1E70594B1E70594BCF
S315000004801E70594B1E70594B1E70594BC3ED004AD6
S31500000490584BC3ED007A584BC3ED006A15B0BDEC5E
S315000004A00A8BBDE8F08F00BF008D0000188D00009C
S315000004B050020020000014414F020020D578693D0B
S315000004C04E020020295C8F3D448D00004C37093ECA
S315000004D0A86D433A00803B461002002000001643F8
S315000004E044010020400100203C010020380100208A
S315000004F0340100202C01002000401C46240100206D
S3150000050000204B461C0100200000614456020020DA
S315000005100000CC4152020020054003444A0100205D
S315000005200580ED434801002030010020CDCCCC3DB4
S31500000530200100206F12833A1801002000001644A3
S3150000054054020020000000004F0100204E01002050
S315000005506F1283394D0100206F12033A4C010020BF
S315000005600AD7A33B2801002008020020140100201E
S315000005700C01002008010020FC000020E000002003
S31500000580DC000020D8000020CC000020C80000209D
S31500000590B8000020A800002010010020F80000206C
S315000005A0F4000020EC000020F0000020E80000200D
S315000005B0D4000020D0000020C0000020BC00002095
S315000005C0A4000020B4000020B0000020AC000020F1
S315000005D00501002004010020E400002003010020A2
S315000005E0020100200101002000010020C4000020BB
S315000005F0A00000209C000020980000203C02002063
S3150000060008B500F0ADF900F0A5F9084B1A78032AF1
S3150000061000D008BD28B10228FBD1054A1870107019
S3150000062008BDBDE80840FFF713BE00BF4E0100201D
S315000006304F0100202DE9F0417F4C804F94ED000AD8
S31500000640D7ED000A01F016FCF0EE407A7C4DB7EECD
S31500000650001ADFED7C0A95ED000AC4ED007A01F080
S31500000660EDFBF0EE086A784EC0EE267A96ED007A3B
S31500000670F4EEC77AF1EE10FA85ED000A00F1D180AA
S315000006807249734B0A781B78934240F0C88083F016
S315000006900102704B97ED005AD3ED003A6E4B95ED83
S315000006A0006A93ED004A6D4BD6ED006AD3ED004A21
S315000006B06B4BD4ED007AD3ED005A6A4B002093EDD4
S315000006C0007A694BD3F800E0684B1E68684B1D68DA
S315000006D0684B1C68684BB3F80080684BB3F800C0E1
S315000006E0674B1F78674B5D639C63674D674CC3ED33
S315000006F0023A83ED034AC3ED044A83ED085AC3ED7B
S31500000700055A83ED0A6AC3ED0C6A83ED067AC3EDDA
S315000007100F7AA3F80080C3F81CE0A3F804C083F89E
S315000007202470DE6224682D681C645D64584D594C43
S315000007302D6824689D65584D5C652D68574C1D666F
S31500000740574D24682D68DC659D66564D564C2D68C0
S315000007502468DD66554D5C662D78554C65F30700BB
S31500000760544D24682D78DC6465F30F20524D534CAC
S315000007702D78246865F31740514D2D7865F31F6079
S3150000078018655048504D007883F848004F48007867
S3150000079083F849004E48007883F84A004D481C67A4
S315000007A000684D4C986724684C485C6700684C4C60
S315000007B0C3F8880024684B48C3F8804004682D6855
S315000007C0C3F88C40484CDD672468484DC3F8984010
S315000007D0474C2D7824684748C3F8A4400124006894
S315000007E083F88450444DC3F890002D684348C3F8FD
S315000007F094500068424DC3F89C002D684148C3F8E8
S31500000800A0500068404DC3F8A8002D683F48C3F8C3
S31500000810AC5005683E48C3F8B05004700A70BDE895
S31500000820F081F7EE000AB0EE670AC6ED007A01F035
S3150000083019FB86ED000A23E7100100202C01002099
S315000008402401002000007A441C0100204C010020F5
S315000008504D01002044010020400100203C01002001
S315000008603801002034010020300100202001002042
S3150000087018010020140100204A0100204801002030
S315000008802801002054010020080100200C0100204E
S31500000890F8000020FC000020F0000020F4000020FA
S315000008A0E8000020DC000020EC000020030100200E
S315000008B0E00000200201002001010020D8000020F5
S315000008C00001002005010020CC00002004010020CA
S315000008D0E4000020D0000020D4000020C00000204A
S315000008E0C8000020BC000020B0000020C40000208A
S315000008F0A4000020B8000020B4000020AC000020B6
S31500000900A8000020A00000209C00002098000020E5
S315000009105001002010B50C4A13780133DBB2032BCB
S315000009200DD81370094C2378012B03D0BDE8104075
S3150000093000F002B900F034F80023237010BD002344
S31500000940137004F013FEEDE7940000205001002020
S3150000095000F084BC014800F02DBD00BF4C03002010
S315000009600C490D4A0B78107898420AD0032B09D807
S31500000970012B13700BD0032B06D013B9074800F0D8
S3150000098009BD704708707047044800F009BD034868
S3150000099000F0FABC4F0100204E0100204C0300205D
S315000009A070B55F4CBEB094F85120636C8DF858203A
S315000009B0D4F8A02017931A92D4F8A430D4F8A8201B
S315000009C01B931C92D4F8AC30D4F8B0200DF17C0CFB
S315000009D004F1040E1E921D93BEE80F00ACE80F0052
S315000009E09EE807004F4D504E8CE80700284616A992
S315000009F0199600F05DFC94F82410284600F0DEFC01
S31500000A0094ED0F0A284600F0D1FCD4ED1E7A94F836
S31500000A104820A36A8DF8982022882993ADF89C2057
S31500000A2094F85220E36A8DF8992094F853202A937B
S31500000A308DF89A20636FD4F888203C490DF1DC0CC0
S31500000A4004F1040E28912F922B93BEE80F00ACE818
S31500000A500F009EE807008CE80700CDED2C7AD4F84D
S31500000A608030D4F88C10E26F2E93D4F89030309109
S31500000A7094F884102D923193D4F89420D4F89830B9
S31500000A802B4D8DF89B10E16E32923393D4F89C2057
S31500000A90236F2846359126A93492369302F0BCF886
S31500000AA0E16D626DA36D0491A16E02920393226EB5
S31500000AB0636E2846079102A90592069302F07AFA18
S31500000AC094F84A20236C8DF8202094F84920216A56
S31500000AD08DF8212094F85020606B8DF822200B931E
S31500000AE0226BA36B0DF13C0C04F1040E0D900991E1
S31500000AF00C920E93BEE80F00ACE80F009EE80700CC
S31500000B000C4D8CE80700284608A90A9600F0F0F973
S31500000B10E36C284601A9019300F0CAFA3EB070BD05
S31500000B20540100204C0300206F12033AECCB953899
S31500000B30B4040020580200200448C379012B00D0D9
S31500000B407047034B93ED000A00F030BC4C030020C5
S31500000B5010010020014800F093BC00BF4C030020A8
S31500000B60014800F037BC00BF4C030020704700BFAF
S31500000B70014800F08BBD00BF4C030020DFED037A77
S31500000B8020EE270A80ED080A704700BF5077D63D51
S31500000B90B5EEC00AF1EE10FA09DD90ED027ADFED4E
S31500000BA0047A20EE070A20EE270A80ED090A70472C
S31500000BB05077D63DD0ED037A77EEC07A6830C0ED37
S31500000BC0007A01F0A5B900BF4378012B21D0022B92
S31500000BD019D190ED030A90ED057A37EE407AD0ED03
S31500000BE0097AF0EEC76AC7FEE67A17EE103AF0EE1B
S31500000BF0E77A002BB8BFF1EE677AD0ED080A30EE3F
S31500000C00270A01F037B99FED060AD0ED080A01F070
S31500000C1031B990ED040AD0ED080A01F02BB900BFF6
S31500000C200000000030B50446C26A036B00F1BC0543
S31500000C3085B090ED0D0A28460092019306F04AFA17
S31500000C40D4ED067A9FED177AF0EEE76AF4EEC76AFE
S31500000C50F1EE10FA0EDCDDED007AF5EEC07AF1EE7B
S31500000C6010FAC8BFDFED107A019BC4ED0B7A23633F
S31500000C7005B030BDB4F84C3094ED197A00EE103A58
S31500000C80DFED0A6AB8EEC00A002327EE267A284668
S31500000C906A4620EE270A02A98DED037A029306F032
S31500000CA0B5F8D8E70AD7233C00000000D7B3DD3FEC
S31500000CB030B5044685B0C26A036B00F1F00502A99F
S31500000CC02846009201930292039300F01FFA04F162
S31500000CD0BC0006F011FA01280ED0DDED027A039B66
S31500000CE0F5EEC07AF1EE10FAC8BFDFED0D7A236398
S31500000CF0C4ED0B7A05B030BDE378012BEDD1DDED07
S31500000D00001A9DED021AD4ED310A94ED060A284622
S31500000D10694600F0E7F9DDED007A019BE0E700BFE8
S31500000D20000000002DE9F84F40F20111404C414B04
S31500000D302DED048B23620523DFED3F8A0025002776
S31500000D409FED3E8AB0EE009A3D4A618062623D495F
S31500000D503D4A616522653D493D4AA4F84C3004F19F
S31500000D60680A3C4BB0EE680A5046A265E365216608
S31500000D7084ED028A84ED199A04F17C092561656186
S31500000D80277101F0EDF82046F7EE000AB2EE0E0AE2
S31500000D9000F0EAF904F14C0BF0EE492A9FED2E2AF9
S31500000DA0F3EE041A94ED181AD4ED020A484604F13B
S31500000DB0BC089FED2A0A05F007FF04F1DC069FED4B
S31500000DC0281A5946B0EE680ADFED260A404606F0B4
S31500000DD003F9304601F060F8F0EE480AB3EE090A6E
S31500000DE0304601F065F8594604F1F00000F078F954
S31500000DF01D4B50466364A562E560A561E561E56249
S31500000E0025636563A563E5632564A564278067712B
S31500000E1001F0A2F8484605F025FF404605F0ECFF34
S31500000E20BDEC048B3046BDE8F84F01F03DB800BF7D
S31500000E305802002063149D44D7B35D406F12033AF5
S31500000E40920A063FD578693D00001441A86D433AE1
S31500000E50295C8F3D4C37093E00008C420000CC4196
S31500000E603333733F0000BE434FECA44000230022FF
S31500000E7010B504460F498362C3608361C361C362D0
S31500000E80036343638363C3630364416483640280CF
S31500000E904271683001F060F804F17C0005F0E2FE72
S31500000EA004F1BC0005F0A8FF04F1DC00BDE8104029
S31500000EB000F0FABF4FECA44001230370704700BF57
S31500000EC00B7843704A688B68C2614363704700BF02
S31500000ED000B5D0F830C0D0F82CE0C2688369C1F8FC
S31500000EE000E0C1F804C08A60CB605DF804FB00BF77
S31500000EF070B504460D460B8800F14C0C43808B7888
S31500000F0001F11C0E03718B68D1ED050A91ED040AFF
S31500000F108360BEE80F00ACE80F009EE807008CE88F
S31500000F200700204600F020F995ED010A2046FFF75C
S31500000F3025FE95ED030A2046FFF72AFE04F1BC06BE
S31500000F40D4ED020A95ED060A04F1DC0004F14C0525
S31500000F5000F0AEFF2946304606F00CF894ED190A6B
S31500000F60DFED077A20EE270A304684ED1E0A06F0EA
S31500000F7091F8294604F1F000BDE8704000F0F2B89F
S31500000F80D7B3DD3FDFED037A20EE270A80ED050AB1
S31500000F90704700BF5077D63D38B52DED028B83786C
S31500000FA00446012B90ED070A0CD0DC3000F09AFFC6
S31500000FB023789FED368A012B84ED060A30D0BDECEE
S31500000FC0028B38BDB0F84C30D0ED176A07EE903A78
S31500000FD0F8EE677A90ED0C7A67EEA67A00F17C055A
S31500000FE0F0EE400A284627EE870A05F041FE28461D
S31500000FF005F07CFE284684ED0A0A84ED060A05F013
S3150000100079FEB4F84C3094ED177A07EE903AF8EE84
S31500001010677A67EE877A237880EE278A012BCED10E
S315000010202046FFF7D1FDF0EE480A84ED030A04F1ED
S315000010307C0005F0A7FE6379B0EE408A033B032BE4
S3150000104017D99FED120A124BE278D3F8C011D3F8E4
S31500001050C431012A84ED0C0A6165A36511D0237998
S31500001060012BACD1BDEC028B2046BDE83840FFF722
S315000010701FBE94ED060A2046FFF79CFD30EE080AD7
S31500001080E1E72046FFF7CEFDE9E700BF00000000DC
S31500001090B404002080ED030A80ED060A80ED070AFD
S315000010A080ED380A80ED370A704700BF41707047FF
S315000010B070B504460E4600F17C0590ED180A2846E8
S315000010C005F050FE96ED000A2846D4ED020A05F01A
S315000010D015FE94ED190A2846BDE8704005F046BE97
S315000010E001607047036893ED047AC0EE877AF4EEE8
S315000010F0C07AF1EE10FA05DDB4EEE11AF1EE10FA5F
S3150000110071FE811AC1ED001A002070470368B6EE21
S31500001110006AD3ED027AD3ED046A93ED037A66EEA4
S31500001120866A37EE677AC6EE877AF5EEC07AF1EE12
S3150000113010FA91ED016A05DCDFED097A0020C1EDB8
S31500001140007A704727EEA77A26EE066A37EE067A09
S31500001150F1EEC76A77EEE67A0020C1ED007A7047B5
S315000011600000000001607047DFED137A20EE270AC9
S31500001170B0F84C30D0ED186A70EEA00A07EE903A3F
S3150000118020EE007A90ED026A27EE267AF8EE677A6C
S31500001190D0ED175A60EE800A67EEA57A60EEA60AD1
S315000011A027EE067A80EEA76AC7EE276A80ED1B6AED
S315000011B0C0ED1C6A704700BFDB0FC94010B50C4676
S315000011C0084600F067FAD4F8300100F0A7FFB6EE43
S315000011D0001AD4F83001F0EE410AB0EE410A00F0F0
S315000011E06DFF23780BB1002010BDD4F8340104F153
S315000011F05C0101F0E1FC94F85C30012BF3D1D4F8EA
S31500001200300100F08FFF204600F0E6FBEBE700BF61
S3150000121010B5D1F830010C4600F082FFB6EE001A88
S31500001220D4F83001F0EE410AB0EE410A00F046FF74
S31500001230204600F02FFA002010BD00BF00207047A6
S3150000124008B5084600F05EFA002008BD08B5D1F8DA
S31500001250300100F065FF002008BD00BF10B501F0A9
S315000012609DFBFFF75FFD00F07FFE002200230C4C84
S315000012700C480D4984F84420C4E94D010B4904F19A
S315000012809800C4F83011236100F08CFD04F1BC0015
S3150000129005F09EFA2046BDE8104000F033BA00BFC4
S315000012A04C030020B40400205802002088040020CB
S315000012B030B52DED028B054689B098300C4600F00E
S315000012C0B3FD012855D023789FED2C8A2B70D4EDE1
S315000012D0017A67EE887A05F1A00C04F1240EBEE8C7
S315000012E00F00C5ED0E7AACE80F009EE807008CE80B
S315000012F00700234895ED2E0A00F056FB2846D4ED4C
S31500001300030A94ED020A00F077FBDFED1E7A94EDF6
S31500001310055A94ED067A85EE276AC7EE276AD4ED5C
S31500001320074ABCEEC66A236A84EEA77AFCEEE66A32
S31500001330069316EE103AD4ED045ABCEEC77AADF811
S31500001340043016EE903ACDED037AADF8063065EE30
S31500001350887A17EE103A05F1A00201A905F1BC0042
S315000013608DED055ACDED047A0792ADF8083005F0FB
S315000013706BFA09B0BDEC028B30BD00BF5077D63D8D
S315000013804C030020ECCB953801460122983000F042
S315000013900FBD00BF01460022983000F009BD00BF16
S315000013A001460322983000F003BD00BFD0F8380193
S315000013B0FFF7E8BD983000F037BD00BF38B50446EA
S315000013C098300D4600F030FD012802D0012D08BFEF
S315000013D0E57138BD10B5044684B0983000F024FDA0
S315000013E0012801D004B010BDD4F838311B78012B88
S315000013F0F8D1204600F0B2FA6389012B22D0022BE5
S3150000140008D01BB994F85C30012B36D0204600F08A
S31500001410BFFAE7E7A26F236F94F801C001A9D4F8D9
S3150000142038018DF804C002920393FFF749FDD4F802
S315000014303801FFF7B1FDD4F8380104F18801FFF750
S3150000144047FDE3E7236FA26F94F801C001A9D4F822
S31500001450380103938DF804C00292FFF731FDD4F8EA
S315000014603801FFF799FDD4F8380104F18801FFF738
S315000014702FFDA378032BC9D102236381C6E700BFE2
S3150000148070B504468CB000F10C0390ED1A1AD0ED3D
S31500001490190A90ED180A00F12802039300F12403BB
S315000014A0CDE9013200F1200200F1140500F11C061D
S315000014B0009233462946D0F8300104F1180200F0B4
S315000014C085FD32462946D4F8340101F05DFD94F8D5
S315000014D04430012B20D06269A369E069E168D4F841
S315000014E08C5005920693D4F88820D4F89030079053
S315000014F00891D4F8340105A909920B930A9501F0D5
S3150000150043FB04F1980000F08FFC012808D0204628
S3150000151000F076FA0CB070BD204600F0D1FBDAE799
S3150000152004F15C052946D4F8340101F045FB94F832
S315000015305C30B3B12378012B35D0D4F8340101F0F7
S31500001540E9FBD4F83401294601F036FB94ED1A1A6A
S31500001550D4ED190A94ED180AD4F8300100F0AEFD66
S31500001560D5E7B6EE001AD4F83001F0EE410AB0EE37
S31500001570410A00F0A3FDD4F8340101F0D9FC294654
S31500001580D4F8340101F018FB2378002BBFD194F86E
S315000015905C30012BBBD1D4F8300100F0C3FD2046EE
S315000015A000F01AFAB3E7E3696169A269C4F8C430C6
S315000015B004F1BC00C4F8BC10C4F8C02005F05AF908
S315000015C094F82B31013B042B07D8DFE803F053587E
S315000015D04E0F0300204600F0FFF994F82A31062B3F
S315000015E095D1D4F8300100F099FDA6E794ED410AB3
S315000015F0D4F8340101F054FD94ED3D0AD4F83401D9
S3150000160001F046FD94ED3E0AD4F83801FFF742FD9D
S3150000161094ED420AD4F8340101F046FD0221D4F8D3
S31500001620380161816170FFF741FDD4F83811D4F8B3
S315000016303431D1ED067A93EDA87AF0EEE77AF4EE3E
S31500001640C77AF1EE10FA4FF00606CCBF0522032248
S31500001650DFF834C0A27020469A704A71C3F8E4C11C
S3150000166083F8EC6100F0B8F9B7E7D4F8300100F080
S3150000167057FDB2E7D4F8300100F04EFDADE7D4F8DF
S31500001680300100F04FFDA8E70000F042012100F014
S3150000169073B900BF0023002210B50446C36043613E
S315000016A08361C3610364A0F801208260483000F0C2
S315000016B0FBFB23780BB984F85C3000234FF07C5297
S315000016C004F1BC00E36622666266A266236763676E
S315000016D0A367E367C4F88030C4F88430C4F8883060
S315000016E0C4F88C30C4F89030C4F8943005F098F8FB
S315000016F0D4F8340101F0F6F8D4F83801BDE810400A
S31500001700FFF7B4BB2DE9F04705236B4AC0B0DFED08
S315000017106B7A0026C0F8A8204FF0804A4FF4AF52EB
S315000017204FF48075A0F8A0306549DFF81CE2DFF8B9
S315000017301C92DFF81CC2634BDFF81882624F044626
S31500001740C0ED2B7AC0F8B080C0F8B4E0C0F830C065
S315000017504763C580C0F8A410C0F8B8A0C0F82C90A4
S315000017600670867082878363483000F095FB0023FD
S31500001770319335933693554B4FF07E552F93544BFB
S31500001780544A3093544B554933934FF40073ADF894
S31500001790A430534B0DF1E40C3793524B04F1A00ED9
S315000017A02B912D922E923893BEE80F00ACE80F00D5
S315000017B09EE807004C4FDFF8A0818CE80700D4F8BC
S315000017C0340128A9CDF8A8802C952896349532970F
S315000017D001F022FA454B464AD4F8340102A9049393
S315000017E00693029203950595079501F0E3FB9FED9D
S315000017F0410AD4F83401404A404901F0D7FB40F28F
S315000018000113ADF868303E4B0DF1840C1B933D4B34
S3150000181004F1A00E1D933C4B8DF86A601E933B4B62
S315000018201F952093BEE80F00ACE80F009EE8070066
S315000018308CE80700D4F838011AA91C97FFF758FB63
S31500001840334B01A933480193FFF732FC324A334B3D
S315000018500F92334A15931092324A334B1192334A00
S3150000186016931292324A334B1492334AD4F830010B
S315000018701392324A0FA9C4F82C9018921993CDF8F6
S315000018805CA000F07BFB43F2B0622D4B2D490B931D
S31500001890089104F1A00308A904F1BC00ADF82420C6
S315000018A00E93CDF828800C9704F0CEFF2046FFF764
S315000018B0F1FE40B0BDE8F087D578693D295C8F3DE3
S315000018C0000014416B2BAA440000C8420000A0404F
S315000018D0CDCCCC3D6F1283396F12833A000016438C
S315000018E0054003440580ED436F12033A0000F041C2
S315000018F0000061440000BE43508D0000648D00006E
S3150000190000803B4600401C46000070410000C84174
S315000019100000CC415802002001230000CDCC4C3EF3
S31500001920212200004122000000004943BD220000A0
S315000019302921000000007043A921000000E8854528
S31500001940D2537B4207004600A86D433A55649E4039
S315000019500000E1434C37093EECCB9538D0ED257AB3
S31500001960F5EEC07AF1EE10FA02DB002383717047C0
S3150000197044BF0123837170470B4601B97047018943
S3150000198002220B4303810146983000F011BA00BFD2
S31500001990437813B94389022B00D070478278033A03
S315000019A0032A98BF43707047DFED096AB7EE0C7AD9
S315000019B020EE260ADFED077A20EE070AB4EE670A64
S315000019C0F1EE10FA37FE800A80ED0B0A704700BF71
S315000019D0F304B53F9A99A941C379012B00D070470A
S315000019E010B50446D0F8340101F0CAF8D4F838012D
S315000019F0BDE81040FFF760BA483000F059BA00BFA2
S31500001A0038B583780446062B0DD8DFE803F0041AB0
S31500001A1030A7CAD80D000123D0F834218370937003
S31500001A20D0F83821537138BDD0F8343193F891226B
S31500001A30002AF8D0032282709A70D0F838315A7191
S31500001A4038BD4389012BEED10378002B40F0168177
S31500001A500221D0F8342181709170D0F8380141719B
S31500001A60A2F8923282F89432A2F8A83238BDD0F8A1
S31500001A703401DFED8E6A90ED687AD0EDAC7A77EEC0
S31500001A80677AB0EEE76AB4EEE66AF1EE10FA0ADDBE
S31500001A90F5EEC07ADFED866AF1EE10FACCBF77EE8E
S31500001AA0E67A77EEA67AB0F8A832DFED826A0133DD
S31500001AB09BB206EE103AB8EEC66AB4EEE66AF1EEEE
S31500001AC010FAC0EDAB7A80EDAC7AA0F8A832AADBAA
S31500001AD090ED7C0AF0EE047AB0EEC07AB4EEE77AC6
S31500001AE0F1EE10FA90F89352C0F2A080002D40F06B
S31500001AF09D8001F097FAD4F83401DFED6F7A90ED0E
S31500001B00AB7AB4EEE77A0123F1EE10FA80F893325D
S31500001B1000F2C98090F89422002A40F0C48090F820
S31500001B2092220132D2B2092A80F892227FF67BAF46
S31500001B3080F89432002203230625D4F83811DFF802
S31500001B407CC14A67C0F8E4C180F8EC51C0F8842132
S31500001B50C0F89821A37083704B7138BDD0E94D2130
S31500001B60D1ED067A92EDA87AF0EEE77AF4EEC77A2E
S31500001B70F1EE10FA838803F101039BB283807FF7AD
S31500001B8052AF642B7FF64FAF04230020D2F8745176
S31500001B9082F89102C2F86851A080A37093704B71CD
S31500001BA038BDD0F8343193F89122012A7FF63BAF45
S31500001BB0052282709A70D0F838315A7138BDD0E952
S31500001BC04D25D5ED067A92EDA97AF0EEE77AF4EE98
S31500001BD0C77AF1EE10FA838803F101039BB2838082
S31500001BE07FF521AF642B7FF61EAFD2ED5A7A4FF008
S31500001BF0000EC2ED5D7A506B116B02F5FA7302F5B9
S31500001C00057C82F891E21864186643F8041B634564
S31500001C10D961F8D1062300210020C2F88412C2F847
S31500001C208812A37093706B71A08038BDDFED227AA5
S31500001C3090EDAB7AB4EEE77AF1EE10FA12D890F89E
S31500001C4094327BB990F892320133DBB2092B80F8DB
S31500001C5092327FF6E8AE01239D4280F894323FF43B
S31500001C6069AF38BD0023012D80F892327FF4DBAED8
S31500001C7090F89432012B3FF45DAF38BD90F82A31CD
S31500001C80062B7FF4D0AE02210022D0F834318170C9
S31500001C909970D0F838014171A3F8922283F8942202
S31500001CA0A3F8A82238BD80F89252E1E7DB0F49403D
S31500001CB0DB0FC9400040834535FA0E3C0000F04278
S31500001CC090ED067AD0ED0B6AB0EEC77AF4EEC76AED
S31500001CD0F1EE10FA90ED056AD0ED077A70B555D49D
S31500001CE0B0EEC66AF4EEC66AF1EE10FA4CBF0121F8
S31500001CF00021F0EEE77A90ED037AF4EEE76AD0ED94
S31500001D000C5AF1EE10FA90ED0D6AB4EEE57AD0EDCC
S31500001D101E7A4CBF4FF480710902F1EE10FAB4EE50
S31500001D20C67AD0ED0E6AF0EEE77ACCBF0126002621
S31500001D30F1EE10FAF4EEE76A4CBF01230023F1EE50
S31500001D4010FAD0F834214FEAC31392F8CCC243EA12
S31500001D504603ACF1010C4CBF01260026BCFA8CFCF4
S31500001D60B0F83CE0B2F8A8424FEA5C1C43EA8603AE
S31500001D7043EA4C23744592F8945241EA030103D393
S31500001D8092F8933225B133B139B970BD0121B0E76C
S31500001D9041F480510BB941F40061BDE87040FFF792
S31500001DA0EBBD00BF0023038043800371704700BF73
S31500001DB0032A38B504468CBF01230023007888BF68
S31500001DC002220228638014D8144D02EB420305EB6D
S31500001DD0030C1CF800C003441148227150F823304C
S31500001DE084F801C02046984788B9637860882370D4
S31500001DF038BD022200209446134363802070094BAD
S31500001E002046227184F801C098470028EDD06088EA
S31500001E10637840F004002370608038BDA88D000010
S31500001E20788D00004D1200000078704730EE600A91
S31500001E3020EE010A30EE200A704700BFF0EE407A2D
S31500001E40F4EEE07AF1EE10FAB0EE600A08DCF4EE99
S31500001E50C17AF1EE10FA54BFB0EE670AB0EE410A4D
S31500001E60704700BFB4EEE00AF1EE10FA48BFB0EEDC
S31500001E70600A7047F0EEC07AF4EEE07AF1EE10FAFE
S31500001E8009DD10EE103AF0EEE00A002BB8BFF1EED5
S31500001E90600AB0EE600A7047002303604360836007
S31500001EA0C3600361704700BF00230360436070474F
S31500001EB09FED0B7A20EE070AF0EE007A60EE200A1C
S31500001EC030EEA77A77EEE07A80EE876AC7EE876A09
S31500001ED0C0ED020A80ED046AC0ED036A704700BFD8
S31500001EE0DB0FC94090ED016AD0ED006AD0ED037AB0
S31500001EF090ED047A80ED010A30EE060A67EEA67AC6
S31500001F0020EE070A30EE270A80ED000A704700BF70
S31500001F10D0ED007A90ED027A10B590ED030A2DED22
S31500001F20028B27EE877AD0ED048AD0ED016AF0EEB7
S31500001F30680A37EE000A044627EEA68AFFF79AFFDC
S31500001F40F0EE680A84ED030A38EE000ABDEC028B57
S31500001F50BDE81040FFF78EBF0023C360704700BF87
S31500001F6080ED040A704700BF0022034B9A61DA61D4
S31500001F701A625A62704700BF88040020F0B4D1E9A3
S31500001F800342D1E901654B690F68C0E90254C0E913
S31500001F900076F0BCC0E9042391ED066A91ED087A5B
S31500001FA0D1ED077ADFED086A27EE067A67EEA67AA4
S31500001FB086EE876A4A6A8B6AC0ED077A80ED066A02
S31500001FC002624362704700BF6740533AF0B52DED99
S31500001FD0048B044685B068461F462368F0EE408AA7
S31500001FE0B0EE608AB0EE419A0D4616469847BDF8A7
S31500001FF0003094ED075A06EE103ABDF80230F4EEC2
S31500002000C88A07EE903ABDF80430D4ED065A07EEBA
S31500002010103ABDF80630B8EEC66A06EE903AF8EE0B
S31500002020E66AF8EEE77AB8EEC77A66EE856AF1EE0A
S3150000203010FA119B26EE656A67EEE57A27EE657A59
S31500002040C3ED006A14D8F4EEC98AF1EE10FA32D85C
S31500002050C6ED007A87ED007AD6ED007A37EE277A5C
S31500002060B1EE477A85ED007A05B0BDEC048BF0BD84
S31500002070B4EEC98AF1EE10FA85ED006A0DD9C6ED07
S31500002080007A95ED007A77EE877AF1EE677AC7EDFA
S31500002090007A05B0BDEC048BF0BD87ED007AD5ED76
S315000020A0007A37EE277AB1EE477A86ED007A05B0E8
S315000020B0BDEC048BF0BD85ED006AE0E7F7EE007A33
S315000020C0D0ED086A37EEC00A77EEE00A90ED097A9D
S315000020D0B6EE006A77EEC17A27EE067A67EEA67A42
S315000020E060EEA60A20EE260A77EE877A70EE870A59
S315000020F030EE070AFCEEE77AFCEEE00ABCEEC00A18
S3150000210017EE902A10EE901A436810EE100A92B25B
S3150000211089B280B2184700BF83681847C36818475A
S31500002120036918474369184738B51A4D1A4C2A46A9
S3150000213040F60431204601F049FC2A4640F60531B6
S31500002140204601F043FC2A4640F60631204601F0BF
S315000021503DFC2A4640F60731204601F037FC2A4668
S3150000216040F60831204601F031FC2A4640F6093196
S31500002170204601F02BFC0221084802F051F802210A
S31500002180074802F04DF8BDE838400221054802F044
S3150000219047B800BF00000103C40B0020100C00204C
S315000021A0300C0020500C002010B502211848194CA4
S315000021B002F042F80221184802F03EF802211748C0
S315000021C002F03AF8042240F60431204601F0FEFB04
S315000021D0042240F60531204601F0F8FB042240F6C1
S315000021E00631204601F0F2FB042240F60731204674
S315000021F001F0ECFB042240F60831204601F0E6FB34
S315000022002046BDE81040042240F6093101F0DEBB4D
S31500002210100C0020C40B0020300C0020500C0020B5
S3150000222010B50B46044686B069460448CDE900431E
S31500002230029201F025FC06B010BD00BFF40B002091
S31500002240022010B41A491B4A0C6B1B4B60F3114455
S315000022500C630C6B44F040740C630C6B44F4002468
S315000022600C630C6B44F000640C63116B60F311415A
S315000022701163116B41F040711163116B41F4002140
S315000022801163116B41F0006111631A6B60F3114227
S315000022901A631A6B42F040721A631A6B42F40022F8
S315000022A01A631A6B42F000621A635DF8044B7047BA
S315000022B00094164000951640009616400D490E4AA9
S315000022C0086B0E4B20F440300863086B20F040701A
S315000022D00863116B21F440311163116B21F04071D9
S315000022E011631A6B22F440321A631A6B22F04072A1
S315000022F01A637047009416400095164000961640E3
S3150000230030B5214C85B0054602AA0621204602F0CA
S315000023106FF90DF102020421204602F069F90DF170
S3150000232006020221204602F063F901AA0021204696
S3150000233002F05EF90DF10A020721204602F058F973
S315000023400DF10E020321204602F052F903AA0121E3
S31500002350204602F04DF900231A46BDF80240BDF8AA
S315000023600610BDF8040064F30F0361F31F43BDF8C4
S3150000237008102B6060F30F02BDF80A3061F31F42AC
S315000023802B816A6005B030BDCC0B002008B540F645
S315000023900E31054A054801F019FBBDE80840002149
S315000023A0034801F03DBF00BF00000103C40B00203D
S315000023B0A80C002070B5194E84B001A9304601F072
S315000023C033FC4FF0630E039B3046A3FB0E3E4FEAF1
S315000023D0135C4CEA0E3C1249C3F313066644A1FB98
S315000023E0061C4FEADC0C0CEB8C0C0CEB8C0CA6EBF5
S315000023F00C010C4C5B1A04FB03F10B4D6EF1000E45
S3150000240005FB0E11A3FB05359B082944002243EA70
S31500002410817101F06FFC04B070BD00BFA80C0020F4
S315000024201F85EB51F5285C8F295C8FC291ED026AFE
S3150000243090ED1E7AD1ED036A91ED044AD0ED1F4A64
S3150000244027EE066AD1ED017A64EEA66A36EE046AD4
S3150000245027EE877A60EE666A67EEA47A20EE060AB1
S3150000246090ED075AD0ED085A37EE267A77EE807A45
S3150000247035EE077A75EEA77A80ED077AC0ED087A11
S31500002480704700BF90ED0F7AD0ED1E7A10B577EE4B
S31500002490C77A044600F5BC70C4ED5E7AFFF738FDD6
S315000024A0D4ED1F7A94ED107A77EEC77A84ED070A99
S315000024B0C4ED637A04F5C670FFF72AFD84ED080AB9
S315000024C010BD00BF00234FF07E5203608260436060
S315000024D0704700BF00234FF07E5203608260436066
S315000024E0704700BF10B52DED028B80ED000A044643
S315000024F0B0EE408A05F054F9F0EE407AB0EE480AA4
S31500002500C4ED027A05F098F9BDEC028B84ED010A60
S3150000251010BD00BF9FED146AD0ED025AD0ED016ADE
S3150000252091ED017AD1ED024A66EE866ADFED0F7A09
S3150000253065EE865A91ED005A37EE647A25EEA76A63
S3150000254067EEE67A26EE056A67EE266A67EE857A14
S3150000255027EE257A76EE266A77EE877AC2ED006A4E
S31500002560C2ED017A704700BFF304353FD7B3DD3FB4
S31500002570D0ED025ADFED1C6AD0ED013A25EEA67ABF
S3150000258063EEA66AF1EE477AD1ED004A91ED014A73
S3150000259035EEA65A33EEC76A76EEE55A77EEE37A5B
S315000025A064EE266A24EE877A26EE246A25EE045A1D
S315000025B065EE845A67EEA47A9FED0C3A37EE667A9A
S315000025C0DFED0B2A76EE056A77EEA57A27EE227AFC
S315000025D066EE836A67EE837A82ED007AC2ED016A5F
S315000025E0C2ED027A704700BF3ACD133FF304353F80
S315000025F0F304B53F10B50446943000F043FED4ED25
S31500002600077AB4EEE70AF1EE10FA84ED200A06D551
S3150000261084ED070A9FED130A84ED080A10BDB1EE9A
S31500002620407AB4EEE77AF1EE10FA02DD84ED077A2D
S31500002630F0E720EE000A67EEA77A30EE670AB5EEFD
S31500002640400AF1EE10FA08D4F1EEC00A94ED080A39
S31500002650FFF710FC84ED080A10BD04F0ADFFF0EEA4
S31500002660400AF3E7000000008378D0ED110A033B2F
S31500002670032B94BF90ED0B0A9FED010AFFF7FABBFF
S31500002680000000008378033B032B94BF90ED0A0AF9
S315000026909FED010A704700BF0000000038B52DED20
S315000026A0028B837804469A1E012A90ED0C0AD0ED1F
S315000026B00D0A40F2AB8003F0FD02042A1AD0052B66
S315000026C080ED0F0AC0ED100A9FED718A30D084EDBF
S315000026D0688AB0EE480A05F063F8F0EE407AB0EE8C
S315000026E0480AC4ED6A7A05F0A7F8BDEC028B84EDC2
S315000026F0690A38BD9FED668A00F5EA75284603F03B
S3150000270061FA94ED070A284603F01EFB94F891320D
S31500002710D4F87C12D4F88022013384F89132E16334
S315000027202264A378DA1E012A02D9062B40F0A9807A
S3150000273004F5907594ED0F1AD4ED101AD4ED080A2D
S3150000274094ED090A284603F0C1F8A378043B022B4E
S3150000275009D9DFED507AB4EEE78AF1EE10FA45DBDF
S3150000276038EE678AB3E7D4ED100A284694ED1D0AC1
S3150000277003F038F9D4ED0F0A284684ED210A94EDCA
S315000027801D0A03F03BF9D4ED217A84ED220A87EE87
S31500002790800A04F033FFB4EE400AF1EE10FA68BF87
S315000027A09FED3B0A04F1740184ED230A04F5B07031
S315000027B003F070F9DFED387A94ED1D8AB4EEE78AFE
S315000027C0F1EE10FA1ADDC4ED1D7AB0EE678A94EDCB
S315000027D0037AD4ED687A28EE078A38EE278ADFED89
S315000027E02D7AB4EEE78AF1EE10FAB9DAB5EEC08AC0
S315000027F0F1EE10FA48BF38EE278A68E7DFED277A50
S31500002800B4EEE78AF1EE10FAE1D5DCE700F5EA75F9
S31500002810284603F0D7F994ED070A284603F094FA00
S31500002820D4F87C22D4F880322846E263236403F08D
S31500002830AFF994EDA30A04F1740184ED230A04F5BB
S31500002840B670D4ED688A03F025F9DFED137A94EDBE
S315000028501D8AB4EEE78AF1EE10FA16DCDFED0F7A88
S31500002860B4EE678AF1EE10FA48BFB0EE678AD4ED8F
S31500002870037A28EE278AD4F8743138EE288A6367FB
S315000028804FE7052B7FF465AF52E7B0EE678AEEE7B8
S3150000289000000000DB0FC940B4FBE945B4FBE9C505
S315000028A090ED000A704700BFD0ED036AB6EE007ADD
S315000028B060EEA60A60EE870ADFED097A30EE800A3E
S315000028C0B4EEE70AF1EE10FA02DB30EE670A704763
S315000028D0B5EEC00AF1EE10FA48BF30EE270A70478F
S315000028E0DB0FC9400023002210B50446C0F878313A
S315000028F0C0F88C31C0F88431C0F898310361436167
S315000029008361C361436203628362C3620363436399
S31500002910C36303648365C365036643668366C366F0
S31500002920036743678367C367C0F88430C0F888309D
S31500002930C0F88C3002700821DFED141A9FED141ACE
S31500002940DFED140A9FED140A00F5EA7003F0D2F8E1
S3150000295004F5D070FFF7BEFD04F5D670FFF7BAFD9B
S3150000296004F5907003F08CF804F5B07003F0BEF82F
S3150000297004F5B67003F0BAF804F52D7003F036FAD4
S3150000298004F53470BDE8104003F0FEBAECCB953880
S3150000299000004843295C8F3DD578693D2DE9F04F0D
S315000029A02DED028B614C624B8DB0C4F88831C4F8B2
S315000029B09C31604B9FED608AC4F8C8315F4B4FF481
S315000029C00071002500269FED5E0ADFED5E0A4FF0DE
S315000029D00508C4F8BC314FF080435B4AF0EE481A54
S315000029E062645A4A9FED5A1AC4F8061004F5EA7052
S315000029F00821C4F8CC21C4F8D03104F1940784ED41
S31500002A00038A84ED700AC4ED710AA564E564256540
S31500002A106565C4F880506671C4F80160A4F8B88191
S31500002A2003F068F8F7EE000A9FED4A0A204600F028
S31500002A3047FC04F1AC09384600F03EFB04F5907AF9
S31500002A403146484604F5DC7B03F018FD59465046EE
S31500002A5002F0E0FF5946B0EE481AF7EE000A9FED85
S31500002A603E0A504602F0E2FF04F5B07A3B4B504670
S31500002A70C4F84031C4F85C3103F020F8B0EE481ACF
S31500002A805046F7EE000AB3EE0E0A03F01BF8B0EE5E
S31500002A90481A9FED338AF7EE000AB3EE0E0A04F5E4
S31500002AA0B67003F00FF804F5D070FFF70BFD04F5D0
S31500002AB0D670FFF707FD38469FED2A0A00F0AEFBF9
S31500002AC0B0EE480A384600F0C5FBB0EE480A384674
S31500002AD000F0D4FB9FED240A484603F071FE234B19
S31500002AE0234A02930393234B01A904F52D70019207
S31500002AF0049303F045F9204B204A07934FF07E5389
S31500002B0005A904F534700B920893CDF816808DF85C
S31500002B10146009950A9503F0EFF92046FFF7E2FEE7
S31500002B200DB0BDEC028BBDE8F08F00BFB4040020F1
S31500002B3000003E434C37093EECCB9538000014416B
S31500002B40D578693D295C8F3DD7B35D40A86D433A82
S31500002B50000048430000164300006144E146264158
S31500002B604160E53C3FA1693F4260E53C6F12833915
S31500002B700000A040CDCCCC3D6F12833A6F12033AD1
S31500002B8001230370704700BF00B50A684B68D1F88F
S31500002B900CC0D1F808E0C0F858C0C265D1F814C01E
S31500002BA00A6903668B69C0F864E0C0F82CC08262CB
S31500002BB0C0F890305DF804FB437900B50B70B0F8AF
S31500002BC0B831D0ED1D6A07EE903AF8EEE77A86EE58
S31500002BD0A77AD0ED227AD0F868C0C26E036FD0F81B
S31500002BE0A8E0C1F804C0C1F810E0D0F878C0D0F869
S31500002BF080E08A60CB60D0F88420D0F88C30C1EDBC
S31500002C00097A81ED077AC1F814E0C1F818C00A62A2
S31500002C108B625DF804FB00BF30B50B788DB0437056
S31500002C20B1F801300546A0F80330D1ED0F6A91EDF9
S31500002C30107ADFED347A8B688A8800F5DC7C01F146
S31500002C40440E0C4691ED135AD1ED145AC280C3605E
S31500002C50BEE80F00ACE80F009EE807008CE807000E
S31500002C609FED296A66EEA76A27EE277AD5ED747A74
S31500002C7067EE867A85ED775AC5ED785A2846C5ED12
S31500002C80A86A85EDA97AC5ED117AD4ED040A94ED0A
S31500002C90030A00F015FB6169206AA269E3690490E2
S31500002CA0029105F52D7001A90392019303F08EF8A8
S31500002CB094ED097ADFED157ADFED156A27EE277AAE
S31500002CC0C7EE267AFCEEE77AA36AE1780B93A36B4C
S31500002CD0226B0A9317EE903A8DF81410616BD4F8B4
S31500002CE02CC00892B4F84420099105F5347005A962
S31500002CF0CDF81CC0ADF81620ADF8183003F064F915
S31500002D000DB030BD5077D63DD7B3DD3F00008043D0
S31500002D10DB0FC9400378012B00D07047F0B504469D
S31500002D2000F1940785B090ED160A384600F068FA6F
S31500002D302046FFF799FC204684ED1F0AFFF7A2FC08
S31500002D4004F130052A4684ED1E0A04F15C0104F5FF
S31500002D50D070FFF7DFFB94ED0C7AD4ED0D7A27EEF9
S31500002D60077A67EEA77A77EE277A17EE900A04F0CD
S31500002D7029FB41EC100B04F0E9FB51EC100B04F0BD
S31500002D8079FB03462046A363FFF788FCE378012B13
S31500002D905AD02379012B5DD0644D2B78012B00F09E
S31500002DA0BD802046FFF76EFB94ED1D0A204604F514
S31500002DB0DC71FFF73BFBA378062B0BD8DFE803F0AB
S31500002DC03F3F04A38F8C7D000023D4F8E821636283
S31500002DD0E26123622046FFF70DFC04F5D676D4EDBA
S31500002DE01D0A204694ED680AFFF75EFD04F1100502
S31500002DF03046FFF777FB2A46304604F11C01FFF701
S31500002E00B7FB6378012B08D02946384604F16802DF
S31500002E1005B0BDE8F04000F069B96379012BF3D144
S31500002E20304601AA04F17801FFF7A2FB94ED160AD9
S31500002E30294601AA04F1AC0003F078FBE4E700237D
S31500002E406362E3612362C5E7294604F52D7002F04B
S31500002E50E5FF9EE7B4F8B82194ED1D1A07EE902A17
S31500002E60F8EEE77A314A04F53475D4ED240A94ED88
S31500002E70680A284681EE271A137003F0B1F9A37881
S31500002E80033B032B0ED8B4F8B831D4ED1D0A07EE78
S31500002E90903AF8EEE77A94ED240A2846C0EEA70A9F
S31500002EA003F0B6F804F2EC63D4ED1F7A93ED007AE2
S31500002EB077EE877AC4ED1F7A73E7D4ED7A7AF6EE69
S31500002EC0006A94ED077A67EEA67A77EE877A84ED44
S31500002ED0097AC4ED077A7DE7E36963627AE7D4EDA0
S31500002EE0077A94F89132C4ED097A012B3FF672AF56
S31500002EF094ED7A7AF6EE006A27EE267A77EE277A4E
S31500002F00C4ED077A66E794ED077AD4ED7A7A77EE20
S31500002F10877A84ED097AC4ED077A5BE704F53470A5
S31500002F2003F032F800232B703BE700BFB00400200B
S31500002F3000210389C28801339BB2934290ED146A43
S31500002F40D0ED156A8164C16403810FD307EE902A20
S31500002F50F8EEE77A0123C6EE275A86EEA77AC0ED89
S31500002F60125A80ED137A02814371704790ED177AF9
S31500002F70D0ED197A37EE067A77EEA67A80ED147AD6
S31500002F80C0ED157A704700BF90ED127AD1ED007A48
S31500002F9077EEC77AC1ED007AD2ED007A90ED137A1A
S31500002FA077EEC77AC2ED007A704700BFAC3003F007
S31500002FB0BBBB00BF38B59FED1A7A2DED028B90EDA5
S31500002FC0748AF0EE087A28EE078A04460D4628EE43
S31500002FD0278A90ED031AD1ED010A91ED000A00F55A
S31500002FE0DC7100F5907002F021FD94ED031AD5ED29
S31500002FF0030A95ED020A04F5B07002F063FD94ED44
S31500003000031AD5ED050A95ED040A04F5B67002F02B
S3150000301059FD84ED508A84ED578ABDEC028B38BD8C
S31500003020D7B3DD3F10B52DED028BB0EE408A00F52B
S31500003030D0742046FFF734FCB5EEC08AF1EE10FAE4
S31500003040C4BFDFED117A30EE270ADFED107AB4EE59
S31500003050E70AF1EE10FA08DDBDEC028B2046BDE86A
S31500003060104030EE670AFFF73DBAB5EEC00ABDEC78
S31500003070028BF1EE10FA2046BDE8104048BF30EE54
S31500003080270AFFF72FBA00BFDB0F4940DB0FC94005
S3150000309080ED1D0A80ED5A0A80ED5D0A704700BF7B
S315000030A000F5D070FFF71EBAB1EE400A80ED550A62
S315000030B080ED560A704700BF90B100234FF07E5C4A
S315000030C04FF07C5100B5074ADFF81CE0C0F80CC091
S315000030D0C0F804E003614161836002605DF804FBAF
S315000030E0704700BF0000BE4392762C3B00286ED08E
S315000030F0002A6CD000296AD0D1ED006A91ED017AE0
S31500003100F4EEC76AF1EE10FAD1ED027ACCBFF0EE1A
S31500003110665AF0EE475AF4EEE57ACCBFB0EE476A4F
S31500003120B0EE666AF1EE10FA52DCF4EEC67AF1EE13
S3150000313010FA54BF75EE865A77EEA55AB6EE006AB7
S3150000314025EE866A90ED015A76EEC66AD0ED055AEE
S3150000315066EE856A76EEA56AC2ED006A37EE467AB5
S31500003160D0ED015A77EEC67A27EE257A90ED056AFC
S3150000317037EE067A82ED017AD0ED015A90ED056AB6
S3150000318067EEA57A77EE867AC2ED027A90ED036A4B
S31500003190F4EEC66AF1EE10FAD0ED045A27DD82EDA0
S315000031A0006AB4EEC67AF1EE10FA18DD82ED016A15
S315000031B0F4EEC67AF1EE10FA02DD82ED026A70478D
S315000031C0F4EEE57AF1EE10FA48BFC2ED025A704706
S315000031D037EE866AF6EE005A26EE256AB2E7B4EEB8
S315000031E0E57AF1EE10FA48BFC2ED015AE0E7F4EED7
S315000031F0E56AF1EE10FA48BFC2ED005AD1E700BF0A
S31500003200B5EEC00AF1EE10FA07DDB7EE007AC7EEAA
S31500003210007A80ED000AC0ED017A704758B1B5EE2C
S31500003220C00AF1EE10FA06DDF7EE007AB4EEE70A10
S31500003230F1EE10FA00D9704790ED047AF6EE007AB6
S3150000324080ED030A30EE070A20EE270A80ED050A14
S31500003250704700BF80B1B5EEC00AF1EE10FA0BDD83
S3150000326090ED037AF6EE007A80ED040A30EE070A56
S3150000327020EE270A80ED050A704700BF80ED020A9E
S31500003280704700BFD0ED037AD0ED045A90ED027A74
S3150000329077EEE57A37EE077ADFED076A9FED076A84
S315000032A090ED000A77EEC77A20EE060A67EEA67A58
S315000032B027EE800A704700BF0AD7933F3FC61C3FE0
S315000032C0DFED147A70EEA00A20EE270A90ED707AF0
S315000032D060EE800AD0ED717AD0ED035A20EE000A36
S315000032E067EE206A90ED6F6A20EE250A67EEA00A67
S315000032F076EEC66A27EE007A70EEC60A67EE807A28
S31500003300C0ED5F6A80ED607AC0ED640AC0ED657A53
S31500003310704700BFDB0FC940F0B583B0FDF718FB5F
S315000033205F4BD3E9000100F071F9042240F60E313B
S315000033305C4800F04BFBFEF737FF5B495B4800F04B
S31500003340BDFB5B495B4800F067FD584800F086FB13
S31500003350564800F08FFB574800F0D8FB554800F060
S31500003360E1FBFFF713F8544B54495B6849685B6807
S31500003370D1F804C007EE903AB8EE676A07EE90CA35
S315000033804F4AF5EE085A5268F8EE676A576826EE15
S31500003390256A07EE907AB8EE677AF6EE007A27EE9F
S315000033A0257A26EE275A66EEA56ABCEEC66A454A17
S315000033B066EEA75A956867EE277AAB6685ED196AB9
S315000033C0BCEEC56AFCEEE77AFCEEE66ABCEEC77AAE
S315000033D016EE106ABCEEE56A3B4BEE6499683B4B11
S315000033E02E659A68C1F868C03248C1ED196A81ED48
S315000033F0136A81ED146A976682ED197AC2ED137A23
S31500003400C2ED147A00F088FB284800F02DFB304905
S31500003410304800F0CDFF2F4800F064FF2D4800F043
S31500003420A9FF2C4800F070FF2B492C4800F0C0FF84
S315000034302A4800F057FF294800F09CFF274800F073
S3150000344063FF2749274801F0E5F82749254801F099
S31500003450D9F90021234801F04BFB0223214D8DF8B9
S3150000346004304FF47A71012001F01AFD284601A9B3
S3150000347001F0AAF89DF80440002CF2D1194801F099
S3150000348097F81A4A1A4B14701C70FCF7E1FE0122D9
S315000034909020114603B0BDE8F04002F0BDB900BF70
S315000034A0AC910000C40B0020F48F0000F40B002048
S315000034B0F8910000A80C0020149000009C900000D9
S315000034C024910000100C0020300C0020500C00202D
S315000034D0D0910000880C002074920000C80C0020D7
S315000034E0C08D0000CC0B0020048F00004E01002090
S315000034F04F01002010B582B0FDF79CF8FDF780F86B
S31500003500154B01A9186800F0F5F8019B13F48033F8
S3150000351001D002B010BD114A1149526892F9142027
S3150000352002F1C00051F8204063F3104441F82040F6
S3150000353051F82030BFF35F8F012153099B0002F041
S315000035401F0203F1604303F5614301FA02F2C3F877
S3150000355080211A6002B010BDAC910000700C0020F2
S315000035600060004008B5837813B9038B012B00D0A7
S3150000357008BDFDF7EFFABDE80840FDF7CBB900BF7F
S31500003580037903B17047FEF715BF00BF08B1FDF719
S31500003590E7BA704708B1FDF7E9BA7047C8B101212B
S315000035A010B50C480C4C436893F914305A0903F0D3
S315000035B01F03203201FA03F344F82230BFF34F8F82
S315000035C0BFF36F8F006800F08BF8BDE81040FDF781
S315000035D0CFBA7047AC91000000E100E008B5FFF7F4
S315000035E09BFEFFF787FFFCE7022800D07047024BDF
S315000035F00248596800F0DAB9B48D0000C40B002007
S3150000360008B5FFF7EBFF002008BD00BF0B6970B4DB
S3150000361003F5800303F50A631B0241608360EFF341
S31500003620108C012282F31088254C0B69E568C3F1E2
S315000036300E0302FA03F325EA0303E360E3688CF35F
S3150000364010888B780D881B0743EA0513002591F82F
S3150000365003C0846843EA4C7323604B68C3608B687D
S3150000366005614361174B036091F91430AB4224DBCB
S31500003670497D03F160440901134EC9B204F5614462
S3150000368084F80013114946F8230003F1C00051F8ED
S31500003690204065F3104441F8204051F82010BFF354
S315000036A05F8F5909890003F01F0301F160419A40B9
S315000036B001F56141C1F880210A60002070BC7047A5
S315000036C00040084054504700340D00200060004080
S315000036D003469A680020136843F008031360704796
S315000036E003469A680020136823F4803323F00F03FF
S315000036F01360704702469268024B1268002013401E
S315000037000B6070470F00010084460020CCE90432AC
S31500003710CCF80C10704700BF4268034692F914209B
S31500003720002A1ADB012010B451090D4C02F01F02C9
S31500003730203100FA02F244F82120BFF34F8FBFF385
S315000037406F8F00205968074A91F914105DF8044BF1
S3150000375042F821000020186070470020186070476A
S3150000376000E100E0340D002030B583B0EFF30383B1
S31500003770104A103B5CB252F824502869B8B103686D
S3150000378001936A69EB68026098472B6913B12B694C
S31500003790019A1A60084A04F1C00352F8231021F472
S315000037A0803142F8231052F8233003B030BD01A80F
S315000037B0E7E700BF340D002000600040002203460A
S315000037C010461A60704700BF0B0A10B41B01064C66
S315000037D053FA81F154F821300020C3F340035DF819
S315000037E0044B1370704700BF00F80140090A4901F5
S315000037F001F1804101F5F8314B68002013807047D4
S31500003800090A490123EA020C01F180411A4001F537
S31500003810F83142EA0C4200208A6070470120CBB2A0
S31500003820984080B202B900040B0A5B0103F18043A1
S3150000383003F5F83398600020704700BF090A490174
S3150000384001F1804101F5F83110B40C6802EA030C6D
S315000038504CEA040C62EA030202EA0C0200205DF85C
S31500003860044B0A60704700BF090A490101F1804113
S3150000387001F5F8314B680020C3F30F4313807047FE
S31500003880012310B44FEA112C4FEA4C1C0CF1804C6A
S315000038900CF5F83CDCF80440C9B28B4099B203EA57
S315000038A014435B1AB3FA83F35B0900205DF8044BFB
S315000038B013707047090A490123EA020C01F180419D
S315000038C01A4001F5F83142EA0C420020CA607047FE
S315000038D001200B0A5B0103F1804303F5F833C9B2FB
S315000038E010B400FA01F1DC68012A4FEA01400DBF6D
S315000038F084438C4304430C430020DC605DF8044B96
S31500003900704700BFF0B5EFF31082012383F31088F0
S31500003910234F3B681BB923490B7340230B733B684A
S3150000392001333B6082F3108803882BB341681E4C39
S3150000393001EBC30E06E01B01083113448E4544F823
S31500003940230019D008688A88C5034FEA1223D2B229
S31500003950F1D502EB031C54F82C601B01083120F44E
S31500003960803526F4803613448E4544F82C6044F89E
S315000039702C5044F82300E5D1EFF31082012383F3A2
S3150000398010883B6813B13B68013B3B603B681BB941
S31500003990802004490B73087382F31088F0BD00BFC2
S315000039A0300D002000FD014000F8014008B5034B32
S315000039B003600846FFF7A6FF002008BD54524F508B
S315000039C008B50846FFF79EFF002008BD30B4EFF3A8
S315000039D01084012383F310881D4B186828B94FF013
S315000039E0400C1C4D287385F80CC01868013018600F
S315000039F084F31088D4034FEA1120C9B219D4000108
S31500003A00154C084444F82020EFF31082012181F37D
S31500003A101088196811B11968013919601B681BB93A
S31500003A2080200C490B73087382F31088002030BC89
S31500003A307047094C01EB001C54F82C50000125F48A
S31500003A40803544F82C5022F4803544F82C50D7E7C2
S31500003A50300D002000FD014000F8014003465A6881
S31500003A601B6900209360704703465A681B69002053
S31500003A705360704703465A681B690020D36070473D
S31500003A80024610B590F814E0043900F10C0C52F817
S31500003A90043F51F8044FBEF1020F5C659C6509D0E6
S31500003AA08469646864682478062C03D06245EED184
S31500003AB0002010BDCC68DC651C66F7E72DE9F041F7
S31500003AC006460D4607460C4601F10C0854F8043F1D
S31500003AD0D3E9000100F0A0F923681B689B6847F84A
S31500003AE0043F2A78022A03D1196C41F42021196473
S31500003AF04445EBD16969044B327500203161B561EB
S31500003B003360BDE8F08100BF3354504703460020C0
S31500003B10D3E902239360704703460020D3E90223CA
S31500003B205360704703460020D3E90223D3607047F1
S31500003B30034630B4D3E90123D2690020D2E9011447
S31500003B4044F00045D46841F0004144F000445D6112
S31500003B509C61D2E9044219615C629A6230BC70478A
S31500003B604FF000410022836810461961596199613E
S31500003B705A629A62704700BF10B4D0E901231278E6
S31500003B80032A0DD99966DA6AD20705D44FF4AA0436
S31500003B90C26859661C64DA6000205DF8044B704701
S31500003BA04C1E9C661AB94908013959659965214622
S31500003BB0E9E700BF03469B681232013903EB820333
S31500003BC000205960704700BF03469A680020D36AF8
S31500003BD0C3F300030B71936C0B607047844600209F
S31500003BE0CCE90632CCF81410704700BF70B5836973
S31500003BF084B004468C46164601AD9BB193E8070097
S31500003C0085E8070083F804C0E26918469E601A60DA
S31500003C1063699847A3691BB195E8070083E8070025
S31500003C2004B070BD2B46EDE730B4D0E9012310781F
S31500003C305A6E03280C4D98BF01320C4C8A60D86A24
S31500003C402A6A2368C2F3026C03FA0CF34FF0010CE4
S31500003C5030BC02F00702C0F3C350D340C3404B60F0
S31500003C60002081F800C0704700E00140BC0E002033
S31500003C7010B490F800C0886EBCF1030F1ED8013056
S31500003C80AAB9019C496BE40754BF01F01F01C1F3B7
S31500003C90044101F00C01A1F10401B1FA81F14909D5
S31500003CA0E2B921BB02225DF8044B5A60704790428C
S31500003CB0E7D9013A5DF8044B1A6070470AB19042A1
S31500003CC0F8D8019C496BE40754BF01F01F01C1F30A
S31500003CD00441090981F00101002AE2D0824201D3A0
S31500003CE00029DFD103225DF8044B5A607047002893
S31500003CF0D8D0F7E72DE9F0434FF0FF384FF0000931
S31500003D0085B00092CDE90289D0E9019602AB0F4653
S31500003D101446484602F003080A463146FFF7A8FF54
S31500003D20039B356B5BB914F0080F14BF0422022203
S31500003D30A00702991CD506EB8202D16411656206C2
S31500003D401DD5326CB8F1010F42F48002326406D000
S31500003D5025F4403545EA0345B8F1000F03D025F0B8
S31500003D60407545EA03650020356305B0BDE8F0837C
S31500003D704244123206EB820251606206E1D4B8F187
S31500003D80010F11D025F44035022C45EA0345E3D155
S31500003D90002BE4D0012102AB00913A464846314659
S31500003DA0FFF766FF039BDAE7022CD8D1002BD6D0AB
S31500003DB0F0E700BF002800DA704710B400F1604356
S31500003DC00901124CC9B203F5614383F80013104B85
S31500003DD000F1C00144F8202053F8212022F480325B
S31500003DE043F8212053F82130BFF35F8F01224309A6
S31500003DF09B0000F01F0003F1604303F5614382401E
S31500003E00C3F880211A605DF8044B7047340D00201A
S31500003E1000600040FFFFFFFF2DE9F04F01240B7CFF
S31500003E20C34A85B01A44120204FA03F3C0E9022316
S31500003E30C3F30903B3FA83F300275B0903744B69E1
S31500003E40DFF8FCC243618B694160C0E906730E4628
S31500003E50CF690546CCF8004BEFF3108184F3108848
S31500003E60B44B1A6922F000421A611B6981F310886B
S31500003E70C3681B070CD0EFF3108184F31088AE4A99
S31500003E80C06853889BB223EA0003538081F31088ED
S31500003E9000234FF42542AC682260E362E363A36427
S31500003EA096F80090327A7368B9F1030F4FEAC2525E
S31500003EB003F1FF3100F0238184BF194642EA09422B
S31500003EC0E2620020D7E906EC4FF000429FED967BB8
S31500003ED0D7F838A08DED027B22616261A261606233
S31500003EE0A062C4F81CE0C4F820C0A1666166B9F1FE
S31500003EF0000F40F0E9805B08013B0293012103209B
S31500003F006365A365BAF1000F1DD13B78002B40F025
S31500003F10C4805346BA78BAB197F803C096F800E061
S31500003F204FEA0C12BEF1020F42EA8C1200F0F18049
S31500003F3040F208814FF0030C42EA0C0243EA0243C6
S31500003F4043F0807300E053466A68D2F81CC09CF8C0
S31500003F5030E01EF0010F03D0DCF82820013AE264BD
S31500003F601EF0020F03D0DCF82C20013A226540F245
S31500003F70FF3296F810C0D7F8348022FA0CF212F00D
S31500003F80010232D04FF0000CC4F844C0B8F1000F63
S31500003F9000F0928098F802C098F803E04FEA0C6CA3
S31500003FA04CEA0E7CD8E902EBBEF1000F00F0AA80C5
S31500003FB0C4F88820C4F88CE0C4F890B098F81920AA
S31500003FC098F818E0120242EA8E1298F81AE042EACD
S31500003FD00E32626498F804204CEA024CD8F810209D
S31500003FE02267D8F81420E2670AE0B8F1000F63D020
S31500003FF098F803C098F802204FEA0C7C4CEA026C51
S31500004000C4F838C0BAF1000F0FD198F81C2098F800
S315000040101BC0520642EA4C22134397F8212097F818
S3150000402020C0520742EA4C32134397F83020002A48
S3150000403014BF4FF4A0024FF4AA02B9F1010F226493
S3150000404002D10022E26422656363EB682063216388
S31500004050E3602A46717C96F91200FFF7ABFE2A460A
S3150000406097F8221097F92400FFF7A4FE2A4697F83E
S31500004070231097F92500FFF79DFEB8F1000F06D033
S315000040802A4698F8001098F90100FFF793FE0020E1
S315000040902A4B2B6005B0BDE8F08F7A7896F800C001
S315000040A01301BCF1020F43EA821330D037D9032241
S315000040B0134343F480732DE70022A263C4F88820DB
S315000040C0BAF1000FB1D1A8E7B9F1010F24D00090E1
S315000040D02146686802ABF268FFF7CAFD029BB9F198
S315000040E0030F6365A36584BFE3652366039B190617
S315000040F041EA034141F0030041F0010102E742F4C5
S315000041008032DDE6BBF1000218BF012250E709222A
S31500004110CEE74FF0090C0FE74FF0FF33EEE6002A2B
S315000041200CBF06220922C3E7FFFFFFFF00000000C5
S31500004130901640000040084000A01640545047002A
S3150000414000901640BCF1000F0CBF4FF0060C4FF06C
S31500004150090CF1E630B44268034692F91210D269AE
S31500004160002910DB012401F01F05AC4048092A4D47
S31500004170203045F82040BFF34F8FBFF36F8F0024E8
S31500004180264840F8214092F92410002910DB01242A
S3150000419001F01F05AC4048091F4D203045F820406E
S315000041A0BFF34F8FBFF36F8F00241C4840F82140A8
S315000041B092F92510002910DB012401F01F05AC40FF
S315000041C04809154D203045F82040BFF34F8FBFF307
S315000041D06F8F0024114840F82140526BA2B192F92A
S315000041E00120002A10DB01200B4C510902F01F05AB
S315000041F02031A84044F82100BFF34F8FBFF36F8FE3
S315000042000020064941F822000020D3E9022130BCF3
S31500004210186091605063704700E100E0340D0020A3
S3150000422082680129536B02D043F4807309B143F0CD
S31500004230807300205363704782680129536B02D054
S3150000424023F4807309B123F0807300205363704711
S31500004250F0B5EFF30382103A1F4C4FFA82FC0CF1D3
S31500004260C00E54F82E104FEA8C0321F4803103F16E
S31500004270804344F82E1003F5C043D3F800131749C2
S3150000428051F82C0041680978012908D043692BB1FF
S31500004290BDE8F04000221146FFF7A8BCF0BD00259E
S315000042A0D0E90267B760B564F564356554F82E60E9
S315000042B002F0FF0265F3104644F82E60D3F800338F
S315000042C0BFF35F8F064C4FEA5C1302F01F0291406A
S315000042D0603344F82310D9E700600040340D002015
S315000042E000E100E0037B826863B10C32117801F0D3
S315000042F001011378C3F340038B42FAD1F023002067
S31500004300137070470832F1E730B4057B846895B1C5
S3150000431004F10C02117801F001011378C3F3400394
S315000043208B42FAD143681978012907D030BCF123B2
S3150000433000201370704704F10802EBE701691B7C4B
S31500004340481E45B120600A4830BC40F82310F123CE
S3150000435000201370704780B2208002330448DBB21D
S3150000436040F82310F12330BC00201370704700BFC3
S31500004370E80C002030B4057B846885B104F10C019B
S315000043800A7802F001020B78C3F340039342FAD194
S315000043900369013B35B10020236030BC704704F14E
S315000043A00801EDE79BB20020238030BC704700BFB8
S315000043B00123F0B4037341600A7C0446120202F141
S315000043C0804202F568228260EFF3108583F310883D
S315000043D04B48267BC068002E7ED00E7CC6F10306B5
S315000043E0B340DB4303404648C360C36885F3108887
S315000043F000231373137BC3F340009B07FAD4277B78
S315000044009073A6680D7AC869002F62D006F10C0277
S31500004410C37890F800C003F007030079BCF1000FE1
S315000044204ED1002D64D1107100209071537095709B
S315000044304A68636822611B7C501E002F38D03060AA
S31500004440304840F8232091F91230002B26DB4A7CB5
S3150000445003F160401201D2B200F5614080F80023FA
S3150000446029482A4A40F8234003F1C00052F8205058
S3150000447025F4803542F8205052F82020BFF35F8F94
S3150000448001205A09920003F01F0302F1604202F56F
S31500004490614200FA03F3C2F8803113600020D1E9CB
S315000044A005521B4B6561E2612360A061F0BC704759
S315000044B080B2308002331348DBB240F82320C2E7D3
S315000044C0BCF1500F06BF002543F050034CEA03032E
S315000044D0A9E706F108029BE791F810C00CF1020C5F
S315000044E05FFA8CFCCCF1030C03FA0CF3DB4379E79F
S315000044F085F0020543EA0513DBB2654693E700BF84
S3150000450000400840E80C0020340D00200060004008
S31500004510544741002DE9F04184B0EFF30383103B8B
S31500004520214A5BB203F1C00152F8210020F4803029
S3150000453042F8210052F821201C4A52F82340237BDE
S31500004540A5686BB30C3562682B781278DBB2012A4A
S3150000455004D1F42203F0F0032A702B70D4F81480EF
S31500004560B8F1000F15D0A66901AFDEB196E80700D5
S3150000457087E807009B0644BF00233371E369304692
S315000045803360C047A3691BB197E8070083E80700BB
S315000045902B78DBB203F00F032B7004B0BDE8F0817B
S315000045A00835D0E73E46E5E700600040340D0020C0
S315000045B00346044A59680020C2F8081C9B68C2F8E2
S315000045C0103C704700001740084BD3F8802C037846
S315000045D0013B032B05D9131E18BF012300200B70C6
S315000045E07047022300200B70704700BF0000174081
S315000045F01C2992BF054B064B603953F82130002B1E
S31500004600B4BF252000201380704700BF001017405C
S3150000461080111740F0B500230546D1E903022B703F
S3150000462029614969C5E906326861EFF31080012303
S3150000463083F310886B4BDA6822F48032DA60DA682A
S3150000464080F310880A7F02F00302012A0AD1EFF3F1
S31500004650108082F310881A6922F000421A611B69E1
S3150000466080F3108800230A6A5F48C26003604368CB
S31500004670002BFCD10124CA6982605B4A0460506841
S315000046800128FCD1D1E905C70024486A564E1064BA
S315000046905464D1F89C40081FC2F8604291F89040DB
S315000046A004F0070EC4F30214C2F880E2C2F88C428A
S315000046B0D1F89440C2F88842D1F89840C2F89442A2
S315000046C0C2F840C3C2F8447350F8042F03F1B00493
S315000046D0013342F48032042B46F82420F4D10B7CBB
S315000046E0424C1804002B18BF40F00100C6F8000326
S315000046F0486E3F4BC6F86402886E01F19C02C6F80C
S31500004700B00252F8040F043343F8040C106AA342B3
S31500004710D861506C1864F4D1002240F2FF144FF0B7
S31500004720010E2B69D1F8E0605B690F8FD86E2E4BB6
S3150000473000F1280CC3F8A0634E8FC3F80024C3F819
S315000047400424C3F80824C3F80C24CA6BC3F8C07445
S31500004750C3F8C464C3F8C8240A6C264EC3F8CC2434
S315000047604A6CC3F8D0248A6CC3F8D424CA6C00F10E
S315000047701401C3F8D8242048C3F8F04C1F4C11F993
S31500004780013B002B21DB11F8152CF7181201D2B2D0
S3150000479087F8002303F1C00240F8235054F8227032
S315000047A027F4803744F8227054F82220BFF35F8F35
S315000047B05A09920003F01F0302F160420EFA03F356
S315000047C002F56142C2F8803113606145D7D10322F8
S315000047D04FF44034044B0A499C6200201A625A6224
S315000047E06962F0BD00400840000017408003174092
S315000047F06003174000E100E0340D00200060004037
S315000048004843444100222DE9F04F81468B46016919
S315000048108A4B8B4C496985B0027043F8102BA34232
S31500004820FBD1CA6A874B8848DA640A6B01F18C04AB
S315000048301A654A6B401A5A650A6DC3F8C0214A6D5B
S31500004840C3F8C4218A6DC3F8C821CA6DC3F8CC2148
S315000048500A6EC3F8D02101F16C03C21853F8041F85
S315000048609C421160F9D10027C9E901779BF8002025
S31500004870002A00F0E08049465B46B946BB461A4628
S315000048800846724EDFF8D0A14FF0010C536853F87A
S31500004890275029782B790CFA01FC8B404BEA030B45
S315000048A0D5E9013423F07F4323F0FF031FFA8CFC84
S315000048B0234349EA0C0940F0B780836843EA0C03B6
S315000048C083600B0195F805C003F1804303F5B81327
S315000048D0C3F8C0C095F806C0C3E931C45C4C2B6967
S315000048E044F82130EB78002B4FD00024DFF85481B8
S315000048F0009009E0622902D10121C8F82013E87866
S315000049000134E1B288423FD9A96951F824301978B7
S315000049105868090101F1804101F5B811C1F8000696
S315000049209868C1F80406D868C1F808061869C1F87D
S315000049300C065968C1F306216129DBD13178C90912
S31500004940DDD10192EFF3108C012181F31088DAF8A2
S315000049500C0020F48000CAF80C00DAF80C008CF386
S31500004960108896F800C01E204CF0800C86F800C017
S3150000497000F096FA3178013441F010013170E87890
S31500004980E1B28842019ABFD8009813780137F9B28C
S315000049908B423FF679AF044611465A468B4621694B
S315000049A048464F69A14697F82210B7F820C0CC4375
S315000049B081F00201C1F340018DF80D1004F00101F0
S315000049C0CCF30A0C8DF80C109BB34FEA830ED9F882
S315000049D004300FFA8CFC4FEA4C0C4E374BB30023D5
S315000049E01E46DBF8048058F8031037F8025F497852
S315000049F00CEB05041031694411F8041C01B92C1D97
S31500004A00A64203F1040338BF26467345EBD10136AF
S31500004A100C4BC9F80C60986400200E49DA65C9F899
S31500004A20201005B0BDE8F08F436843EA0C034360ED
S31500004A3047E70126ECE701261046E9E7000617409E
S31500004A405008174000001740D401174000300F40AF
S31500004A500002174048434441004008402DE9F04316
S31500004A6091B09DF86050EFF30384204E103C64B281
S31500004A7056F8246077699FB3CDE90423F369D6F825
S31500004A8018900193FF238DF80200ADF81810ADF8C9
S31500004A9000508DF80830B9F1000F25D0CC46C84635
S31500004AA0BCE80F00EE4608AD0FC59CE80F0085E890
S31500004AB00F00BEE80F00A8E80F009EE80F008CE884
S31500004AC00F004846B847B36953B19C460DF1200E16
S31500004AD0BEE80F00ACE80F009EE80F008CE80F0060
S31500004AE0204611B0BDE8F083E946EAE7340D002020
S31500004AF000221949C36830B484460270C1F8082CF4
S31500004B001BB1D1F8802C013BFBD1134AD2F8803C73
S31500004B105BB140F20113C2F8603CD2F8803CD2F897
S31500004B20801C43EA5103DB07F7D403226FF060458C
S31500004B3040F2E7140121084B0020C3F88C2CC3F87F
S31500004B40B42CC3F8B85CC3F8C44C8CF8001030BC65
S31500004B50C3F8002C704700BF00001740F0B52A4B81
S31500004B6083B0D3F8881CD3F8A02C11F0010F14BF22
S31500004B700720032012F001021BBFD3F8A42C072044
S31500004B801346D3F8B03CEFF3038403256FF0604C73
S31500004B9040F2E7171D49103C64B251F824601A49E7
S31500004BA0C1F88C5CC1F8B45CC1F8B8CCC1F8C47C5F
S31500004BB0317805290AD9A84201D00621317000258D
S31500004BC0FF2100910021FFF749FF09E0104D03285E
S31500004BD06F5C104D377055F82150EED1042FEFD889
S31500004BE0012109480C4B04F1C002C0F89C1C53F883
S31500004BF0221021F4803143F8221053F82230C0F8F5
S31500004C00005C03B0F0BD00BF00001740340D00206B
S31500004C10C0940000A894000000600040F0B52B4B43
S31500004C2083B0D3F8882CD3F8A01C12F0020F18BF5B
S31500004C300720C1F3400208BF0320890745BFD3F808
S31500004C40A42C07201346D3F8B03CEFF303840325C6
S31500004C506FF0604C40F2E7171D49103C64B251F802
S31500004C6024601A49C1F88C5CC1F8B45CC1F8B8CCB0
S31500004C70C1F8C47C317805290AD9A84201D0062199
S31500004C8031700025FF2100910021FFF7E7FE09E0C2
S31500004C90104D03286F5C104D377055F82150EED13A
S31500004CA0042FEFD8022109480C4B04F1C002C0F8CA
S31500004CB09C1C53F8221021F4803143F8221053F83B
S31500004CC02230C0F8005C03B0F0BD00BF0000174002
S31500004CD0340D0020C0940000A8940000006000403D
S31500004CE010B5FF2482B00022002301210094002089
S31500004CF0FFF7B4FE0121074A074BC030C2F8541D26
S31500004D0053F8202022F4803243F8202053F8203034
S31500004D1002B010BD000017400060004010B5FF242F
S31500004D2082B000220023022100940020FFF796FEA5
S31500004D300221074A074BC030C2F8541D53F8202001
S31500004D4022F4803243F8202053F8203002B010BD00
S31500004D500000174000600040064B074993F8260004
S31500004D601A6A51F82030C2F302620449D3400B603C
S31500004D70704700BF00E0014058000020BC0E002034
S31500004D804AF2035001233949394A70B4A1F8FE03A7
S31500004D90A2F80431B2F804319BB2002BFAD10121FA
S31500004DA04FF400453348344C03618560A2F8001186
S31500004DB0A160216009212024304E05F1987505F582
S31500004DC02D45C0E90056294A92F82650156A82F800
S31500004DD0134482F8A21082F832302949294BC16067
S31500004DE0436192F83C301907FBD54FF43C5400233D
S31500004DF01E49148582F82A3091F83C309B06FBD573
S31500004E0005234FF0010C1A4E1F4D86F81CC10D628A
S31500004E1081F8263091F826301C4C50F82330086A69
S31500004E20124AC0F30260C340236091F8753043F024
S31500004E30400381F8753092F87530DB09FBD0C52048
S31500004E4082F86D3082F8750092F87530074903F0E4
S31500004E50BF0382F8753091F87530DB09FBD170BC61
S31500004E604FF42543A1F8FE33704700BF00E0014030
S31500004E7000C00140580000200070004000127A0077
S31500004E8080969800001C4E0E21120220BC0E0020B7
S31500004E90704700BFA0F101000028FBD1704700BF9A
S31500004EA04FF47A7310B400FB01F1114C114A2468D7
S31500004EB0B2FBF4F2A1FB03043CB9B0FBF2F08008AC
S31500004EC060B15DF8044BFFF7E5BF9200B1FBF2F16C
S31500004ED0A1FB03132BB908460028F2D15DF8044B59
S31500004EE070474FF0FF3C5DF8044B6046FFF7D2BFBA
S31500004EF0BC0E002000CA9A3B70B500240B4B0C4E2A
S31500004F00B3F82021B3F84051ADB2154025FA04F3A9
S31500004F10DB0704D556F82430E0B203B198470134D4
S31500004F20102CF3D1014BA3F8305170BD0060004046
S31500004F30F00C002030B5032085B000F07DF86FF04E
S31500004F40FF054FF0FF31204C002322464FF0010EA3
S31500004F501E488564CDE90111039104F1C00532F8BC
S31500004F60020F590960B104A800EB810151F80C0C3D
S31500004F7003F01F0C0EFA0CFC20EA0C0041F80C0C96
S31500004F80954203F10103EAD10199114B0F4A03201F
S31500004F901167C3F8801202995167C3F88412039906
S31500004FA09167C3F8881200F017F80023094834F80F
S31500004FB0022F03F1C00101330AB140F82120A542B6
S31500004FC0F5D105B030BD00BF6693000000800040FB
S31500004FD000E100E000600040EFF31081012383F35D
S31500004FE01088124B33F8102092B22AB133F81020F1
S31500004FF0013A92B223F8102033F810309BB293B9DD
S315000050000B4A10B4B2F8FE330A4C9BB234F81000C7
S3150000501043F4254323EA0003A2F8FE3381F3108804
S315000050205DF8044B704781F310887047B40E00207A
S3150000503000E00140C894000030B4EFF31081012372
S3150000504083F310880E4A32F810309BB26BB90D4CC0
S315000050500D4DB4F8FE3335F810C09BB243EA0C038D
S3150000506043F425439BB2A4F8FE3332F810300133E3
S315000050709BB222F8103081F3108830BC704700BF15
S31500005080B40E002000E00140C894000000BE704746
S3150000509008B500F003F8FEF7B3FAFEE74FF4700226
S315000050A070B5304B304CC3F888209C60EFF310810C
S315000050B0012585F310882D4B9A6822F480129A6098
S315000050C09B6881F310880020FEF78EFAFFF758FEE2
S315000050D02846FEF789FA2368A3F5806383F30A88D6
S315000050E02348244A0021121A02F014FA2248234ABD
S315000050F02349121A02F01CFA224D234B5B1B002B8C
S3150000510007DD00249E1055F8043B01349847A6425B
S31500005110F9DCFFF721FE0320FFF78EFF00234FF691
S31500005120FF701A4903F10C020133102B21F82200FB
S31500005130F8D100240320FFF74FFF0320FFF77CFF81
S31500005140134B03205C609C60DC601C61FFF744FF2E
S315000051500220FEF749FAFFF7EDFE2046BDE8704053
S31500005160FFF796BE00ED00E000000000004008409A
S3150000517078000020A8100020000000205800002021
S3150000518014990000500000205400002000FD01404A
S3150000519000000E409D4B70B5D3F84829120E12F050
S315000051A0190F1FD0002501244FF0FE0E4FF6C57CC7
S315000051B0974A9848C3F86829D3F824190143C3F8D5
S315000051C0241995490D70C3F86829D3F82429024398
S315000051D0C3F82429914B1C80914B83F804E0A3F873
S315000051E000C070BDD3F8502912F47C5FF9D08A480C
S315000051F002780132D2B20270D3F80019531ECAB235
S315000052000B2B00F28981DFE803F06A060B06121900
S31500005210242B353C424583490B7853400B7070BDB7
S31500005220804981480B78027053400B7070BD7D49F0
S315000052307E480B78026053400B7070BD794C0902B2
S315000052407A48237889B25340026823700A43026081
S3150000525070BD744C75480904237801F47F01F2E7A8
S31500005260704D724C2B782068534040EA01612B70D8
S31500005270216070BD6B496E480B78026053400B701D
S3150000528070BD684C09026A48237889B2DBE7654C31
S315000052906748E0E74FF0000C624D654C2B7880F8CC
S315000052A000C053402268FF2B42EA01612B70216047
S315000052B024D00A234FF6C5740120544A5849544D48
S315000052C0C2F868590B71D2F8243943F4000343F449
S315000052D00043C2F82439514B0C80188070BDAA2AAD
S315000052E04FF0000301D0037070BD4E4C4E484F493D
S315000052F022704F4A03700B60136070BD4A4B1B78D7
S31500005300033B1F2B21D8DFE813F0ED00DC00CB00B8
S31500005310BA00A900990070005F005200200020002A
S315000053202000200020002000200020002000200077
S315000053302000200020002000200020002000200067
S31500005340200020004000200022000B23B2E7374B4C
S315000053501B68DAB20B2A00F2DB80C3F30723082BA3
S3150000536000F2D88001F16043B3F5803F80F0CE8033
S3150000537000254FF6A57401202E4E294B46F8221023
S31500005380264A5D601C80108070BD10220120002519
S315000053904FF6A574224B25491A72204A9D8010802B
S315000053A00A681C80C2F308020A60DA8070BD4FF6F4
S315000053B0A57401201D4A204B1168194A4B40174914
S315000053C053601480088070BD184B1B6803F160425F
S315000053D0B2F5803F80F09A804FF6A57401221960DD
S315000053E00F480E4B04801A8070BD104B1B6803F1EA
S315000053F06042B2F5803F80F089804FF6A5740122A5
S3150000540019800748054B04801A8070BD0080114042
S31500005410100007BD00808000EC0E0020340F002035
S31500005420380F0020EB0E0020EA0E0020E00E0020D0
S31500005430E40E0020040F002025106319434B1B685F
S3150000544003F16042B2F5803F60D24FF6A5740122A7
S3150000545019703F483F4B04801A8070BD3B4B1A6859
S3150000546002F16043B3F5803F50D24FF6A57001219B
S315000054701468374B374A5C601880118070BD334B17
S315000054801A6802F16043B3F5803F3FD24FF6A5702C
S31500005490012114882E4B2F4A5C601880118070BD44
S315000054A02A4B1A6802F16043B3F5803F2ED24FF6BD
S315000054B0A57001211478264B264A5C60188011805D
S315000054C070BD40F232344FF6A57001211F4A1368B1
S315000054D0C3F3080313601E4AD3801E4B94801080CA
S315000054E0198070BD0121492500244FF6A5701A4A7E
