S02B000052413654325F4D43494856315F49504D5F4C4553535F464F435F57484F4C455F5046435F4532535FCE
S31500000000B0200020E14E0000494D0000DD4E00000A
S31500000010DD4E0000DD4E0000DD4E0000DD4E00002E
S31500000020000000000000000000000000DD4E00009F
S31500000030DD4E000000000000DD4E0000DD4E000039
S31500000040AD4900006D4A0000314B00006D4B0000C9
S31500000050B935000065430000A1400000654300007B
S31500000060000000000000000000000000000000008A
S31500000070000000000000000000000000000000007A
S31500000080000000000000000000000000000000006A
S31500000090000000000000000000000000000000005A
S315000000A0000000000000000000000000000000004A
S315000000B0000000000000000000000000000000003A
S315000000C0000000000000000000000000000000002A
S315000000D0000000000000000000000000000000001A
S315000000E0000000000000000000000000000000000A
S315000000F000000000000000000000000000000000FA
S3150000010000000000000000000000000000000000E9
S3150000011000000000000000000000000000000000D9
S3150000012000000000000000000000000000000000C9
S3150000013000000000000000000000000000000000B9
S3150000014000000000000000000000000000000000A9
S315000001500000000000000000000000000000000099
S315000001600000000000000000000000000000000089
S315000001700000000000000000000000000000000079
S315000001800000000000000000000000000000000069
S315000001900000000000000000000000000000000059
S315000001A00000000000000000000000000000000049
S315000001B00000000000000000000000000000000039
S315000001C00348044B834202D0034B03B118477047E0
S315000001D0580000205800002000000000064B074988
S315000001E0C91A891048BF0131491003D0044B0BB11D
S315000001F001481847704700BF5800002058000020EB
S315000002000000000010B5064C237843B9FFF7D8FF6D
S31500000210044B13B10448AFF300800123237010BDD3
S315000002207800002000000000D096000008B5054BBD
S315000002301BB105490548AFF30080BDE80840FFF74C
S31500000240CDBF00BF000000007C000020D09600005B
S315000002502DE9F04F2DED088B914F95B004AC0FCFE3
S31500000260A3460FC43B688F4D24F8023B0DF1240CC6
S315000002701B0C2370E6460FCDACE80F000FCDACE8A3
S315000002800F0095E80700ACE80300ACF800204FF03B
S315000002901202854B4FF008091A704FF02902834B62
S315000002A0DFED83BA1A70834B9FED83BA83F8009013
S315000002B0DFF83CA3814B01AF93E80700DFED80AA8E
S315000002C003C7BBE80F00AAE80F009FED7EAADFED8B
S315000002D07E9ADBF800307D4C9FED7D9AAAF80030BF
S315000002E0BEE80F000FC4BEE80F00DFED7A8A0FC428
S315000002F04FF44072784BF0EE006AC3ED00BA774BCC
S31500000300F7EE007A83ED00BA754B0026C3ED00AA1E
S31500000310744B4FF0010883ED00AA734BB3EE098AC4
S31500000320C3ED009A714B9FED720A83ED009A714BF3
S31500000330DFED710AC3ED008A704B9FED711AA3F8C9
S315000003400090704BDFED701A1A804FF400726F4BFD
S315000003509FED6F2A1A804FF005026E4BF1EE042ACC
S315000003601A806D4B9FED6D3AC3ED006A6C4BDFED65
S315000003706D3AC3ED007A6C4B9FED6C7AC3ED006A63
S315000003806B4BDFED6C4AC3ED007A6B4BB2EE0E5A47
S315000003901E806A4BDFED6A5A1E706A4B9FED6A6AD1
S315000003A01E706A4B9FED6A4A1E706A4B1E706A4B3E
S315000003B083F8008001AB9EE8070003C493E80300BE
S315000003C0664B227083E80300654B83ED008A654B1C
S315000003D083ED000A644BC3ED000A644B83ED001AFB
S315000003E0634BC3ED001A634B83ED002A624BC3EDEA
S315000003F0002A624B83ED003A614BC3ED003A614B34
S3150000040083ED007A604BC3ED004A604BC3ED004AB2
S315000004105F4BC3ED007A5F4B83ED005A5E4B83ED75
S31500000420005A5E4BC3ED007A5D4BC3ED007A5D4B1F
S31500000430C3ED005A5C4BC3ED005A5C4B83ED007A6A
S315000004405B4B83ED006A5B4B83ED006A5A4BC3ED51
S31500000450007A5A4B83ED007A594B83ED007A594B5B
S315000004601E70594B83F80080584B83F80080584B18
S315000004701E70584B1E70584B1E70584B1E70584BB2
S315000004801E70584B83ED004A574BC3ED007A574B0D
S31500000490C3ED006A15B0BDEC088BBDE8F08F00BF58
S315000004A0048B00001C8B0000500200204F0200202D
S315000004B0CDCC0C414E020020BD52963D488B00002B
S315000004C0A470BD3D96430B3EA86DC33A10020020B2
S315000004D000E02B4600009642440100204001002027
S315000004E03C01002038010020340100202C010020AE
S315000004F000007A442401002000204B4656020020CA
S315000005000000CC4152020020054003444A0100206D
S315000005100580ED434801002030010020CDCCCC3DC4
S31500000520200100206F12833A1C0100200000000009
S315000005301801002000001644540200204F0100203C
S315000005406F1283394E0100206F12033A4D010020CD
S315000005500AD7A33B4C0100202801002008020020F6
S31500000560140100200C01002008010020E0000020FA
S31500000570DC000020D8000020CC000020C8000020AD
S31500000580B800002010010020FC000020A800002078
S31500000590F8000020F4000020EC000020F00000200D
S315000005A0E8000020D4000020D0000020C000002079
S315000005B0BC000020A4000020B4000020B0000020F1
S315000005C0AC0000200501002004010020E40000200A
S315000005D0030100200201002001010020000100208B
S315000005E0C4000020A00000209C00002098000020ED
S315000005F03C02002008B500F0ADF900F0A5F9084B63
S315000006001A78032A00D008BD28B10228FBD1054A72
S315000006101870107008BDBDE80840FFF719BE00BF8E
S315000006204E0100204F0100202DE9F0417F4C804F04
S3150000063094ED000AD7ED000A01F010FCF0EE407AC6
S315000006407C4DB7EE001ADFED7C0A95ED000AC4ED8D
S31500000650007A01F0E7FBF0EE086A784EC0EE267AE3
S3150000066096ED007AF4EEC77AF1EE10FA85ED000AFF
S3150000067000F1D1807249734B0A781B78934240F09F
S31500000680C88083F00102704B97ED005AD3ED003A13
S315000006906E4B95ED006A93ED004A6D4BD6ED006A00
S315000006A0D3ED004A6B4BD4ED007AD3ED005A6A4B7A
S315000006B0002093ED007A694BD3F800E0684B1E6882
S315000006C0684B1D68684B1C68684BB3F80080684B24
S315000006D0B3F800C0674B1F78674B5D639C63674D3B
S315000006E0674CC3ED023A83ED034AC3ED044A83ED3A
S315000006F0085AC3ED055A83ED0A6AC3ED0C6A83ED09
S31500000700067AC3ED0F7AA3F80080C3F81CE0A3F8BD
S3150000071004C083F82470DE6224682D681C645D645E
S31500000720584D594C2D6824689D65584D5C652D685B
S31500000730574C1D66574D24682D68DC659D66564DE1
S31500000740564C2D682468DD66554D5C662D78554CF3
S3150000075065F30700544D24682D78DC6465F30F209B
S31500000760524D534C2D78246865F31740514D2D7822
S3150000077065F31F6018655048504D007883F84800AF
S315000007804F48007883F849004E48007883F84A00BD
S315000007904D481C6700684D4C986724684C485C6758
S315000007A000684C4CC3F8880024684B48C3F8804066
S315000007B004682D68C3F88C40484CDD672468484DB2
S315000007C0C3F89840474C2D7824684748C3F8A4409E
S315000007D00124006883F88450444DC3F890002D68C6
S315000007E04348C3F894500068424DC3F89C002D68F6
S315000007F04148C3F8A0500068404DC3F8A8002D68D2
S315000008003F48C3F8AC5005683E48C3F8B050047082
S315000008100A70BDE8F081F7EE000AB0EE670AC6ED91
S31500000820007A01F013FB86ED000A23E71001002091
S315000008302C0100202401002000007A441C01002025
S315000008404C0100204D010020440100204001002001
S315000008503C01002038010020340100203001002036
S315000008602001002018010020140100204A01002068
S315000008704801002028010020540100200801002022
S315000008800C010020F8000020FC000020F0000020F1
S31500000890F4000020E8000020DC000020EC0000202E
S315000008A003010020E00000200201002001010020D9
S315000008B0D80000200001002005010020CC00002007
S315000008C004010020E4000020D0000020D400002015
S315000008D0C0000020C8000020BC000020B00000209E
S315000008E0C4000020A4000020B8000020B4000020AE
S315000008F0AC000020A8000020A00000209C000020E2
S31500000900980000205001002010B50C4A13780133DE
S31500000910DBB2032B0DD81370094C2378012B03D0BF
S31500000920BDE8104000F002B900F034F8002323704F
S3150000093010BD0023137004F041FDEDE79400002084
S315000009405001002000F07EBC014800F027BD00BF2A
S315000009504C0300200C490D4A0B78107898420AD0B7
S31500000960032B09D8012B13700BD0032B06D013B918
S31500000970074800F003BD704708707047044800F050
S3150000098003BD034800F0F4BC4F0100204E010020D7
S315000009904C03002070B55F4CBEB094F85120636CD8
S315000009A08DF85820D4F8A02017931A92D4F8A430C2
S315000009B0D4F8A8201B931C92D4F8AC30D4F8B020FD
S315000009C00DF17C0C04F1040E1E921D93BEE80F007F
S315000009D0ACE80F009EE807004F4D504E8CE807002C
S315000009E0284616A9199600F057FC94F824102846B4
S315000009F000F0D8FC94ED0F0A284600F0CBFCD4EDAD
S31500000A001E7A94F84820A36A8DF8982022882993A4
S31500000A10ADF89C2094F85220E36A8DF8992094F85A
S31500000A2053202A938DF89A20636FD4F888203C4986
S31500000A300DF1DC0C04F1040E28912F922B93BEE8E5
S31500000A400F00ACE80F009EE807008CE80700CDED2C
S31500000A502C7AD4F88030D4F88C10E26F2E93D4F828
S31500000A609030309194F884102D923193D4F89420DC
S31500000A70D4F898302B4D8DF89B10E16E329233935B
S31500000A80D4F89C20236F2846359126A934923693B4
S31500000A9002F0D4F8E16D626DA36D0491A16E02922D
S31500000AA00393226E636E2846079102A90592069368
S31500000AB002F0A6FA94F84A20236C8DF8202094F8C8
S31500000AC04920216A8DF8212094F85020606B8DF81A
S31500000AD022200B93226BA36B0DF13C0C04F1040E48
S31500000AE00D9009910C920E93BEE80F00ACE80F0032
S31500000AF09EE807000C4D8CE80700284608A90A96D0
S31500000B0000F0EAF9E36C284601A9019300F0C4FA63
S31500000B103EB070BD540100204C0300206F12033A12
S31500000B2017B7D138C0040020580200200448C37902
S31500000B30012B00D07047034B93ED000A00F02ABC4E
S31500000B404C03002010010020014800F08DBC00BFBE
S31500000B504C030020014800F031BC00BF4C030020CC
S31500000B60704700BFDFED037A20EE270A80ED080A02
S31500000B70704700BF5077D63DB5EEC00AF1EE10FAC9
S31500000B8009DD90ED027ADFED047A20EE070A20EE09
S31500000B90270A80ED090A70475077D63DD0ED037AD3
S31500000BA077EEC07A6830C0ED007A01F0A5B900BFD3
S31500000BB04378012B21D0022B19D190ED030A90ED39
S31500000BC0057A37EE407AD0ED097AF0EEC76AC7FEAD
S31500000BD0E67A17EE103AF0EEE77A002BB8BFF1EEA0
S31500000BE0677AD0ED080A30EE270A01F037B99FED93
S31500000BF0060AD0ED080A01F031B990ED040AD0EDED
S31500000C00080A01F02BB900BF0000000030B5044609
S31500000C10C26A036B00F1BC0585B090ED0D0A28464B
S31500000C200092019306F07EF9D4ED067A9FED177ACD
S31500000C30F0EEE76AF4EEC76AF1EE10FA0EDCDDEDCF
S31500000C40007AF5EEC07AF1EE10FAC8BFDFED107A41
S31500000C50019BC4ED0B7A236305B030BDB4F84C306C
S31500000C6094ED197A00EE103ADFED0A6AB8EEC00A82
S31500000C70002327EE267A28466A4620EE270A02A98E
S31500000C808DED037A029305F0E9FFD8E70AD7233CF6
S31500000C9000000000D7B3DD3F30B5044685B0C26A18
S31500000CA0036B00F1F00502A9284600920193029217
S31500000CB0039300F01FFA04F1BC0006F045F9012881
S31500000CC00ED0DDED027A039BF5EEC07AF1EE10FA56
S31500000CD0C8BFDFED0D7A2363C4ED0B7A05B030BDD6
S31500000CE0E378012BEDD1DDED001A9DED021AD4ED6E
S31500000CF0310A94ED060A2846694600F0E7F9DDED6B
S31500000D00007A019BE0E700BF000000002DE9F84FE4
S31500000D1040F20111404C414B2DED048B236205231B
S31500000D209FED3F9A00250027B0EE008ADFED3D8A51
S31500000D303D4A618062623D493D4A616522653D49A1
S31500000D403D4AA4F84C3004F1680A3C4BB0EE490A1F
S31500000D505046A265E3652166C4ED028A84ED198AD0
S31500000D6004F17C0925616561277101F0EDF8B0EEAB
S31500000D70480A2046F7EE000A00F0EAF904F14C0BA7
S31500000D80F0EE482A9FED2E2AF3EE0E1A94ED181A6D
S31500000D90D4ED020A484604F1BC089FED2A0A05F084
S31500000DA03BFE04F1DC069FED281A5946B0EE490ACF
S31500000DB0DFED260A404606F037F8304601F060F8C7
S31500000DC0F0EE680AB3EE090A304601F065F85946B6
S31500000DD004F1F00000F078F91D4B50466364A562FB
S31500000DE0E560A561E561E56225636563A563E56385
S31500000DF02564A5642780677101F0A2F8484605F0CE
S31500000E0059FE404605F020FFBDEC048B3046BDE898
S31500000E10F84F01F03DB800BF580200205BFD8F443B
S31500000E20D7B35D406F12033A5077563DBD52963D9B
S31500000E30CDCC0C41A86DC33AA470BD3D96430B3E84
S31500000E40000070420000CC413333733F0080BB4347
S31500000E5077DA63400023002210B504460F49836207
S31500000E60C3608361C361C362036343638363C36314
S31500000E7003644164836402804271683001F060F863
S31500000E8004F17C0005F016FE04F1BC0005F0DCFE62
S31500000E9004F1DC00BDE8104000F0FABF77DA6340E9
S31500000EA001230370704700BF0B7843704A688B6854
S31500000EB0C2614363704700BF00B5D0F830C0D0F8B8
S31500000EC02CE0C2688369C1F800E0C1F804C08A60FA
S31500000ED0CB605DF804FB00BF70B504460D460B8879
S31500000EE000F14C0C43808B7801F11C0E03718B686A
S31500000EF0D1ED050A91ED040A8360BEE80F00ACE867
S31500000F000F009EE807008CE80700204600F020F955
S31500000F1095ED010A2046FFF725FE95ED030A2046CA
S31500000F20FFF72AFE04F1BC06D4ED020A95ED060A87
S31500000F3004F1DC0004F14C0500F0AEFF2946304612
S31500000F4005F040FF94ED190ADFED077A20EE270A37
S31500000F50304684ED1E0A05F0C5FF294604F1F0006F
S31500000F60BDE8704000F0F2B8D7B3DD3FDFED037A9D
S31500000F7020EE270A80ED050A704700BF5077D63D60
S31500000F8038B52DED028B83780446012B90ED070AC8
S31500000F900CD0DC3000F09AFF23789FED368A012BC7
S31500000FA084ED060A30D0BDEC028B38BDB0F84C306B
S31500000FB0D0ED176A07EE903AF8EE677A90ED0C7A64
S31500000FC067EEA67A00F17C05F0EE400A284627EE89
S31500000FD0870A05F075FD284605F0B0FD284684ED24
S31500000FE00A0A84ED060A05F0ADFDB4F84C3094ED1E
S31500000FF0177A07EE903AF8EE677A67EE877A2378E3
S3150000100080EE278A012BCED12046FFF7D1FDF0EEE8
S31500001010480A84ED030A04F17C0005F0DBFD6379E0
S31500001020B0EE408A033B032B17D99FED120A124BF1
S31500001030E278D3F8D411D3F8D831012A84ED0C0A1A
S315000010406165A36511D02379012BACD1BDEC028B70
S315000010502046BDE83840FFF71FBE94ED060A20463D
S31500001060FFF79CFD30EE080AE1E72046FFF7CEFDCC
S31500001070E9E700BF00000000C004002080ED030A7D
S3150000108080ED060A80ED070A80ED380A80ED370A02
S31500001090704700BF4170704770B504460E4600F1B8
S315000010A07C0590ED180A284605F084FD96ED000AA9
S315000010B02846D4ED020A05F049FD94ED190A2846A2
S315000010C0BDE8704005F07ABD01607047036893ED96
S315000010D0047AC0EE877AF4EEC07AF1EE10FA05DDF6
S315000010E0B4EEE11AF1EE10FA71FE811AC1ED001AA2
S315000010F0002070470368B6EE006AD3ED027AD3ED9E
S31500001100046A93ED037A66EE866A37EE677AC6EE70
S31500001110877AF5EEC07AF1EE10FA91ED016A05DCF8
S31500001120DFED097A0020C1ED007A704727EEA77A35
S3150000113026EE066A37EE067AF1EEC76A77EEE67AAB
S315000011400020C1ED007A7047000000000160704782
S31500001150DFED137A20EE270AB0F84C30D0ED186A8E
S3150000116070EEA00A07EE903A20EE007A90ED026A41
S3150000117027EE267AF8EE677AD0ED175A60EE800AE7
S3150000118067EEA57A60EEA60A27EE067A80EEA76AD3
S31500001190C7EE276A80ED1B6AC0ED1C6A704700BF68
S315000011A0DB0FC94010B50C46084600F065FAD4F8C6
S315000011B0300100F0CDFFB6EE001AD4F83001F0EEA3
S315000011C0410AB0EE410A00F093FF23780BB10020EC
S315000011D010BDD4F8340104F15C0101F0FDFC94F873
S315000011E05C30012BF3D1D4F8300100F0B5FF204676
S315000011F000F0E6FBEBE700BF10B5D1F830010C4676
S3150000120000F0A8FFB6EE001AD4F83001F0EE410A5D
S31500001210B0EE410A00F06CFF204600F02DFA0020E7
S3150000122010BD00BF0020704708B5084600F060FA00
S31500001230002008BD08B5D1F8300100F08BFF002072
S3150000124008BD00BF10B501F0B3FBFFF75FFD00F06E
S315000012507FFE002200230C4C0C480D4984F84420E4
S31500001260C4E94D010B4904F19800C4F8301123611B
S3150000127000F08CFD04F1BC0005F0D2F92046BDE873
S31500001280104000F035BA00BF4C030020C004002017
S31500001290580200208804002030B52DED028B05464B
S315000012A089B098300C4600F0B3FD012855D023785C
S315000012B09FED2C8A2B70D4ED017A67EE887A05F1C2
S315000012C0A00C04F1240EBEE80F00C5ED0E7AACE8C2
S315000012D00F009EE807008CE80700234895ED2E0ACC
S315000012E000F056FB2846D4ED030A94ED020A00F0FE
S315000012F077FBDFED1E7A94ED055A94ED067A85EEBE
S31500001300276AC7EE276AD4ED074ABCEEC66A236A87
S3150000131084EEA77AFCEEE66A069316EE103AD4ED52
S31500001320045ABCEEC77AADF8043016EE903ACDED0D
S31500001330037AADF8063065EE887A17EE103A05F1B5
S31500001340A00201A905F1BC008DED055ACDED047A88
S315000013500792ADF8083005F09FF909B0BDEC028B95
S3150000136030BD00BF5077D63D4C03002017B7D138AB
S3150000137001460122983000F00FBD00BF0146002251
S31500001380983000F009BD00BF01460322983000F0F6
S3150000139003BD00BFD0F83801FFF7E8BD983000F074
S315000013A037BD00BF38B5044698300D4600F030FD15
S315000013B0012802D0012D08BFE57138BD10B50446DD
S315000013C084B0983000F024FD012801D004B010BD8F
S315000013D0D4F838311B78012BF8D1204600F0B2FA48
S315000013E06389012B22D0022B08D01BB994F85C30FC
S315000013F0012B36D0204600F0BFFAE7E7A26F236F35
S3150000140094F801C001A9D4F838018DF804C00292FD
S315000014100393FFF749FDD4F83801FFF7B1FDD4F87F
S31500001420380104F18801FFF747FDE3E7236FA26F58
S3150000143094F801C001A9D4F8380103938DF804C0CB
S315000014400292FFF731FDD4F83801FFF799FDD4F881
S31500001450380104F18801FFF72FFDA378032BC9D1CA
S3150000146002236381C6E700BFF0B504468FB000F1E2
S315000014700C0390ED1A1AD0ED190A90ED180A039391
S3150000148000F12803029300F12403019300F12003E5
S3150000149000F1140500F1180600F11C070093294617
S315000014A03B463246D0F8300100F084FD29463B46E3
S315000014B03246D4F8340101F085FD204600F0F4FBF5
S315000014C06069A169E269236A656A04900591A06A68
S315000014D0E16809950692D4F89050D4F88C200893C8
S315000014E0D4F888300A900791D4F8340104A90C92F4
S315000014F00B930D9501F050FB04F1980000F088FC69
S31500001500012804D0204600F06FFA0FB0F0BD04F1B8
S315000015105C052946D4F8340101F05EFB94F85C3092
S31500001520B3B12378012B35D0D4F8340101F004FC93
S31500001530D4F83401294601F04FFB94ED1A1AD4ED84
S31500001540190A94ED180AD4F8300100F0D1FDD9E754
S31500001550B6EE001AD4F83001F0EE410AB0EE410AB8
S3150000156000F0C6FDD4F8340101F0F4FC2946D4F8A5
S31500001570340101F031FB2378002BC3D194F85C30A1
S31500001580012BBFD1D4F8300100F0E6FD204600F073
S3150000159017FAB7E7E3696169A269C4F8C43004F1D0
S315000015A0BC00C4F8BC10C4F8C02005F08BF894F851
S315000015B02B31013B042B07D8DFE803F052574D0FC0
S315000015C00300204600F0FCF994F82A31062B99D145
S315000015D0D4F8300100F0BCFDA6E794ED410AD4F83A
S315000015E0340101F083FD94ED3D0AD4F8340101F095
S315000015F075FD94ED3E0AD4F83801FFF73FFD94EDF2
S31500001600420AD4F8340101F075FD0221D4F83801FC
S3150000161061816170FFF73EFDD4F83811D4F834319A
S31500001620D1ED067A93EDAD7AF0EEE77AF4EEC77A6D
S31500001630F1EE10FA4FF00606CCBF052203220D4F3D
S31500001640A27020469A704A71C3F8F87183F8006256
S3150000165000F0B6F9B8E7D4F8300100F07BFDB3E747
S31500001660D4F8300100F072FDAEE7D4F8300100F096
S3150000167073FDA9E7000016430023002210B50446B7
S31500001680C36043618361C36103624362836203642F
S31500001690A0F801208260483000F0FAFB23780BB9ED
S315000016A084F85C3000234FF07C5204F1BC00E36602
S315000016B022666266A26623676367A367E367C4F868
S315000016C08030C4F88430C4F88830C4F88C30C4F84C
S315000016D09030C4F8943004F0CBFFD4F8340101F014
S315000016E003F9D4F83801BDE81040FFF7B3BB00BFDB
S315000016F02DE9F04705236B4AC0B0DFED6B7A002673
S315000017004FF08048C0F8A8204FF480754FF47A62F5
S31500001710A0F8A0306549DFF818E2DFF818A2DFF874
S3150000172018C2634BDFF81492624F0446C0ED2B7A61
S31500001730C0F8B090C0F8B4E0C0F830C04763C580C8
S31500001740C0F8A410C0F8B880C0F82CA00670867047
S3150000175082878363483000F093FB002331933593EF
S315000017603693554B4FF07E552F93544B544A309336
S31500001770544B554933934FF40073ADF8A430534B93
S315000017800DF1E40C3793524B04F1A00E2B912D92E0
S315000017902E923893BEE80F00ACE80F009EE80700D3
S315000017A04C4FDFF89C918CE80700D4F8340128A947
S315000017B0CDF8A8902C9528963495329701F03EFAEC
S315000017C0454B464AD4F8340102A904930693029283
S315000017D003950595079501F013FC9FED410AD4F892
S315000017E03401404A404901F007FC40F20113ADF8CC
S315000017F068303E4B0DF1840C1B933D4B04F1A00E5B
S315000018001D933C4B8DF86A602093BEE80F00ACE850
S315000018100F009EE807008CE80700D4F838011AA9E3
S315000018201F951C97CDF87880FFF756FB324B01A920
S3150000183032480193FFF730FC314A324B0F92324A5D
S3150000184015931092314A324B1192324A16931292E4
S31500001850314A324B1492324AD4F830011392314A4B
S315000018600FA9C4F82CA018921993CDF85C8000F04B
S3150000187079FB42F210722C4B2C490B93089104F120
S31500001880A00308A904F1BC00ADF824200E93CDF8FE
S3150000189028900C9704F000FF2046FFF7EDFE40B0BD
S315000018A0BDE8F087BD52963DA470BD3DCDCC0C4140
S315000018B06B2BAA440000C8420000A040CDCCCC3D12
S315000018C06F1283396F12833A000096420540034433
S315000018D00580ED436F12033A000070410000164484
S315000018E00080BB43548B0000688B000000E02B4651
S315000018F000007A440000C8410000CC415802002094
S3150000190035230000CDCC4C3E552200007522000048
S3150000191000004943F12200005D21000000007043F1
S31500001920DD2100000080BB45D2537B42050032001A
S31500001930A86DC33AB6C387400000E14396430B3E09
S3150000194017B7D138D0ED257AF5EEC07AF1EE10FA58
S3150000195002DB00238371704744BF01238371704704
S315000019600B4601B97047018902220B4303810146E8
S31500001970983000F011BA00BF437813B94389022B9F
S3150000198000D070478278033A032A98BF43707047A5
S31500001990DFED096AB7EE087A20EE260ADFED077A50
S315000019A020EE070AB4EE670AF1EE10FA37FE800A57
S315000019B080ED0B0A704700BFF304B53F9A99A94121
S315000019C0C379012B00D0704710B50446D0F8340116
S315000019D001F0DEF8D4F83801BDE81040FFF760BA30
S315000019E0483000F059BA00BF38B583780446062B54
S315000019F00DD8DFE803F0041A30A7CAD80D0001237A
S31500001A00D0F8342183709370D0F83821537138BDE3
S31500001A10D0F8343193F8A522002AF8D00322827038
S31500001A209A70D0F838315A7138BD4389012BEED1FE
S31500001A300378002B40F016810221D0F83421817002
S31500001A409170D0F838014171A2F8A63282F8A83216
S31500001A50A2F8BC3238BDD0F83401DFED8E6A90EDC5
S31500001A606D7AD0EDB17A77EE677AB0EEE76AB4EECA
S31500001A70E66AF1EE10FA0ADDF5EEC07ADFED866A67
S31500001A80F1EE10FACCBF77EEE67A77EEA67AB0F8EA
S31500001A90BC32DFED826A01339BB206EE103AB8EE35
S31500001AA0C66AB4EEE66AF1EE10FAC0EDB07A80EDE1
S31500001AB0B17AA0F8BC32AADB90ED810AF0EE047A86
S31500001AC0B0EEC07AB4EEE77AF1EE10FA90F8A752CB
S31500001AD0C0F2A080002D40F09D8001F0C9FAD4F834
S31500001AE03401DFED6F7A90EDB07AB4EEE77A012338
S31500001AF0F1EE10FA80F8A73200F2C98090F8A82219
S31500001B00002A40F0C48090F8A6220132D2B2092AF7
S31500001B1080F8A6227FF67BAF80F8A8320022032346
S31500001B200625D4F83811DFF87CC14A67C0F8F8C139
S31500001B3080F80052C0F89821C0F8AC21A3708370D9
S31500001B404B7138BDD0E94D21D1ED067A92EDAD7AD3
S31500001B50F0EEE77AF4EEC77AF1EE10FA838803F135
S31500001B6001039BB283807FF752AF642B7FF64FAFA2
S31500001B7004230020D2F8885182F8A502C2F87C51CD
S31500001B80A080A37093704B7138BDD0F8343193F8B0
S31500001B90A522012A7FF63BAF052282709A70D0F803
S31500001BA038315A7138BDD0E94D25D5ED067A92ED1A
S31500001BB0AE7AF0EEE77AF4EEC77AF1EE10FA8388A1
S31500001BC003F101039BB283807FF521AF642B7FF67F
S31500001BD01EAFD2ED5F7A4FF0000EC2ED627A506B07
S31500001BE0116B02F5027302F50A7C82F8A5E218640D
S31500001BF0186643F8041B6345D961F8D10623002112
S31500001C000020C2F89812C2F89C12A37093706B71F0
S31500001C10A08038BDDFED227A90EDB07AB4EEE77A97
S31500001C20F1EE10FA12D890F8A8327BB990F8A632E5
S31500001C300133DBB2092B80F8A6327FF6E8AE01232A
S31500001C409D4280F8A8323FF469AF38BD0023012DCC
S31500001C5080F8A6327FF4DBAE90F8A832012B3FF471
S31500001C605DAF38BD90F82A31062B7FF4D0AE022145
S31500001C700022D0F8343181709970D0F83801417162
S31500001C80A3F8A62283F8A822A3F8BC2238BD80F8C0
S31500001C90A652E1E7DB0F4940DB0FC94001803B4517
S31500001CA035FA0E3C0000164390ED067AD0ED0B6A2D
S31500001CB0B0EEC77AF4EEC76AF1EE10FA90ED056A57
S31500001CC0D0ED077A70B555D4B0EEC66AF4EEC66AA2
S31500001CD0F1EE10FA4CBF01210021F0EEE77A90ED0B
S31500001CE0037AF4EEE76AD0ED0C5AF1EE10FA90EDB5
S31500001CF00D6AB4EEE57AD0ED1E7A4CBF4FF48071D2
S31500001D000902F1EE10FAB4EEC67AD0ED0E6AF0EEE4
S31500001D10E77ACCBF01260026F1EE10FAF4EEE76A68
S31500001D204CBF01230023F1EE10FAD0F834214FEA1C
S31500001D30C31392F8E0C243EA4603ACF1010C4CBF70
S31500001D4001260026BCFA8CFCB0F83CE0B2F8BC4296
S31500001D504FEA5C1C43EA860343EA4C23744592F837
S31500001D60A85241EA030103D392F8A73225B133B151
S31500001D7039B970BD0121B0E741F480510BB941F486
S31500001D800061BDE87040FFF7EBBD00BF0023038094
S31500001D9043800371704700BF032A38B504468CBFE1
S31500001DA001230023007888BF02220228638014D80A
S31500001DB0144D02EB420305EB030C1CF800C0034470
S31500001DC01148227150F8233084F801C02046984704
S31500001DD088B963786088237038BD02220020944653
S31500001DE0134363802070094B2046227184F801C09A
S31500001DF098470028EDD06088637840F0040023708F
S31500001E00608038BDAC8B00007C8B00003512000072
S31500001E100078704730EE600A20EE010A30EE200AA4
S31500001E20704700BFF0EE407AF4EEE07AF1EE10FA79
S31500001E30B0EE600A08DCF4EEC17AF1EE10FA54BF97
S31500001E40B0EE670AB0EE410A704700BFB4EEE00A92
S31500001E50F1EE10FA48BFB0EE600A7047F0EEC07AB5
S31500001E60F4EEE07AF1EE10FA09DD10EE103AF0EE3B
S31500001E70E00A002BB8BFF1EE600AB0EE600A7047C8
S31500001E800023036043608360C3600361704700BF43
S31500001E9000230360436070479FED0B7A20EE070A2C
S31500001EA0F0EE007A60EE200A30EEA77A77EEE07A5E
S31500001EB080EE876AC7EE876AC0ED020A80ED046A83
S31500001EC0C0ED036A704700BFDB0FC94090ED016AA1
S31500001ED0D0ED006AD0ED037A90ED047A80ED010A28
S31500001EE030EE060A67EEA67A20EE070A30EE270ADB
S31500001EF080ED000A704700BFD0ED007A90ED027ABF
S31500001F0010B590ED030A2DED028B27EE877AD0ED02
S31500001F10048AD0ED016AF0EE680A37EE000A04463C
S31500001F2027EEA68AFFF79AFFF0EE680A84ED030A09
S31500001F3038EE000ABDEC028BBDE81040FFF78EBFFD
S31500001F400023C360704700BF80ED040A704700BFDE
S31500001F500022034B9A61DA611A625A62704700BF27
S31500001F6088040020F0B4D1E90342D1E901654B6948
S31500001F700F68C0E90254C0E90076F0BCC0E904234A
S31500001F8091ED066A91ED087AD1ED077ADFED086AE0
S31500001F9027EE067A67EEA67A86EE876A4A6A8B6A23
S31500001FA0C0ED077A80ED066A02624362704700BFA1
S31500001FB06740533AF0B52DED048B044685B01D46B7
S31500001FC0684623680F461646F0EE408AB0EE608AF1
S31500001FD0B0EE419A9847BDF80A10BDF8080007EE22
S31500001FE0901A07EE100ABDF80C20B8EEE76A07EE65
S31500001FF0902A9FED3E5AF8EEC75AF8EEE77A65EE5C
S31500002000855A26EE056A67EE857ABDF80030F4EE4D
S31500002010C88A1B1A06EE903ABDF80230F8EEE66A58
S315000020205B1A07EE103A0E9BB8EEC77AC3ED005A5C
S315000020300F9BBDF8040083ED006A109BF1EE10FAC9
S31500002040C3ED007AD4ED065A66EEA56AC7ED006ABE
S31500002050D4ED066A27EE267AA0EB020386ED007A17
S3150000206007EE903A94ED067AF8EEE77A67EE877A0D
S31500002070BDF80630C5ED007A06EE103AD4ED077AC3
S31500002080B8EEC66A66EE277A119BC3ED007AD7EDE5
S31500002090007A96ED007AD5ED006A0EDBF4EEC98A79
S315000020A0F1EE10FA18DA77EE877AF1EE677AC5ED77
S315000020B0007A05B0BDEC048BF0BDB4EEC98AF1EE32
S315000020C010FAF0DB77EEA67AF1EE677AC6ED007AC3
S315000020D005B0BDEC048BF0BD37EE267AB1EE477A3B
S315000020E087ED007A05B0BDEC048BF0BD6740533A2E
S315000020F0F7EE007AD0ED086A37EEC00A77EEE00A0E
S3150000210090ED097AB6EE006A77EEC17A27EE067A86
S3150000211067EEA67A60EEA60A20EE260A77EE877AA2
S3150000212070EE870A30EE070AFCEEE77AFCEEE00A6C
S31500002130BCEEC00A17EE902A10EE901A436810EE15
S31500002140100A92B289B280B2184700BF8368184756
S31500002150C3681847036918474369184738B51A4DC5
S315000021601A4C2A4640F60431204601F057FB2A460F
S3150000217040F60531204601F051FB2A4640F606316D
S31500002180204601F04BFB2A4640F60731204601F077
S3150000219045FB2A4640F60831204601F03FFB2A4619
S315000021A040F60931204601F039FB0221084801F0CA
S315000021B05FFF0221074801F05BFFBDE838400221BE
S315000021C0054801F055BF00BF00000103E40B0020E5
S315000021D0300C0020500C0020700C002010B502219D
S315000021E01848194C01F050FF0221184801F04CFF25
S315000021F00221174801F048FF042240F60431204628
S3150000220001F00CFB042240F60531204601F006FBE6
S31500002210042240F60631204601F000FB042240F677
S315000022200731204601F0FAFA042240F6083120462A
S3150000223001F0F4FA2046BDE81040042240F60931C8
S3150000224001F0ECBA300C0020E40B0020500C00200A
S31500002250700C002010B50B46044686B0694604484B
S31500002260CDE90043029201F033FB06B010BD00BF7A
S31500002270140C0020022010B41A491B4A0C6B1B4B8D
S3150000228060F311440C630C6B44F040740C630C6BEC
S3150000229044F400240C630C6B44F000640C63116B73
S315000022A060F311411163116B41F040711163116BC1
S315000022B041F400211163116B41F0006111631A6B47
S315000022C060F311421A631A6B42F040721A631A6B7A
S315000022D042F400221A631A6B42F000621A635DF838
S315000022E0044B704700941640009516400096164021
S315000022F00D490E4A086B0E4B20F440300863086BFC
S3150000230020F040700863116B21F440311163116BAA
S3150000231021F0407111631A6B22F440321A631A6B72
S3150000232022F040721A6370470094164000951640DA
S31500002330009616402DE9F84F254DDFF8A480DFF80A
S31500002340A4B00446424606212846DFF89C9002F0D7
S3150000235077F8DFF898A05A460421284602F070F86C
S315000023601C4F02214A46284602F06AF81A4E0021FE
S315000023705246284602F064F83A460721284602F0FB
S315000023805FF832460321284602F05AF80121284612
S31500002390124A02F055F80023104ABBF800C0128812
S315000023A0BAF80000A2811A46B9F80050B8F8001031
S315000023B03F8836886CF30F0360F30F0265F31F4303
S315000023C061F31F422781668123606260BDE8F88F52
S315000023D0EC0B0020B4040020B0040020B20400205E
S315000023E0B6040020BC040020B8040020BA04002073
S315000023F008B540F60E31054A054801F00FFABDE86A
S3150000240008400021034801F033BE00BF000001036D
S31500002410E40B0020B00C002070B5194E84B001A961
S31500002420304601F029FB4FF0630E039B3046A3FBB9
S315000024300E3E4FEA135C4CEA0E3C1249C3F31306F8
S315000024406644A1FB061C4FEADC0C0CEB8C0C0CEB77
S315000024508C0CA6EB0C010C4C5B1A04FB03F10B4D28
S315000024606EF1000E05FB0E11A3FB05359B082944F2
S31500002470002243EA817101F065FB04B070BD00BF24
S31500002480B00C00201F85EB51F5285C8F295C8FC2AC
S3150000249091ED026A90ED0C7AD1ED036A91ED044A52
S315000024A0D0ED0D4A27EE066AD1ED017A64EEA66AF2
S315000024B036EE046A27EE877A60EE666A67EEA47ADD
S315000024C020EE060A90ED075AD0ED085A37EE267A26
S315000024D077EE807A35EE077A75EEA77A80ED077A81
S315000024E0C0ED087A704700BF90ED0F7AD0ED237AE1
S315000024F010B577EEC77A044600F5C670C4ED637A68
S31500002500FFF7FAFCD4ED247A94ED107A77EEC77AC9
S3150000251084ED070AC4ED687A04F5D070FFF7ECFC89
S3150000252084ED080A10BD00BF00234FF07E52036001
S3150000253082604360704700BF00234FF07E52036005
S3150000254082604360704700BF10B52DED028B80EDB1
S31500002550000A0446B0EE408A05F028F8F0EE407A0C
S31500002560B0EE480AC4ED027A05F06CF8BDEC028BB9
S3150000257084ED010A10BD00BF9FED146AD0ED025A2A
S31500002580D0ED016A91ED017AD1ED024A66EE866AD6
S31500002590DFED0F7A65EE865A91ED005A37EE647AD2
S315000025A025EEA76A67EEE67A26EE056A67EE266AE4
S315000025B067EE857A27EE257A76EE266A77EE877AB3
S315000025C0C2ED006AC2ED017A704700BFF304353FE1
S315000025D0D7B3DD3FD0ED025ADFED1C6AD0ED013AEC
S315000025E025EEA67A63EEA66AF1EE477AD1ED004AA9
S315000025F091ED014A35EEA65A33EEC76A76EEE55AF4
S3150000260077EEE37A64EE266A24EE877A26EE246A6B
S3150000261025EE045A65EE845A67EEA47A9FED0C3ACD
S3150000262037EE667ADFED0B2A76EE056A77EEA57A47
S3150000263027EE227A66EE836A67EE837A82ED007A67
S31500002640C2ED016AC2ED027A704700BF3ACD133F70
S31500002650F304353FF304B53F10B50446A83000F047
S3150000266037FE84ED250A10BD8378D0ED110A033BB1
S31500002670032B94BF90ED0B0A9FED010AFFF7EEBB0B
S31500002680000000008378033B032B94BF90ED0A0AF9
S315000026909FED010A704700BF0000000038B52DED20
S315000026A0028B837804469A1E012A90ED0C0AD0ED1F
S315000026B00D0A40F2AB8003F0FD02042A1AD0052B66
S315000026C080ED0F0AC0ED100A9FED728A30D084EDBE
S315000026D06D8AB0EE480A04F069FFF0EE407AB0EE7B
S315000026E0480AC4ED6F7A04F0ADFFBDEC028B84EDB1
S315000026F06E0A38BD9FED678A00F5F475284603F02B
S3150000270089F994ED070A284603F046FA94F8A532AB
S31500002710D4F89012D4F89422013384F8A532E163F8
S315000027202264A378DA1E012A02D9062B40F0AA8079
S3150000273004F59A7594ED0F1AD4ED101AD4ED080A23
S3150000274094ED090A284602F0E9FFA378043B022B20
S3150000275009D9DFED517AB4EEE78AF1EE10FA45DBDE
S3150000276038EE678AB3E7D4ED100A284694ED220ABC
S3150000277003F060F8D4ED0F0A284684ED260A94ED9E
S31500002780220A03F063F8D4ED267A84ED270A87EE51
S31500002790800A04F039FEB4EE400AF1EE10FA68BF82
S315000027A09FED3C0A04F1880184ED280A04F5BA700D
S315000027B003F098F8DFED397A94ED228AB4EEE78AD1
S315000027C0F1EE10FA1ADDC4ED227AB0EE678A94EDC6
S315000027D0037AD4ED6D7A28EE078A38EE278ADFED84
S315000027E02E7AB4EEE78AF1EE10FAB9DAB5EEC08ABF
S315000027F0F1EE10FA48BF38EE278A68E7DFED287A4F
S31500002800B4EEE78AF1EE10FAE1D5DCE700F5F475EF
S31500002810284603F0FFF894ED070A284603F0BCF9B2
S31500002820D4F89022D4F894322846E263236403F065
S31500002830D7F894EDA80A04F1880184ED280A04F576
S31500002840C070D4ED6D8A03F04DF8DFED147A94ED87
S31500002850228AB4EEE78AF1EE10FA17DCDFED107A81
S31500002860B4EE678AF1EE10FA48BFB0EE678AD4ED8F
S31500002870037A28EE278AD4F8883138EE288AC4F8F5
S3150000288088304EE7052B7FF464AF51E7B0EE678AD8
S31500002890EDE700BF00000000DB0FC940B4FBE945CF
S315000028A0B4FBE9C590ED000A704700BFD0ED036A9E
S315000028B0B6EE007A60EEA60A60EE870ADFED097AC8
S315000028C030EE800AB4EEE70AF1EE10FA02DB30EEE3
S315000028D0670A7047B5EEC00AF1EE10FA48BF30EE4F
S315000028E0270A7047DB0FC94010B5002304460022B3
S315000028F00821DFED2B1A9FED2B1ADFED2B0A9FED3A
S315000029002B0A23616361A361E36163622362A362AD
S31500002910E36223636363E363236423666366A366F8
S31500002920E36623676367A367E367C4F88030C4F888
S315000029308430C4F88830C4F88C30C4F89030C4F8B9
S315000029409830C4F89C30C4F8A030C4F88C31C4F870
S31500002950A03100F5F470C4F898312270C4F8AC3197
S3150000296002F0F0FF04F5DA70FFF7E6FD04F5E0701B
S31500002970FFF7E2FD04F59A7002F0AAFF04F5BA70BB
S3150000298002F0DCFF04F5C07002F0D8FF04F53270E7
S3150000299003F054F904F53970BDE8104003F01CBA91
S315000029A017B7D13800008243A470BD3DBD52963D95
S315000029B02DE9F04F2DED028B614C624B8DB0C4F8C2
S315000029C09C31C4F8B031604B9FED608AC4F8DC31AD
S315000029D05F4B4FF40071002500269FED5E0ADFED88
S315000029E05E0A4FF00508C4F8D0314FF080435B4AC9
S315000029F0F0EE481A62645A4A9FED5A1AC4F8061055
S31500002A0004F5F4700821C4F8E021C4F8E43104F1B7
S31500002A10A80784ED038A84ED750AC4ED760AA564D9
S31500002A20E5646565A565C4F894506671C4F80160EF
S31500002A30A4F8CC8102F086FFF7EE000A9FED4A0A61
S31500002A40204600F063FC04F1C009384600F05AFB4A
S31500002A5004F59A7A3146484604F5E67B03F036FCDF
S31500002A605946504602F0FEFE5946B0EE481AF7EEB9
S31500002A70000A9FED3E0A504602F000FF04F5BA7ABE
S31500002A803B4B5046C4F85431C4F8703102F03EFF57
S31500002A90B0EE481A5046F7EE000AB2EE0E0A02F001
S31500002AA039FFB0EE481A9FED338AF7EE000AB2EE10
S31500002AB00E0A04F5C07002F02DFF04F5DA70FFF778
S31500002AC033FD04F5E070FFF72FFD38469FED2A0A27
S31500002AD000F0CAFBB0EE480A384600F0E1FBB0EE63
S31500002AE0480A384600F0F0FBB0EE480A484603F0C4
S31500002AF08FFD224B224A02930393224B01A904F530
S31500002B0032700192049303F063F81F4B1F4A079338
S31500002B104FF07E5305A904F539700B920893CDF852
S31500002B2016808DF8146009950A9503F00DF9204674
S31500002B30FFF7DAFE0DB0BDEC028BBDE8F08F00BFEB
S31500002B40C004002000803B4396430B3E17B7D138A4
S31500002B50CDCC0C41BD52963DA470BD3DD7B35D4072
S31500002B60A86DC33A00008243000096420000164456
S31500002B70E14626410AD7A33C7605703F6F1283399A
S31500002B800000A040CDCCCC3D6F12833A6F12033AC1
S31500002B9001230370704700BF00B54B688A68D1F8FF
S31500002BA00CE0D1F800C0C0F860E08366D1F814E00C
S31500002BB00B69C2660A6AC0F864C0D1F818C0C2625E
S31500002BC00367CA694B6AC0F874E0C0F878C08262CD
S31500002BD0C0F8A4305DF804FB437900B50B70B0F87B
S31500002BE0CC31D0ED226A07EE903AF8EEE77A86EE1F
S31500002BF0A77AD0ED277AD0F87CC0D0F88020D0F81C
S31500002C008430D0F8BCE0C1F804C0C1F810E0D0F8B8
S31500002C108CC0D0F894E08A60CB60D0F89820D0F8C9
S31500002C20A030C1ED097A81ED077AC1F814E0C1F848
S31500002C3018C00A628B625DF804FB00BF30B50B78E2
S31500002C408DB04370B1F801300546A0F80330D1EDE0
S31500002C500F6A91ED107ADFED347A8B688A8800F579
S31500002C60E67C01F1440E0C4691ED135AD1ED145A4F
S31500002C70C280C360BEE80F00ACE80F009EE8070004
S31500002C808CE807009FED296A66EEA76A27EE277A89
S31500002C90D5ED797A67EE867A85ED7C5AC5ED7D5A53
S31500002CA02846C5EDAD6A85EDAE7AC5ED117AD4ED4F
S31500002CB0040A94ED030A00F029FB6169206AA269FF
S31500002CC0E3690490029105F5327001A9039201931C
S31500002CD002F0A4FF94ED097ADFED157ADFED156AAF
S31500002CE027EE277AC7EE267AFCEEE77AA36AE17822
S31500002CF00B93A36B226B0A9317EE903A8DF8141080
S31500002D00616BD4F82CC00892B4F84420099105F5FB
S31500002D10397005A9CDF81CC0ADF81620ADF81830ED
S31500002D2003F07AF80DB030BD5077D63DD7B3DD3F0E
S31500002D3000008043DB0FC9400378012B00D07047A9
S31500002D40F0B5044600F1A80785B090ED180A38469C
S31500002D5000F07CFA2046FFF787FC204684ED240A23
S31500002D60FFF790FC04F130052A4684ED230A04F1AE
S31500002D70640104F5DA70FFF7FFFB94ED0C7AD4EDED
S31500002D800D7A27EE077A67EEA77A77EE277A17EE9F
S31500002D90900A04F03FFA41EC100B04F0FFFA51ECF4
S31500002DA0100B04F08FFA03462046A363FFF776FC68
S31500002DB0E378012B5AD02379012B5DD0644D2B7813
S31500002DC0012B00F0BD802046FFF78EFB94ED220A12
S31500002DD0204604F5E671FFF75BFBA378062B0BD8BC
S31500002DE0DFE803F03F3F04A38F8C7D000023D4F877
S31500002DF0FC216362E26123622046FFF72DFC04F5A5
S31500002E00E076D4ED220A204694ED6D0AFFF74EFDDA
S31500002E1004F110053046FFF797FB2A46304604F1C9
S31500002E201C01FFF7D7FB6378012B08D029463846EB
S31500002E3004F17C0205B0BDE8F04000F07DB963798D
S31500002E40012BF3D1304601AA04F18C01FFF7C2FB36
S31500002E5094ED180A294601AA04F1C00003F08EFA7F
S31500002E60E4E700236362E3612362C5E7294604F5CC
S31500002E70327002F0FBFE9EE7B4F8CC2194ED221AE4
S31500002E8007EE902AF8EEE77A314A04F53975D4ED63
S31500002E90290A94ED6D0A284681EE271A137003F06D
S31500002EA0C7F8A378033B032B0ED8B4F8CC31D4ED86
S31500002EB0220A07EE903AF8EEE77A94ED290A2846B8
S31500002EC0C0EEA70A02F0CCFF04F5E063D4ED247A45
S31500002ED093ED007A77EE877AC4ED247A73E7D4ED22
S31500002EE07F7AF6EE006A94ED077A67EEA67A77EEB9
S31500002EF0877A84ED097AC4ED077A7DE7E369636230
S31500002F007AE7D4ED077A94F8A532C4ED097A012B55
S31500002F103FF672AF94ED7F7AF6EE006A27EE267AD8
S31500002F2077EE277AC4ED077A66E794ED077AD4ED53
S31500002F307F7A77EE877A84ED097AC4ED077A5BE7C4
S31500002F4004F5397002F048FF00232B703BE700BF01
S31500002F50BE04002000220389C18801339BB28B4244
S31500002F6090ED155AD0ED175A90ED166A82640265F7
S31500002F70C264038113D307EE901AF8EEE77A0123B1
S31500002F80C5EE274AC5EEA76A86EE277AC0ED124A35
S31500002F90C0ED146A80ED137A018143717047D0ED5C
S31500002FA0196A90ED1A7AD0ED1B7A76EE856A37EEBD
S31500002FB0257A77EE867AC0ED156A80ED177AC0ED30
S31500002FC0167A704790ED127AD1ED007A77EEC77ACD
S31500002FD0C1ED007A90ED147AD2ED007A77EEC77AD9
S31500002FE0C2ED007AD3ED007A90ED137A77EEC77AC8
S31500002FF0C3ED007A704700BFC03003F0BDBA00BF12
S3150000300038B59FED1A7A2DED028B90ED798AF0EEA8
S31500003010087A28EE078A04460D4628EE278A90EDA0
S31500003020031AD1ED010A91ED000A00F5E67100F5EB
S315000030309A7002F023FC94ED031AD5ED030A95ED80
S31500003040020A04F5BA7002F065FC94ED031AD5ED98
S31500003050050A95ED040A04F5C07002F05BFC84EDE8
S31500003060558A84ED5C8ABDEC028B38BDD7B3DD3F53
S3150000307010B52DED028BB0EE408A00F5DA742046CD
S31500003080FFF710FCB5EEC08AF1EE10FAC4BFDFED13
S31500003090117A30EE270ADFED107AB4EEE70AF1EE88
S315000030A010FA08DDBDEC028B2046BDE8104030EE7C
S315000030B0670AFFF749BAB5EEC00ABDEC028BF1EE1E
S315000030C010FA2046BDE8104048BF30EE270AFFF749
S315000030D03BBA00BFDB0F4940DB0FC94080ED220A37
S315000030E080ED5F0A80ED620A704700BF00F5DA7076
S315000030F0FFF72ABAB1EE400A80ED5A0A80ED5B0A64
S31500003100704700BF90B100234FF07E5C4FF07C51BA
S3150000311000B5074ADFF81CE0C0F80CC0C0F804E0B0
S3150000312003614161836002605DF804FB704700BF84
S315000031300080BB433EC32E3B00286ED0002A6CD0D5
S3150000314000296AD0D1ED006A91ED017AF4EEC76AE2
S31500003150F1EE10FAD1ED027ACCBFF0EE665AF0EE3F
S31500003160475AF4EEE57ACCBFB0EE476AB0EE666A2F
S31500003170F1EE10FA52DCF4EEC67AF1EE10FA54BF14
S3150000318075EE865A77EEA55AB6EE006A25EE866A81
S3150000319090ED015A76EEC66AD0ED055A66EE856A5E
S315000031A076EEA56AC2ED006A37EE467AD0ED015A90
S315000031B077EEC67A27EE257A90ED056A37EE067A1F
S315000031C082ED017AD0ED015A90ED056A67EEA57A97
S315000031D077EE867AC2ED027A90ED036AF4EEC66A5D
S315000031E0F1EE10FAD0ED045A27DD82ED006AB4EE56
S315000031F0C67AF1EE10FA18DD82ED016AF4EEC67AAF
S31500003200F1EE10FA02DD82ED026A7047F4EEE57A1D
S31500003210F1EE10FA48BFC2ED025A704737EE866AE1
S31500003220F6EE005A26EE256AB2E7B4EEE57AF1EE3E
S3150000323010FA48BFC2ED015AE0E7F4EEE56AF1EE96
S3150000324010FA48BFC2ED005AD1E700BFB5EEC00A7A
S31500003250F1EE10FA07DDB7EE007AC7EE007A80EDE0
S31500003260000AC0ED017A704758B1B5EEC00AF1EE1A
S3150000327010FA06DDF7EE007AB4EEE70AF1EE10FA80
S3150000328000D9704790ED047AF6EE007A80ED030AD5
S3150000329030EE070A20EE270A80ED050A704700BFC8
S315000032A080B1B5EEC00AF1EE10FA0BDD90ED037AAF
S315000032B0F6EE007A80ED040A30EE070A20EE270AC1
S315000032C080ED050A704700BF80ED020A704700BF17
S315000032D0D0ED037AD0ED045A90ED027A77EEE57AD6
S315000032E037EE077ADFED076A9FED076A90ED000A71
S315000032F077EEC77A20EE060A67EEA67A27EE800AF0
S31500003300704700BF0AD7933F3FC61C3FDFED147AD4
S3150000331070EEA00A20EE270A90ED757A60EE800A1C
S31500003320D0ED767AD0ED035A20EE000A67EE206AD9
S3150000333090ED746A20EE250A67EEA00A76EEC66A5C
S3150000334027EE007A70EEC60A67EE807AC0ED646AF0
S3150000335080ED657AC0ED690AC0ED6A7A704700BFF4
S31500003360DB0FC940F0B583B0FDF7ECFA042240F656
S315000033700E315B4800F052FAFEF730FF59495A48C1
S3150000338000F0C4FA59495A4800F06EFC564800F05D
S315000033908DFA554800F096FA554800F0DFFA544881
S315000033A000F0E8FAFFF724F8524B53495B68496886
S315000033B05B68D1F804C007EE903AB8EE676A07EE8C
S315000033C090CA4E4AF5EE085A5268F8EE676A576890
S315000033D026EE256A07EE907AB8EE677AF6EE007A60
S315000033E027EE257A26EE275A66EEA56ABCEEC66A51
S315000033F0434A66EEA75A956867EE277AAB6685ED6F
S31500003400196ABCEEC56AFCEEE77AFCEEE66ABCEE2B
S31500003410C77A16EE106ABCEEE56A3A4BEE64996816
S31500003420394B2E659A68C1F868C03148C1ED196AF2
S3150000343081ED136A81ED146A976682ED197AC2ED01
S31500003440137AC2ED147A00F08FFA274800F034FAA6
S315000034502E492F4800F0D4FE2D4800F06BFE2C4874
S3150000346000F0B0FE2A4800F077FE2A492A4800F00C
S31500003470C7FE294800F05EFE274800F0A3FE264856
S3150000348000F06AFE2549264800F0ECFF254924484D
S3150000349001F0E0F80021224801F052FA0223204D03
S315000034A08DF804304FF47A71012001F021FC284692
S315000034B001A900F0B1FF9DF80440002CF2D1184894
S315000034C000F09EFF184A194B14701C70FCF7C0FEE2
S315000034D001229020114603B0BDE8F04002F0C4B8C6
S315000034E0E40B0020188E0000140C0020F88F00005A
S315000034F0B00C0020388E0000C08E0000488F0000FF
S31500003500300C0020500C0020700C0020D08F0000E2
S31500003510900C002074900000D00C0020C48B00009A
S31500003520EC0B0020088D00004E0100204F0100200A
S3150000353008B5FDF779F8012240F60A31034800F094
S3150000354095F8BDE80840FDF755B800BFE40B00202C
S3150000355008B5837813B9038B012B00D008BDFDF79E
S31500003560F3FABDE80840FDF7CFB900BF037903B110
S315000035707047FEF751BF00BF08B1FDF7EBBA7047C1
S3150000358008B1FDF7EDBA704708B5FFF7EBFEFFF798
S31500003590CFFFFCE7022800D07047024B024859686B
S315000035A000F02CB9B88B0000E40B002008B5FFF73B
S315000035B0EBFF002008BD00BF30B583B0EFF30383F7
S315000035C0104A103B5CB252F824502869B8B103681F
S315000035D001936A69EB68026098472B6913B12B69FE
S315000035E0019A1A60084A04F1C00352F8231021F424
S315000035F0803142F8231052F8233003B030BD01A8C1
S31500003600E7E700BF3C0D00200060004000220346B3
S3150000361010461A60704700BF0B0A10B41B01064C17
S3150000362053FA81F154F821300020C3F340035DF8CA
S31500003630044B1370704700BF00F80140090A4901A6
S3150000364001F1804101F5F8314B6800201380704785
S31500003650090A490123EA020C01F180411A4001F5E9
S31500003660F83142EA0C4200208A6070470120CBB252
S31500003670984080B202B900040B0A5B0103F1804353
S3150000368003F5F83398600020704700BF090A490126
S3150000369001F1804101F5F83110B40C6802EA030C1F
S315000036A04CEA040C62EA030202EA0C0200205DF80E
S315000036B0044B0A60704700BF090A490101F18041C5
S315000036C001F5F8314B680020C3F30F4313807047B0
S315000036D0012310B44FEA112C4FEA4C1C0CF1804C1C
S315000036E00CF5F83CDCF80440C9B28B4099B203EA09
S315000036F014435B1AB3FA83F35B0900205DF8044BAD
S3150000370013707047090A490123EA020C01F180414E
S315000037101A4001F5F83142EA0C420020CA607047AF
S3150000372001200B0A5B0103F1804303F5F833C9B2AC
S3150000373010B400FA01F1DC68012A4FEA01400DBF1E
S3150000374084438C4304430C430020DC605DF8044B47
S31500003750704700BFF0B5EFF31082012383F31088A2
S31500003760234F3B681BB923490B7340230B733B68FC
S3150000377001333B6082F3108803882BB341681E4CEB
S3150000378001EBC30E06E01B01083113448E4544F8D5
S31500003790230019D008688A88C5034FEA1223D2B2DB
S315000037A0F1D502EB031C54F82C601B01083120F400
S315000037B0803526F4803613448E4544F82C6044F850
S315000037C02C5044F82300E5D1EFF31082012383F354
S315000037D010883B6813B13B68013B3B603B681BB9F3
S315000037E0802004490B73087382F31088F0BD00BF74
S315000037F0380D002000FD014000F8014008B5034BDC
S3150000380003600846FFF7A6FF002008BD54524F503C
S3150000381008B50846FFF79EFF002008BD30B4EFF359
S315000038201084012383F310881D4B186828B94FF0C4
S31500003830400C1C4D287385F80CC0186801301860C0
S3150000384084F31088D4034FEA1120C9B219D40001B9
S31500003850154C084444F82020EFF31082012181F32F
S315000038601088196811B11968013919601B681BB9EC
S3150000387080200C490B73087382F31088002030BC3B
S315000038807047094C01EB001C54F82C50000125F43C
S31500003890803544F82C5022F4803544F82C50D7E774
S315000038A0380D002000FD014000F8014003465A682B
S315000038B01B6900209360704703465A681B69002005
S315000038C05360704703465A681B690020D3607047EF
S315000038D0024610B590F814E0043900F10C0C52F8C9
S315000038E0043F51F8044FBEF1020F5C659C6509D098
S315000038F08469646864682478062C03D06245EED136
S31500003900002010BDCC68DC651C66F7E72DE9F041A8
S3150000391006460D4607460C4601F10C0854F8043FCE
S31500003920D3E9000100F0A0F923681B689B6847F8FB
S31500003930043F2A78022A03D1196C41F42021196424
S315000039404445EBD16969044B327500203161B5619C
S315000039503360BDE8F08100BF335450470346002072
S31500003960D3E902239360704703460020D3E902237C
S315000039705360704703460020D3E90223D3607047A3
S31500003980034630B4D3E90123D2690020D2E90114F9
S3150000399044F00045D46841F0004144F000445D61C4
S315000039A09C61D2E9044219615C629A6230BC70473C
S315000039B04FF00041002283681046196159619961F0
S315000039C05A629A62704700BF10B4D0E90123127898
S315000039D0032A0DD99966DA6AD20705D44FF4AA04E8
S315000039E0C26859661C64DA6000205DF8044B7047B3
S315000039F04C1E9C661AB949080139596599652146D4
S31500003A00E9E700BF03469B681232013903EB8203E4
S31500003A1000205960704700BF03469A680020D36AA9
S31500003A20C3F300030B71936C0B6070478446002050
S31500003A30CCE90632CCF81410704700BF70B5836924
S31500003A4084B004468C46164601AD9BB193E8070048
S31500003A5085E8070083F804C0E26918469E601A608C
S31500003A6063699847A3691BB195E8070083E80700D7
S31500003A7004B070BD2B46EDE730B4D0E901231078D1
S31500003A805A6E03280C4D98BF01320C4C8A60D86AD6
S31500003A902A6A2368C2F3026C03FA0CF34FF0010C96
S31500003AA030BC02F00702C0F3C350D340C3404B60A2
S31500003AB0002081F800C0704700E00140C40E0020DD
S31500003AC010B490F800C0886EBCF1030F1ED8013008
S31500003AD0AAB9019C496BE40754BF01F01F01C1F369
S31500003AE0044101F00C01A1F10401B1FA81F1490987
S31500003AF0E2B921BB02225DF8044B5A60704790423E
S31500003B00E7D9013A5DF8044B1A6070470AB1904252
S31500003B10F8D8019C496BE40754BF01F01F01C1F3BB
S31500003B200441090981F00101002AE2D0824201D351
S31500003B300029DFD103225DF8044B5A607047002844
S31500003B40D8D0F7E72DE9F0434FF0FF384FF00009E2
S31500003B5085B00092CDE90289D0E9019602AB0F4605
S31500003B601446484602F003080A463146FFF7A8FF06
S31500003B70039B356B5BB914F0080F14BF04220222B5
S31500003B80A00702991CD506EB8202D1641165620674
S31500003B901DD5326CB8F1010F42F48002326406D0B2
S31500003BA025F4403545EA0345B8F1000F03D025F06A
S31500003BB0407545EA03650020356305B0BDE8F0832E
S31500003BC04244123206EB820251606206E1D4B8F139
S31500003BD0010F11D025F44035022C45EA0345E3D107
S31500003BE0002BE4D0012102AB00913A46484631460B
S31500003BF0FFF766FF039BDAE7022CD8D1002BD6D05D
S31500003C00F0E700BF002800DA704710B400F1604307
S31500003C100901124CC9B203F5614383F80013104B36
S31500003C2000F1C00144F8202053F8212022F480320C
S31500003C3043F8212053F82130BFF35F8F0122430957
S31500003C409B0000F01F0003F1604303F561438240CF
S31500003C50C3F880211A605DF8044B70473C0D0020C4
S31500003C6000600040FFFFFFFF2DE9F04F01240B7CB1
S31500003C70C34A85B01A44120204FA03F3C0E90223C8
S31500003C80C3F30903B3FA83F300275B0903744B6993
S31500003C90DFF8FCC243618B694160C0E906730E46DA
S31500003CA0CF690546CCF8004BEFF3108184F31088FA
S31500003CB0B44B1A6922F000421A611B6981F310881D
S31500003CC0C3681B070CD0EFF3108184F31088AE4A4B
S31500003CD0C06853889BB223EA0003538081F310889F
S31500003CE000234FF42542AC682260E362E363A364D9
S31500003CF096F80090327A7368B9F1030F4FEAC25210
S31500003D0003F1FF3100F0238184BF194642EA0942DC
S31500003D10E2620020D7E906EC4FF000429FED967B69
S31500003D20D7F838A08DED027B22616261A2616062E4
S31500003D30A062C4F81CE0C4F820C0A1666166B9F1AF
S31500003D40000F40F0E9805B08013B0293012103204C
S31500003D506365A365BAF1000F1DD13B78002B40F0D7
S31500003D60C4805346BA78BAB197F803C096F800E013
S31500003D704FEA0C12BEF1020F42EA8C1200F0F180FB
S31500003D8040F208814FF0030C42EA0C0243EA024378
S31500003D9043F0807300E053466A68D2F81CC09CF872
S31500003DA030E01EF0010F03D0DCF82820013AE2646F
S31500003DB01EF0020F03D0DCF82C20013A226540F2F7
S31500003DC0FF3296F810C0D7F8348022FA0CF212F0BF
S31500003DD0010232D04FF0000CC4F844C0B8F1000F15
S31500003DE000F0928098F802C098F803E04FEA0C6C55
S31500003DF04CEA0E7CD8E902EBBEF1000F00F0AA8077
S31500003E00C4F88820C4F88CE0C4F890B098F819205B
S31500003E1098F818E0120242EA8E1298F81AE042EA7E
S31500003E200E32626498F804204CEA024CD8F810204E
S31500003E302267D8F81420E2670AE0B8F1000F63D0D1
S31500003E4098F803C098F802204FEA0C7C4CEA026C02
S31500003E50C4F838C0BAF1000F0FD198F81C2098F8B2
S31500003E601BC0520642EA4C22134397F8212097F8CA
S31500003E7020C0520742EA4C32134397F83020002AFA
S31500003E8014BF4FF4A0024FF4AA02B9F1010F226445
S31500003E9002D10022E26422656363EB68206321633A
S31500003EA0E3602A46717C96F91200FFF7ABFE2A46BC
S31500003EB097F8221097F92400FFF7A4FE2A4697F8F0
S31500003EC0231097F92500FFF79DFEB8F1000F06D0E5
S31500003ED02A4698F8001098F90100FFF793FE002093
S31500003EE02A4B2B6005B0BDE8F08F7A7896F800C0B3
S31500003EF01301BCF1020F43EA821330D037D90322F3
S31500003F00134343F480732DE70022A263C4F888208C
S31500003F10BAF1000FB1D1A8E7B9F1010F24D0009092
S31500003F202146686802ABF268FFF7CAFD029BB9F149
S31500003F30030F6365A36584BFE3652366039B1906C8
S31500003F4041EA034141F0030041F0010102E742F476
S31500003F508032DDE6BBF1000218BF012250E70922DC
S31500003F60CEE74FF0090C0FE74FF0FF33EEE6002ADD
S31500003F700CBF06220922C3E7FFFFFFFF0000000077
S31500003F80901640000040084000A0164054504700DC
S31500003F9000901640BCF1000F0CBF4FF0060C4FF01E
S31500003FA0090CF1E630B44268034692F91210D26960
S31500003FB0002910DB012401F01F05AC4048092A4DF9
S31500003FC0203045F82040BFF34F8FBFF36F8F00249A
S31500003FD0264840F8214092F92410002910DB0124DC
S31500003FE001F01F05AC4048091F4D203045F8204020
S31500003FF0BFF34F8FBFF36F8F00241C4840F821405A
S3150000400092F92510002910DB012401F01F05AC40B0
S315000040104809154D203045F82040BFF34F8FBFF3B8
S315000040206F8F0024114840F82140526BA2B192F9DB
S315000040300120002A10DB01200B4C510902F01F055C
S315000040402031A84044F82100BFF34F8FBFF36F8F94
S315000040500020064941F822000020D3E9022130BCA5
S31500004060186091605063704700E100E03C0D00204D
S3150000407082680129536B02D043F4807309B143F07F
S31500004080807300205363704782680129536B02D006
S3150000409023F4807309B123F08073002053637047C3
S315000040A0F0B5EFF30382103A1F4C4FFA82FC0CF185
S315000040B0C00E54F82E104FEA8C0321F4803103F120
S315000040C0804344F82E1003F5C043D3F80013174974
S315000040D051F82C0041680978012908D043692BB1B1
S315000040E0BDE8F04000221146FFF7A8BCF0BD002550
S315000040F0D0E90267B760B564F564356554F82E609B
S3150000410002F0FF0265F3104644F82E60D3F8003340
S31500004110BFF35F8F064C4FEA5C1302F01F0291401B
S31500004120603344F82310D9E7006000403C0D0020BE
S3150000413000E100E0037B826863B10C32117801F084
S3150000414001011378C3F340038B42FAD1F023002018
S31500004150137070470832F1E730B4057B846895B177
S3150000416004F10C02117801F001011378C3F3400346
S315000041708B42FAD143681978012907D030BCF12364
S3150000418000201370704704F10802EBE701691B7CFD
S31500004190481E45B120600A4830BC40F82310F12380
S315000041A000201370704780B2208002330448DBB2CF
S315000041B040F82310F12330BC00201370704700BF75
S315000041C0F00C002030B4057B846885B104F10C0145
S315000041D00A7802F001020B78C3F340039342FAD146
S315000041E00369013B35B10020236030BC704704F100
S315000041F00801EDE79BB20020238030BC704700BF6A
S315000042000123F0B4037341600A7C0446120202F1F2
S31500004210804202F568228260EFF3108583F31088EE
S315000042204B48267BC068002E7ED00E7CC6F1030666
S31500004230B340DB4303404648C360C36885F3108838
S3150000424000231373137BC3F340009B07FAD4277B29
S315000042509073A6680D7AC869002F62D006F10C0229
S31500004260C37890F800C003F007030079BCF1000F93
S315000042704ED1002D64D1107100209071537095704D
S315000042804A68636822611B7C501E002F38D030605C
S31500004290304840F8232091F91230002B26DB4A7C67
S315000042A003F160401201D2B200F5614080F80023AC
S315000042B029482A4A40F8234003F1C00052F820500A
S315000042C025F4803542F8205052F82020BFF35F8F46
S315000042D001205A09920003F01F0302F1604202F521
S315000042E0614200FA03F3C2F8803113600020D1E97D
S315000042F005521B4B6561E2612360A061F0BC70470B
S3150000430080B2308002331348DBB240F82320C2E784
S31500004310BCF1500F06BF002543F050034CEA0303DF
S31500004320A9E706F108029BE791F810C00CF1020C10
S315000043305FFA8CFCCCF1030C03FA0CF3DB4379E750
S3150000434085F0020543EA0513DBB2654693E700BF35
S3150000435000400840F00C00203C0D002000600040AA
S31500004360544741002DE9F04184B0EFF30383103B3D
S31500004370214A5BB203F1C00152F8210020F48030DB
S3150000438042F8210052F821201C4A52F82340237B90
S31500004390A5686BB30C3562682B781278DBB2012AFC
S315000043A004D1F42203F0F0032A702B70D4F81480A1
S315000043B0B8F1000F15D0A66901AFDEB196E8070087
S315000043C087E807009B0644BF00233371E369304644
S315000043D03360C047A3691BB197E8070083E807006D
S315000043E02B78DBB203F00F032B7004B0BDE8F0812D
S315000043F00835D0E73E46E5E7006000403C0D00206A
S315000044000346044A59680020C2F8081C9B68C2F893
S31500004410103C704700001740084BD3F8802C0378F7
S31500004420013B032B05D9131E18BF012300200B7077
S315000044307047022300200B70704700BF0000174032
S315000044401C2992BF054B064B603953F82130002BCF
S31500004450B4BF252000201380704700BF001017400E
S3150000446080111740F0B500230546D1E903022B70F1
S3150000447029614969C5E906326861EFF310800123B5
S3150000448083F310886B4BDA6822F48032DA60DA68DC
S3150000449080F310880A7F02F00302012A0AD1EFF3A3
S315000044A0108082F310881A6922F000421A611B6993
S315000044B080F3108800230A6A5F48C260036043687D
S315000044C0002BFCD10124CA6982605B4A04605068F3
S315000044D00128FCD1D1E905C70024486A564E10646C
S315000044E05464D1F89C40081FC2F8604291F890408D
S315000044F004F0070EC4F30214C2F880E2C2F88C423C
S31500004500D1F89440C2F88842D1F89840C2F8944253
S31500004510C2F840C3C2F8447350F8042F03F1B00444
S31500004520013342F48032042B46F82420F4D10B7C6C
S31500004530424C1804002B18BF40F00100C6F80003D7
S31500004540486E3F4BC6F86402886E01F19C02C6F8BD
S31500004550B00252F8040F043343F8040C106AA34265
S31500004560D861506C1864F4D1002240F2FF144FF069
S31500004570010E2B69D1F8E0605B690F8FD86E2E4B68
S3150000458000F1280CC3F8A0634E8FC3F80024C3F8CB
S315000045900424C3F80824C3F80C24CA6BC3F8C074F7
S315000045A0C3F8C464C3F8C8240A6C264EC3F8CC24E6
S315000045B04A6CC3F8D0248A6CC3F8D424CA6C00F1C0
S315000045C01401C3F8D8242048C3F8F04C1F4C11F945
S315000045D0013B002B21DB11F8152CF7181201D2B282
S315000045E087F8002303F1C00240F8235054F82270E4
S315000045F027F4803744F8227054F82220BFF35F8FE7
S315000046005A09920003F01F0302F160420EFA03F307
S3150000461002F56142C2F8803113606145D7D10322A9
S315000046204FF44034044B0A499C6200201A625A62D5
S315000046306962F0BD00400840000017408003174043
S315000046406003174000E100E03C0D002000600040E0
S315000046504843444100222DE9F04F81468B460169CB
S315000046608A4B8B4C496985B0027043F8102BA342E4
S31500004670FBD1CA6A874B8848DA640A6B01F18C045D
S315000046801A654A6B401A5A650A6DC3F8C0214A6D0D
S31500004690C3F8C4218A6DC3F8C821CA6DC3F8CC21FA
S315000046A00A6EC3F8D02101F16C03C21853F8041F37
S315000046B09C421160F9D10027C9E901779BF80020D7
S315000046C0002A00F0E08049465B46B946BB461A46DA
S315000046D00846724EDFF8D0A14FF0010C536853F82C
S315000046E0275029782B790CFA01FC8B404BEA030BF7
S315000046F0D5E9013423F07F4323F0FF031FFA8CFC36
S31500004700234349EA0C0940F0B780836843EA0C0367
S3150000471083600B0195F805C003F1804303F5B813D8
S31500004720C3F8C0C095F806C0C3E931C45C4C2B6918
S3150000473044F82130EB78002B4FD00024DFF8548169
S31500004740009009E0622902D10121C8F82013E87817
S315000047500134E1B288423FD9A96951F82430197869
S315000047605868090101F1804101F5B811C1F8000648
S315000047709868C1F80406D868C1F808061869C1F82F
S315000047800C065968C1F306216129DBD13178C909C4
S31500004790DDD10192EFF3108C012181F31088DAF854
S315000047A00C0020F48000CAF80C00DAF80C008CF338
S315000047B0108896F800C01E204CF0800C86F800C0C9
S315000047C000F096FA3178013441F010013170E87842
S315000047D0E1B28842019ABFD8009813780137F9B23E
S315000047E08B423FF679AF044611465A468B462169FD
S315000047F048464F69A14697F82210B7F820C0CC4327
S3150000480081F00201C1F340018DF80D1004F00101A1
S31500004810CCF30A0C8DF80C109BB34FEA830ED9F833
S3150000482004300FFA8CFC4FEA4C0C4E374BB3002386
S315000048301E46DBF8048058F8031037F8025F497803
S315000048400CEB05041031694411F8041C01B92C1D48
S31500004850A64203F1040338BF26467345EBD1013661
S315000048600C4BC9F80C60986400200E49DA65C9F84B
S31500004870201005B0BDE8F08F436843EA0C0343609F
S3150000488047E70126ECE701261046E9E70006174050
S315000048905008174000001740D401174000300F4061
S315000048A00002174048434441004008402DE9F043C8
S315000048B091B09DF86050EFF30384204E103C64B233
S315000048C056F8246077699FB3CDE90423F369D6F8D7
S315000048D018900193FF238DF80200ADF81810ADF87B
S315000048E000508DF80830B9F1000F25D0CC46C846E7
S315000048F0BCE80F00EE4608AD0FC59CE80F0085E842
S315000049000F00BEE80F00A8E80F009EE80F008CE835
S315000049100F004846B847B36953B19C460DF1200EC7
S31500004920BEE80F00ACE80F009EE80F008CE80F0011
S31500004930204611B0BDE8F083E946EAE73C0D0020C9
S3150000494000221949C36830B484460270C1F8082CA5
S315000049501BB1D1F8802C013BFBD1134AD2F8803C25
S315000049605BB140F20113C2F8603CD2F8803CD2F849
S31500004970801C43EA5103DB07F7D403226FF060453E
S3150000498040F2E7140121084B0020C3F88C2CC3F831
S31500004990B42CC3F8B85CC3F8C44C8CF8001030BC17
S315000049A0C3F8002C704700BF00001740F0B52A4B33
S315000049B083B0D3F8881CD3F8A02C11F0010F14BFD4
S315000049C00720032012F001021BBFD3F8A42C0720F6
S315000049D01346D3F8B03CEFF3038403256FF0604C25
S315000049E040F2E7171D49103C64B251F824601A4999
S315000049F0C1F88C5CC1F8B45CC1F8B8CCC1F8C47C11
S31500004A00317805290AD9A84201D00621317000253E
S31500004A10FF2100910021FFF749FF09E0104D03280F
S31500004A206F5C104D377055F82150EED1042FEFD83A
S31500004A30012109480C4B04F1C002C0F89C1C53F834
S31500004A40221021F4803143F8221053F82230C0F8A6
S31500004A50005C03B0F0BD00BF000017403C0D002015
S31500004A60A89200009092000000600040F0B52B4B29
S31500004A7083B0D3F8882CD3F8A01C12F0020F18BF0D
S31500004A800720C1F3400208BF0320890745BFD3F8BA
S31500004A90A42C07201346D3F8B03CEFF30384032578
S31500004AA06FF0604C40F2E7171D49103C64B251F8B4
S31500004AB024601A49C1F88C5CC1F8B45CC1F8B8CC62
S31500004AC0C1F8C47C317805290AD9A84201D006214B
S31500004AD031700025FF2100910021FFF7E7FE09E074
S31500004AE0104D03286F5C104D377055F82150EED1EC
S31500004AF0042FEFD8022109480C4B04F1C002C0F87C
S31500004B009C1C53F8221021F4803143F8221053F8EC
S31500004B102230C0F8005C03B0F0BD00BF00001740B3
S31500004B203C0D0020A892000090920000006000401A
S31500004B3010B5FF2482B0002200230121009400203A
S31500004B40FFF7B4FE0121074A074BC030C2F8541DD7
S31500004B5053F8202022F4803243F8202053F82030E6
S31500004B6002B010BD000017400060004010B5FF24E1
S31500004B7082B000220023022100940020FFF796FE57
S31500004B800221074A074BC030C2F8541D53F82020B3
S31500004B9022F4803243F8202053F8203002B010BDB2
S31500004BA00000174000600040064B074993F82600B6
S31500004BB01A6A51F82030C2F302620449D3400B60EE
S31500004BC0704700BF00E0014058000020C40E0020DE
S31500004BD04AF2035001233949394A70B4A1F8FE0359
S31500004BE0A2F80431B2F804319BB2002BFAD10121AC
S31500004BF04FF400453348344C03618560A2F8001138
S31500004C00A160216009212024304E05F1987505F533
S31500004C102D45C0E90056294A92F82650156A82F8B1
S31500004C20134482F8A21082F832302949294BC16018
S31500004C30436192F83C301907FBD54FF43C540023EE
S31500004C401E49148582F82A3091F83C309B06FBD524
S31500004C5005234FF0010C1A4E1F4D86F81CC10D623C
S31500004C6081F8263091F826301C4C50F82330086A1B
S31500004C70124AC0F30260C340236091F8753043F0D6
S31500004C80400381F8753092F87530DB09FBD0C520FA
S31500004C9082F86D3082F8750092F87530074903F096
S31500004CA0BF0382F8753091F87530DB09FBD170BC13
S31500004CB04FF42543A1F8FE33704700BF00E00140E2
S31500004CC000C00140580000200070004000127A0029
S31500004CD080969800001C4E0E21120220C40E002061
S31500004CE0704700BFA0F101000028FBD1704700BF4C
S31500004CF04FF47A7310B400FB01F1114C114A246889
S31500004D00B2FBF4F2A1FB03043CB9B0FBF2F080085D
S31500004D1060B15DF8044BFFF7E5BF9200B1FBF2F11D
S31500004D20A1FB03132BB908460028F2D15DF8044B0A
S31500004D3070474FF0FF3C5DF8044B6046FFF7D2BF6B
S31500004D40C40E002000CA9A3B70B500240B4B0C4ED3
S31500004D50B3F82021B3F84051ADB2154025FA04F35B
S31500004D60DB0704D556F82430E0B203B19847013486
S31500004D70102CF3D1014BA3F8305170BD00600040F8
S31500004D80F80C002030B5032085B000F07DF86FF0F8
S31500004D90FF054FF0FF31204C002322464FF0010E55
S31500004DA01E488564CDE90111039104F1C00532F86E
S31500004DB0020F590960B104A800EB810151F80C0CEF
S31500004DC003F01F0C0EFA0CFC20EA0C0041F80C0C48
S31500004DD0954203F10103EAD10199114B0F4A0320D1
S31500004DE01167C3F8801202995167C3F884120399B8
S31500004DF09167C3F8881200F017F80023094834F8C1
S31500004E00022F03F1C00101330AB140F82120A54267
S31500004E10F5D105B030BD00BF6691000000800040AE
S31500004E2000E100E000600040EFF31081012383F30E
S31500004E301088124B33F8102092B22AB133F81020A2
S31500004E40013A92B223F8102033F810309BB293B98E
S31500004E500B4A10B4B2F8FE330A4C9BB234F8100079
S31500004E6043F4254323EA0003A2F8FE3381F31088B6
S31500004E705DF8044B704781F310887047BC0E002024
S31500004E8000E00140B092000030B4EFF3108101233E
S31500004E9083F310880E4A32F810309BB26BB90D4C72
S31500004EA00D4DB4F8FE3335F810C09BB243EA0C033F
S31500004EB043F425439BB2A4F8FE3332F81030013395
S31500004EC09BB222F8103081F3108830BC704700BFC7
S31500004ED0BC0E002000E00140B092000000BE70470A
S31500004EE008B500F003F8FEF761FBFEE74FF4700229
S31500004EF070B5304B304CC3F888209C60EFF31081BE
S31500004F00012585F310882D4B9A6822F480129A6049
S31500004F109B6881F310880020FEF73CFBFFF758FEE4
S31500004F202846FEF737FB2368A3F5805383F30A88E8
S31500004F302348244A0021121A02F014FA2248234A6E
S31500004F402349121A02F01CFA224D234B5B1B002B3D
S31500004F5007DD00249E1055F8043B01349847A6420D
S31500004F60F9DCFFF721FE0320FFF78EFF00234FF643
S31500004F70FF701A4903F10C020133102B21F82200AD
S31500004F80F8D100240320FFF74FFF0320FFF77CFF33
S31500004F90134B03205C609C60DC601C61FFF744FFE0
S31500004FA00220FEF7F7FAFFF7EDFE2046BDE8704057
S31500004FB0FFF796BE00ED00E000000000004008404C
S31500004FC078000020B01000200000002058000020CB
S31500004FD0FC960000500000205400002000FD014017
S31500004FE000000E409D4B70B5D3F84829120E12F002
S31500004FF0190F1FD0002501244FF0FE0E4FF6C57C79
S31500005000974A9848C3F86829D3F824190143C3F886
S31500005010241995490D70C3F86829D3F82429024349
S31500005020C3F82429914B1C80914B83F804E0A3F824
S3150000503000C070BDD3F8502912F47C5FF9D08A48BD
S3150000504002780132D2B20270D3F80019531ECAB2E6
S315000050500B2B00F28981DFE803F06A060B061219B2
S31500005060242B353C424583490B7853400B7070BD69
S31500005070804981480B78027053400B7070BD7D49A2
S315000050807E480B78026053400B7070BD794C090264
S315000050907A48237889B25340026823700A43026033
S315000050A070BD744C75480904237801F47F01F2E75A
S315000050B0704D724C2B782068534040EA01612B708A
S315000050C0216070BD6B496E480B78026053400B70CF
S315000050D070BD684C09026A48237889B2DBE7654CE3
S315000050E06748E0E74FF0000C624D654C2B7880F87E
S315000050F000C053402268FF2B42EA01612B702160F9
S3150000510024D00A234FF6C5740120544A5849544DF9
S31500005110C2F868590B71D2F8243943F4000343F4FA
S315000051200043C2F82439514B0C80188070BDAA2A5E
S315000051304FF0000301D0037070BD4E4C4E484F49EE
S3150000514022704F4A03700B60136070BD4A4B1B7888
S31500005150033B1F2B21D8DFE813F0ED00DC00CB006A
S31500005160BA00A900990070005F00520020002000DC
S315000051702000200020002000200020002000200029
S315000051802000200020002000200020002000200019
S31500005190200020004000200022000B23B2E7374BFE
S315000051A01B68DAB20B2A00F2DB80C3F30723082B55
S315000051B000F2D88001F16043B3F5803F80F0CE80E5
S315000051C000254FF6A57401202E4E294B46F82210D5
S315000051D0264A5D601C80108070BD102201200025CB
S315000051E04FF6A574224B25491A72204A9D801080DD
S315000051F00A681C80C2F308020A60DA8070BD4FF6A6
S31500005200A57401201D4A204B1168194A4B401749C5
S3150000521053601480088070BD184B1B6803F1604210
S31500005220B2F5803F80F09A804FF6A574012219608E
S315000052300F480E4B04801A8070BD104B1B6803F19B
S315000052406042B2F5803F80F089804FF6A574012256
S3150000525019800748054B04801A8070BD00801140F4
S31500005260100007BD00808000F40E00203C0F0020D7
S31500005270400F0020F30E0020F20E0020E80E002062
S31500005280EC0E00200C0F002025106319434B1B6801
S3150000529003F16042B2F5803F60D24FF6A574012259
S315000052A019703F483F4B04801A8070BD3B4B1A680B
S315000052B002F16043B3F5803F50D24FF6A57001214D
S315000052C01468374B374A5C601880118070BD334BC9
S315000052D01A6802F16043B3F5803F3FD24FF6A570DE
S315000052E0012114882E4B2F4A5C601880118070BDF6
S315000052F02A4B1A6802F16043B3F5803F2ED24FF66F
S31500005300A57001211478264B264A5C60188011800E
S3150000531070BD40F232344FF6A57001211F4A136862
S31500005320C3F3080313601E4AD3801E4B948010807B
S31500005330198070BD0121492500244FF6A5701A4A2F
S31500005340174B12781D7330325A73164ADC8111805E
S315000053501649174A1880C3E9011270BD8723D1E6A2
S315000053608923CFE68A23CDE600234FF0900C4FF633
S31500005370C575012403700F4A09490F4B81F804C013
S31500005380C2F86839D2F8243943F4000343F40043E1
S31500005390C2F82439034B0D801C8070BDE80E002036
S315000053A0400F00203C0F0020F10E002052413654E1
S315000053B0322F534300801140100007BD70B5FFF730
S315000053C011FEA149B1F90030012B3ED09F4B1B784D
S315000053D0012B0CD0022B00F0CD80032B00F0AB800C
S315000053E09B4B1D78D3E90020D3E902143CE0994A8F
S315000053F01178002940F086804FF656751370964A4C
S31500005400934B9168D2E90040096824680068C3F8A4
S315000054100240C3F80A10C3F80600D2E903100C686C
S3150000542000688E49C3F80E40086050691D80006808
S3150000543056254860D2E90602046810681A68C1E970
S315000054400240D3E90101DC680EE00024844E804B63
S31500005450D6E900200C80C3E90020B168F468368ADA
S31500005460D5B299601E82DC60504048405A7C197C57
S3150000547060405140414081EA10617A4A81EA104118
S3150000548081EA10215970C2F804595978C2F80419F2
S315000054909978C2F80419D978C2F804191979C2F8AA
S315000054A004195979C2F804199979C2F80419D979F5
S315000054B0C2F80419197AC2F80419597AC2F80419FB
S315000054C0997AC2F80419D97AC2F80419197BC2F874
S315000054D00419597BC2F80419997BC2F80419D97BBF
S315000054E0C2F80419D2F854190F29FBD8187C5D4963
