S02B000052413654325F4D43494856315F49504D5F4C4553535F464F435F57484F4C455F5046435F4532535FCE
S3150000000000040020150B00008D090000110B0000F4
S31500000010110B0000110B0000110B0000110B00006A
S31500000020000000000000000000000000110B0000AE
S31500000030110B000000000000110B0000110B000066
S315000000408106000029070000D907000015080000F6
S3150000005001040000C904000055040000C9040000A2
S31500000060910100002D020000510200002103000052
S315000000700348044B834202D0034B03B11847704731
S3150000008084A2000184A2000100000000064B07497B
S31500000090C91A891048BF0131491003D0044B0BB16E
S315000000A001481847704700BF84A2000184A20001DE
S315000000B00000000010B5064C237843B9FFF7D8FFBF
S315000000C0044B13B10448AFF300800123237010BD25
S315000000D01C0400200000000084A2000108B5054BA6
S315000000E01BB105490548AFF30080BDE80840FFF79E
S315000000F0CDBF00BF000000002004002084A2000144
S31500000100704700BF08B5FFF7FBFF002008BD00BF22
S315000001104369C2699A420FD0D0E90221A9B190F889
S3150000012020C0BCF10F0F08D951F8231011604FF011
S3150000013000510133916643617047BCF1070F03D943
S3150000014031F813101160F2E7C95C1160EFE700BFE8
S3150000015030B5836A85B004468C4601ADABB193E8F1
S31500000160070085E8070062681846117883F804C01E
S31500000170E26A19609A60636A9847A36A1BB195E8B8
S31500000180070083E8070005B030BD2B46EBE700BF4C
S3150000019010B5EFF30383103B214A5BB203F1C001B4
S315000001A052F8210020F4803042F8210052F8212034
S315000001B01C4A52F82300D0E9063293420FD0016957
S315000001C0826831B390F820C0BCF10F0F1AD91468B9
S315000001D041F823404FF00041013391668361FFF7F8
S315000001E097FFD0E906239A4200D010BD436893F9E1
S315000001F00330012203F01F000B495B09824041F8DE
S31500000200232010BDBCF1070F05D9146821F813404F
S31500000210E0E71168DEE71268CA548268DAE700BFD1
S31500000220006000407804002000E100E0EFF3038363
S31500000230103B064A5BB2C03352F8231021F48031DA
S3150000024042F8231052F82330704700BF0060004088
S3150000025030B4EFF30382103A2E4953B203F1C000D3
S3150000026051F8204002F0FF0224F4803441F8204087
S3150000027051F82010284951F823008168096D890139
S3150000028005D54168497A012901D030BC7047012162
S31500000290224C5B0902F01F02203301FA02F244F8F5
S315000002A02320BFF34F8FBFF36F8F436893F902305C
S315000002B05A0903F01F0301FA03F3203244F82230EF
S315000002C0BFF34F8FBFF36F8F8468124BA26822F083
S315000002D00102A260426892F9022002F1C00453F8BA
S315000002E0245025F4803543F8245053F82430BFF3C6
S315000002F05F8F53099B0002F01F0203F1604301FA6E
S3150000030002F203F56143C3F880211A6030BCFFF79F
S315000003101FBF00BF006000407804002000E100E03D
S3150000032070B5EFF30383324A103B5CB252F8246097
S31500000330012273682F4893F90230590903F01F030D
S31500000340203102FA03F340F82130BFF34F8FBFF399
S315000003506F8FB1688B6823F001038B607368264941
S3150000036093F9023003F1C00051F8205025F480358E
S3150000037041F8205051F82010BFF35F8F03F01F01A2
S315000003805B099B0003F160438A4003F56143C3F8B0
S3150000039080211A60B368194A1D6D9A662A0112D423
S315000003A0EB0116D405F0A055B5F1A05F1AD0124A9C
S315000003B004F1C00352F8231021F4803142F82310CF
S315000003C052F8233070BD05213046FFF7C1FEEB0120
S315000003D0E8D50421304605F0A055FFF7B9FEB5F182
S315000003E0A05FE4D108213046FFF7B2FEDFE700BF89
S315000003F07804002000E100E000600040000080FD7D
S3150000040030B583B0EFF30383104A103B5CB252F869
S3150000041024502869B8B1036801936A69EB680260E1
S3150000042098472B6913B12B69019A1A60084A04F19F
S31500000430C00352F8231021F4803142F8231052F8F9
S31500000440233003B030BD01A8E7E700BF78040020E1
S315000004500060004010B582B0EFF30384184B103CE7
S3150000046064B253F82410174A4879135C03F0030367
S31500000470032B11D0C03452F8243023F4803342F8D1
S31500000480243052F824308B6823B1CA68CDE90020A5
S315000004906846984702B010BD8B6823B1CA68CDE99B
S315000004A0002068469847074BC03453F8242022F4AE
S315000004B0803243F8242053F8243002B010BD00BF28
S315000004C078040020006000402DE9F04184B0EFF38D
S315000004D00383103B214A5BB203F1C00152F82100AD
S315000004E020F4803042F8210052F821201C4A52F8AC
S315000004F02340237BA5686BB30C3562682B78127892
S31500000500DBB2012A04D1F42203F0F0032A702B7027
S31500000510D4F81480B8F1000F15D0A66901AFDEB18A
S3150000052096E8070087E807009B0644BF002333715F
S31500000530E36930463360C047A3691BB197E80700FB
S3150000054083E807002B78DBB203F00F032B7004B0AF
S31500000550BDE8F0810835D0E73E46E5E7006000409B
S315000005607804002003461A78052A3AD8DFE802F014
S3150000057035291C170303052010B41A691A49526954
S3150000058092F8902002F00704C2F30212C1F88042EA
S31500000590C1F88C2218705DF8044B002070470222C7
S315000005A04FF440701A70704704210F4A1970D2F840
S315000005B08C124907D7D007234FF48060C2F88C32DB
S315000005C070470321084A1970D2F880124807CAD02A
S315000005D007230420C2F880327047012203201A70D4
S315000005E070470020704700BF000017402DE9F04318
S315000005F091B09DF86050EFF30384204E103C64B236
S3150000060056F8246077699FB3CDE90423F369D6F8D9
S3150000061018900193FF238DF80200ADF81810ADF87D
S3150000062000508DF80830B9F1000F25D0CC46C846E9
S31500000630BCE80F00EE4608AD0FC59CE80F0085E844
S315000006400F00BEE80F00A8E80F009EE80F008CE838
S315000006500F004846B847B36953B19C460DF1200ECA
S31500000660BEE80F00ACE80F009EE80F008CE80F0014
S31500000670204611B0BDE8F083E946EAE77804002099
S315000006802DE9F043254B83B0D3F8881CD3F8A05C42
S3150000069011F0010F14BF0727032715F001053BD002
S315000006A0D3F8A45CD3F8B03C07279946EFF303834D
S315000006B01B4A103B5CB252F824804046FFF752FFBB
S315000006C0032F064623D00623002688F80030FF2194
S315000006D02A4600914B4638460021FFF787FF012046
S315000006E00E4A1049C2F89C0C04F1C00351F823408D
S315000006F024F4803441F8234051F82330D2F8803C6A
S31500000700002BFBD1C2F8006C03B0BDE8F08398F86B
S315000007100030042BE3D9DAE7A946C7E70000174003
S3150000072078040020006000402DE9F043274B83B099
S31500000730D3F8881CD3F8A02C11F0020F14BF4FF089
S3150000074007084FF00308C2F3400592073BD5D3F8DC
S31500000750A45CD3F8B03C4FF007089946EFF3038347
S315000007601B4A103B5CB252F824703846FFF7FAFE7B
S31500000770B8F1030F064622D0062300263B70FF2160
S315000007802A4600914B4640460021FFF72FFF0220E4
S315000007900E4A1049C2F89C0C04F1C00351F82340DC
S315000007A024F4803441F8234051F82330D2F8803CB9
S315000007B0002BFBD1C2F8006C03B0BDE8F0833B7898
S315000007C0042BE4D9DBE7A946C8E700BF00001740C1
S315000007D0780400200060004010B5FF2482B000229B
S315000007E00023012100940020FFF700FF0121074AA2
S315000007F0074BC030C2F8541D53F8202022F4803233
S3150000080043F8202053F8203002B010BD00001740F6
S315000008100060004010B5FF2482B0002200230221B0
S3150000082000940020FFF7E2FE0221074A074BC03082
S31500000830C2F8541D53F8202022F4803243F82020B9
S3150000084053F8203002B010BD000017400060004091
S31500000850064B074993F826001A6A51F82030C2F36E
S3150000086002620449D3400B60704700BF00E00140BC
S3150000087000040020B40400204AF203500123394941
S31500000880394A70B4A1F8FE03A2F80431B2F8043173
S315000008909BB2002BFAD101214FF400453348344C6A
S315000008A003618560A2F80011A1602160092120245E
S315000008B0304E05F1987505F52D45C0E90056294AD3
S315000008C092F82650156A82F8134482F8A21082F82C
S315000008D032302949294BC160436192F83C301907EF
S315000008E0FBD54FF43C5400231E49148582F82A3068
S315000008F091F83C309B06FBD505234FF0010C1A4EB0
S315000009001F4D86F81CC10D6281F8263091F82630FD
S315000009101C4C50F82330086A124AC0F30260C340E8
S31500000920236091F8753043F0400381F8753092F8F2
S315000009307530DB09FBD0C52082F86D3082F8750072
S3150000094092F87530074903F0BF0382F8753091F8C5
S315000009507530DB09FBD170BC4FF42543A1F8FE339B
S31500000960704700BF00E0014000C0014000040020C5
S315000009700070004000127A0080969800001C4E0E0F
S3150000098021120220B4040020704700BF70B5002475
S315000009900B4B0C4EB3F82021B3F84051ADB21540C5
S315000009A025FA04F3DB0704D556F82430E0B203B188
S315000009B098470134102CF3D1014BA3F8305170BD88
S315000009C0006000403804002030B5032085B000F0F8
S315000009D075F800256FF0FF014FF0FF301B4B1C4CE4
S315000009E0996422462B464FF0010ECDE90100039093
S315000009F032F8021B0EFA03FC013311B1012520EA7D
S31500000A000C000C2BF4D1F5B10190124B0F4A106774
S31500000A10C3F88002029903205167C3F88412039930
S31500000A209167C3F8881200F019F800230A4834F8D1
S31500000A30022B03F1C00101330AB140F821200C2B2F
S31500000A40F5D105B030BD4FF0FF30DEE70080004045
S31500000A508C0C000000E100E000600040EFF3108124
S31500000A60012383F31088124B33F8102092B22AB177
S31500000A7033F81020013A92B223F8102033F81030E0
S31500000A809BB293B90B4A10B4B2F8FE330A4C9BB230
S31500000A9034F8100043F4254323EA0003A2F8FE339A
S31500000AA081F310885DF8044B704781F31088704716
S31500000AB0A804002000E00140FC0C000030B4EFF375
S31500000AC01081012383F310880E4A32F810309BB24E
S31500000AD06BB90D4C0D4DB4F8FE3335F810C09BB212
S31500000AE043EA0C0343F425439BB2A4F8FE3332F8E1
S31500000AF0103001339BB222F8103081F3108830BCDD
S31500000B00704700BFA804002000E00140FC0C000074
S31500000B1000BE704708B500F037F8FFF7F3FAFEE7B6
S31500000B20F8B5174F05463E68A6B17C6806EB460643
S31500000B3004EB860602E00C34B4420BD0637AAB4277
S31500000B40F9D1D4E900020021121A0C3400F088F819
S31500000B50B442F3D1BE6896B1FC6804EB061602E017
S31500000B601034A6420BD0637BAB42F9D1D4E9000224
S31500000B70A168121A103400F07BF8A642F3D1F8BD32
S31500000B80A40C0000704700BF4FF470012C4B2D4A97
S31500000B9070B5C3F888109A60EFF31081012484F3CE
S31500000BA01088294B9A6822F480129A609B6881F318
S31500000BB010880020FFF7E6FFFFF75EFE2046FFF7EE
S31500000BC0E1FF224B83F30A880020FFF7A9FFFFF716
S31500000BD03FFE0320FFF772FF00234FF6FF701C490C
S31500000BE003F10C0201330F2B21F82200F8D1002467
S31500000BF00320FFF733FF0320FFF760FF154B0320A9
S31500000C005C609C60DC601C61FFF728FF0220FFF738
S31500000C10B9FF0120FFF784FF0F4D104B5B1BA3426A
S31500000C204FEAA30605DD55F8043B01349847A64272
S31500000C30F9DCFFF7C9FEBDE870400020FFF7A4BE4F
S31500000C4000ED00E000000000004008400000002029
S31500000C5000FD014000000E40600D0000640D000024
S31500000C6002440346934200D1704703F8011BF9E79B
S31500000C700A44431E914200D1704710B511F8014B4A
S31500000C80914203F8014FF9D110BD000063017101D3
S31500000C9059015A01BA00400003004300C901CA01C4
S31500000CA0CD01CC0102000000E40C000002000000AF
S31500000CB0C40C000001000000BC0C00000000002075
S31500000CC000000020000000200000002000000008B6
S31500000CD00000020300000020000000207000000059
S31500000CE000000103000000200000002000000003B7
S31500000CF01C040020B80400200000000301000200CC
S31500000D0008001000200000004275696C74207769A5
S31500000D1074682052656E6573617320416476616EF6
S31500000D2063656420466C657869626C6520536F66FE
S31500000D307477617265205061636B616765207665C3
S31500000D407273696F6E20362E322E3000362E322E9A
S30D00000D5030000000000002065D
S30900000D58F8B500BF25
S30900000D5CF8B500BF21
S30900000D60DD000000AC
S30900000D64B5000000D0
S3090100A100FFFFFFFF58
S3090100A200FFFDF0FF68
S3090100A280F8F8F0FFF4
S70500000B15DA
