S010000052414D505F4941522E73726563A9
S113000048040020A19400001F030000AD940000E8
S1130010AD940000AD940000AD940000AD940000D8
S1130020000000000000000000000000AD9400008B
S1130030AD94000000000000AD940000AD940000F9
S11300409D2D00000D2E0000412E0000992E000071
S1130050152F0000F52B0000C92C0000712F0000A3
S1130060E12F0000353000005330000071300000F3
S11300708F300000AD30000037370000491C00000D
S1130080000096430000803F000040410000803F94
S1130090000048430000803F040000006666A63F5D
S11300A0C364AA3AC364AA3A4356373C6705763612
S11300B08FC2D53FF805002060A10000414901200E
S11300C0088008880028FCD101203F4908800120CD
S11300D03E49086001203E49086070473E48007868
S11300E0C0B23E490968C1F302613A4A52F820207D
S11300F0CA403B4B1A60704780B5012039490870EB
S1130100394836490860052033490870FFF7E6FF8F
S113011001BD80B52F4835490160354941604FF430
S1130120004181603349C16000210161324941616C
S1130130FFF7D4FF01BD10B5304C4AF203502080C4
S1130140FFF7BCFFFFF7E5FF20202D4908700920C9
S11301502C49087000F034F800202B4908702B4813
S113016001780907FBD54FF43C51294A118000213D
S1130170284A117001788906FCD5FFF7BDFF0523D5
S113018001222549254800F004F84FF42540208039
S113019010BD10B4047854F0400404700478E409E9
S11301A0012CFBD10A7053F0C0040470047814F0DD
S11301B0BF0404700478E409002CFBD110BC704720
S11301C07047000004C1014000C1014008700040B4
S11301D0007000404804002026E0014020E0014077
S11301E00C0E00201CC1014021120220002D3101FF
S11301F000127A0080969800001C4E0EFEE3014027
S113020013E40140A2E0014032E001403CE001403F
S113021028E001402AE001406DE0014075E0014022
S11302202DE9F14F82B08B460026029C0BFB04F4AF
S11302302A48D0F800A02A48824513D3294810EB55
S11302400A002949B0FBF1F7A7FB040100220123AE
S1130250994205D301D8904202D35FF0FF3536E0CE
S1130260050034E02148B0FBFAF74FF47A7000211E
S11302700025A0FB042300FB053301FB0433CDE977
S11302800023DDE9008900220123994508D801D320
S1130290904505D2DDE90001B0FBF7F5AD0816E0A5
S11302A0BA00B4FBF2F4002522002B00A0FB028963
S11302B000FB039901FB029900200121894504D820
S11302C001D3804501D2454601E05FF0FF35002DA2
S11302D002D0280000F00CF8BDE8F78F0C0E0020C7
S11302E000127A00FF083D0000093D0000CA9A3B55
S11302F001380028FCD170477047000010B5040095
S113030014492000C0B251F82000002806D0200073
S1130310C0B22200D2B251F82210884710BD70B585
S11303200D4806880D480488344000252800C0B2D2
S113033010280BDA0121A940200080B2084203D022
S11303402800C0B2FFF7DAFF6D1CEFE70448048011
S113035070BD000020050020206100404061004085
S1130360306100407FB5032000F084F87FF0FF0087
S1130370254908600C24FF256E462A002100300020
S113038000F0A4F80020102815D2204931F91010EB
S113039089B200290DD00200520910F01F036946EA
S11303A051F82240012515FA03F334EA030341F816
S11303B02230401CE7E7164C002103290BD2684683
S11303C050F8212044F8212050F82100114A42F825
S11303D02100491CF1E7032000F020F860201128D7
S11303E001D310210800002181420CD2074A32F9BE
S11303F011309BB2002B04D032F91120064B43F884
S11304002120491CF0E77FBD488000407CA100000A
S11304107080004080E300E00063004030B40023BB
S1130420EFF31082012181F31088254C0100C9B239
S113043034F81110002908D00100C9B234F81110A1
S1130440491E0300DBB224F813100100C9B234F8CA
S1130450111000290AD11B4B1C8854F425441A4955
S11304600500EDB231F815108C431C8082F310881E
S113047030BC704770B40024EFF31082012181F383
S113048010880F4B0100C9B233F8111000290AD1AA
S11304900C4C25880C490600F6B231F816100D43B1
S11304A055F4254525800100C9B233F81110491CC3
S11304B00400E4B223F8141082F3108870BC70476F
S11304C0A4050020FEE301400497000062F30F221C
S11304D062F31F42401810F0030308D0C91A1FD357
S11304E0DB0748BF00F8012D28BF20F8022D1300B8
S11304F030B414461546103928BF20E93C00FAD818
S1130500490728BF20E90C0048BF40F8042D8900A2
S113051028BF20F8022D48BF00F8012D30BC7047D9
S1130520C91818BF00F8012DCB0728BF00F8012D0A
S11305307047000010B504002000C0B2022803D1A7
S11305400249034800F042F810BD00BF789F000044
S1130550B8050020644A03009BB21B1240214B43A0
S1130560D11880B200F0FF0051F82000C0F3400021
S113057070470021EFF31082012080F310885B4B59
S11305801868002804D15A480021017040210170E4
S11305901868401C186082F3108870470022EFF33B
S11305A01081012080F31088504B1868002802D075
S11305B01868401E18601868002804D14C480022AE
S11305C002708022027081F31088704770B50400B5
S11305D00D00260047483060280000F036F800205F
S11305E070BD70B504000D001600280080B2FFF73E
S11305F0B1FF3070002070BD2DE9F04103000024EC
S1130600002531F0FF0601F0FF0C012717FA0CF763
S11306101000C0B2002801D13D0000E03C00364883
S1130620B6460FFA8EFECEF3072E5FEA4E1E10EB8F
S11306300E0E280080B2A0461FFA88F858EA004837
S1130640CEF808800020BDE8F08170B504002600D3
S1130650FFF78FFF00252800318880B288420ED230
S11306607068290089B250F8311070682A0092B27B
S113067010EBC200808800F005F86D1CEBE7FFF773
S11306808DFF70BD10B4CA031ED5174B0400A4B26D
S11306902412402254431A190400A4B204F0FF04A3
S11306A012EB8402146834F4803414600400A4B29D
S11306B02412402254431A1903009BB203F0FF038F
S11306C031F4803442F82340074B0400A4B22412CE
S11306D0402254431A1903009BB203F0FF0342F86B
S11306E0231010BC7047000000F801406005002092
S11306F00CFD014054524F5000F00140DFF86017E8
S11307000870FF224A700121DFF8582711807047D2
S113071080B5A520FFF7F2FF01BD10B50400DFF896
S113072040070471DFF84007DFF840170860DFF87E
S11307304007016841F4000151F400410160C52003
S1130740FFF7DCFF10BD38B5DFF8280705682D0E6C
S113075015F019052800C0B2002814D0DFF80807E6
S1130760DFF808170860DFF80807016841F40001A2
S113077051F4004101600020DFF8FC160870FE20EF
S1130780FFF7CBFFD0E0DFF8F4060068C0F30520E4
S1130790002800F0C980DFF8E0060178491C0170E8
S11307A0DFF8DC1609680C000178012915D0C0F0C7
S11307B0B68003292FD028D305293BD034D3072969
S11307C051D042D309296AD05BD30B2900F0808031
S11307D070D30C2900F08A80A1E02100C9B2AA29B3
S11307E010D1AA20DFF89C1608700020DFF89816B4
S11307F008700020DFF8941608600020DFF89016D7
S1130800086001E0002101708EE0DFF878060178CD
S11308106140017088E0DFF86C0601786140017086
S1130820DFF8640604707FE0DFF858060178614061
S1130830017079E0DFF84C06017861400170200016
S1130840C0B2DFF8481608606EE0DFF838060178B9
S113085061400170DFF8340601682200D2B251EA27
S11308600221016060E0DFF81C060178614001703C
S1130870DFF8180601682200D2B251EA0241016091
S113088052E0DFF80006017861400170DFF8FC05F2
S113089001682200D2B251EA0261016044E0DFF84B
S11308A0E4050178614001702000C0B2DFF8E01572
S11308B0086039E0DFF8CC05017861400170DFF8A9
S11308C0D00501682200D2B251EA022101602BE076
S11308D0DFF8B005017861400170DFF8B405016804
S11308E02200D2B251EA024101601DE000210170F0
S11308F0DFF89005017861400170DFF894150A680B
S11309002300DBB252EA03620A600078FF2802D1B6
S113091000F00BF802E00A20FFF7FFFE04E00021DC
S113092001709020FFF7F9FE31BD38B5DFF85805A6
S1130930007803281AD0042838D005284AD006287D
S11309405FD0072874D0082800F08980092800F0B7
S11309509D800A2800F0B1800B2800F0C580202873
S113096000F0CE80222800F0DC800AE1DFF8F004F9
S11309705221017141214171362181715421C1718A
S1130980322101722F214172532181724321C1729C
S113099049210173DFF8FC140978303141730021D7
S11309A081730021C173FFF7B3FEEDE0DFF8DC14BF
S11309B00868C005C00D0860DFF8A4043222027183
S11309C0032242710A6882710968090AC171FFF73A
S11309D09FFED9E0DFF8B4040168B1F1005F0CD3E5
S11309E00168DFF8B424914207D200680078DFF888
S11309F070144860FFF78CFE02E08720FFF78DFE3D
S1130A00C2E0DFF888040168B1F1005F0CD301682B
S1130A10DFF88424914207D200680088DFF840148C
S1130A204860FFF775FE02E08720FFF776FEABE033
S1130A30DFF858040168B1F1005F0CD30168DFF8F6
S1130A405824914207D200680068DFF81414486003
S1130A50FFF75EFE02E08720FFF75FFE94E0DFF819
S1130A602C040168B1F1005F0CD30168DFF828247D
S1130A70914207D2DFF81814096800680170FFF783
S1130A8047FE02E08720FFF748FE7DE0DFF8FC0325
S1130A900168B1F1005F0CD30168DFF8FC239142D7
S1130AA007D2DFF8EC13096800680180FFF730FE15
S1130AB002E08720FFF731FE66E0DFF8D00301682B
S1130AC0B1F1005F0CD30168DFF8CC23914207D267
S1130AD0DFF8BC13096800680160FFF719FE02E043
S1130AE08720FFF71AFE4FE0DFF8A0030168DFF864
S1130AF0AC034140DFF868034160FFF709FE43E0BF
S1130B00DFF888130868C005C00D0860DFF85003DB
S1130B10002282800968C18010210172FFF7F8FD6C
S1130B2032E0DFF8680305680468240A2800C0B2CC
S1130B300C2822DA2000C0B209281ADADFF85003A0
S1130B400168B1F1005F04D30168DFF84C239142DE
S1130B5003D38720FFF7E1FD12E00068D0492A00A3
S1130B60D2B241F822000020BD494860FFF7D0FD11
S1130B7006E08A20FFF7D1FD02E08920FFF7CDFDD2
S1130B8002E00B20FFF7C9FD31BD10B5FFF7DBFD17
S1130B90B448B0F9001001290ED1C249B04A136813
S1130BA00B6053684B6093688B60D368CB60128A88
S1130BB00A8200210180BBE0BB48017801293CD1B5
S1130BC0BA490878002824D1B54AB64813681B6886
S1130BD0C0F8023053681B68C0F8063093681B687D
S1130BE0C0F80A30D3681B68C0F80E30B04B1469E3
S1130BF024681C60546924685C60946924689C605F
S1130C00D2691268DA604FF65672028001200870C9
S1130C108EE0A74AA3481368C0F802305368C0F8AE
S1130C2006309368C0F80A30D268C0F80E204FF638
S1130C3057720280002008707AE00178022915D1E9
S1130C40974998480A681268C0F802204A681268EE
S1130C50C0F806208A681268C0F80A20C9680968C2
S1130C60C0F80E104FF65871018061E00078032837
S1130C705ED18E490878002830D1894A89481368A2
S1130C801B68C0F8023053681B68C0F806309368CC
S1130C901B68C0F80A30D3681B68C0F80E30844B58
S1130CA0146924681C60546924685C60946924682D
S1130CB09C60D4692468DC60146A24681C61546AEA
S1130CC024685C61946A24689C61D26A1268DA615F
S1130CD04FF6597202800120087029E00878012833
S1130CE013D1734A6F481368C0F802305368C0F8D0
S1130CF006309368C0F80A30D268C0F80E204FF668
S1130D005A7202800220087012E0694A6548136929
S1130D10C0F802305369C0F806309369C0F80A304D
S1130D20D269C0F80E204FF65B7202800020087072
S1130D3000F04EF810BDF0B45E4C20702378DBB2A6
S1130D401B09544D2B70584B1A7000231D002DB2F3
S1130D500C2D08DA5FF00055514E1F003FB246F8E3
S1130D6027505B1CF2E70025434E357000253D4EAD
S1130D7035802478902C29D14F4C256835F4800592
S1130D8025604E4C00252570402525704C4D4D4E58
S1130D9035604D4E356000252570802525704B4CFF
S1130DA00025256000254A4E35600D00EDB22D0268
S1130DB055F04005474E3560474D2E6856F4801671
S1130DC02E60464D2A4E356011252560F0BC7047D3
S1130DD010B434490B684868434088684340CA6883
S1130DE05A4013001B0E1000000C43401000000A70
S1130DF043405340087C4340487C43404B70384850
S1130E000B7803604B7803608B780360CB780360C6
S1130E100B7903604B7903608B790360CB790360B2
S1130E200B7A03604B7A03608B7A0360CB7A03609E
S1130E300B7B03604B7B03608B7B0360C97B01608E
S1130E40284B18681028FBD225491648047C0C60EE
S1130E501C68102CFCD2407C086010BC7047000059
S1130E60080B0020100E0020100007BD68891140F7
S1130E702489114048891140240E002050891140D2
S1130E8000891140250E0020260E0020EC0A0020C7
S1130E90F00A0020290E00200010002025106319FC
S1130EA09C0A0020F40A00202A0E0020270E0020AD
S1130EB0CC0A0020280E0020044008400CFD01400C
S1130EC00000010554FB014058FB01400889114012
S1130ED00C89114010891140148911400001010F3F
S1130EE0048911405489114030B593B003A8DFF848
S1130EF0F814132200F0CCFA08A8DFF8F0142A2220
S1130F0000F0C6FA6846DFF8E814092200F0C0FAD7
S1130F10DFF8E02412201070DFF8DC342920187088
S1130F20DFF8D8040821017000211478A14206DA00
S1130F3003AC645CDFF8C8546C54491CF5E7002228
S1130F4019788A4206DA08A9895CDFF8B844A15402
S1130F50521CF5E7002401788C4206DA6946095DE3
S1130F60DFF8A4241155641CF5E70820DFF89C146D
S1130F7008800020DFF8981408804FF44070DFF8F0
S1130F809414088000F040F900F00BF901221321B9
S1130F909020FFF7D0FEDFF880140868896809699B
S1130FA0884713B030BD80B5DFF87004DFF87014E3
S1130FB00A7803789A420AD00078087008780028E2
S1130FC005D1DFF860040078DFF85C24107008783D
S1130FD0012802D100F008F804E00878002801D1C3
S1130FE000F096F801BD0000F8B5DFF82C54DFF8E6
S1130FF0346431002868AA68126A9047307800285F
S113100003D0022829D014D34AE000F0B7F9040031
S113101001212000C0B200F08BF9012808D1DFF8CB
S11310200C040078012803D02868A96889688847D7
S113103036E000F0A3F9040000212000C0B200F063
S113104077F9012804D0DFF8E4030078002803D0FE
S11310502868A968C968884722E000F099F9040063
S1131060DFF8CC733878012809D100212000C0B200
S113107000F05EF9012802D1002038700FE03878C2
S113108000280CD101212000C0B200F051F9012840
S113109005D1012038702868A96809698847FFE7E5
S11310A0DFF89073DFF89003008800EE100AB8EEC2
S11310B0400ADFED780A30EE200ADFED770A20EEF1
S11310C0200A87ED000A97ED000A2868A968896953
S11310D0884797ED000ADFED800AB4EE600AF1EE6E
S11310E010FA0DDB97ED000ADFED7C0AB4EE600A1E
S11310F0F1EE10FA04D50120DFF83013087003E094
S11311000020DFF828130870307800F0E9F8F1BD0A
S1131110F8B500F0F9F9DFF824532C78C24E307892
S11311202100C9B2884221D02000C0B2042802DBC9
S1131130307828701AE034703078002804D0012800
S113114008D003280CD011E0B34908688968C9683D
S113115088470BE0B049086889688968884705E0D2
S1131160AD490868896809698847FFE7AD4FAA4A0D
S1131170390010689268126A9047307803280CD1BD
S11311803878002802D100F00CF806E038780228FC
S113119003D10220307002202870387800F0A0F8C3
S11311A0F1BD80B500209F4908704FF41660A44932
S11311B0088001209A49087000209B49087001208A
S11311C09B49087000209F490880012093490870BA
S11311D000209A49087000F061FA00F095F901BD09
S11311E010B50400002C0ED09748006800F0E1FC14
S11311F0894A012110689268526990479148018890
S113120051F00101018010BD38B58F484168006874
S113121000F086FC8D4C61682068A26812689047D3
S11312202068A16849698847894C8A484268D2E99C
S11312300001C4E90001884D28006168582200F0CB
S113124037F96560854C200085494968182200F00B
S11312502FF9844D28006169842200F029F9656121
S1131260814C200081494968142200F021F9804D05
S1131270280021699C2200F01BF925617D4C200087
S11312807D49102200F014F921007C4800F0FEFC96
S113129031BD000000E0FFC4C5499CBF10B5040087
S11312A02079022804D0042807D0092808D012E0A5
S11312B000F059F8604908800DE000F073FA0AE084
S11312C058480078022805D0534A5E49106892684D
S11312D0126B9047FFE710BDFFFFC7C30000C84370
S11312E010B504002000C0B2002806D100F06BF84D
S11312F000F071F800F0CAF819E02000C0B201282B
S113130004D100F04FF800F066F810E02000C0B2FD
S1131310022806D100F057F800F04CF800F0B6F8B7
S113132005E000F03FF800F045F800F04BF810BD80
S113133010B4020000200B001400DBB2E4B2A3429C
S11313400BD14F4B1C78641C1C701C780B2C07DBD6
S11313500124200000241C7002E00023484C237068
S1131360C0B210BC704780B5464B6A46102118685D
S1131370DB689B699847BDF8000002BD80B56A46EA
S113138040F604514048FFF72CF99DF8000002BDD7
S113139080B56A4640F607513B48FFF722F99DF8AD
S11313A0000002BD80B5002240F601513648FFF727
S11313B023F901BD80B5002240F602513248FFF7FF
S11313C01BF901BD704780B5012240F601512E483A
S11313D0FFF712F901BD80B5012240F602512A48F7
S11313E0FFF70AF901BD0000FC9D0000109E0000FB
S11313F03C9E0000310E0020320E0020330E0020EF
S1131400200B0020340B0020600B0020180E00205D
S11314101A0E00201C0E0020F09D00002C0E00204F
S11314202D0E00202B0E00202F0E0020300E002049
S1131430340E00201C0B0020160E00202E0E00205F
S1131440120E0020140E0020789700001097000060
S1131450280C002018980000300C0020880C002074
S1131460FC9C0000A00C0020780B0020CC9D000008
S11314708C0B0020680B0020E09D0000800A0020F7
S1131480350E0020509C0000B80500207047000075
S113149062B38B0708D0521E11F8013B00F8013BE0
S11314A000F024808B07F6D1830740F0208000BF32
S11314B0103A07D330B4B1E83810103AA0E8381025
S11314C0F9D230BC530724BFB1E80810A0E80810D3
S11314D044BF51F8043B40F8043BD20724BF31F821
S11314E0022B20F8022B44BF0B7803707047083A94
S11314F007D3B1E80810083A40F8043B40F804CB9D
S1131500F7D25307E4E7000038B5DFF8F443DFF817
S1131510F40300782178884240F0BD80DFF8E803C6
S1131520DFF8E85395ED000AD0ED000AB4EE600A46
S1131530F1EE10FA02D52968016010E090ED000A7E
S1131540D5ED000AF1EE600AB4EE600AF1EE10FA8D
S113155005D595ED000AB1EE400A80ED000ADFF8EA
S1131560B01390ED000A0868896889698847DFF834
S1131570A4039FED490ADFF8A013D1ED000A60EE41
S1131580800AC0ED180ADFF8941309684165DFF892
S1131590901309680165DFF88C13D1ED000A60EE41
S11315A0800AC0ED110AD5ED000A20EE800A80ED14
S11315B0120A016FDFF8702312680A60016FDFF806
S11315C06C2312684A60416FDFF8642312680A6072
S11315D0416FDFF8602312684A60DFF85C13098802
S11315E0C26E1180C16EDFF8542312684A60C16E66
S11315F0DFF84C2312688A60C16EDFF84823126852
S1131600CA60C16EDFF8402312680A61C06ECF4918
S113161009684161CE48CF490A68C260CE4A92ED5A
S1131620000AD1ED000A20EE200A80ED000ACB4A20
S113163092ED000AD1ED000A20EE200A80ED010AA5
S11316409FED550AC649D1ED000A60EE800A9FED70
S1131650531AC0EE810AC0ED040AC249D1ED000A52
S113166020EE800ADFED4D0A80EE200A80ED050AA7
S1131670BD4909688164BD490968C164BC490968F8
S11316800165BC49096841650120BB49087020789F
S113169090F00100207031BD5077D63D002098496C
S11316A008700020974908709A48C16E0988A24AB8
S11316B01180C16E4968A14A1160C16E8968A04A4F
S11316C01160C16EC9689F4A1160C16E09699E4A62
S11316D01160C16E49699D4A1160416D8F4A116064
S11316E0016D8F4A11609FED2E0AD0ED110A60EE54
S11316F0800A8C49C1ED000A016F09688A4A1160A9
S1131700016F4968894A1160416F0968884A11600C
S1131710416F4968874A11608D498A6C924B1A60FF
S1131720CA6C924B1A600A6D914B1A604A6D914BC8
S11317301A60D1ED040A60EE800A894AC2ED000AFB
S1131740D1ED050A60EE800A864AC2ED000ACA6835
S1131750804B1A60D0ED120A60EE800A6B4AC2ED2B
S1131760000AD0ED180A20EE800A6B4880ED000ACA
S113177091ED000AD1ED030A80EE200A764880ED4F
S1131780000A91ED010AD1ED030A80EE200A7348A4
S113179080ED000A70470000DB0FC9400000704272
S11317A0EBC91841F8B575480178491C01700178F6
S11317B00529C0F28F807249D1F80C41D1F8FC5050
S11317C0704A2B681360704A236813606A686F4B11
S11317D01A6062686E4B1A608A686E4B1A60CA6837
S11317E06D4B1A600A696D4B1A600A6A6C4B1A6079
S11317F0E2686C4B1A6022696B4B1A60CA6A6B4BC5
S11318001A600A6B6A4B1A604A6B6A4B1A606A4A1E
S113181013689B68694E3360694B6A4EB7691F60F1
S1131820AF68DFF8A4C1CCF80070F76CDFF89CC196
S1131830CCF80070366D664F3E60CE6B654F3E60EF
S11318400E6C654F3E600E6D644F3E60496D644E94
S1131850316011684969634E316011688969624E6B
S113186031601168C969614E31601168D1F8841022
S11318705F4E31601168D1F888105E4E3160116896
S1131880D1F8A0105C4E31601168D1F8A4105B4E01
S113189031601168D1F8BC10594E31601168D1F82B
S11318A0C010584E3160116891F83C10564E31709A
S11318B0116891F83D10554A117093ED000ADFED5F
S11318C00F0A20EE200A524981ED000A002101701E
S11318D0FFF75BF9284C207801280ED14D4A4E4978
S11318E010689268126A90474C49334800684C4A21
S11318F01268D268904700202070F1BDEBC91841EE
S11319003A0E0020390E0020AC0D0020F80D002006
S1131910F09D00008C0B0020FC0D0020000E002028
S1131920040E0020080E0020C40D0020C80D002065
S1131930CC0D0020D00D0020220E0020B00D002080
S1131940B40D0020B80D0020BC0D0020C00D0020F7
S1131950300C0020E40D0020E80D0020EC0D0020E8
S1131960F00D0020F40D0020D40D0020D80D00202F
S1131970DC0D0020E00D00203B0E0020360E002080
S1131980040900202C0D0020300D0020340D00200F
S1131990380D00203C0D0020400D0020440D002097
S11319A0480D00204C0D0020500D0020540D002047
S11319B0580D00205C0D0020340000206C0D002028
S11319C0700D0020D0070020740D0020780D002039
S11319D07C0D0020800D0020840D0020880D002047
S11319E08C0D0020600D0020640D0020680D002087
S11319F0900D0020940D0020980D00209C0D0020D7
S1131A00A00D0020A40D0020370E0020380E002069
S1131A10A80D0020CC9D0000780B0020280C00208D
S1131A2038000020EFF30380103840B270476B4A4F
S1131A3003005BB242F823107047684940B251F882
S1131A40200070476649020052B211EB820213680B
S1131A5033F480331360020052B251F822107047FD
S1131A6010B50400200040B2FFF7ECFFBFF35F8F16
S1131A70210049B2012211F01F008240594823007D
S1131A805BB25B0940F8232010BD70B504000D0063
S1131A90160028015449220052B288543100200013
S1131AA040B2FFF7C4FF70BD10B4020052B201236C
S1131AB012F01F018B404D491400640941F8243091
S1131AC010BC704710B50400200040B2FFF7C8FFF7
S1131AD0200040B2FFF7E8FF10BD10B4020052B27C
S1131AE0012312F01F018B404149040064B26409D0
S1131AF041F82430BFF34F8FBFF36F8F10BC704792
S1131B0070B504000D00160032002900200040B218
S1131B10FFF7BBFF200040B2FFF7D4FF70BD000009
S1131B20F8B504000D00260028694FF48071314F88
S1131B3001FB0077B76075600020EFF3108101228C
S1131B4082F310882C4BD3F800C0D5F810E0DEF1F6
S1131B500E0E12FA0EF23CEA02021A601A6881F3BF
S1131B601088B5F90010AA78120752EA0112E97830
S1131B7052EA4172B1680A606968F160A9687161EA
S1131B80002131611D49316095F91410002905D4F3
S1131B903200697D95F91400FFF7B2FF0020F2BD11
S1131BA001000A009068036853F0080303600020F2
S1131BB0704701000A009068036811480340906868
S1131BC003600020704710B4020013009868046892
S1131BD00C4804400C60002010BC704764050020D1
S1131BE00063004080E200E000E400E000E100E087
S1131BF080E100E000A008400C4008405450470039
S1131C00F0FFFEFF0F00010030B404002500E9607E
S1131C106A612B61002030BC704738B50400250090
S1131C20686890F9140000280AD4686890F91400D0
S1131C30FFF753FF0021686890F91400FFF7F7FEDF
S1131C4000202860002032BD7CB5FFF7EBFE0500C4
S1131C50280040B2FFF7F1FE06003469002C02D1DF
S1131C606846040001E0206800907069206020004C
S1131C70F16888473069002802D00098316908600B
S1131C80280040B2FFF7DEFE73BD00002DE9F843E3
S1131C9004000D0000262700DFF810833868404553
S1131CA01CD0D5F80C90BD61D9F800004168D9F872
S1131CB000000068D9F8002092681268904700205C
S1131CC07860002078610020386117F1080000F086
S1131CD023F9D9F8040000280DD001E00E200DE00E
S1131CE0D9F804004168D9F804000068D9F8042040
S1131CF0926812689047C7F800803000BDE8F2830C
S1131D00F8B50400002526003068A849884205D1AA
S1131D10B069C7683868002808D001E0072008E0E7
S1131D2038680068396889684968884700203060E5
S1131D302800F2BD70B504000025260030689B49D8
S1131D40884203D17068002802D107E0072006E02A
S1131D500321300000F0EDF800207060280070BD11
S1131D6070B504000025260030689049884205D1EA
S1131D700121300000F0DDF8280000E0072070BDEC
S1131D8070B504000025260030688849884205D1D2
S1131D900021300000F0CDF8280000E0072070BDDD
S1131DA0F8B504000D000026270038687F498842F2
S1131DB00AD17968280080B2014379600221380091
S1131DC000F0B7F8300000E00720F2BD10B40100C5
S1131DD000220B001868754CA04204D110EE100AC2
S1131DE01861100000E0072010BC704730B40200F6
S1131DF00023140020686D4DA84203D1207A087096
S1131E00180000E0072030BC704730B40200002303
S1131E1014002068654DA84203D160690860180069
S1131E2000E0072030BC70472DE9F04104000D00AC
S1131E300026270038685D49884207D1B869D0F880
S1131E400C80D8F8000000280CD001E0072013E033
S1131E50391DD8F800000068D8F800209268526A4A
S1131E6090470600786828807868002803D002210B
S1131E70380000F05EF83000BDE8F0810200062072
S1131E80704702000620704702000620704770B5B4
S1131E9004000025A069C6683068002805D03068B1
S1131EA0006831688968C96888472800C0B270BD75
S1131EB070B504000025A069C6683068002805D004
S1131EC03068006831688968896888472800C0B22A
S1131ED070BD01008869C2680020704738B50400ED
S1131EE0A069C5682868002805D0286800682968A2
S1131EF0896889688847002032BD38B50400A06924
S1131F00C5682868002805D0286800682968896899
S1131F1089688847002032BD10B50400200000F015
S1131F2001F810BD00210170002141700021818061
S1131F30704770B504000D000020A0812800C0B2D5
S1131F40042805DB02200500A08950F00100A081CF
S1131F50207A032807DB0220050000202072A089D4
S1131F6050F00200A081A57211492A00D2B20320C8
S1131F7042438818217A405C60720E492A00D2B22A
S1131F800C2042438818217A50F821602000B04781
S1131F9001000800C0B2002803D0A08950F004005A
S1131FA0A081607A2072A08970BD000043544F4D17
S1131FB080A000008CA000002DE9F84185B0050048
S1131FC02E68B069C7682879012815D053D303282F
S1131FD021D002D3042837D04DE0B06940680028EE
S1131FE009D002208DF80400B0698068009068462A
S1131FF0B169496888473EE0B0694068002809D063
S113200004208DF80400B069806800906846B169C6
S1132010496888472FE07C68002C0ED0D4F80080F3
S1132020E868029000208DF80C000020049002A9BA
S11320304046A2689269904702E0E868316901600D
S113204028690068706116E07168A86801437160CE
S113205002213000FFF76DFFB0694068002809D005
S113206009208DF80400B069806800906846B16961
S113207049688847FFE706B0BDE8F081EFF30380C5
S1132080103840B27047DFF8782D03005BB242F895
S113209023107047DFF8681D40B251F820007047E4
S11320A0DFF8601D020052B211EB8202136833F4B0
S11320B080331360020052B251F82210704710B5F9
S11320C00400200040B2FFF7EBFFBFF35F8F210055
S11320D049B2012211F01F008240DFF8580D23009D
S11320E05BB25B0940F8232010BD70B504000D00FD
S11320F016002801DFF8701D220052B28854310006
S1132100200040B2FFF7BFFF70BD000010B4020012
S113211052B2012312F01F018B40DFF8501D14004E
S1132120640941F8243010BC704710B50400200045
S113213040B2FFF7C4FF200040B2FFF7E7FF10BD35
S113214010B4020052B2012312F01F018B40DFF8D9
S1132150201D040064B2640941F82430BFF34F8F9A
S1132160BFF36F8F10BC704770B504000D001600EC
S113217032002900200040B2FFF7B7FF200040B230
S1132180FFF7D3FF70BD00002DE9F04104000D00FE
S1132190260000273561E86870612869F061002035
S11321A0B061002030703069D0F814800021EFF362
S11321B01082012080F31088DFF80C39D3F800C0B6
S11321C03CF4803CC3F800C01B6882F3108898F884
S11321D01C2012F00302012A0DD10021EFF310821A
S11321E080F31088DFF8C00A036823F0004303601B
S11321F0006882F31088D8F82000DFF8B01A08606D
S1132200DFF8AC1A00200860DFF8A82A106800285C
S1132210FAD1D8F81C00DFF8A03A18600120086051
S113222010680128FCD1D8F82400DFF8901A08605F
S113223000210800C0B2022820DA0800C0B218EB5E
S1132240000090F82400C0F38100C0B2002813D12C
S11322500722C9B2C800824017430800C0B218EB75
S1132260000090F8240010F00300012804D1082293
S1132270C9B2C80082401743491CDAE7DFF8400AB4
S11322800760D8F89C00DFF83C1A086098F89000C2
S113229010F00700DFF8E41A086098F89000C0F323
S11322A00210DFF8DC1A0860D8F89400DFF8D41ABA
S11322B00860D8F89800DFF8D01A0860D8F814003D
S11322C0DFF8C81A0860D8F81800DFF8C41A0860E4
S11322D0404600F0D5FBD8F86400DFF8B81A08606F
S11322E0D8F86800DFF8B01A086000200100C9B20D
S11322F0082925DA0100C9B218EB8101D1F8A01030
S1132300DFF8042B0300DBB242F823100100C9B24A
S113231018EB8101D1F8C010DFF81C2B0300DBB2ED
S113232042F823100100C9B218EB8101D1F8E4107E
S1132330DFF8082B0300DBB242F82310401CD5E77A
S1132340D8F8E000DFF82C1B08600020DFF8281B19
S113235008600020DFF8241B08600020DFF8201B41
S113236008600020DFF81C1B0860B8F83800DFF8AC
S1132370181B0860B8F83A00DFF8101B0860D8F89A
S11323803C00DFF80C1B0860D8F84000DFF8041BA1
S11323900860D8F84400DFF8601B0860D8F84800EB
S11323A0DFF8581B0860D8F84C00DFF8541B0860AD
S11323B040F2FF10DFF84C1B0860300000F0A0FB77
S11323C05FF44030DFF8401B08600320DFF83C1B5B
S11323D008600320DFF8381B0860DFF8F40B706234
S11323E00020BDE8F08100002DE9F34F87B0089884
S11323F0049007980090002003900024009800693E
S11324004069019000200099087000200100C9B2C1
S1132410252908DA0021DFF8802B0300DBB21B0139
S1132420D150401CF2E70198C06ADFF8701B0860C5
S11324300198006BDFF8681B08600198406BDFF8B7
S1132440641B08600198006DDFF85C1B086001984C
S1132450406DDFF8581B08600198806DDFF8501B51
S113246008600198C06DDFF84C1B08600198006E8D
S1132470DFF8441B086000200100C9B208290DDA06
S113248001990200D2B211EB8201096FDFF82C2B03
S11324900300DBB242F82310401CEDE70020009952
S11324A08860002000994860002528000499097874
S11324B0C0B2884280F0AE80049840682900C9B256
S11324C050F82160012196F900008140ADF8081010
S11324D00399BDF9080001430391317996F900008D
S11324E081400C437079002805D1B079002802D1CD
S11324F0B068002807D000984168BDF9080001437E
S11325000098416006E000988168BDF90800014325
S1132510009881607079DFF8A81A32781201885027
S1132520B079DFF8A01A327812018850B068DFF869
S1132530981A3278120188503069DFF8901A32788C
S113254041F8220000273800F178C0B288425FD2F7
S1132550B0693900C9B250F8218098F80090D8F8D1
S11325600400DFF8341A4A46D2B212018850D8F86F
S11325700800DFF8601A4A46D2B212018850D8F82F
S11325800C00DFF8541A4A46D2B212018850D8F827
S11325901000DFF8481A4A46D2B212018850D8F81F
S11325A00400C0F3062005900598612802D0622833
S11325B027D02BE0DFF868AA9AF8000000061FD4A1
S11325C05FF0000BEFF31080012181F31088DFF836
S11325D0F8140A6832F480020A60096880F31088EB
S11325E09AF8000050F080008AF8000001211E20B3
S11325F0FDF716FE9AF8000050F010008AF800006B
S113260004E00120DFF81C1A0860FFE77F1C9AE74A
S11326106D1C4AE70499009800F07DF90398DFF8EF
S1132620081A0860DFF8040A0460DFF8A4090099B6
S11326300862002009B0BDE8F08F30B40400250022
S11326406961EA61AB61002030BC704701000A0097
S11326505068DFF8DC3918609068DFF8703A186069
S11326600020704770B402001300DFF8C4492568E5
S11326700E0036B25868064035432560DFF84C4AF0
S113268025680E0036B29868064035432560002060
S113269070BC704738B504002500280000F0D6F956
S11326A0002032BD30B4020013001878002804D092
S11326B01878052801DA012400E00024DFF8100A64
S11326C00068002801D0012500E000252000C0B2E8
S11326D0002801D0022000E028000870002030BC4F
S11326E0704730B403005FF000400C00E4B21D2CCE
S11326F006DADFF8E0490D00EDB254F8254008E0B1
S1132700DFF8D4490D00EDB214EB8504B4F5C074C0
S113271024682500ED0F14802800C0B2002801D0E1
S1132720252000E0002030BC70477CB504000D007B
S113273016000020ADF800006A462900C9B2200046
S1132740FFF7CFFF002801D0252803D1BDF80010E2
S11327503160FFE776BD2DE9F0470300080000B2C1
S113276090FAA0F0B0FA80F7DFF870093C00E4B208
S113277010EB8404DFF868093D00EDB26D0810EB3E
S1132780850CDCF800E01EF00F1E17F001000001BC
S11327903EFA00FEDEF108051570161D0020804685
S11327A0A9465FFA88F85FFA89F9C84508D2D4F8CF
S11327B0008081465FFA89F946F82980401CEEE7DB
S11327C02800C0B2002801D0002000E00D20DFF86E
S11327D0148989460FFA89F9D8F800A069F3184AD0
S11327E0C8F800A0BDE8F0870200002008600020BF
S11327F04860FF2008724872002048815FF0FF3073
S1132800C86000208882DFF818080078000604D524
S1132810DFF8D408006880B2C8604FF47A60888218
S11328200020704738B504002500280000F00EF998
S11328300020686200202862002068600020A860F0
S11328400020DFF8E017086000200100C9B2042965
S11328500CDADFF898180200D2B251F822200022D4
S11328600300DBB241F82320401CEEE7280000F00F
S11328702DF9DFF8AC070178090615D5017811F0B8
S1132880EF010170017811F07F0101700021EFF375
S11328901082012080F310888B48036853F480036E
S11328A00360006882F310880021EFF31082012096
S11328B080F310888448036853F48033036000680D
S11328C082F31088002032BD70B504000D0026008C
S11328D000203070300000F0B9F80320DFF8101841
S11328E008600320DFF80C1808607FF06040DFF810
S11328F00818086040F2E710DFF80018086030009C
S113290000F052F80100DFF8F8070160002070BD04
S11329100300062070472DE9F8430200106943695B
S1132920186A000C10F0010090F001008DF800000E
S11329306C46186A400C10F0010090F001006070C1
S11329401D6A6D056D0D00260027380091F800C042
S1132950C0B2604524D25068002821D04868BC46E3
S11329605FFA8CFC50F82C8098F8010014F8009061
S11329703800C0B213EB4000B0F850C05FF0000E56
S11329804846C0B2002804D0280080B21CEB4000A6
S113299001E01CF10400864200D206007F1CD4E74B
S11329A0701CD060BDE8F18338B5040000252078A0
S11329B0002808D0022823D00AD3042833D019D3FE
S11329C0052830D040E001202070032005003BE0C2
S11329D003202070DFF8A403016811F0070F04D06E
S11329E004210D000721016003E02000FFF7DCFF54
S11329F0050029E0022020704FF44070050023E018
S1132A0004202070DFF87803016811F0070F05D067
S1132A104FF480610D000721016003E02000FFF7FF
S1132A20C3FF050010E02069406990F8901011F090
S1132A300701D24A116090F89010C1F30211D04AF4
S1132A40116005212170FFE7280032BD0021DFF865
S1132A50E0251160C168002904D0DFF874261268EB
S1132A60491EF8E7DFF868261168002907D040F20C
S1132A700111DFF89036196011680029FCD1704704
S1132A8010B400210A00D2B2042A0DDA0A00D2B22C
S1132A9050F8222052F48032DFF850360C00E4B2B1
S1132AA043F82420491CEDE7017C002901D00121D1
S1132AB000E00021C9B2027C51EA0241DFF8482655
S1132AC0116010BC704700000C4008402DE9F84329
S1132AD0040020694769D7F86C8018F11C0918F1C3
S1132AE037054E46B54209D396F90000002803D4B1
S1132AF096F90000FFF724FB761CF3E7BDE8F183A9
S1132B002DE9F84F04002069D0F81480D8F86C90AF
S1132B10CA4619F11B0519F11C0B56465F46B5420E
S1132B2009D33000461C027897F90010200000F009
S1132B3004F87F1CF3E7BDE8F18F70B504000D00C5
S1132B401600280040B2002806D422003100C9B281
S1132B50280040B2FFF708FB70BD2DE9F04788B0AC
S1132B600700884614001D00109EFFF787FA81466F
S1132B70484640B2FFF78EFA8246DAF8140000287D
S1132B8013D08DF80270FF208DF80800CDE90445BC
S1132B90ADF81880DAF81C0001903000C0B2ADF82E
S1132BA000006946504600F005F8484640B208B0B7
S1132BB0BDE8F08770B588B005000E00AC69002C44
S1132BC001D1340009E0684621002022FEF770FCA0
S1132BD0200031002022FEF76BFC20006969884741
S1132BE0A869002804D0A86969462022FEF760FC81
S1132BF008B070BD2DE9F843032600240025DFF852
S1132C000C050068C00701D556F00606DFF800057C
S1132C100068C00714D556F00706DFF8F80400680A
S1132C20DFF8F4140A6890465FF00009C1465FF0CB
S1132C300008002150EA080051EA090104430D4349
S1132C40FFF71CFA0700380040B2FFF723FA80466A
S1132C504046FFF7A9FE814616F0FC0F04D006207B
S1132C6088F800000020814698F80000052808DB59
S1132C70FF20009022002B0000213000C0B2FFF79B
S1132C806CFF0120DFF894140860380040B2FFF7AD
S1132C9007FADFF83C0400680028FAD1DFF8600482
S1132CA0C0F80090BDE8F183104008400C001740C4
S1132CB00000174004001740080017404000174068
S1132CC044001740600217402DE9F843032600240E
S1132CD00025DFF838040068800701D556F00606A1
S1132CE0DFF82C040068800714D556F00706DFF8D7
S1132CF024040068DFF820140A6890465FF0000995
S1132D00C1465FF00008002150EA080051EA0901B9
S1132D1004430D43FFF7B2F90700380040B2FFF750
S1132D20B9F980464046FFF73FFE814616F0FC0F96
S1132D3004D0062088F800000020814698F800009E
S1132D40052808DBFF20009022002B000021300022
S1132D50C0B2FFF702FF0220DFF8C013086038009A
S1132D6040B2FFF79DF9DFF8680300680028FAD144
S1132D70DFF88C03C0F80090BDE8F18380021740AF
S1132D808C021740880217409402174040031740F2
S1132D904403174064021740B00217402DE9F84F6E
S1132DA0DFF87C03D0F80080DFF87803D0F800A0C7
S1132DB0DFF8740304680025250000245FF0000B8D
S1132DC05AEA04065BEA0507FF20009032003B0044
S1132DD0414609B20820FFF7C0FE8146404600B2D2
S1132DE0DFF848130860DFF84803C0F800A0DFF8F4
S1132DF044030560484640B2FFF752F9BDE8F18F3D
S1132E006405002000630040600317401CB50120E6
S1132E1000900022002300210620FFF79EFE0400FC
S1132E200120DFF8CC120860200040B2FFF738F927
S1132E3013BD000080E200E080031740A4031740A4
S1132E401CB5022000900022002300210620FFF779
S1132E5084FE04000220DFF898120860200040B2CB
S1132E60FFF71EF913BD000000E400E000E100E0FC
S1132E7080E100E0A0031740000417400404174059
S1132E80080417400C041740C0041740C40417403A
S1132E90C8041740CC0417402DE9F84FDFF874023A
S1132EA0D0F800A0DFF87002D0F800804446002576
S1132EB0250000245FF0000B5AEA04065BEA0507CC
S1132EC00120009032003B0000210720FFF745FE5F
S1132ED08146DFF82402C0F800A0DFF82002C0F821
S1132EE000800120DFF80C120860484640B2FFF76A
S1132EF0D7F8BDE8F18F0000D0041740D404174080
S1132F00D8041740F00C1740280017402000174041
S1132F10240017402DE9F84FDFF8F801D0F800A09D
S1132F20DFF8F401D0F80080444600252500002491
S1132F305FF0000B5AEA04065BEA050702200090E2
S1132F4032003B0000210720FFF707FE8146DFF82F
S1132F50A801C0F800A0DFF8A401C0F80080022096
S1132F6064490860484640B2FFF79AF8BDE8F18F1B
S1132F701CB5FF2000900022002301210020FFF750
S1132F80ECFD04000120DFF8B0110860200040B21D
S1132F90FFF786F813BD0000000617404C001740E9
S1132FA05000174054001740C0011740C401174097
S1132FB0C8011740CC011740D00117404002174008
S1132FC0C0001740C4001740C80017400002174053
S1132FD04843444104061740080617400C061740AE
S1132FE038B556480468E405E40DFF20009000223B
S1132FF00023210009B20A20FFF7AFFD05002000DD
S113300000B24F4908603748210009B2026861F3F1
S113301008020260280040B2FFF742F831BD000008
S113302000300F4020031740480017405C00174051
S1133030080C17401CB5FF2000900022002301213A
S11330400920FFF78AFD0400200040B2FFF728F8AA
S113305013BD1CB5FF20009000220023022109208B
S1133060FFF77BFD0400200040B2FFF719F813BD01
S11330701CB5FF2000900022002304210920FFF743
S11330806CFD0400200040B2FFF70AF813BD1CB524
S1133090FF2000900022002308210920FFF75DFD96
S11330A00400200040B2FEF7FBFF13BD1CB5FF2057
S11330B000900022002310210920FFF74EFD040098
S11330C0200040B2FEF7ECFF13BD0000100C1740C7
S11330D0800C174000101740801117400012174051
S11330E0D00C1740F80C17407CB17F40C002174049
S11330F08C0C1740B40C1740B80C1740C40C174084
S1133100000C1740600C174000031740880C174050
S1133110A00C1740A40C1740B00C17409C0C17408F
S1133120280D17402C0D1740380D17403C0D174043
S1133130400D17404C0D1740540D1740F40C174028
S1133140F00C1740010049B200290ED4012210F0FE
S11331501F018A40DFF85C1503005BB25B0941F88C
S11331602320BFF34F8FBFF36F8F7047EFF30380BC
S1133170103840B2704710B401000800C0B2FF28F4
S113318001D100200EE0DFF8300502681300CB40C7
S113319013F00703C2F30260DFF82045246814FA31
S11331A000F0D84010BC7047DFF8142503005BB270
S11331B042F823107047DFF8081540B251F8200098
S11331C070470000DFF8FC14020052B211EB8202D7
S11331D0136833F480331360020052B251F82210A2
S11331E0704710B50400200040B2FFF7EBFFBFF3B7
S11331F05F8F210049B2012211F01F008240DFF8E5
S1133200C80423005BB25B0940F8232010BD70B5ED
S113321004000D0016002801DFF8B014220052B299
S113322088543100200040B2FFF7BEFF70BD00009B
S113323010B4020052B2012312F01F018B40DFF8D8
S113324090141400640941F8243010BC704710B580
S11332500400200040B2FFF7C4FF200040B2FFF793
S1133260E7FF10BD70B504000D0016003200290000
S1133270200040B2FFF7CBFF200040B2FFF7E7FF8A
S113328070BD00002DE9F84304000D0026007560B0
S113329001203073DFF83C74287C4FF4807808FBFD
S11332A00078C6F80880307B002803D0B06810F19D
S11332B00C0902E0B06810F108090023EFF3108153
S11332C0012282F31088307B002801D0287C01E0A1
S11332D0287C801CDFF80034D3F800C0D0F1030050
S11332E082403CEA02021A60186881F310880020C8
S11332F089F8000099F800008007FBD4002089F8C1
S113330002002900300000F085F96968300000F0FF
S1133310B9F995F91200002805D43200697C95F9B1
S11333201200FFF79FFF68697061A869F0610020CF
S1133330B061DFF8A80330600020BDE8F283F8B57F
S113334005002E00300000F043F90400002C03D1E6
S1133350307B002802D105E0200011E0B06810F1B4
S11333600C0702E0B06810F10807706800780128C3
S113337003D13169300000F085F9F1203870002064
S1133380F2BD38B504002500280000F021F9010041
S1133390002903D1287B002802D105E0080009E0B8
S11333A0A86810F10C0202E0A86810F10802F020ED
S11333B01070002032BD38B504002500280000F04C
S11333C007F90100002903D1287B002802D106E077
S11333D0080009E02869401EAA68106003E0286913
S11333E0401EAA681080002032BD10B401000A00FB
S11333F0107B002803D0906810F10C0302E0906861
S113340010F10803107B002804D01069401E946852
S1133410206003E01069401E94682080F120187039
S1133420002010BC704701000A00107B002803D064
S1133430906810F10C0302E0906810F10803F0208A
S1133440187000207047F8B505000E002F003800F2
S113345000F0BEF80400002C05D13100380000F063
S113346011F9002000E02000F2BD0300062070479F
S11334700300062070472DE9F04705000E002F00D9
S1133480380000F0A5F80400002C09D13869B060B8
S11334907868D0F81C8098F80000502830D101E0FA
S11334A0200035E0387B002803D07868007C401E7B
S11334B002E07868007C401CDFF82492C0B259F81E
S11334C02000002802D1002070601EE0D7F808A078
S11334D0BAF5807A397B504600F004F90100387B54
S11334E0002803D07868007C401E02E07868007CE5
S11334F0401CC0B259F82000B1FBF0F0706004E049
S1133500397BB86800F0EEF870600020307000205D
S1133510BDE8F08770B504000D002600300000F00F
S113352057F80100002903D1307B002802D105E0BF
S1133530080014E0B06810F10C0202E0B06810F169
S113354008021078C0F340002871307B002802D0B4
S1133550B068006801E0B06800882860002070BD91
S113356030B4040025006961EA61AB61002030BC1D
S11335707047F8B505002E00300000F029F804006B
S1133580002C03D1307B002802D105E020001EE08E
S1133590B06810F10C0702E0B06810F10807F420DD
S11335A0387000203871706890F9120010F1210F02
S11335B00AD0706890F91200FFF7C4FD31007068FA
S11335C090F91200FFF7F0FD002030600020F2BDFA
S11335D070B40100087B002803D0886810F10C0245
S11335E002E0886810F10802002300240025107806
S11335F0030013F0010004001800400810F001005B
S1133600050020002E00C0B2F6B2B042EFD1002077
S113361070BC70472DE9F043027B002A03D0826816
S113362012F10C0302E0826812F10803CC692578D8
S1133630002600275FF0000C94F804E094F803805F
S113364018F007085FF000092278002A08D10A7AE6
S1133650002A0AD00A7A92F002021201150004E04C
S11336602278502A01D00A7A160059EA050258EA4B
S113367002025CEA0E0E83F804E09F715A709E7099
S1133680BDE8F0830161027B002A02D04268127C0B
S113369002E04268127C921C114BD2B243F8221011
S11336A04B1E027B002A02D08268136001E082680C
S11336B01380704780E100E020E001400C0E002000
S11336C0640500200063004080E200E000E400E0C4
S11336D000E100E000800E400C40084054474100E7
S11336E0240D00202DE9F84304000D002800C0B289
S11336F0002802D014F10C0601E014F1080600279A
S11337007078C0F302185FF0000918F0FC0F0AD1BA
S11337100820FFF730FD41460A00D2B2002A07D044
S113372091F0020104E04FF40040B17811F0070178
S1133730C840BDE8F2832DE9FF41FFF717FD0600FD
S1133740300040B2FFF73EFD300040B2FFF733FDDA
S11337500500287B002803D0A86810F10C0702E0BC
S1133760A86810F1080797F80080686800780128B5
S113377005D1F420387018F0F00887F800806869E3
S113378000281FD0AC69002C02D16846040004E074
S1133790684694E80E0080E80E005FEA886001D570
S11337A000202071E8692060200069698847A869C1
S11337B0002805D0A869694691E80C1080E80C102F
S11337C03878804618F00F003870BDE8FF8100009B
S11337D0F0B404000122002326000020EFF310853A
S11337E0012787F310882C4FD7F800C03CF4804C95
S11337F0C7F800C03F6885F3108800251E2D0DD240
S11338002648024204D031F81500254F27F8250038
S11338105B0043EAD27352006D1CEFE7214830602D
S11338200020F0BC704701000A00002010601E4B0D
S1133830002018700020704702001C480B00DBB207
S113384010EB4303002018704020187041201870BA
S11338500020704710B4030011480C00E4B220F8B3
S11338602420002010BC704710B4020000200C4B30
S11338700C00E4B223F82400002010BC70470100BF
S1133880094A80201070002070470100064A002079
S1133890107000207047000008400840FFF0FB3122
S11338A020200840434C45000020084004200840E4
S11338B010B401000800C0B2FF2801D100200EE0BE
S11338C0DFF8300802681300CB4013F00703C2F39B
S11338D00260DFF82448246814FA00F0D84010BCD1
S11338E07047DFF8182803005BB242F823107047D2
S11338F0DFF80C18020052B211EB8202136833F4A1
S113390080331360020052B251F82210704710B590
S11339100400200040B2FFF7EBFFBFF35F8F2100EC
S113392049B2012211F01F008240DFF8D8072300BA
S11339305BB25B0940F8232010BD70B504000D0094
S113394016002801DFF8C017220052B28854310053
S1133950200040B2FFF7C5FF70BD000010B40200A4
S113396052B2012312F01F018B40DFF8A01714009C
S1133970640941F8243010BC704710B504002000DD
S113398040B2FFF7C4FF200040B2FFF7E7FF10BDCD
S113399010B4020052B2012312F01F018B40DFF871
S11339A07017040064B2640941F82430BFF34F8FE8
S11339B0BFF36F8F10BC704770B504000D00160084
S11339C032002900200040B2FFF7B7FF200040B2C8
S11339D0FFF7D3FF70BD70B504000D002600012170
S11339E0287C8140F1602900300000F0EFF92900C3
S11339F0300000F005FADFF81C073060002070BDCD
S1133A0001000A00D06893689860002070470100A4
S1133A100A00D068936858600020704701000A00CB
S1133A20D0689368D860002070472DE9F0470400FF
S1133A3025006868C6695FF000494F46C84670684B
S1133A400743B06850EA0808F06850EA09092800FA
S1133A5000F0B9F98246A868C0F81480A868C0F8D4
S1133A601890A86807613069A96848627069A968F4
S1133A7088625AF42541280000F0A4F90020BDE82A
S1133A80F08770B504002500280000F09CF90600BA
S1133A90280000F04DFB56F42541280000F092F96F
S1133AA0002070BD2DE9F04104000D002600300017
S1133AB000F089F90700B5F101087068007804285E
S1133AC000DBA846B068C0F86880706800780028F9
S1133AD006D128004008401EB1684865B168886571
S1133AE0B068C06AC00709D4B068C0F864805FF4E5
S1133AF0AA00B1680864F068B168C86057F4254149
S1133B00300000F05FF90020BDE8F0812DE9FC47AA
S1133B1005000E00170017F00304A846DFF8F82587
S1133B20D2E90001CDE900013B006A46310040467C
S1133B3000F02CFB404600F046F98146D8F8080016
S1133B40D0F830A0019800281AD10220390701D5F5
S1133B5004210800B9070CD5D8F8081011EB80012E
S1133B60009ACA64D8F8081011EB80000099016526
S1133B7006E0D8F80810001911EB80000099C16420
S1133B80780607D5D8F80800006C50F48000D8F8FF
S1133B9008100864012C04D03AF4403A01985AEA17
S1133BA0004A022F08D10198002805D001236A4653
S1133BB03100404600F0EAFA002C04D03AF0407A92
S1133BC001985AEA006AD8F80800C0F830A059F4FD
S1133BD02541404600F0F6F80020BDE8F6872DE9BF
S1133BE0F04104000D0016002700380000F0EBF847
S1133BF080463000C0B2032801D1042007E0300021
S1133C00C0B2042801D1032001E03000C0B2B96879
S1133C1011EB8000691EC16458F42541380000F09E
S1133C20D1F80020BDE8F0812DE9F04104000D0039
S1133C302600B068476E17F1010870680078042800
S1133C4000DBB846C5F80880300000F0F9FA686077
S1133C50012028700020BDE8F0810200130098685C
S1133C60C06A10F0010008719868806C0860002038
S1133C7070472DE9F04104000D002600300000F0EB
S1133C80A2F80700B068D0F834802800C0B2012838
S1133C9001D058F480782800C0B2002801D058F030
S1133CA08078B068C0F8348057F42541300000F0C3
S1133CB089F80020BDE8F0812DE9F04104000D00F1
S1133CC02600300000F07FF80700B068D0F8348098
S1133CD02800C0B2012801D038F480782800C0B28E
S1133CE0002801D038F08078B068C0F8348057F4E8
S1133CF02541300000F066F80020BDE8F0812DE990
S1133D00F84304000D0016002700380000F05BF8AB
S1133D108046B86810F170092800C0B249F82060E4
S1133D2058F42541380000F04DF80020BDE8F28336
S1133D3030B4040025006961EA61AB61002030BC45
S1133D4070472DE9F84305002E0000277068D0F86D
S1133D501C80706890F9120000F0F9F998F92800B5
S1133D6000F0F5F998F9290000F0F1F998F92A0022
S1133D7000F0EDF998F92B0000F0E9F998F92C001E
S1133D8000F0E5F998F92D0000F0E1F9D8F84C407D
S1133D90002C03D094F9010000F0D9F90020306020
S1133DA0300000F010F88146F068B16888600020A7
S1133DB0B168486359F42541300000F003F8380035
S1133DC0BDE8F283704701000020704710B44160E1
S1133DD001220274C268920501D0002202740B7C95
S1133DE04FF48074D04A04FB032282604B69436120
S1133DF08B69C3610023836110BC7047000000001D
S1133E002DE9F84F84B004000D00EE690120C44987
S1133E1008600021EFF31082012080F31088C14B69
S1133E201F6827F000471F601B6882F31088227BFD
S1133E3012F00F0F0BD00021EFF3108280F31088E3
S1133E40B64B1F88E06887431F8082F310884FF4C5
S1133E502540A16808600020A168C8620020A1680C
S1133E60C8630020A1688864287A0390039FFF0533
S1133E70D5F804A0BAF1010A2878032801D157F42F
S1133E8080372878042804DB287857EA00476868D4
S1133E908246A068C762200000F04AF9B069A168B0
S1133EA0C861F069A1680862A068C0F868A0A06849
S1133EB0C0F864A05FF00008D6F850909B4AD2E99D
S1133EC00001CDE900012878002803D16868400882
S1133ED0401E00902878022805DB00236A46E96822
S1133EE0200000F053F90098A16848650098A16883
S1133EF088652878042805DB0098A168C8650098BF
S1133F00A1680866019858EA0048019858EA0068D0
S1133F10CDF80880306D002811D13078002805D004
S1133F207178280000F098F950EA0909B07800285F
S1133F3005D0F178280000F08FF959EA00492000F3
S1133F4000F0AEF940F2FF32287C1100C140C807EE
S1133F5002D50020A1684864D6F84C80B8F1000F5F
S1133F604FD098F8030098F80210090651EA00713E
S1133F70287C1300C340D80713D5D8F808000028BC
S1133F8003D1D8F80C00002801D0012000E0002063
S1133F90C0B2A368C3F88800D8F80800A368C3F8BF
S1133FA08C00287CC240D0071DD5D8F80C00A2682C
S1133FB0C2F8900098F8180098F81920120252EAF2
S1133FC0801298F81A0052EA0032A068426498F805
S1133FD0040051EA0041D8F81000A2681067D8F82C
S1133FE01400A268D067A0688163306D00280FD1E7
S1133FF098F81B0059EA402998F81C0059EA4069CE
S113400006E00020A16888630020A168C1F8880048
S1134010306D002807D196F8200059EA403996F807
S1134020210059EA40795FF4AA0B96F84800002869
S113403002D05FF4A0008346A068C0F840B028789E
S1134040012805D10020A168C8640020A168086582
S1134050A068C0F83490029850F00300A168086387
S1134060029850F00100A1680863E068A168C86084
S11340704AF201512000FFF7A5FE2200697C95F960
S1134080120000F074F8220096F8221096F9280025
S113409000F06DF8220096F8231096F9290000F03C
S11340A066F8220096F8241096F92A0000F05FF8CA
S11340B0220096F8251096F92B0000F058F82200FB
S11340C096F8261096F92C0000F051F8220096F884
S11340D0271096F92D0000F04AF8B8F1000F06D029
S11340E0220098F8001098F9010000F040F805B09B
S11340F0BDE8F08F20E001400C0E00206405002094
S11341000063004080E200E000E400E000E100E041
S113411080E100E05450470008A0000002A01640CF
S1134120009B1640104008400090164010A000006C
S11341305FF0004182681161826851618268916117
S1134140002182685162002182689162704710B533
S11341500400200040B2002808D4200040B2FFF739
S113416017FC0021200040B2FFF7BBFB10BD70B567
S113417004000D001600200040B2002805D43200CF
S11341802900200040B2FFF717FC70BD2DE9F04173
S11341908468A56E44682478042C00DA6D1C002918
S11341A001D1012600E00026A94201D3012700E045
S11341B0002757EA0604E4B2002C33D0DC0705D408
S11341C08468D4F834C01CF01F0C03E08468646B6A
S11341D0C4F3044C44682478042C07DBE6465FEA05
S11341E01E1E1EF0010E9EF0010E08E01CF00C04D1
S11341F0042C02D15FF0010E01E05FF0000E9EF08E
S1134200010818EA06081EEA070454EA08085FFAD7
S113421088F8B8F1000F02D0022454600EE00324A1
S113422054600BE00C00D0F804C09CF800C0BCF152
S1134230040F01DB146001E0641E1460BDE8F0812A
S113424038B50400A068C56AED0D15F00F0500200F
S1134250FFF72EFBE84032BD10B402000B00DBB2C6
S11342600800C0B2000150EA831050F480700923A2
S11342701478022C11D01478042C02DB03242300BC
S11342800BE01478032C02D10324230005E00C0076
S1134290E4B2002C01D106242300184310BC70475B
S11342A010B44168CA690023062B18D292F848104A
S11342B001249C40214210D0032B01D1042104E0AD
S11342C0042B01D1032100E01900846814EB81015F
S11342D012EB8304246B641ECC645B1CE4E710BC07
S11342E0704700002DE9F04104000D0026005FF046
S11342F000084046C0B203282EDA4046C0B215EB8F
S11343008000406841684046C0B215EB80004068B8
S11343100068FFF760FB07004046C0B215EB800061
S11343204068006880684146C9B216EB8101486064
S1134330287802280DD14046C0B216EB80004068B0
S11343404146C9B216EB81014968096C51F4202138
S1134350016418F10108CCE7686930612878307588
S1134360B561024830600020BDE8F0813354504705
S113437001000A001069536898600020704701002A
S11343800A001069536858600020704701000A0051
S113439010695368D8600020704770B504000D00A0
S11343A02600300000F075F800200100C9B203298E
S11343B034DA0100C9B216EB810149680200D2B2B5
S11343C055F822204A650100C9B216EB81014968FB
S11343D00200D2B255F822208A65317D022905D027
S11343E0B169496849680978062915D10100C9B23B
S11343F016EB810149680200D2B215EB8202D26841
S1134400CA650100C9B216EB810149680200D2B243
S113441015EB8202D2680A66401CC6E7300000F041
S113442037F8002070BD2DE9F84304000D00160094
S11344301F00A0465FF000093B0032002900D8F8B5
S11344401800D8F818C09CF810C010EB8C00406815
S11344500068FFF76DFCBDE8F283F8B504002500A1
S113446000260020286028696968886000273800D1
S1134470C0B203280ADAA8693900C9B210EB810076
S113448040680068FFF75DFC7F1CF0E73000F2BD78
S113449070477047F8B52DED0A8B04000D00B0EE9F
S11344A0409AF0EE609AB0EE418AF0EE618A261DE1
S11344B0D5ED02BAD5ED01CA96ED020AD6ED030A8E
S11344C030EE600AD6ED000A6BEEA00A20EE800AF8
S11344D0D6ED030A00EEEC0AD6ED050A79EE200AC1
S11344E030EE800AD4ED000AC0EEAB0A20EE800A5A
S11344F0D6ED030A30EE20AAD6ED060AB0EE4A0A3B
S113450000F03AF910EE100AF06038EE400AD6EDE9
S1134510010A94ED001A60EE810A20EE800AD6EDBD
S1134520050A70EE20AA1AEE900A30611AEE900A7B
S1134530706118EE100AB06014F1200795ED03CAFB
S113454097ED020AD7ED030A30EE600AD7ED000AB0
S11345506CEE200A20EE800AD7ED030A00EEEC0A86
S1134560D7ED050A79EEA00A30EE800AD4ED000AF0
S1134570C0EE8C0A20EE800AD7ED030A30EE20BA92
S1134580D7ED060AB0EE4B0A00F0F6F810EE100A6A
S1134590F86038EEC00AD7ED010A94ED001A60EE17
S11345A0810A20EE800AD7ED050A30EE200A10EECB
S11345B0100A386110EE100A786118EE900AB8609B
S11345C0BDEC0A8BF1BDB0EE401A91ED030A60EE2A
S11345D0201A21EE210A90ED052A30EE420A704796
S11345E0B0EE401A91ED020A60EE201AB1EE610AB3
S11345F020EE010A90ED0C2A30EE420A70470021A9
S1134600C16000210161002141610021816100211B
S113461081620021C162002101630021416370476E
S113462038B52DED0C8B04000D00B0EE408AF0EE91
S1134630608AB0EE419A9FED410A68EE009A29EE35
S1134640A9AA94ED010AD4ED020AC0EE20AAB0EEA4
S1134650000A68EEA90A60EE800A70EEEABAD4EDA8
S1134660020A2AEE20CAD4ED010A94ED031A80EE60
S113467081BA68EEA90A20EE800A70EE4BCA94ED66
S1134680030A2AEE00DAB0EE4D2AF0EE6C1AB0EE10
S11346904C1AF0EE6B0AB0EE490A280000F055F807
S11346A0B0EE080ADFED260A94ED061A21EE201A70
S11346B021EE001A85ED071A94ED061A61EE200A20
S11346C020EE800A85ED0E0ABDEC0C8B31BDF1EEB7
S11346D0400A90ED001A20EE811AD0ED011A90EDF7
S11346E0022A00EEA12A80ED022AD0ED021A71EE10
S11346F0211AC1ED001A704710B52DED068B040088
S1134700F0EE408AB0EE609AB0EE418A9FED0B0A5B
S113471068EE809A29EE890AF0EE000A20EE20AABB
S113472029EEA90A60EE08AAF0EE6A0AB0EE4A0A77
S1134730200000F01AF8BDEC068B10BDDB0FC94059
S1134740D7B3DD3F00218160704710EE101A01607D
S113475010EE901A416011EE101A816011EE901A59
S1134760016212EE101A4162704710EE101A0160D5
S113477010EE901A4160704780B52DED048BB0EEB9
S1134780408AF0EE608A18EE100A30F0004009EE1C
S1134790100AF4EE498AF1EE10FA07D5F0EE480A51
S11347A0B0EE680A00F02CF8B0EE408AB0EE480A89
S11347B0BDEC048B01BD0000B0EE402ADFED0D2AF4
S11347C020EE810A20EE210A32EE000A9FED0A3A19
S11347D0B4EE430AF1EE10FA04DBDFED082A30EE02
S11347E0220A06E0B5EE400AF1EE10FA01D530EEE9
S11347F0030A704700000000DB0FC940DB0FC9C08B
S113480010EE900AB0EEC00A004248BFB1EE400A72
S113481070470000DFED131A92ED032A22EE202ADE
S113482021EE022AD2ED012A02EEC02AD0ED002A9E
S113483072EEC22AC0ED002AD2ED022A62EE802A6C
S113484092ED043A72EE832A61EE222A92ED013A45
S113485043EE202A91ED003A33EE223A81ED003AFC
S1134860704700BF0000000010B504000020E060A5
S11348700020A06014F12C0000F0AAF810BD10B5BF
S11348802DED048B0400F0EE408AB0EE608A94EDC6
S1134890069A94ED030A78EE409AB0EE690A14F190
S11348A02C0000F0C9F8D4ED000A60EE200A94ED63
S11348B0021A00EE891A84ED021A94ED011A20EE10
S11348C0011AF7EE001A94ED042AC1EE821A94ED4F
S11348D0022A38EEC22A01EE821AD4ED031A41EEFE
S11348E0091AC4ED031ABDEC048B10BD90ED030A44
S11348F0704790ED020A70470000000080B52DED6E
S1134900048BB0EE408AF0EE608A18EE100A30F0A4
S1134910004009EE100AF4EE498AF1EE10FA07D5C8
S1134920F0EE480AB0EE680AFFF76AFFB0EE408A7C
S1134930B0EE480ABDEC048B01BD002101600021EA
S11349404160002181600021C160002101610021DA
S11349504161002181610021C161002101620021C6
S113496041627047002101600021416000218160A3
S11349700021C1607047F0EE400A90ED080A90ED06
S1134980001A20EE011A90ED090AD0ED011A60EE2A
S1134990211A90ED020AB0EE002AF0EE602A40EEF1
S11349A0022A90ED030A32EE802A32EE410A30EEFA
S11349B0610AD0ED072A20EE220A8168C16010EE58
S11349C0901A81600168416010EE101A016070470E
S11349D00021016000214160002181600021C1604B
S11349E000210161704700009FED121A20EE011AA8
S11349F021EE201A80ED021AB0EE001AD0ED021A50
S1134A0031EE611AD0ED021AB0EE002A71EE821A6C
S1134A1081EE211A80ED031A90ED021AF0EE001ACD
S1134A2031EE211AD0ED021A81EE811A80ED041ABA
S1134A3070470000DB0FC940F0EE400A90ED030A16
S1134A4090ED001A20EE010A90ED011A30EE811A61
S1134A50D0ED041A01EE210A10EE901A416010EE16
S1134A60101A01607047000080B52DED048BF0EE44
S1134A70408AB0EE608A28EEA89A08EE489AB5EE0D
S1134A80409AF1EE10FA02D59FED990A03E0B0EED8
S1134A90490A00F0C5F9BDEC048B01BD80B52DEDCC
S1134AA0028BF0EE408AB0EE608A28EEA80A08EE87
S1134AB0080A00F0B5F9BDEC028B01BDF6EE000A60
S1134AC0B4EE600AF1EE10FA11DBDFED8A0AB4EEFF
S1134AD0600AF1EE10FA0AD510EE101A8160018B0B
S1134AE049F20402914205D10021018302E049F216
S1134AF0040101837047008B10F4704F01D0012032
S1134B0000E00020C0B27047008B10F47040B0F594
S1134B10104F01D1012000E00020C0B27047000016
S1134B2038B52DED028B0400F0EE408AB0EE608AB9
S1134B300D002900200000F0E1F8B0EE480A200042
S1134B4000F059F9B0EE680A200000F02CF99FED4E
S1134B506A0A2000FFF7B2FFBDEC028B31BD10B52D
S1134B6004002000FFF7D0FF002801D1002020839B
S1134B7010BD0000F8B52DED108B04000D00B0EE53
S1134B80408AF0EE608AB0EE41FA16001F00D5EDBF
S1134B9004CA95ED02DAD5ED03DA95ED01EA288829
S1134BA000EE100AB8EE400A60EE08EA2000FFF7B3
S1134BB0A2FF002801D0208B96E0F0EE4F0AB0EE61
S1134BC0680AFFF76BFF20EE0E0AD4ED010A70EEBF
S1134BD0C00A94ED021A60EE819A19EE900A60619F
S1134BE069EEA90A2EEEAE1A6DEE0D1A21EE211A07
S1134BF080EE81CAD4ED030A94ED031A00EEC1CA13
S1134C00D4ED000A94ED001A00EEC1CAD4ED030AF3
S1134C10B8EE001A60EE810A8CEE20AAB5EE40AA26
S1134C20F1EE10FA02DDD4ED00AA15E094ED030ACA
S1134C30B4EE40AAF1EE10FA06D52DEEAE0A89EED6
S1134C40800AF0EEC0AA07E0F0EE4A0A94ED000AEA
S1134C50FFF70AFFF0EE40AA97ED009AF4EE49AA96
S1134C60F1EE10FA02D5B0EE6A9A0AE0B1EE6A0AE1
S1134C70B4EE409AF1EE10FA03D5B1EE6A0AB0EE42
S1134C80409A89EEAEBA6DEE89BAF0EE6B0AB0EED8
S1134C904B0AFFF7E9FEF0EE400A30EEEC0A80EE34
S1134CA00D0A94ED041AB4EE401AF1EE10FA06DB84
S1134CB094ED041AB0EE410A022020830DE0B5EE13
S1134CC0400AF1EE10FA06DB9FED091AB0EE410A34
S1134CD00020208301E00120208310EE100A3060C0
S1134CE019EE100A3860208BBDEC108BF2BD000069
S1134CF0000000000100803F3333733F10B40029EB
S1134D0001D0012200E00022D2B2002A08D091EDA5
S1134D10040AB5EE400AF1EE10FA01DD012200E0CA
S1134D200022D2B2002A08D091ED020AB5EE400A60
S1134D30F1EE10FA01DD012200E00022D2B2002AD5
S1134D4008D091ED030AB5EE400AF1EE10FA01DD48
S1134D50012200E00022D2B2002A08D091ED010A1B
S1134D60B5EE400AF1EE10FA01DD012200E0002266
S1134D701300DBB2002B11D091ED040AD1ED020A2D
S1134D8080EE200AB1EE400A80ED030A038B49F25B
S1134D900104A34205D10023038302E049F2010385
S1134DA0038310BC7047B5EE400AF1EE10FA1EDD25
S1134DB010EE101A0160D0ED000AF1EE600A90EDD9
S1134DC0031AF4EE410AF1EE10FA02D5C16801614A
S1134DD005E0D0ED000AF1EE600AC0ED040A018B93
S1134DE049F20202914205D10021018302E049F215
S1134DF0020101837047B5EE400AF1EE10FA0ADDB4
S1134E0010EE101A4160018B49F20302914205D160
S1134E100021018302E049F203010183704700008D
S1134E20B5EEC00AF1EE10FA02D4B1EEC00A704732
S1134E306FF0004C00EE10CAAFF300807047000022
S1134E40F0EE001A60EEA11A9FED112A60EE022A1C
S1134E5021EEA22A90ED053A22EE033A22EEA22A8E
S1134E60D0ED053A22EE232A22EE012A028803EE2F
S1134E70902AF8EE633A90ED044A63EE843A83EEA6
S1134E80234A81ED014A82EE234A81ED024A7047AA
S1134E90DB0FC94010B4644B0400A4B224124022B6
S1134EA054431A1903009BB203F0FF0342F8231082
S1134EB010BC70470021EFF31082012080F31088AA
S1134EC05A4B1868002804D1594800210170402128
S1134ED001701868401C186082F310887047002223
S1134EE0EFF31081012080F31088504B18680028DC
S1134EF002D01868401E18601868002804D14C4875
S1134F00002202708022027081F3108870472DE91C
S1134F10F84F04000D0026006F69DFF8188130682F
S1134F20404523D0C6F88050B8687060B889308195
S1134F30300000F073F997F8380086F85A0016F13B
S1134F40680017F164011822FCF7B2FA97ED1B0A06
S1134F5016F1680001F01EF997ED1C0A16F16800BD
S1134F6001F036F9A868002854D001E00E2058E07A
S1134F70A86800900098406897F8501010EB8100E2
S1134F80D0F80490D9F804B0DBF81CA09AF801001A
S1134F90002803D1DFF8500EF06502E0DFF84C0E74
S1134FA0F0659AF80300012803D1DFF83C0E30665F
S1134FB002E0DFF8380E3066A8684168A868006827
S1134FC0AA6892681268904797F8460001280CD1A5
S1134FD016F1A80332000FF61961D9F80000D9F8C8
S1134FE008C0DCF82CC0E04708E096ED1E1AD6EDA8
S1134FF01E0A96ED1E0A300000F05DF9788F002835
S113500002D0300000F086FEA8680068A9688968AC
S1135010496888472900300000F01AFFC6F800806C
S11350200020BDE8F28F000000F801406005002078
S11350300CFD01404152444DF8B504002500D5F85B
S113504080607769788F002802D0280000F062FE23
S1135050280000F0E3F8280000F048FFB0680028BA
S113506005D0B0680068B1688968896988470020FC
S113507028600020F2BDF8B504002500D5F8806052
S11350807769A86FA862A86FE862A86F286395ED96
S11350901E1AD5ED1E0A95ED1E0A280000F00BF924
S11350A0788F002802D0280000F034FE280000F099
S11350B0B5F80020F2BD01000A0010EE100A90625B
S11350C010EE900AD06211EE100A106300207047AF
S11350D038B504002500012085F8540095F8340003
S11350E0012806D195F86400012802D1280000F0B7
S11350F0C6FD002032BD01000A00002082F85400E1
S11351000020704770B504000D002600F068286088
S1135110306968607069A860B069E86096F85A10F0
S113512016F1680001F06CF885ED040A002070BDEA
S113513002001300D8690860186A4860586A8860D9
S1135140002070470200130093F834000870002018
S1135150704701000A00002082F834000020D08645
S1135160002090640020D064002010650020704767
S1135170F8B504000D0026006F69C6F88050B868C1
S11351807060B889308116F1680017F16401182243
S1135190FCF78EF997ED1B0A16F1680000F0FAFF90
S11351A097ED1C0A16F1680001F012F80020F2BD18
S11351B00200130093F857000870002070472DE98F
S11351C0F0412DED028B04002600D6F88070D7F84C
S11351D01480B8F83650B6F85800401CA6F85800A9
S11351E0B6F85800290089B2884205D3012086F810
S11351F05700A6F858500CE0B6EE000AB0EE408A0C
S1135200B0EE481AF0EE480AB0EE480A200000F06A
S113521052F80020BDEC028BBDE8F08170B50400AB
S1135220D4F880506E690020E060002020610020E6
S113523060610020A0610020A0620020E0620020E4
S113524020630020E0610020206200206062B08EB4
S113525000F0FCFF41EC100B01F009F851EC100BCD
S113526001F00CF82087002084F834000020E08648
S11352700020E06300202064002060640020A0641B
S11352800020E0640020206596F8380084F85A0075
S1135290002084F85B00002084F87C00002084F85F
S11352A057000020A4F85800002084F8540001207E
S11352B084F8640070BD2DE9F84F2DED048B88B09F
S11352C00500B0EE408AF0EE608AB0EE419AD5F85F
S11352D0800000900098D0F81490D5F8800084687D
S11352E0002000210022D5F804A0B5F808B01FFA68
S11352F08BFB5FEA5B0B00EE10AAB8EE400A20EECF
S1135300080ABCEEC00A10EE103ABAEB030313FA13
S11353108BF600EE10AAB8EE400A20EE280ABCEE86
S1135320C00A10EE103ABAEB030313FA8BF700EE3F
S113533010AAB8EE400A20EE090ABCEEC00A10EE2C
S1135340103ABAEB030313FA8BF801960297CDF8DF
S11353500C8099F84630012B03D104960597CDF8BB
S11353601880002C04D001A92068A2681269904713
S113537008B0BDEC048BBDE8F18F2DE9F0438BB090
S1135380050000260E2100226C462000FBF79EF843
S11353901C21002204AC2000FBF798F8D5F880808B
S11353A0D8F81470D8F80040002C33D06A4697F827
S11353B054102068E3689B6998470DF1020297F83E
S11353C055102068E3689B69984701AA97F856101E
S11353D02068E3689B6998470DF1060297F8571017
S11353E02068E3689B69984702AA97F858102068D8
S11353F0E3689B6998470DF10A0297F859102068F1
S1135400E3689B69984703AA97F85A102068E368F1
S11354109B699847BDF8000004900499788D091A97
S113542004910DF1100969468888C9F80800D9F873
S11354300820788D121AC9F8082097F84600032826
S113544009D14888C9F80400D9F80420788D121AC3
S1135450C9F8042006E0049AD9F8080082185242D8
S1135460C9F80420C888C9F80C00D9F80C20B7F989
S11354702E00121AC9F80C200889C9F81000D9F8AE
S11354801020B7F92C00121AC9F810204889C9F85D
S11354901400D9F81420B7F92C00121AC9F81420F2
S11354A08889C9F81800D9F81810B7F92C00091A16
S11354B0C9F8181095F8540001283DD195F8340026
S11354C000283CD1012095F8381011F00F018840D4
S11354D00600E88E310089B2884211D2A96C049882
S11354E04118A964E96CD9F804004118E964296DEC
S11354F0D9F8080041182965E88E401CE8861EE0AA
S1135500A86C95F8381011F00F010841E863E86CB5
S113551095F8381011F00F0108412864286D95F8AA
S1135520381011F00F0108416864012085F8340037
S1135530280000F0A4FB02E0280000F0EBFB95F843
S1135540340001281BD10499E86B091A0491D9F895
S11355500810686C091AC9F8081097F8460003285F
S113556006D1D9F80410286C091AC9F8041006E009
S11355700499D9F8080041184942C9F804109DED6E
S1135580040AB8EEC00AD7ED070A20EE600A85EDDA
S1135590030A99ED010AB8EEC00AD7ED070A20EE16
S11355A0600A85ED040A99ED020AB8EEC00AD7ED47
S11355B0070A20EE600A85ED050A99ED030AB8EEA4
S11355C0C00AD7ED080A20EE200A85ED060A99EDF7
S11355D0040AB8EEC00AD7ED090A20EE200A85EDC8
S11355E0070A99ED050AB8EEC00AD7ED090A20EEBC
S11355F0200A85ED080A99ED060AB8EEC00AD7ED2F
S1135600090A20EE200A85ED090A0BB0BDE8F083F3
S11356102DE9F04F97B0040000250821002203AEC5
S11356203000FAF753FF082100226E463000FAF7E3
S11356304DFF002006901C21002207AE3000FAF72F
S113564045FF5FF0000A5FF0000BD4F8800005907E
S1135650059846690598D0F8009003AA96F8571063
S1135660D9F80000D9F80C309B6998470DF10E0267
S113567096F85810D9F80000D9F80C309B6998476F
S113568004AA96F85910D9F80000D9F80C309B698F
S113569098470DF1120296F85A10D9F80000D9F87B
S11356A00C309B6998470EAA0121D9F80000FDF738
S11356B052F80FA801680905090D026861F30F0289
S11356C002600F98ADF80A0010A801680905090DD9
S11356D0026861F30F0202601098ADF8080007AF8A
S11356E0BDF80C00F860F968B6F92E00091AF960E3
S11356F003A9488838613A69B6F92C00121A3A614C
S1135700888878617A69B6F92C00121A7A61C88897
S1135710B861B969B6F92C00091AB96197ED030AA1
S1135720B8EEC00AD6ED080A20EE200A84ED060A77
S113573097ED040AB8EEC00AD6ED090A20EE200A55
S113574084ED070A97ED050AB8EEC00AD6ED090AFA
S113575020EE200A84ED080A97ED060AB8EEC00A86
S1135760D6ED090A20EE200A84ED090ABDF80A00E4
S11357700090E846BDF80800C8F804000099708D50
S1135780091A0091718DD8F80400091AC8F8041098
S113579094F85400012831D194F83400002830D111
S11357A0012094F8381011F00F0188400500E08EB4
S11357B0290089B288420CD2A16C00984118A164D6
S11357C0216DD8F8040041182165E08E401CE08664
S11357D017E0A06C94F8381011F00F010841E06351
S11357E0206D94F8381011F00F0108416064012015
S11357F084F83400200000F042FA02E0200000F0B7
S113580089FA94F83400012809D10099E06B091A47
S11358100091D8F80410606C091AC8F804100098B4
S1135820D8F804100918494294F85500002803D008
S1135830022821D010D32FE00098079094F8560046
S1135840012804D1D8F80400B860796003E0D8F8DE
S113585004007860B9601FE00098786094F85600FE
S1135860022804D1D8F804000790B96003E0D8F8FE
S11358700400B86007910FE00098B86094F85600EF
S1135880002804D1D8F804007860079103E0D8F820
S1135890040007907960FFE79DED070AB8EEC00A9F
S11358A0D6ED070A20EE200A84ED030A97ED010ADB
S11358B0B8EEC00AD6ED070A20EE200A84ED040AE9
S11358C097ED020AB8EEC00AD6ED070A20EE200AC8
S11358D084ED050A17B0BDE8F08F38B588B0040030
S11358E005A800210022002380E80E0002A8002160
S11358F00022002380E80E00D4F880004569A069E6
S1135900A066A06A059005A8E16A4160216B8160E8
S113591094F85A00019014F15B00009002AB05AAC0
S113592015F1640114F1680000F0C6FB02A890EDC3
S1135930021AD0ED010A9DED020A2000FFF7BBFC1C
S113594009B030BD2DE9F84FA0B0040014A800211F
S11359500022002380E80E0011A800210022002369
S113596080E80E000025002600275FF000080020D4
S11359700590002006905FF000095FF0000A5FF0D8
S1135980000B0A2010900A200F9000200E90002097
S11359900D9000200C9000200B9000200A90002015
S11359A0099060680490208980B24008ADF80A002C
S11359B0D4F8800040690390D4F88000806808908F
S11359C008984068039991F8501010EB81004068E2
S11359D007900898002800F0428117A907980068EA
S11359E0079A9268526A904719980690A069A0662F
S11359F0A06A149014A8E16A4160216B816094F854
S1135A005A00019014F15B00009011AB14AA0398A2
S1135A1010F1640114F1680000F04EFB04999DED4F
S1135A20040AB8EE400ADDED110A20EE200ABCEEAD
S1135A30C00A10EE100A091ABDF80A0011FA80F023
S1135A40814611A9049A9DED040AB8EE400AD1EDED
S1135A50010A20EE200ABCEEC00A10EE100A121A47
S1135A60BDF80A0012FA80F08246049A9DED040AF9
S1135A70B8EE400AD1ED020A20EE200ABCEEC00ABC
S1135A8010EE100A121ABDF80A0012FA80F08346CA
S1135A9000208DF80900012084F85600022084F8C3
S1135AA05500D14510DACDF81490D14605988246B8
S1135AB09DF809008DF8080094F856008DF8090047
S1135AC09DF8080084F85600D94510DACDF81490F2
S1135AD0D946059883469DF809008DF8080094F886
S1135AE055008DF809009DF8080084F85500DA4542
S1135AF010DACDF814A0DA460598834694F85600D7
S1135B008DF8080094F8550084F856009DF80800B4
S1135B1084F85500BAEB0B000399896C884211DABA
S1135B200398806C10EB0B0007000698401EB842E7
S1135B3002DA0698401E0700BAEB07001AEB0000D1
S1135B40804601E05746D046B9EB07000399896CBB
S1135B50884210DA0398806CC01905000698401E2C
S1135B60A84202DA0698401E0500B9EB050019EBBD
S1135B700000060001E04D464E46B8F1010F01DA7F
S1135B8001208046012E01DA012006000398816C71
S1135B90791A0398C06C411810910398816C691AA2
S1135BA00398C06C41180F9194F85500002803D055
S1135BB002280BD005D30EE0CDF838B0CDF834B0C0
S1135BC009E0CDF830B0CDF82CB004E0CDF828B021
S1135BD0CDF824B0FFE794F85600002803D002283B
S1135BE009D004D30BE00E97CDF8348007E00C976E
S1135BF0CDF82C8003E00A97CDF82480FFE79DF8C8
S1135C000900002803D0022807D003D308E00E952A
S1135C100D9605E00C950B9602E00A950996FFE7B0
S1135C200E981A900C981B900A981C900D981D9031
S1135C300B981E9009981F901AA908980068089A52
S1135C40926812699047109A002107980068FEF73D
S1135C5056F80F9A032107980068FEF750F821B010
S1135C60BDE8F08F38B504000D00FFF723F92900D3
S1135C70200080B2FFF70EF9FFF731F931BD2DE9AD
S1135C80F047040094F86400012841D1D4F880500E
S1135C906E69AF687868D0F804807868D0F80890A6
S1135CA07868D0F80CA0E06D50F48030E065206E88
S1135CB050F480302066E16D708FFFF7D3FF216EC2
S1135CC0B08FFFF7CFFFE16DF08FFFF7CBFF216EB1
S1135CD0B6F84000FFF7C6FFE16DB6F84200FFF7E3
S1135CE0C1FF216EB6F84400FFF7BCFF0221D8F8CB
